{
  "_format": "hh-sol-artifact-1",
  "contractName": "PionerV1Open",
  "sourceName": "contracts/Functions/PionerV1Open.sol",
  "abi": [
    {
      "inputs": [
        {
          "internalType": "address",
          "name": "_pionerV1",
          "type": "address"
        },
        {
          "internalType": "address",
          "name": "_pionerV1Compliance",
          "type": "address"
        }
      ],
      "stateMutability": "nonpayable",
      "type": "constructor"
    },
    {
      "inputs": [],
      "name": "ECDSAInvalidSignature",
      "type": "error"
    },
    {
      "inputs": [
        {
          "internalType": "uint256",
          "name": "length",
          "type": "uint256"
        }
      ],
      "name": "ECDSAInvalidSignatureLength",
      "type": "error"
    },
    {
      "inputs": [
        {
          "internalType": "bytes32",
          "name": "s",
          "type": "bytes32"
        }
      ],
      "name": "ECDSAInvalidSignatureS",
      "type": "error"
    },
    {
      "inputs": [],
      "name": "InvalidShortString",
      "type": "error"
    },
    {
      "inputs": [
        {
          "internalType": "string",
          "name": "str",
          "type": "string"
        }
      ],
      "name": "StringTooLong",
      "type": "error"
    },
    {
      "anonymous": false,
      "inputs": [],
      "name": "EIP712DomainChanged",
      "type": "event"
    },
    {
      "anonymous": false,
      "inputs": [
        {
          "indexed": true,
          "internalType": "uint256",
          "name": "bContractId",
          "type": "uint256"
        }
      ],
      "name": "acceptQuoteEvent",
      "type": "event"
    },
    {
      "anonymous": false,
      "inputs": [
        {
          "indexed": true,
          "internalType": "uint256",
          "name": "bContractId",
          "type": "uint256"
        }
      ],
      "name": "cancelOpenQuoteEvent",
      "type": "event"
    },
    {
      "anonymous": false,
      "inputs": [
        {
          "indexed": true,
          "internalType": "address",
          "name": "sender",
          "type": "address"
        },
        {
          "indexed": true,
          "internalType": "bytes",
          "name": "messageHash",
          "type": "bytes"
        }
      ],
      "name": "cancelSignedMessageOpenEvent",
      "type": "event"
    },
    {
      "anonymous": false,
      "inputs": [
        {
          "indexed": true,
          "internalType": "uint256",
          "name": "bContractId",
          "type": "uint256"
        }
      ],
      "name": "openQuoteEvent",
      "type": "event"
    },
    {
      "anonymous": false,
      "inputs": [
        {
          "indexed": true,
          "internalType": "uint256",
          "name": "bContractId",
          "type": "uint256"
        },
        {
          "indexed": true,
          "internalType": "bytes",
          "name": "fillAPIEventId",
          "type": "bytes"
        }
      ],
      "name": "openQuoteSignedEvent",
      "type": "event"
    },
    {
      "inputs": [
        {
          "internalType": "uint256",
          "name": "bContractId",
          "type": "uint256"
        },
        {
          "internalType": "uint256",
          "name": "_acceptPrice",
          "type": "uint256"
        },
        {
          "internalType": "address",
          "name": "backendAffiliate",
          "type": "address"
        }
      ],
      "name": "acceptQuote",
      "outputs": [],
      "stateMutability": "nonpayable",
      "type": "function"
    },
    {
      "inputs": [
        {
          "components": [
            {
              "internalType": "uint256",
              "name": "bContractId",
              "type": "uint256"
            },
            {
              "internalType": "uint256",
              "name": "acceptPrice",
              "type": "uint256"
            },
            {
              "internalType": "address",
              "name": "backendAffiliate",
              "type": "address"
            },
            {
              "internalType": "uint256",
              "name": "amount",
              "type": "uint256"
            },
            {
              "internalType": "uint256",
              "name": "nonce",
              "type": "uint256"
            }
          ],
          "internalType": "struct PionerV1Utils.AcceptQuoteSign",
          "name": "acceptQuoteSign",
          "type": "tuple"
        },
        {
          "internalType": "bytes",
          "name": "signHash",
          "type": "bytes"
        }
      ],
      "name": "acceptQuoteSigned",
      "outputs": [],
      "stateMutability": "nonpayable",
      "type": "function"
    },
    {
      "inputs": [
        {
          "internalType": "uint256",
          "name": "bContractId",
          "type": "uint256"
        }
      ],
      "name": "cancelOpenQuote",
      "outputs": [],
      "stateMutability": "nonpayable",
      "type": "function"
    },
    {
      "inputs": [
        {
          "components": [
            {
              "internalType": "bytes",
              "name": "orderHash",
              "type": "bytes"
            },
            {
              "internalType": "uint256",
              "name": "nonce",
              "type": "uint256"
            }
          ],
          "internalType": "struct PionerV1Utils.CancelRequestSign",
          "name": "cancelRequest",
          "type": "tuple"
        },
        {
          "internalType": "bytes",
          "name": "signature",
          "type": "bytes"
        }
      ],
      "name": "cancelSignedMessageOpen",
      "outputs": [],
      "stateMutability": "nonpayable",
      "type": "function"
    },
    {
      "inputs": [],
      "name": "eip712Domain",
      "outputs": [
        {
          "internalType": "bytes1",
          "name": "fields",
          "type": "bytes1"
        },
        {
          "internalType": "string",
          "name": "name",
          "type": "string"
        },
        {
          "internalType": "string",
          "name": "version",
          "type": "string"
        },
        {
          "internalType": "uint256",
          "name": "chainId",
          "type": "uint256"
        },
        {
          "internalType": "address",
          "name": "verifyingContract",
          "type": "address"
        },
        {
          "internalType": "bytes32",
          "name": "salt",
          "type": "bytes32"
        },
        {
          "internalType": "uint256[]",
          "name": "extensions",
          "type": "uint256[]"
        }
      ],
      "stateMutability": "view",
      "type": "function"
    },
    {
      "inputs": [
        {
          "internalType": "bool",
          "name": "isLong",
          "type": "bool"
        },
        {
          "internalType": "uint256",
          "name": "bOracleId",
          "type": "uint256"
        },
        {
          "internalType": "uint256",
          "name": "price",
          "type": "uint256"
        },
        {
          "internalType": "uint256",
          "name": "amount",
          "type": "uint256"
        },
        {
          "internalType": "uint256",
          "name": "interestRate",
          "type": "uint256"
        },
        {
          "internalType": "bool",
          "name": "isAPayingAPR",
          "type": "bool"
        },
        {
          "internalType": "address",
          "name": "frontEnd",
          "type": "address"
        },
        {
          "internalType": "address",
          "name": "affiliate",
          "type": "address"
        }
      ],
      "name": "openQuote",
      "outputs": [],
      "stateMutability": "nonpayable",
      "type": "function"
    },
    {
      "inputs": [
        {
          "components": [
            {
              "internalType": "bool",
              "name": "isLong",
              "type": "bool"
            },
            {
              "internalType": "uint256",
              "name": "bOracleId",
              "type": "uint256"
            },
            {
              "internalType": "uint256",
              "name": "price",
              "type": "uint256"
            },
            {
              "internalType": "uint256",
              "name": "amount",
              "type": "uint256"
            },
            {
              "internalType": "uint256",
              "name": "interestRate",
              "type": "uint256"
            },
            {
              "internalType": "bool",
              "name": "isAPayingAPR",
              "type": "bool"
            },
            {
              "internalType": "address",
              "name": "frontEnd",
              "type": "address"
            },
            {
              "internalType": "address",
              "name": "affiliate",
              "type": "address"
            },
            {
              "internalType": "address",
              "name": "authorized",
              "type": "address"
            },
            {
              "internalType": "uint256",
              "name": "nonce",
              "type": "uint256"
            }
          ],
          "internalType": "struct PionerV1Utils.OpenQuoteSign",
          "name": "openQuoteSign",
          "type": "tuple"
        },
        {
          "internalType": "bytes",
          "name": "signHash",
          "type": "bytes"
        },
        {
          "internalType": "address",
          "name": "warperSigner",
          "type": "address"
        }
      ],
      "name": "openQuoteSigned",
      "outputs": [],
      "stateMutability": "nonpayable",
      "type": "function"
    }
  ],
  "bytecode": "0x61016034620001cb57620049e8906001600160401b0390601f38849003908101601f191682019083821183831017620001b55780839160409687948552833981010312620001cb576200006060206200005883620001ec565b9201620001ec565b8351916200006e83620001d0565b600c835260208301916b2834b7b732b92b18a7b832b760a11b835285516200009681620001d0565b6003815260208101620312e360ec1b8152620000b28662000201565b94610120958652620000c483620003d4565b96610140978852519020918260e052519020610100978189524660a05280519160208301937f8b73c3c69bb8fe3d512ecc4cf759cc79239f7b179b0ffacaa9a75d522b39400f85528284015260608301524660808301523060a083015260a0825260c082019782891090891117620001b5578790525190206080523060c052600280546001600160a01b039384166001600160a01b03199182161790915560038054929093169116179055614466938462000582853960805184613c34015260a05184613cff015260c05184613bfe015260e05184613c8301525183613ca901525182612037015251816120610152f35b634e487b7160e01b600052604160045260246000fd5b600080fd5b604081019081106001600160401b03821117620001b557604052565b51906001600160a01b0382168203620001cb57565b80516020919082811015620002a0575090601f8251116200023f57808251920151908083106200023057501790565b82600019910360031b1b161790565b90604051809263305a27a960e01b82528060048301528251908160248401526000935b82851062000286575050604492506000838284010152601f80199101168101030190fd5b848101820151868601604401529381019385935062000262565b6001600160401b038111620001b5576000928354926001938481811c91168015620003c9575b83821014620003b557601f81116200037f575b5081601f841160011462000318575092829391839286946200030c575b50501b916000199060031b1c191617905560ff90565b015192503880620002f6565b919083601f1981168780528488209488905b888383106200036457505050106200034a575b505050811b01905560ff90565b015160001960f88460031b161c191690553880806200033d565b8587015188559096019594850194879350908101906200032a565b85805284601f848820920160051c820191601f860160051c015b828110620003a9575050620002d9565b87815501859062000399565b634e487b7160e01b86526022600452602486fd5b90607f1690620002c6565b805160209081811015620004625750601f8251116200040157808251920151908083106200023057501790565b90604051809263305a27a960e01b82528060048301528251908160248401526000935b82851062000448575050604492506000838284010152601f80199101168101030190fd5b848101820151868601604401529381019385935062000424565b9192916001600160401b038111620001b55760019182548381811c9116801562000576575b828210146200056057601f811162000527575b5080601f8311600114620004da575081929394600092620004ce575b5050600019600383901b1c191690821b17905560ff90565b015190503880620004b6565b90601f198316958460005282600020926000905b8882106200050f57505083859697106200034a57505050811b01905560ff90565b808785968294968601518155019501930190620004ee565b8360005283601f83600020920160051c820191601f850160051c015b828110620005535750506200049a565b6000815501849062000543565b634e487b7160e01b600052602260045260246000fd5b90607f16906200048756fe608080604052600436101561001357600080fd5b600090813560e01c9081632ee82297146127fb5750806355877865146122d15780635bf375fb1461212b57806384b0196e1461202157806385d047df14611948578063a6d2634114610cfa5763ea2665f51461006e57600080fd5b346107ae573660031901610180811261082a57610140136107ae57610144356001600160401b03811161082a576100a9903690600401613708565b90919061016435906001600160a01b03821682036107fe576100c9613d25565b906100d2613d34565b6100da613d59565b6100e2613d6f565b906100eb613d85565b604080517f1679d6be374c935ea61a3f784ee58f9582e758a18d44398ff8d5d56eea21fdbd6020820152961515908701526024356060870152604435608087015260643560a087015260843560c087015292151560e08601526001600160a01b0390811661010086015290811661012085015216610140830152610124356101608084019190915282526001600160401b03610180830190811190831117610b88576101bc6101ab836101806101c5950160405260208151910120613bd5565b6101b63684896139ef565b90613a84565b90939193613b50565b6002546040516339bbfb9160e01b81526001600160a01b0390911690602081806101f487878c60048501613d9c565b0381855afa908115610b49578691610cc8575b5060405163f0649dcf60e01b815290602082600481865afa9081156108da578791610c92575b6102379250613dc5565b4211801590610c23575b61024a90613de8565b803b156107bc576040516329d1cc0160e21b815260606004820152908590829081838161027b60648201898e613a35565b6001600160a01b038a1660248301526001604483015203925af1801561089b57908591610c0f575b506001600160a01b0390506102b6613d85565b16158015610bed575b15610b9e5760405163f82c50f160e01b602082015260016024820152602481528060608101106001600160401b03606083011117610b8857848160608293016040526020815191016a636f6e736f6c652e6c6f675afa50600254604051634e09898960e11b81526001600160a01b039091169590936020856004818a5afa948515610b49578695610b54575b506040519463a1595d4560e01b865260048601526101c0856024818a5afa948515610b49578695610b16575b50604051966301d3e56960e61b8852602435600489015261038088602481845afa9788156108da578798610ae3575b50604051630312cfbf60e31b81526001600160a01b0386166004820152602081602481855afa908115610a2f578891610ab1575b50604051633205b1d760e01b815290602082600481865afa908115610a70578991610a7b575b61040c925011156140a6565b670de0b6b3a76400006104236044356064356140db565b604051630ed2a3af60e11b8152919004602082600481865afa908115610a70578991610a3a575b610456925010156140ee565b6003546040516304a62ae360e51b81526001600160a01b03878116600483015260006024830152909160209183916044918391165afa908115610a2f579086929189916109ea575b506104a890614123565b6001600160a01b0382166060880152604435608088015260643560a088015260843560c08801526104d7613d34565b151560e0880152602435604088015260016101208801526001600160a01b036104fe613d59565b166101408801526001600160a01b03610515613d6f565b16610180880152610524613d25565b15610966575060206105929160018060a01b0360025416670de0b6b3a76400006105748c8261056e6101e0830151926105696044359461022060643593015190613dc5565b6140db565b046140db565b048a60405180968195829463e95e380f60e01b845260048401614159565b03925af180156108da5761093b575b506001600160a01b03841685525b6001600160a01b0381166108e5575b50600254604051634e09898960e11b81526001600160a01b03909116929091602083600481875afa9283156108da5787936108a6575b50816040519283928337810160008152039020604051917f34b62a9164e2ee927716abdade77f7d166a5320d0daf8f2f55337b33d71ae3d98780a3634e09898960e11b8152602081600481855afa90811561089b578591610869575b50813b156107bc5784916101e483926040519485938492630c965b3160e01b84526004840152610683602484018a6141b5565b5af1801561080b57908491610855575b50506002546001600160a01b0316803b1561083957838091600460405180948193630cdbf96760e01b83525af1801561080b5790849161083d575b50506002546001600160a01b031690813b1561083957604051639023196160e01b81526001600160a01b0390911660048201529083908290602490829084905af1801561082e57908391610816575b5050600254604051634e09898960e11b81526001600160a01b039091169390602081600481885afa90811561080b5784916107d4575b5060001981019081116107c0578484953b156107bc5761078d9385809460405196879586948593636184e6eb60e11b85526004850161439d565b03925af180156107b15761079e5750f35b6107a790613775565b6107ae5780f35b80fd5b6040513d84823e3d90fd5b8480fd5b634e487b7160e01b84526011600452602484fd5b90506020813d602011610803575b816107ef602093836137a3565b810103126107fe575138610753565b600080fd5b3d91506107e2565b6040513d86823e3d90fd5b61081f90613775565b61082a57813861071d565b5080fd5b6040513d85823e3d90fd5b8380fd5b61084690613775565b6108515782386106ce565b8280fd5b61085e90613775565b610851578238610693565b90506020813d602011610893575b81610884602093836137a3565b810103126107fe575138610650565b3d9150610877565b6040513d87823e3d90fd5b9092506020813d6020116108d2575b816108c2602093836137a3565b810103126107fe575191386105f4565b3d91506108b5565b6040513d89823e3d90fd5b6001600160a01b038481169116036108fd57386105be565b60405162461bcd60e51b81526020600482015260166024820152750eec2e4e0cae4a6d2cedccae440dad2e6e6dac2e8c6d60531b6044820152606490fd5b602090813d831161095f575b61095181836137a3565b810103126107fe57386105a1565b503d610947565b61099b91602091670de0b6b3a76400006105748c8261056e610200830151926105696044359461024060643593015190613dc5565b03925af180156108da576109bf575b506001600160a01b03841660208601526105af565b602090813d83116109e3575b6109d581836137a3565b810103126107fe57386109aa565b503d6109cb565b919250506020813d602011610a27575b81610a07602093836137a3565b81010312610a2357906104a8610a1d8793613e38565b9061049e565b8780fd5b3d91506109fa565b6040513d8a823e3d90fd5b90506020823d602011610a68575b81610a55602093836137a3565b810103126107fe5761045691519061044a565b3d9150610a48565b6040513d8b823e3d90fd5b90506020823d602011610aa9575b81610a96602093836137a3565b810103126107fe5761040c915190610400565b3d9150610a89565b90506020813d602011610adb575b81610acc602093836137a3565b810103126107fe5751386103da565b3d9150610abf565b610b089198506103803d61038011610b0f575b610b0081836137a3565b810190613f2e565b96386103a6565b503d610af6565b610b3b9195506101c03d6101c011610b42575b610b3381836137a3565b810190613e45565b9338610377565b503d610b29565b6040513d88823e3d90fd5b9094506020813d602011610b80575b81610b70602093836137a3565b810103126107fe5751933861034b565b3d9150610b63565b634e487b7160e01b600052604160045260246000fd5b60405162461bcd60e51b815260206004820152602160248201527f496e76616c6964207369676e6174757265206f7220756e617574686f72697a656044820152601960fa1b6064820152608490fd5b506001600160a01b03610bfe613d85565b166001600160a01b038316146102bf565b610c1890613775565b6108395783386102a3565b506040516339bbfb9160e01b815260208180610c4487878c60048501613d9c565b0381855afa8015610b49578690610c5e575b159050610241565b506020813d602011610c8a575b81610c78602093836137a3565b810103126107fe5761024a9051610c56565b3d9150610c6b565b90506020823d602011610cc0575b81610cad602093836137a3565b810103126107fe5761023791519061022d565b3d9150610ca0565b90506020813d602011610cf2575b81610ce3602093836137a3565b810103126107fe575138610207565b3d9150610cd6565b50346107ae57366003190160c0811261082a5760a0136107ae576001600160401b039060a43582811161082a57610d35903690600401613708565b9290610d3f613d43565b916040519060208201937f463336e68c60a7e120c51f3c2379386c54665f421f43dec4f70b9cb2ccc554cc85526004356040840152602435606084015260018060a01b0316608083015260643560a083015260843560c083015260c0825260e082019082821090821117610b8857610dcf936101bc92610dc492604052519020613bd5565b6101b63687856139ef565b6002546040516339bbfb9160e01b81526001600160a01b03909116949060208180610dff87868860048501613d9c565b0381895afa90811561089b578591611916575b5060405163f0649dcf60e01b8152906020826004818a5afa908115610b495786916118e0575b610e429250613dc5565b4210801590611871575b610e5590613de8565b60405163f0649dcf60e01b8152602081600481895afa801561089b57859061183d575b610e83915042614257565b600019810192908311611829578585963b156113ed578592838693610ebe604051978896879586946329d1cc0160e21b865260048601613a56565b03925af190811561082e578391611812575b505060025460405163a1595d4560e01b815260048035908201526001600160a01b03909116916101c0918281602481875afa92831561089b5785936117f3575b5050604082015192604051936301d3e56960e61b85526004850152610380938481602481855afa948515610b495786956117d4575b5050604051630312cfbf60e31b81526001600160a01b0383166004820152602081602481855afa908115610b4957869161179f575b50604051633205b1d760e01b815290602082600481865afa9182156108da578792611767575b5090610fac91106143c5565b6003546060840180516040516304a62ae360e51b81526001600160a01b0386811660048301529182166024820152919260209183916044918391165afa80156108da578790611728575b61100091506143fa565b600161012085015114611011578580f35b5183516001600160a01b039182169116810361146357505060243560808301526110ae602080840160018060a01b038416815260018060a01b0360025416670de0b6b3a7640000611084816110788a61056961020082015161024060243593015190613dc5565b0460a0890151906140db565b049160018060a01b03905116918860405180968195829463e95e380f60e01b845260048401614159565b03925af1801561089b57611434575b5060018060a01b0360025416670de0b6b3a76400006110ee6102008601518261056e6024359260a0890151906140db565b0490803b156113ed57604051638e95b51b60e01b81526001600160a01b0384166004820152602481019290925285908290604490829084905af190811561089b578591611420575b50506111b9602060018060a01b0360025416670de0b6b3a764000061118f8161118361116d6101e08b01516102208c015190613dc5565b61117d60808b0151602435614257565b906140db565b0460a0880151906140db565b049060018060a01b03865116918860405180968195829463e95e380f60e01b845260048401614187565b03925af1801561089b576113f1575b5060018060a01b0360025416670de0b6b3a7640000611206816111f56101e088015160a0880151906140db565b0461117d6080870151602435614257565b0490803b156113ed5760405163cda25f4160e01b81526001600160a01b0384166004820152602481019290925285908290604490829084905af190811561089b5785916113d9575b50505b426101008301526001600160a01b03611268613d43565b1661016083015260026101208301819052546001600160a01b031690813b156107bc57604051639023196160e01b81526001600160a01b0390911660048201529084908290602490829084905af190811561080b5784916113c5575b50506002546001600160a01b0316803b156113a8578380916101e460405180948193630c965b3160e01b8352600435600484015261130560248401896141b5565b5af190811561080b5784916113ad575b50506002546001600160a01b031691823b156113a85761135292849283604051809681958294636184e6eb60e11b8452600435916004850161439d565b03925af180156107b157611394575b50506004357fb9ef0e1d0c4a04fb9bbff128c6f424923f21c8a260603f82fe20eeb8f1ebb3be8280a28038808080808580f35b61139d90613775565b6107ae578038611361565b505050fd5b6113b690613775565b6113c1578238611315565b5050fd5b6113ce90613775565b6113c15782386112c4565b6113e290613775565b6113a857833861124e565b8580fd5b6020809295503d8311611419575b61140981836137a3565b810103126107fe578392386111c8565b503d6113ff565b61142990613775565b6113a8578338611136565b6020809295503d831161145c575b61144c81836137a3565b810103126107fe578392386110bd565b503d611442565b60208401516001600160a01b03161461147d575b50611251565b602061150b91602435608086015260018060a01b0384168552670de0b6b3a76400006114bf816111836101e08a0151610569602435916102208d015190613dc5565b865160405163e95e380f60e01b81529290910460048301526001600160a01b031660248201526000604482018190526064820181905260848201529283919082908990829060a4820190565b03925af1801561089b576116f9575b5060018060a01b0360025416670de0b6b3a764000061154b6101e08601518261056e6024359260a0890151906140db565b0490803b156113ed57604051638e95b51b60e01b81526001600160a01b0384166004820152602481019290925285908290604490829084905af190811561089b5785916116e5575b5050611618602060018060a01b0360025416670de0b6b3a76400006115ca8161118361116d6102008b01516102408c015190613dc5565b8684015160405163e95e380f60e01b81529290910460048301526001600160a01b031660248201526000604482015260016064820181905260848201529283919082908990829060a4820190565b03925af1801561089b576116b6575b5060018060a01b0360025416670de0b6b3a7640000611654816111f56101e088015160a0880151906140db565b0490803b156113ed5760405163cda25f4160e01b81526001600160a01b0384166004820152602481019290925285908290604490829084905af190811561089b5785916116a2575b50611477565b6116ab90613775565b6113a857833861169c565b6020809295503d83116116de575b6116ce81836137a3565b810103126107fe57839238611627565b503d6116c4565b6116ee90613775565b6113a8578338611593565b6020809295503d8311611721575b61171181836137a3565b810103126107fe5783923861151a565b503d611707565b506020813d60201161175f575b81611742602093836137a3565b8101031261175b5761175661100091613e38565b610ff6565b8680fd5b3d9150611735565b915095506020813d602011611797575b81611784602093836137a3565b810103126107fe57518695610fac610fa0565b3d9150611777565b9550506020853d6020116117cc575b816117bb602093836137a3565b810103126107fe5785945138610f7a565b3d91506117ae565b6117eb929550803d10610b0f57610b0081836137a3565b923880610f45565b61180a929350803d10610b4257610b3381836137a3565b903880610f10565b61181b90613775565b611826578138610ed0565b50fd5b634e487b7160e01b85526011600452602485fd5b506020813d602011611869575b81611857602093836137a3565b810103126107fe57610e839051610e78565b3d915061184a565b506040516339bbfb9160e01b81526020818061189287868860048501613d9c565b0381895afa801561089b5785906118ac575b159050610e4c565b506020813d6020116118d8575b816118c6602093836137a3565b810103126107fe57610e5590516118a4565b3d91506118b9565b90506020823d60201161190e575b816118fb602093836137a3565b810103126107fe57610e42915190610e38565b3d91506118ee565b90506020813d602011611940575b81611931602093836137a3565b810103126107fe575138610e12565b3d9150611924565b50346107ae576101003660031901126107ae576004351515600435036107fe5760a4359081151582036107fe5760c435906001600160a01b03821682036107fe5760e4356001600160a01b03811681036107fe57600254604051634e09898960e11b8152916001600160a01b0390911690602083600481855afa92831561080b578493611fed575b506040519263a1595d4560e01b845260048401526101c083602481855afa92831561080b578493611fca575b50604051946301d3e56960e61b8652602435600487015261038086602481865afa95861561089b578596611fa7575b50604051630312cfbf60e31b8152336004820152602081602481875afa908115610b49578691611f75575b50604051633205b1d760e01b815290602082600481885afa9081156108da578791611f3f575b611a88925011156140a6565b670de0b6b3a7640000611a9f6044356064356140db565b604051630ed2a3af60e11b8152919004602082600481885afa9081156108da578791611f09575b611ad2925010156140ee565b6003546040516304a62ae360e51b8152336004820152600060248201529790602090899060449082906001600160a01b03165afa8015610b495786979887969791611ec2575b50611b2290614123565b336060870152604435608087015260643560a087015260843560c0870152151560e0860152602435604086015260016101208601526001600160a01b039081166101408601521661018084015260043515611e4957506020611bd460018060a01b0360025416670de0b6b3a7640000611bb56101e08901518261056e8b6105696044359461022060643593015190613dc5565b0460405194858094819363e95e380f60e01b8352339060048401614159565b03925af1801561082e57611e1e575b503381525b600254604051634e09898960e11b81526001600160a01b0390911690602081600481855afa90811561080b578491611dec575b50604051907f7628ee7d8f1e23496539504d4e75016bb25ef63d731f9fe6e518e2c779f2f66d8580a2634e09898960e11b8152602081600481855afa90811561080b578491611dba575b50813b156108395783916101e483926040519485938492630c965b3160e01b84526004840152611c9860248401896141b5565b5af1801561082e57908391611da6575b50506002546001600160a01b0316803b1561085157828091600460405180948193630cdbf96760e01b83525af1801561082e57908391611d92575b50506002546001600160a01b0316803b1561085157828091602460405180948193639023196160e01b83523360048401525af1801561082e57908391610816575050600254604051634e09898960e11b81526001600160a01b039091169390602081600481885afa90811561080b5784916107d4575060001981019081116107c0578484953b156107bc5761078d9385809460405196879586948593636184e6eb60e11b85526004850161439d565b611d9b90613775565b61082a578138611ce3565b611daf90613775565b61082a578138611ca8565b90506020813d602011611de4575b81611dd5602093836137a3565b810103126107fe575138611c65565b3d9150611dc8565b90506020813d602011611e16575b81611e07602093836137a3565b810103126107fe575138611c1b565b3d9150611dfa565b602090813d8311611e42575b611e3481836137a3565b810103126107fe5738611be3565b503d611e2a565b611e7c602091670de0b6b3a7640000611bb56102008901518261056e8b6105696044359461024060643593015190613dc5565b03925af1801561082e57611e97575b50336020820152611be8565b602090813d8311611ebb575b611ead81836137a3565b810103126107fe5738611e8b565b503d611ea3565b919293949550506020813d602011611f01575b81611ee2602093836137a3565b8101031261175b5790611b22611efb8896959493613e38565b90611b18565b3d9150611ed5565b90506020823d602011611f37575b81611f24602093836137a3565b810103126107fe57611ad2915190611ac6565b3d9150611f17565b90506020823d602011611f6d575b81611f5a602093836137a3565b810103126107fe57611a88915190611a7c565b3d9150611f4d565b90506020813d602011611f9f575b81611f90602093836137a3565b810103126107fe575138611a56565b3d9150611f83565b611fc39196506103803d61038011610b0f57610b0081836137a3565b9438611a2b565b611fe69193506101c03d6101c011610b4257610b3381836137a3565b91386119fc565b9092506020813d602011612019575b81612009602093836137a3565b810103126107fe575191386119d0565b3d9150611ffc565b50346107ae57806003193601126107ae5761205b7f00000000000000000000000000000000000000000000000000000000000000006137c4565b906120857f00000000000000000000000000000000000000000000000000000000000000006138ea565b9060405190602090818301938385106001600160401b03861117610b8857928285936120e188966120d398604052858552604051988998600f60f81b8a5260e0858b015260e08a0190613735565b9088820360408a0152613735565b924660608801523060808801528460a088015286840360c088015251928381520193925b82811061211457505050500390f35b835185528695509381019392810192600101612105565b50346107ae5760031960403682011261082a576001600160401b039060043582811161083957604081600401928236030112610839576024358381116107bc57612179903690600401613708565b909161218584806139bd565b6121a8602060405183819483830196873781018b838201520380845201826137a3565b5190209260246040519260208401957f1ab175977bf60d1561fd81f3db6c2d436601d273dfef7b8d57c12a3aeb56cbd1875260408501520135606083015260608252608082019582871090871117610b88576122146101bc946101b69361221c98604052519020613bd5565b9236916139ef565b6002546001600160a01b0391908490831661223783806139bd565b90823b15610839576122669287858094604051968795869485936329d1cc0160e21b8552429260048601613a56565b03925af180156107b1576122bd575b505080612281916139bd565b9081604051928392833781016000815203902091167f3c9fdb4d4183f358b6b2c094485786e299775320f8c3e6cb5221f64bf4f8b5258380a380f35b6122c690613775565b610839578338612275565b50346107ae57602090816003193601126107ae5760043560018060a01b03600281815416916040519163a1595d4560e01b83528460048401526101c09260249084818381895afa948515610a2f5788956127dc575b5050604084015194604051956301d3e56960e61b875260048701526103809586818481855afa968715610a705789976127bd575b50506101208501906001825103612790578486511633146000146125ef57506123c58691868a9b87879c9b9c5416908b816123f06123a56101e08a01996102208b5191015190613dc5565b9460a08701956123d16080670de0b6b3a7640000809c81948b51906140db565b049901988951906140db565b0460405194858094819363e95e380f60e01b8352339060048401614187565b03925af180156125e4576125b5575b50508787541690813b156125b1578b809288604051809581936372bbb27b60e11b83523360048401525af180156125a65785928d91612589575b505061245490600361245d95528989541696519051906140db565b049051906140db565b0490803b15610a235760405163cda25f4160e01b8152336004820152602481019290925287908290604490829084905af19081156108da578791612575575b50505b82825416803b1561175b576124d4916101e4898980946040519687958694630c965b3160e01b8652600486015284018b6141b5565b5af1908115610b49578691612561575b5050541691823b156108395761251692849283879360405196879586948593636184e6eb60e11b85526004850161439d565b03925af180156107b15761254d575b50807f50624a80eb1709526d7ae52626e3fbe844e76dc28c0811c127b5b7e155a63a6991a280f35b61255690613775565b61082a578138612525565b61256a90613775565b6107bc5784386124e4565b61257e90613775565b6113ed57853861249c565b61259591929350613775565b6125a25783908b38612439565b8a80fd5b6040513d8e823e3d90fd5b8b80fd5b9080929c503d83116125dd575b6125cc81836137a3565b810103126107fe578b9938806123ff565b503d6125c2565b6040513d8f823e3d90fd5b91988481870151163303612764578899929186828b612645946126516126249d9e9d8d61024061020082015191015190613dc5565b9760a08601986123d160808b670de0b6b3a76400009b8c94859251906140db565b049801978851906140db565b03925af180156125a657612735575b505086865416803b156125a2578a809187604051809481936372bbb27b60e11b83523360048401525af190811561272a578b91612712575b505060036126b892528261245488885416956101e08c01519051906140db565b0490803b15610a235760405163cda25f4160e01b8152336004820152602481019290925287908290604490829084905af19081156108da5787916126fe575b505061249f565b61270790613775565b6113ed5785386126f7565b61271b90613775565b612726578938612698565b8980fd5b6040513d8d823e3d90fd5b9080929b503d831161275d575b61274c81836137a3565b810103126107fe578a983880612660565b503d612742565b60649060068b6040519262461bcd60e51b845260048401528201526527b832b7199960d11b6044820152fd5b60405162461bcd60e51b8152600481018b9052600681850152654f70656e333160d01b6044820152606490fd5b6127d4929750803d10610b0f57610b0081836137a3565b94388061235a565b6127f3929550803d10610b4257610b3381836137a3565b923880612326565b90503461082a57606036600319011261082a576044356001600160a01b038116810361085157600254630312cfbf60e31b83523360048401526001600160a01b031691602081602481865afa90811561080b5784916136d6575b50604051633205b1d760e01b815290602082600481875afa90811561089b5785916136a0575b6128869250106143c5565b60405163a1595d4560e01b815260048035908201526101c092908381602481855afa93841561089b578594613681575b505083604084015192604051936301d3e56960e61b85526004850152610380938481602481875afa94851561082e578395613662575b50506003546060860180516040516304a62ae360e51b81523360048201526001600160a01b03918216602482015291959260209183916044918391165afa801561080b578490613627575b61294191506143fa565b610100860151421480613618575b15613076575050905183516001600160a01b03918216925016811480613067575b15612ced575060025460405163369bb8a560e11b81526001600160a01b039091169061299f6004820184614264565b6129ad6103848201856141b5565b846105448201526020816105648173__$04afeda1751f1fab6ddfb73e5b53963b72$__5af490811561089b578591612cb9575b5060208481015160405163e95e380f60e01b8152939192849291839189918391612a17916001600160a01b03169060048401614187565b03925af1801561080b57612c8e575b508260018060a01b0360025416670de0b6b3a7640000612a6081612a546101e087015160a0890151906140db565b046080870151906140db565b0490803b156108515760405163cda25f4160e01b8152336004820152602481019290925282908290604490829084905af180156107b157612c7a575b506020612ad660018060a01b0360025416670de0b6b3a7640000611bb581611078610200890151610569602435916102408c015190613dc5565b03925af1801561080b57612c4f575b50612b0760018060a01b0360025416916102206101e082015191015190613dc5565b670de0b6b3a76400000180670de0b6b3a7640000116107c057612b7d91670de0b6b3a7640000612b5381612b4760209561117d60808a0151602435614257565b0460a0870151906140db565b049060018060a01b03855116918660405180968195829463e95e380f60e01b845260048401614187565b03925af1801561082e57612c24575b50600254602082015183916001600160a01b039081169116813b156108515782916024839260405194859384926372bbb27b60e11b845260048401525af180156107b157612c10575b505033602082015260806024359101525b6004357fb9ef0e1d0c4a04fb9bbff128c6f424923f21c8a260603f82fe20eeb8f1ebb3be8280a280f35b612c1990613775565b61082a578138612bd5565b602090813d8311612c48575b612c3a81836137a3565b810103126107fe5738612b8c565b503d612c30565b602090813d8311612c73575b612c6581836137a3565b810103126107fe5738612ae5565b503d612c5b565b612c8390613775565b610851578238612a9c565b602090813d8311612cb2575b612ca481836137a3565b810103126107fe5738612a26565b503d612c9a565b90506020813d602011612ce5575b81612cd4602093836137a3565b810103126107fe5751612a176129e0565b3d9150612cc7565b60208301516001600160a01b03161480613058575b612d0e575b5050612be6565b60025460405163369bb8a560e11b81526001600160a01b0390911690612d376004820184614264565b612d456103848201856141b5565b60016105448201526020816105648173__$04afeda1751f1fab6ddfb73e5b53963b72$__5af490811561089b578591613024575b50835160405163e95e380f60e01b815260048101929092526001600160a01b0316602482015260006044820152600160648201819052608482015290602090829081878160a481015b03925af1801561080b57612ff9575b508260018060a01b0360025416670de0b6b3a7640000612dff81612a546101e087015160a0890151906140db565b0490803b156108515760405163cda25f4160e01b8152336004820152602481019290925282908290604490829084905af180156107b157612fe5575b506020612e7560018060a01b0360025416670de0b6b3a7640000611bb581611078610200890151610569602435916102408c015190613dc5565b03925af1801561080b57612fba575b50612ea660018060a01b03600254169161024061020082015191015190613dc5565b670de0b6b3a76400000180670de0b6b3a7640000116107c057612f1291670de0b6b3a7640000612ee681612b4760209561117d60243560808b0151614257565b049060018060a01b038386015116918660405180968195829463e95e380f60e01b845260048401614159565b03925af1801561082e57612f8f575b50600254815183916001600160a01b039081169116813b156108515782916024839260405194859384926372bbb27b60e11b845260048401525af180156107b157612f7b575b505033815260806024359101523880612d07565b612f8490613775565b61082a578138612f67565b602090813d8311612fb3575b612fa581836137a3565b810103126107fe5738612f21565b503d612f9b565b602090813d8311612fde575b612fd081836137a3565b810103126107fe5738612e84565b503d612fc6565b612fee90613775565b610851578238612e3b565b602090813d831161301d575b61300f81836137a3565b810103126107fe5738612dd1565b503d613005565b90506020813d602011613050575b8161303f602093836137a3565b810103126107fe5751612dc2612d79565b3d9150613032565b50608082015160243511612d02565b50608083015160243510612970565b90919492600161012085015114613091575b50505050505080f35b5183516001600160a01b039182169116810361340e57505060243560808301526130f0602080840133815260018060a01b0360025416670de0b6b3a7640000611084816110788a61056961020082015161024060243593015190613dc5565b03925af1801561089b576133df575b5060018060a01b0360025416670de0b6b3a76400006131306102008601518261056e6024359260a0890151906140db565b0490803b156113ed57604051638e95b51b60e01b8152336004820152602481019290925285908290604490829084905af190811561089b5785916133cb575b50506131a6602060018060a01b0360025416670de0b6b3a764000061118f8161118361116d6101e08b01516102208c015190613dc5565b03925af1801561089b5761339c575b5060018060a01b0360025416670de0b6b3a76400006131e2816111f56101e088015160a0880151906140db565b0490803b156113ed5760405163cda25f4160e01b8152336004820152602481019290925285908290604490829084905af190811561089b578591613388575b50505b426101008301526001600160a01b03908116610160830152600261012083018190525416803b156113a857838091602460405180948193639023196160e01b83523360048401525af190811561080b578491613374575b50506002546001600160a01b0316803b156113a8578380916101e460405180948193630c965b3160e01b835260043560048401526132bc60248401896141b5565b5af190811561080b578491613360575b50506002546001600160a01b031691823b156113a85761330992849283604051809681958294636184e6eb60e11b8452600435916004850161439d565b03925af180156107b15761334c575b50506004357fb9ef0e1d0c4a04fb9bbff128c6f424923f21c8a260603f82fe20eeb8f1ebb3be8280a2803880808080613088565b61335590613775565b6107ae578038613318565b61336990613775565b6113c15782386132cc565b61337d90613775565b6113c157823861327b565b61339190613775565b6113a8578338613221565b6020809295503d83116133c4575b6133b481836137a3565b810103126107fe578392386131b5565b503d6133aa565b6133d490613775565b6113a857833861316f565b6020809295503d8311613407575b6133f781836137a3565b810103126107fe578392386130ff565b503d6133ed565b60208401516001600160a01b031614613428575b50613224565b6020613462916024356080860152338552670de0b6b3a76400006114bf816111836101e08a0151610569602435916102208d015190613dc5565b03925af1801561089b576135ed575b5060018060a01b0360025416670de0b6b3a76400006134a26101e08601518261056e6024359260a0890151906140db565b04813b156113ed57604051638e95b51b60e01b8152336004820152602481019190915295859187916044918391905af1801561080b576135d9575b839450613515602060018060a01b0360025416670de0b6b3a76400006115ca8161118361116d6102008b01516102408c015190613dc5565b03925af1801561089b576135aa575b5060018060a01b0360025416670de0b6b3a7640000613551816111f56101e088015160a0880151906140db565b0490803b156113ed5760405163cda25f4160e01b8152336004820152602481019290925285908290604490829084905af190811561089b578591613596575b50613422565b61359f90613775565b6113a8578338613590565b6020809295503d83116135d2575b6135c281836137a3565b810103126107fe57839238613524565b503d6135b8565b9290936135e590613775565b9183906134dd565b602090813d8311613611575b61360381836137a3565b810103126113a85738613471565b503d6135f9565b5060026101208701511461294f565b506020813d60201161365a575b81613641602093836137a3565b810103126108395761365561294191613e38565b612937565b3d9150613634565b613679929550803d10610b0f57610b0081836137a3565b9238806128ec565b613698929450803d10610b4257610b3381836137a3565b9138806128b6565b90506020823d6020116136ce575b816136bb602093836137a3565b810103126107bc5761288691519061287b565b3d91506136ae565b90506020813d602011613700575b816136f1602093836137a3565b81010312610839575138612855565b3d91506136e4565b9181601f840112156107fe578235916001600160401b0383116107fe57602083818601950101116107fe57565b919082519283825260005b848110613761575050826000602080949584010152601f8019910116010190565b602081830181015184830182015201613740565b6001600160401b038111610b8857604052565b604081019081106001600160401b03821117610b8857604052565b90601f801991011681019081106001600160401b03821117610b8857604052565b60ff81146138025760ff811690601f82116137f057604051916137e683613788565b8252602082015290565b604051632cd44ac360e21b8152600490fd5b506040516000805490600182811c908084169384156138e0575b60209485841081146138cc57838752869493929181156138ac5750600114613850575b505061384d925003826137a3565b90565b60008080527f290decd9548b62a8d60345a988386fc84ba6bc95484008f6362f93160ef3e56395935091905b81831061389457505061384d9350820101388061383f565b8554878401850152948501948694509183019161387c565b91505061384d94925060ff191682840152151560051b820101388061383f565b634e487b7160e01b85526022600452602485fd5b91607f169161381c565b60ff811461390c5760ff811690601f82116137f057604051916137e683613788565b50604051600060019081549182811c908084169384156139b3575b60209485841081146138cc57838752869493929181156138ac575060011461395757505061384d925003826137a3565b60008181527fb10e2d527612073b26eecdfd717e6a320cf44b4afac2b0732d9fcbe2b7fa0cf695935091905b81831061399b57505061384d9350820101388061383f565b85548784018501529485019486945091830191613983565b91607f1691613927565b903590601e19813603018212156107fe57018035906001600160401b0382116107fe576020019181360383136107fe57565b9291926001600160401b038211610b885760405191613a18601f8201601f1916602001846137a3565b8294818452818301116107fe578281602093846000960137010152565b908060209392818452848401376000828201840152601f01601f1916010190565b90613a709060409396959496606084526060840191613a35565b6001600160a01b0390951660208201520152565b8151919060418303613ab557613aae92506020820151906060604084015193015160001a90613ac0565b9192909190565b505060009160029190565b91907f7fffffffffffffffffffffffffffffff5d576e7357a4501ddfe92f46681b20a08411613b4457926020929160ff608095604051948552168484015260408301526060820152600092839182805260015afa15613b385780516001600160a01b03811615613b2f57918190565b50809160019190565b604051903d90823e3d90fd5b50505060009160039190565b6004811015613bbf5780613b62575050565b60018103613b7c5760405163f645eedf60e01b8152600490fd5b60028103613b9d5760405163fce698f760e01b815260048101839052602490fd5b600314613ba75750565b602490604051906335e2f38360e21b82526004820152fd5b634e487b7160e01b600052602160045260246000fd5b604290613be0613bfb565b906040519161190160f01b8352600283015260228201522090565b307f00000000000000000000000000000000000000000000000000000000000000006001600160a01b03161480613cfc575b15613c56577f000000000000000000000000000000000000000000000000000000000000000090565b60405160208101907f8b73c3c69bb8fe3d512ecc4cf759cc79239f7b179b0ffacaa9a75d522b39400f82527f000000000000000000000000000000000000000000000000000000000000000060408201527f000000000000000000000000000000000000000000000000000000000000000060608201524660808201523060a082015260a0815260c081018181106001600160401b03821117610b885760405251902090565b507f00000000000000000000000000000000000000000000000000000000000000004614613c2d565b60043580151581036107fe5790565b60a43580151581036107fe5790565b6044356001600160a01b03811681036107fe5790565b60c4356001600160a01b03811681036107fe5790565b60e4356001600160a01b03811681036107fe5790565b610104356001600160a01b03811681036107fe5790565b91602091613db591959495604085526040850191613a35565b6001600160a01b03909416910152565b91908201809211613dd257565b634e487b7160e01b600052601160045260246000fd5b15613def57565b60405162461bcd60e51b815260206004820152600d60248201526c145d5bdd1948195e1c1a5c9959609a1b6044820152606490fd5b51906001600160a01b03821682036107fe57565b519081151582036107fe57565b80916101c092839103126107fe576040519182018281106001600160401b03821117610b8857604052613e7781613e24565b8252613e8560208201613e24565b602083015260408101516040830152613ea060608201613e24565b60608301526080810151608083015260a081015160a083015260c081015160c0830152613ecf60e08201613e38565b60e083015261010080820151908301526101208082015190830152610140613ef8818301613e24565b90830152610160613f0a818301613e24565b90830152610180613f1c818301613e24565b908301526101a0809101519082015290565b809161038092839103126107fe576040519182018281106001600160401b03821117610b8857604052805182526020810151602083015260408101516040830152613f7b60608201613e24565b60608301526080810151608083015260a081015160a083015260c081015160c083015260e081015160e0830152610100613fb6818301613e24565b9083015261012080820151908301526101408082015190830152610160808201519060ff821682036107fe5783015261018080820151908301526101a080820151908301526101c080820151908301526101e08082015190830152610200808201519083015261022080820151908301526102408082015190830152610260808201519083015261028080820151908301526102a080820151908301526102c080820151908301526102e080820151908301526103008082015190830152610320614082818301613e24565b90830152610340614094818301613e38565b90830152610360809101519082015290565b156140ad57565b60405162461bcd60e51b81526020600482015260066024820152654f70656e313160d01b6044820152606490fd5b81810292918115918404141715613dd257565b156140f557565b60405162461bcd60e51b815260206004820152600660248201526527b832b7189960d11b6044820152606490fd5b1561412a57565b60405162461bcd60e51b815260206004820152600760248201526627b832b718993160c91b6044820152606490fd5b9081526001600160a01b03909116602082015260006040820181905260608201526001608082015260a00190565b9081526001600160a01b03909116602082015260006040820181905260016060830152608082015260a00190565b60018060a01b03808251168352806020830151166020840152604082015160408401528060608301511660608401526080820151608084015260a082015160a084015260c082015160c084015260e0820151151560e0840152610100808301519084015261012080830151908401526101408181840151169084015261016081818401511690840152610180908183015116908301526101a080910151910152565b91908203918211613dd257565b80518252602081015160208301526040810151604083015260018060a01b038060608301511660608401526080820151608084015260a082015160a084015260c082015160c084015260e082015160e0840152610100818184015116908401526101208083015190840152610140808301519084015261016060ff81840151169084015261018080830151908401526101a080830151908401526101c080830151908401526101e08083015190840152610200808301519084015261022080830151908401526102408083015190840152610260808301519084015261028080830151908401526102a080830151908401526102c080830151908401526102e080830151908401526103008083015190840152610320908183015116908301526103408082015115159083015261036080910151910152565b6143c1610540929594936143b683610560810198614264565b6103808301906141b5565b0152565b156143cc57565b60405162461bcd60e51b81526020600482015260066024820152654f70656e323160d01b6044820152606490fd5b1561440157565b60405162461bcd60e51b815260206004820152600760248201526627b832b71918b160c91b6044820152606490fdfea2646970667358221220a071e8342d28551bf673a5dbc6d5226e551889b98c52aad085497cab7d8e389764736f6c63430008140033",
  "linkReferences": {
    "contracts/Libs/PionerV1Utils.sol": {
      "PionerV1Utils": [
        {
          "length": 20,
          "start": 12095
        },
        {
          "length": 20,
          "start": 13016
        }
      ]
    }
  },
  "deployedLinkReferences": {
    "contracts/Libs/PionerV1Utils.sol": {
      "PionerV1Utils": [
        {
          "length": 20,
          "start": 10685
        },
        {
          "length": 20,
          "start": 11606
        }
      ]
    }
  }
}