{
  "_format": "hh-sol-artifact-1",
  "contractName": "PionerV1Storage",
  "sourceName": "contracts/Functions/PionerV1Storage.sol",
  "abi": [
    {
      "anonymous": false,
      "inputs": [
        {
          "indexed": true,
          "internalType": "address",
          "name": "target",
          "type": "address"
        },
        {
          "indexed": true,
          "internalType": "address",
          "name": "receiver",
          "type": "address"
        },
        {
          "indexed": false,
          "internalType": "uint256",
          "name": "deficit",
          "type": "uint256"
        }
      ],
      "name": "AddToOwedEvent",
      "type": "event"
    },
    {
      "anonymous": false,
      "inputs": [
        {
          "indexed": true,
          "internalType": "address",
          "name": "target",
          "type": "address"
        },
        {
          "indexed": true,
          "internalType": "address",
          "name": "receiver",
          "type": "address"
        },
        {
          "indexed": false,
          "internalType": "uint256",
          "name": "amount",
          "type": "uint256"
        }
      ],
      "name": "ClaimOwedEvent",
      "type": "event"
    },
    {
      "anonymous": false,
      "inputs": [
        {
          "indexed": false,
          "internalType": "bytes",
          "name": "reqId",
          "type": "bytes"
        },
        {
          "components": [
            {
              "internalType": "uint256",
              "name": "x",
              "type": "uint256"
            },
            {
              "internalType": "uint8",
              "name": "parity",
              "type": "uint8"
            }
          ],
          "indexed": false,
          "internalType": "struct MuonClientBase.PublicKey",
          "name": "pubKey",
          "type": "tuple"
        }
      ],
      "name": "MuonTX",
      "type": "event"
    },
    {
      "anonymous": false,
      "inputs": [
        {
          "indexed": true,
          "internalType": "address",
          "name": "target",
          "type": "address"
        },
        {
          "indexed": false,
          "internalType": "uint256",
          "name": "returnedAmount",
          "type": "uint256"
        }
      ],
      "name": "PayOwedEvent",
      "type": "event"
    },
    {
      "anonymous": false,
      "inputs": [
        {
          "indexed": true,
          "internalType": "uint256",
          "name": "bOracleLength",
          "type": "uint256"
        }
      ],
      "name": "deployPriceFeedEvent",
      "type": "event"
    },
    {
      "anonymous": false,
      "inputs": [
        {
          "indexed": true,
          "internalType": "uint256",
          "name": "bOracleId",
          "type": "uint256"
        },
        {
          "indexed": false,
          "internalType": "uint256",
          "name": "lastPrice",
          "type": "uint256"
        }
      ],
      "name": "updatePricePythEvent",
      "type": "event"
    },
    {
      "inputs": [],
      "name": "HALF_Q",
      "outputs": [
        {
          "internalType": "uint256",
          "name": "",
          "type": "uint256"
        }
      ],
      "stateMutability": "view",
      "type": "function"
    },
    {
      "inputs": [],
      "name": "Q",
      "outputs": [
        {
          "internalType": "uint256",
          "name": "",
          "type": "uint256"
        }
      ],
      "stateMutability": "view",
      "type": "function"
    },
    {
      "inputs": [],
      "name": "addBCloseQuoteLength",
      "outputs": [],
      "stateMutability": "nonpayable",
      "type": "function"
    },
    {
      "inputs": [],
      "name": "addBContractLength",
      "outputs": [],
      "stateMutability": "nonpayable",
      "type": "function"
    },
    {
      "inputs": [],
      "name": "addBOracleLength",
      "outputs": [],
      "stateMutability": "nonpayable",
      "type": "function"
    },
    {
      "inputs": [
        {
          "internalType": "address",
          "name": "user",
          "type": "address"
        },
        {
          "internalType": "uint256",
          "name": "amount",
          "type": "uint256"
        }
      ],
      "name": "addBalance",
      "outputs": [],
      "stateMutability": "nonpayable",
      "type": "function"
    },
    {
      "inputs": [
        {
          "internalType": "address",
          "name": "user",
          "type": "address"
        },
        {
          "internalType": "uint256",
          "name": "amount",
          "type": "uint256"
        }
      ],
      "name": "addCumImBalances",
      "outputs": [],
      "stateMutability": "nonpayable",
      "type": "function"
    },
    {
      "inputs": [
        {
          "internalType": "address",
          "name": "user",
          "type": "address"
        },
        {
          "internalType": "uint256",
          "name": "amount",
          "type": "uint256"
        }
      ],
      "name": "addGracePeriodLockedWithdrawBalances",
      "outputs": [],
      "stateMutability": "nonpayable",
      "type": "function"
    },
    {
      "inputs": [
        {
          "internalType": "address",
          "name": "user",
          "type": "address"
        },
        {
          "internalType": "uint256",
          "name": "amount",
          "type": "uint256"
        }
      ],
      "name": "addMintedAmounts",
      "outputs": [],
      "stateMutability": "nonpayable",
      "type": "function"
    },
    {
      "inputs": [
        {
          "internalType": "address",
          "name": "user",
          "type": "address"
        }
      ],
      "name": "addOpenPositionNumber",
      "outputs": [],
      "stateMutability": "nonpayable",
      "type": "function"
    },
    {
      "inputs": [
        {
          "internalType": "address",
          "name": "user",
          "type": "address"
        },
        {
          "internalType": "address",
          "name": "counterparty",
          "type": "address"
        },
        {
          "internalType": "uint256",
          "name": "amount",
          "type": "uint256"
        }
      ],
      "name": "addOwedAmount",
      "outputs": [],
      "stateMutability": "nonpayable",
      "type": "function"
    },
    {
      "inputs": [
        {
          "internalType": "bytes",
          "name": "",
          "type": "bytes"
        },
        {
          "internalType": "address",
          "name": "",
          "type": "address"
        }
      ],
      "name": "cancelledCloseQuotes",
      "outputs": [
        {
          "internalType": "uint256",
          "name": "",
          "type": "uint256"
        }
      ],
      "stateMutability": "view",
      "type": "function"
    },
    {
      "inputs": [
        {
          "internalType": "bytes",
          "name": "",
          "type": "bytes"
        },
        {
          "internalType": "address",
          "name": "",
          "type": "address"
        }
      ],
      "name": "cancelledOpenQuotes",
      "outputs": [
        {
          "internalType": "uint256",
          "name": "",
          "type": "uint256"
        }
      ],
      "stateMutability": "view",
      "type": "function"
    },
    {
      "inputs": [
        {
          "internalType": "address",
          "name": "user",
          "type": "address"
        }
      ],
      "name": "decreaseOpenPositionNumber",
      "outputs": [],
      "stateMutability": "nonpayable",
      "type": "function"
    },
    {
      "inputs": [
        {
          "internalType": "address",
          "name": "user",
          "type": "address"
        },
        {
          "internalType": "address",
          "name": "counterparty",
          "type": "address"
        },
        {
          "internalType": "uint256",
          "name": "amount",
          "type": "uint256"
        }
      ],
      "name": "decreaseOwedAmount",
      "outputs": [],
      "stateMutability": "nonpayable",
      "type": "function"
    },
    {
      "inputs": [
        {
          "internalType": "address",
          "name": "user",
          "type": "address"
        },
        {
          "internalType": "uint256",
          "name": "amount",
          "type": "uint256"
        }
      ],
      "name": "decreaseTotalOwedAmount",
      "outputs": [],
      "stateMutability": "nonpayable",
      "type": "function"
    },
    {
      "inputs": [
        {
          "internalType": "address",
          "name": "user",
          "type": "address"
        },
        {
          "internalType": "uint256",
          "name": "amount",
          "type": "uint256"
        }
      ],
      "name": "decreaseTotalOwedAmountPaid",
      "outputs": [],
      "stateMutability": "nonpayable",
      "type": "function"
    },
    {
      "inputs": [
        {
          "internalType": "address",
          "name": "user",
          "type": "address"
        }
      ],
      "name": "getAccountToToken",
      "outputs": [
        {
          "internalType": "address",
          "name": "",
          "type": "address"
        }
      ],
      "stateMutability": "view",
      "type": "function"
    },
    {
      "inputs": [],
      "name": "getAllStateVariables",
      "outputs": [
        {
          "internalType": "uint256",
          "name": "minNotional",
          "type": "uint256"
        },
        {
          "internalType": "uint256",
          "name": "frontendShare",
          "type": "uint256"
        },
        {
          "internalType": "uint256",
          "name": "affiliationShare",
          "type": "uint256"
        },
        {
          "internalType": "uint256",
          "name": "hedgerShare",
          "type": "uint256"
        },
        {
          "internalType": "uint256",
          "name": "pionerDaoShare",
          "type": "uint256"
        },
        {
          "internalType": "uint256",
          "name": "totalShare",
          "type": "uint256"
        },
        {
          "internalType": "uint256",
          "name": "defaultAuctionPeriod",
          "type": "uint256"
        },
        {
          "internalType": "uint256",
          "name": "cancelTimeBuffer",
          "type": "uint256"
        },
        {
          "internalType": "uint256",
          "name": "maxOpenPositions",
          "type": "uint256"
        },
        {
          "internalType": "uint256",
          "name": "gracePeriod",
          "type": "uint256"
        },
        {
          "internalType": "address",
          "name": "pionerDao",
          "type": "address"
        },
        {
          "internalType": "address",
          "name": "admin",
          "type": "address"
        }
      ],
      "stateMutability": "view",
      "type": "function"
    },
    {
      "inputs": [
        {
          "internalType": "address",
          "name": "user",
          "type": "address"
        }
      ],
      "name": "getAvgOpenOwedTime",
      "outputs": [
        {
          "internalType": "uint256",
          "name": "",
          "type": "uint256"
        }
      ],
      "stateMutability": "view",
      "type": "function"
    },
    {
      "inputs": [],
      "name": "getBALANCETOKEN",
      "outputs": [
        {
          "internalType": "contract IERC20",
          "name": "",
          "type": "address"
        }
      ],
      "stateMutability": "view",
      "type": "function"
    },
    {
      "inputs": [
        {
          "internalType": "uint256",
          "name": "id",
          "type": "uint256"
        }
      ],
      "name": "getBCloseQuote",
      "outputs": [
        {
          "components": [
            {
              "internalType": "uint256[]",
              "name": "bContractIds",
              "type": "uint256[]"
            },
            {
              "internalType": "uint256[]",
              "name": "price",
              "type": "uint256[]"
            },
            {
              "internalType": "uint256[]",
              "name": "amount",
              "type": "uint256[]"
            },
            {
              "internalType": "uint256[]",
              "name": "limitOrStop",
              "type": "uint256[]"
            },
            {
              "internalType": "uint256[]",
              "name": "expiry",
              "type": "uint256[]"
            },
            {
              "internalType": "address",
              "name": "initiator",
              "type": "address"
            },
            {
              "internalType": "uint256",
              "name": "cancelTime",
              "type": "uint256"
            },
            {
              "internalType": "uint256",
              "name": "openTime",
              "type": "uint256"
            },
            {
              "internalType": "uint256",
              "name": "state",
              "type": "uint256"
            }
          ],
          "internalType": "struct PionerV1Utils.bCloseQuote",
          "name": "",
          "type": "tuple"
        }
      ],
      "stateMutability": "view",
      "type": "function"
    },
    {
      "inputs": [],
      "name": "getBCloseQuoteLength",
      "outputs": [
        {
          "internalType": "uint256",
          "name": "closeQuoteLength",
          "type": "uint256"
        }
      ],
      "stateMutability": "view",
      "type": "function"
    },
    {
      "inputs": [
        {
          "internalType": "uint256",
          "name": "id",
          "type": "uint256"
        }
      ],
      "name": "getBContract",
      "outputs": [
        {
          "components": [
            {
              "internalType": "address",
              "name": "pA",
              "type": "address"
            },
            {
              "internalType": "address",
              "name": "pB",
              "type": "address"
            },
            {
              "internalType": "uint256",
              "name": "oracleId",
              "type": "uint256"
            },
            {
              "internalType": "address",
              "name": "initiator",
              "type": "address"
            },
            {
              "internalType": "uint256",
              "name": "price",
              "type": "uint256"
            },
            {
              "internalType": "uint256",
              "name": "amount",
              "type": "uint256"
            },
            {
              "internalType": "uint256",
              "name": "interestRate",
              "type": "uint256"
            },
            {
              "internalType": "bool",
              "name": "isAPayingAPR",
              "type": "bool"
            },
            {
              "internalType": "uint256",
              "name": "openTime",
              "type": "uint256"
            },
            {
              "internalType": "uint256",
              "name": "state",
              "type": "uint256"
            },
            {
              "internalType": "address",
              "name": "frontEnd",
              "type": "address"
            },
            {
              "internalType": "address",
              "name": "hedger",
              "type": "address"
            },
            {
              "internalType": "address",
              "name": "affiliate",
              "type": "address"
            },
            {
              "internalType": "uint256",
              "name": "cancelTime",
              "type": "uint256"
            }
          ],
          "internalType": "struct PionerV1Utils.bContract",
          "name": "",
          "type": "tuple"
        }
      ],
      "stateMutability": "view",
      "type": "function"
    },
    {
      "inputs": [],
      "name": "getBContractLength",
      "outputs": [
        {
          "internalType": "uint256",
          "name": "contractLength",
          "type": "uint256"
        }
      ],
      "stateMutability": "view",
      "type": "function"
    },
    {
      "inputs": [
        {
          "internalType": "uint256",
          "name": "id",
          "type": "uint256"
        },
        {
          "internalType": "address",
          "name": "target",
          "type": "address"
        }
      ],
      "name": "getBContractTransferQuote",
      "outputs": [
        {
          "components": [
            {
              "internalType": "uint256",
              "name": "transferOffer",
              "type": "uint256"
            },
            {
              "internalType": "uint256",
              "name": "transferOfferBribe",
              "type": "uint256"
            },
            {
              "internalType": "uint256",
              "name": "transferMethod",
              "type": "uint256"
            },
            {
              "internalType": "uint256",
              "name": "transferQuoteExpiry",
              "type": "uint256"
            },
            {
              "internalType": "bool",
              "name": "transferSide",
              "type": "bool"
            }
          ],
          "internalType": "struct PionerV1Utils.bContractTransferQuote",
          "name": "",
          "type": "tuple"
        }
      ],
      "stateMutability": "view",
      "type": "function"
    },
    {
      "inputs": [
        {
          "internalType": "uint256",
          "name": "id",
          "type": "uint256"
        }
      ],
      "name": "getBContractUpdate",
      "outputs": [
        {
          "components": [
            {
              "internalType": "address",
              "name": "oracleChangeInitializer",
              "type": "address"
            },
            {
              "internalType": "uint256",
              "name": "oracleChangeId",
              "type": "uint256"
            },
            {
              "internalType": "bool",
              "name": "isTranferAInit",
              "type": "bool"
            },
            {
              "internalType": "bool",
              "name": "isTranferBInit",
              "type": "bool"
            },
            {
              "internalType": "address",
              "name": "targetTransferA",
              "type": "address"
            },
            {
              "internalType": "address",
              "name": "targetTransferB",
              "type": "address"
            },
            {
              "internalType": "uint256",
              "name": "transferBribeA",
              "type": "uint256"
            },
            {
              "internalType": "uint256",
              "name": "transferBribeB",
              "type": "uint256"
            }
          ],
          "internalType": "struct PionerV1Utils.bContractUpdate",
          "name": "",
          "type": "tuple"
        }
      ],
      "stateMutability": "view",
      "type": "function"
    },
    {
      "inputs": [
        {
          "internalType": "uint256",
          "name": "id",
          "type": "uint256"
        }
      ],
      "name": "getBOracle",
      "outputs": [
        {
          "components": [
            {
              "internalType": "bytes32",
              "name": "asset1",
              "type": "bytes32"
            },
            {
              "internalType": "bytes32",
              "name": "asset2",
              "type": "bytes32"
            },
            {
              "internalType": "uint256",
              "name": "oracleType",
              "type": "uint256"
            },
            {
              "internalType": "address",
              "name": "priceFeedAddress",
              "type": "address"
            },
            {
              "internalType": "bytes32",
              "name": "pythAddress1",
              "type": "bytes32"
            },
            {
              "internalType": "bytes32",
              "name": "pythAddress2",
              "type": "bytes32"
            },
            {
              "internalType": "uint256",
              "name": "lastBid",
              "type": "uint256"
            },
            {
              "internalType": "uint256",
              "name": "lastAsk",
              "type": "uint256"
            },
            {
              "internalType": "address",
              "name": "publicOracleAddress",
              "type": "address"
            },
            {
              "internalType": "uint256",
              "name": "maxConfidence",
              "type": "uint256"
            },
            {
              "internalType": "uint256",
              "name": "x",
              "type": "uint256"
            },
            {
              "internalType": "uint8",
              "name": "parity",
              "type": "uint8"
            },
            {
              "internalType": "uint256",
              "name": "maxDelay",
              "type": "uint256"
            },
            {
              "internalType": "uint256",
              "name": "lastPrice",
              "type": "uint256"
            },
            {
              "internalType": "uint256",
              "name": "lastPriceUpdateTime",
              "type": "uint256"
            },
            {
              "internalType": "uint256",
              "name": "imA",
              "type": "uint256"
            },
            {
              "internalType": "uint256",
              "name": "imB",
              "type": "uint256"
            },
            {
              "internalType": "uint256",
              "name": "dfA",
              "type": "uint256"
            },
            {
              "internalType": "uint256",
              "name": "dfB",
              "type": "uint256"
            },
            {
              "internalType": "uint256",
              "name": "expiryA",
              "type": "uint256"
            },
            {
              "internalType": "uint256",
              "name": "expiryB",
              "type": "uint256"
            },
            {
              "internalType": "uint256",
              "name": "timeLockA",
              "type": "uint256"
            },
            {
              "internalType": "uint256",
              "name": "timeLockB",
              "type": "uint256"
            },
            {
              "internalType": "uint256",
              "name": "cType",
              "type": "uint256"
            },
            {
              "internalType": "uint256",
              "name": "forceCloseType",
              "type": "uint256"
            },
            {
              "internalType": "address",
              "name": "kycAddress",
              "type": "address"
            },
            {
              "internalType": "bool",
              "name": "isPaused",
              "type": "bool"
            },
            {
              "internalType": "uint256",
              "name": "deployTime",
              "type": "uint256"
            }
          ],
          "internalType": "struct PionerV1Utils.bOracle",
          "name": "",
          "type": "tuple"
        }
      ],
      "stateMutability": "view",
      "type": "function"
    },
    {
      "inputs": [
        {
          "internalType": "address",
          "name": "user",
          "type": "address"
        }
      ],
      "name": "getBOracleIdStable",
      "outputs": [
        {
          "internalType": "uint256",
          "name": "",
          "type": "uint256"
        }
      ],
      "stateMutability": "view",
      "type": "function"
    },
    {
      "inputs": [],
      "name": "getBOracleLength",
      "outputs": [
        {
          "internalType": "uint256",
          "name": "oracleLength",
          "type": "uint256"
        }
      ],
      "stateMutability": "view",
      "type": "function"
    },
    {
      "inputs": [
        {
          "internalType": "address",
          "name": "user",
          "type": "address"
        }
      ],
      "name": "getBalance",
      "outputs": [
        {
          "internalType": "uint256",
          "name": "",
          "type": "uint256"
        }
      ],
      "stateMutability": "view",
      "type": "function"
    },
    {
      "inputs": [],
      "name": "getBalanceToken",
      "outputs": [
        {
          "internalType": "contract IERC20",
          "name": "",
          "type": "address"
        }
      ],
      "stateMutability": "view",
      "type": "function"
    },
    {
      "inputs": [
        {
          "internalType": "address",
          "name": "user",
          "type": "address"
        }
      ],
      "name": "getBalances",
      "outputs": [
        {
          "internalType": "uint256",
          "name": "",
          "type": "uint256"
        }
      ],
      "stateMutability": "view",
      "type": "function"
    },
    {
      "inputs": [],
      "name": "getCancelTimeBuffer",
      "outputs": [
        {
          "internalType": "uint256",
          "name": "",
          "type": "uint256"
        }
      ],
      "stateMutability": "view",
      "type": "function"
    },
    {
      "inputs": [
        {
          "internalType": "bytes",
          "name": "id",
          "type": "bytes"
        },
        {
          "internalType": "address",
          "name": "target",
          "type": "address"
        }
      ],
      "name": "getCancelledCloseQuotes",
      "outputs": [
        {
          "internalType": "uint256",
          "name": "",
          "type": "uint256"
        }
      ],
      "stateMutability": "view",
      "type": "function"
    },
    {
      "inputs": [
        {
          "internalType": "bytes",
          "name": "id",
          "type": "bytes"
        },
        {
          "internalType": "address",
          "name": "target",
          "type": "address"
        }
      ],
      "name": "getCancelledOpenQuotes",
      "outputs": [
        {
          "internalType": "uint256",
          "name": "",
          "type": "uint256"
        }
      ],
      "stateMutability": "view",
      "type": "function"
    },
    {
      "inputs": [
        {
          "internalType": "address",
          "name": "user",
          "type": "address"
        }
      ],
      "name": "getClaimedKycIrAmount",
      "outputs": [
        {
          "internalType": "uint256",
          "name": "",
          "type": "uint256"
        }
      ],
      "stateMutability": "view",
      "type": "function"
    },
    {
      "inputs": [
        {
          "internalType": "address",
          "name": "user",
          "type": "address"
        }
      ],
      "name": "getCumImBalances",
      "outputs": [
        {
          "internalType": "uint256",
          "name": "",
          "type": "uint256"
        }
      ],
      "stateMutability": "view",
      "type": "function"
    },
    {
      "inputs": [],
      "name": "getDefaultAuctionPeriod",
      "outputs": [
        {
          "internalType": "uint256",
          "name": "",
          "type": "uint256"
        }
      ],
      "stateMutability": "view",
      "type": "function"
    },
    {
      "inputs": [],
      "name": "getGRACE_PERIOD",
      "outputs": [
        {
          "internalType": "uint256",
          "name": "",
          "type": "uint256"
        }
      ],
      "stateMutability": "view",
      "type": "function"
    },
    {
      "inputs": [
        {
          "internalType": "address",
          "name": "user",
          "type": "address"
        }
      ],
      "name": "getGracePeriodLockedTime",
      "outputs": [
        {
          "internalType": "uint256",
          "name": "",
          "type": "uint256"
        }
      ],
      "stateMutability": "view",
      "type": "function"
    },
    {
      "inputs": [
        {
          "internalType": "address",
          "name": "user",
          "type": "address"
        }
      ],
      "name": "getGracePeriodLockedWithdrawBalance",
      "outputs": [
        {
          "internalType": "uint256",
          "name": "",
          "type": "uint256"
        }
      ],
      "stateMutability": "view",
      "type": "function"
    },
    {
      "inputs": [],
      "name": "getMaxOpenPositions",
      "outputs": [
        {
          "internalType": "uint256",
          "name": "",
          "type": "uint256"
        }
      ],
      "stateMutability": "view",
      "type": "function"
    },
    {
      "inputs": [],
      "name": "getMinNotional",
      "outputs": [
        {
          "internalType": "uint256",
          "name": "",
          "type": "uint256"
        }
      ],
      "stateMutability": "view",
      "type": "function"
    },
    {
      "inputs": [
        {
          "internalType": "address",
          "name": "user",
          "type": "address"
        }
      ],
      "name": "getMinimumOpenPartialFillNotional",
      "outputs": [
        {
          "internalType": "uint256",
          "name": "",
          "type": "uint256"
        }
      ],
      "stateMutability": "view",
      "type": "function"
    },
    {
      "inputs": [
        {
          "internalType": "address",
          "name": "user",
          "type": "address"
        }
      ],
      "name": "getMintedAmounts",
      "outputs": [
        {
          "internalType": "uint256",
          "name": "",
          "type": "uint256"
        }
      ],
      "stateMutability": "view",
      "type": "function"
    },
    {
      "inputs": [
        {
          "internalType": "address",
          "name": "user",
          "type": "address"
        }
      ],
      "name": "getOpenPositionNumber",
      "outputs": [
        {
          "internalType": "uint256",
          "name": "",
          "type": "uint256"
        }
      ],
      "stateMutability": "view",
      "type": "function"
    },
    {
      "inputs": [
        {
          "internalType": "address",
          "name": "user",
          "type": "address"
        },
        {
          "internalType": "address",
          "name": "counterparty",
          "type": "address"
        }
      ],
      "name": "getOwedAmount",
      "outputs": [
        {
          "internalType": "uint256",
          "name": "",
          "type": "uint256"
        }
      ],
      "stateMutability": "view",
      "type": "function"
    },
    {
      "inputs": [],
      "name": "getPioneerDao",
      "outputs": [
        {
          "internalType": "address",
          "name": "",
          "type": "address"
        }
      ],
      "stateMutability": "view",
      "type": "function"
    },
    {
      "inputs": [
        {
          "internalType": "address",
          "name": "user",
          "type": "address"
        }
      ],
      "name": "getSponsorReward",
      "outputs": [
        {
          "internalType": "uint256",
          "name": "",
          "type": "uint256"
        }
      ],
      "stateMutability": "view",
      "type": "function"
    },
    {
      "inputs": [
        {
          "internalType": "address",
          "name": "user",
          "type": "address"
        }
      ],
      "name": "getTotalOwedAmount",
      "outputs": [
        {
          "internalType": "uint256",
          "name": "",
          "type": "uint256"
        }
      ],
      "stateMutability": "view",
      "type": "function"
    },
    {
      "inputs": [
        {
          "internalType": "address",
          "name": "user",
          "type": "address"
        }
      ],
      "name": "getTotalOwedAmountPaid",
      "outputs": [
        {
          "internalType": "uint256",
          "name": "",
          "type": "uint256"
        }
      ],
      "stateMutability": "view",
      "type": "function"
    },
    {
      "inputs": [],
      "name": "getTotalShare",
      "outputs": [
        {
          "internalType": "uint256",
          "name": "",
          "type": "uint256"
        }
      ],
      "stateMutability": "view",
      "type": "function"
    },
    {
      "inputs": [],
      "name": "muonAppId",
      "outputs": [
        {
          "internalType": "uint256",
          "name": "",
          "type": "uint256"
        }
      ],
      "stateMutability": "view",
      "type": "function"
    },
    {
      "inputs": [],
      "name": "muonPublicKey",
      "outputs": [
        {
          "internalType": "uint256",
          "name": "x",
          "type": "uint256"
        },
        {
          "internalType": "uint8",
          "name": "parity",
          "type": "uint8"
        }
      ],
      "stateMutability": "view",
      "type": "function"
    },
    {
      "inputs": [
        {
          "internalType": "bytes",
          "name": "reqId",
          "type": "bytes"
        },
        {
          "internalType": "uint256",
          "name": "hash",
          "type": "uint256"
        },
        {
          "components": [
            {
              "internalType": "uint256",
              "name": "signature",
              "type": "uint256"
            },
            {
              "internalType": "address",
              "name": "owner",
              "type": "address"
            },
            {
              "internalType": "address",
              "name": "nonce",
              "type": "address"
            }
          ],
          "internalType": "struct MuonClientBase.SchnorrSign",
          "name": "signature",
          "type": "tuple"
        },
        {
          "components": [
            {
              "internalType": "uint256",
              "name": "x",
              "type": "uint256"
            },
            {
              "internalType": "uint8",
              "name": "parity",
              "type": "uint8"
            }
          ],
          "internalType": "struct MuonClientBase.PublicKey",
          "name": "pubKey",
          "type": "tuple"
        }
      ],
      "name": "muonVerify",
      "outputs": [
        {
          "internalType": "bool",
          "name": "",
          "type": "bool"
        }
      ],
      "stateMutability": "nonpayable",
      "type": "function"
    },
    {
      "inputs": [
        {
          "internalType": "address",
          "name": "user",
          "type": "address"
        },
        {
          "internalType": "uint256",
          "name": "amount",
          "type": "uint256"
        }
      ],
      "name": "removeBalance",
      "outputs": [],
      "stateMutability": "nonpayable",
      "type": "function"
    },
    {
      "inputs": [
        {
          "internalType": "address",
          "name": "user",
          "type": "address"
        },
        {
          "internalType": "uint256",
          "name": "amount",
          "type": "uint256"
        }
      ],
      "name": "removeCumImBalances",
      "outputs": [],
      "stateMutability": "nonpayable",
      "type": "function"
    },
    {
      "inputs": [
        {
          "internalType": "address",
          "name": "user",
          "type": "address"
        },
        {
          "internalType": "uint256",
          "name": "amount",
          "type": "uint256"
        }
      ],
      "name": "removeGracePeriodLockedWithdrawBalances",
      "outputs": [],
      "stateMutability": "nonpayable",
      "type": "function"
    },
    {
      "inputs": [
        {
          "internalType": "address",
          "name": "user",
          "type": "address"
        },
        {
          "internalType": "uint256",
          "name": "amount",
          "type": "uint256"
        }
      ],
      "name": "removeMintedAmounts",
      "outputs": [],
      "stateMutability": "nonpayable",
      "type": "function"
    },
    {
      "inputs": [
        {
          "internalType": "address",
          "name": "user",
          "type": "address"
        },
        {
          "internalType": "address",
          "name": "counterparty",
          "type": "address"
        },
        {
          "internalType": "uint256",
          "name": "amount",
          "type": "uint256"
        }
      ],
      "name": "removeOwedAmount",
      "outputs": [],
      "stateMutability": "nonpayable",
      "type": "function"
    },
    {
      "inputs": [
        {
          "internalType": "address",
          "name": "user",
          "type": "address"
        },
        {
          "internalType": "address",
          "name": "_token",
          "type": "address"
        }
      ],
      "name": "setAccountToToken",
      "outputs": [],
      "stateMutability": "nonpayable",
      "type": "function"
    },
    {
      "inputs": [
        {
          "internalType": "uint256",
          "name": "id",
          "type": "uint256"
        },
        {
          "components": [
            {
              "internalType": "uint256[]",
              "name": "bContractIds",
              "type": "uint256[]"
            },
            {
              "internalType": "uint256[]",
              "name": "price",
              "type": "uint256[]"
            },
            {
              "internalType": "uint256[]",
              "name": "amount",
              "type": "uint256[]"
            },
            {
              "internalType": "uint256[]",
              "name": "limitOrStop",
              "type": "uint256[]"
            },
            {
              "internalType": "uint256[]",
              "name": "expiry",
              "type": "uint256[]"
            },
            {
              "internalType": "address",
              "name": "initiator",
              "type": "address"
            },
            {
              "internalType": "uint256",
              "name": "cancelTime",
              "type": "uint256"
            },
            {
              "internalType": "uint256",
              "name": "openTime",
              "type": "uint256"
            },
            {
              "internalType": "uint256",
              "name": "state",
              "type": "uint256"
            }
          ],
          "internalType": "struct PionerV1Utils.bCloseQuote",
          "name": "newCloseQuote",
          "type": "tuple"
        }
      ],
      "name": "setBCloseQuote",
      "outputs": [],
      "stateMutability": "nonpayable",
      "type": "function"
    },
    {
      "inputs": [
        {
          "internalType": "uint256",
          "name": "id",
          "type": "uint256"
        },
        {
          "components": [
            {
              "internalType": "address",
              "name": "pA",
              "type": "address"
            },
            {
              "internalType": "address",
              "name": "pB",
              "type": "address"
            },
            {
              "internalType": "uint256",
              "name": "oracleId",
              "type": "uint256"
            },
            {
              "internalType": "address",
              "name": "initiator",
              "type": "address"
            },
            {
              "internalType": "uint256",
              "name": "price",
              "type": "uint256"
            },
            {
              "internalType": "uint256",
              "name": "amount",
              "type": "uint256"
            },
            {
              "internalType": "uint256",
              "name": "interestRate",
              "type": "uint256"
            },
            {
              "internalType": "bool",
              "name": "isAPayingAPR",
              "type": "bool"
            },
            {
              "internalType": "uint256",
              "name": "openTime",
              "type": "uint256"
            },
            {
              "internalType": "uint256",
              "name": "state",
              "type": "uint256"
            },
            {
              "internalType": "address",
              "name": "frontEnd",
              "type": "address"
            },
            {
              "internalType": "address",
              "name": "hedger",
              "type": "address"
            },
            {
              "internalType": "address",
              "name": "affiliate",
              "type": "address"
            },
            {
              "internalType": "uint256",
              "name": "cancelTime",
              "type": "uint256"
            }
          ],
          "internalType": "struct PionerV1Utils.bContract",
          "name": "newContract",
          "type": "tuple"
        }
      ],
      "name": "setBContract",
      "outputs": [],
      "stateMutability": "nonpayable",
      "type": "function"
    },
    {
      "inputs": [
        {
          "internalType": "uint256",
          "name": "id",
          "type": "uint256"
        },
        {
          "internalType": "address",
          "name": "target",
          "type": "address"
        },
        {
          "components": [
            {
              "internalType": "uint256",
              "name": "transferOffer",
              "type": "uint256"
            },
            {
              "internalType": "uint256",
              "name": "transferOfferBribe",
              "type": "uint256"
            },
            {
              "internalType": "uint256",
              "name": "transferMethod",
              "type": "uint256"
            },
            {
              "internalType": "uint256",
              "name": "transferQuoteExpiry",
              "type": "uint256"
            },
            {
              "internalType": "bool",
              "name": "transferSide",
              "type": "bool"
            }
          ],
          "internalType": "struct PionerV1Utils.bContractTransferQuote",
          "name": "newBContractTransferQuote",
          "type": "tuple"
        }
      ],
      "name": "setBContractTransferQuote",
      "outputs": [],
      "stateMutability": "nonpayable",
      "type": "function"
    },
    {
      "inputs": [
        {
          "internalType": "uint256",
          "name": "id",
          "type": "uint256"
        },
        {
          "components": [
            {
              "internalType": "address",
              "name": "oracleChangeInitializer",
              "type": "address"
            },
            {
              "internalType": "uint256",
              "name": "oracleChangeId",
              "type": "uint256"
            },
            {
              "internalType": "bool",
              "name": "isTranferAInit",
              "type": "bool"
            },
            {
              "internalType": "bool",
              "name": "isTranferBInit",
              "type": "bool"
            },
            {
              "internalType": "address",
              "name": "targetTransferA",
              "type": "address"
            },
            {
              "internalType": "address",
              "name": "targetTransferB",
              "type": "address"
            },
            {
              "internalType": "uint256",
              "name": "transferBribeA",
              "type": "uint256"
            },
            {
              "internalType": "uint256",
              "name": "transferBribeB",
              "type": "uint256"
            }
          ],
          "internalType": "struct PionerV1Utils.bContractUpdate",
          "name": "newContractUpdate",
          "type": "tuple"
        }
      ],
      "name": "setBContractUpdate",
      "outputs": [],
      "stateMutability": "nonpayable",
      "type": "function"
    },
    {
      "inputs": [
        {
          "internalType": "uint256",
          "name": "id",
          "type": "uint256"
        },
        {
          "components": [
            {
              "internalType": "bytes32",
              "name": "asset1",
              "type": "bytes32"
            },
            {
              "internalType": "bytes32",
              "name": "asset2",
              "type": "bytes32"
            },
            {
              "internalType": "uint256",
              "name": "oracleType",
              "type": "uint256"
            },
            {
              "internalType": "address",
              "name": "priceFeedAddress",
              "type": "address"
            },
            {
              "internalType": "bytes32",
              "name": "pythAddress1",
              "type": "bytes32"
            },
            {
              "internalType": "bytes32",
              "name": "pythAddress2",
              "type": "bytes32"
            },
            {
              "internalType": "uint256",
              "name": "lastBid",
              "type": "uint256"
            },
            {
              "internalType": "uint256",
              "name": "lastAsk",
              "type": "uint256"
            },
            {
              "internalType": "address",
              "name": "publicOracleAddress",
              "type": "address"
            },
            {
              "internalType": "uint256",
              "name": "maxConfidence",
              "type": "uint256"
            },
            {
              "internalType": "uint256",
              "name": "x",
              "type": "uint256"
            },
            {
              "internalType": "uint8",
              "name": "parity",
              "type": "uint8"
            },
            {
              "internalType": "uint256",
              "name": "maxDelay",
              "type": "uint256"
            },
            {
              "internalType": "uint256",
              "name": "lastPrice",
              "type": "uint256"
            },
            {
              "internalType": "uint256",
              "name": "lastPriceUpdateTime",
              "type": "uint256"
            },
            {
              "internalType": "uint256",
              "name": "imA",
              "type": "uint256"
            },
            {
              "internalType": "uint256",
              "name": "imB",
              "type": "uint256"
            },
            {
              "internalType": "uint256",
              "name": "dfA",
              "type": "uint256"
            },
            {
              "internalType": "uint256",
              "name": "dfB",
              "type": "uint256"
            },
            {
              "internalType": "uint256",
              "name": "expiryA",
              "type": "uint256"
            },
            {
              "internalType": "uint256",
              "name": "expiryB",
              "type": "uint256"
            },
            {
              "internalType": "uint256",
              "name": "timeLockA",
              "type": "uint256"
            },
            {
              "internalType": "uint256",
              "name": "timeLockB",
              "type": "uint256"
            },
            {
              "internalType": "uint256",
              "name": "cType",
              "type": "uint256"
            },
            {
              "internalType": "uint256",
              "name": "forceCloseType",
              "type": "uint256"
            },
            {
              "internalType": "address",
              "name": "kycAddress",
              "type": "address"
            },
            {
              "internalType": "bool",
              "name": "isPaused",
              "type": "bool"
            },
            {
              "internalType": "uint256",
              "name": "deployTime",
              "type": "uint256"
            }
          ],
          "internalType": "struct PionerV1Utils.bOracle",
          "name": "newOracle",
          "type": "tuple"
        }
      ],
      "name": "setBOracle",
      "outputs": [],
      "stateMutability": "nonpayable",
      "type": "function"
    },
    {
      "inputs": [
        {
          "internalType": "bytes",
          "name": "id",
          "type": "bytes"
        },
        {
          "internalType": "address",
          "name": "target",
          "type": "address"
        },
        {
          "internalType": "uint256",
          "name": "value",
          "type": "uint256"
        }
      ],
      "name": "setCancelledCloseQuotes",
      "outputs": [],
      "stateMutability": "nonpayable",
      "type": "function"
    },
    {
      "inputs": [
        {
          "internalType": "bytes",
          "name": "id",
          "type": "bytes"
        },
        {
          "internalType": "address",
          "name": "target",
          "type": "address"
        },
        {
          "internalType": "uint256",
          "name": "value",
          "type": "uint256"
        }
      ],
      "name": "setCancelledOpenQuotes",
      "outputs": [],
      "stateMutability": "nonpayable",
      "type": "function"
    },
    {
      "inputs": [
        {
          "internalType": "address",
          "name": "user",
          "type": "address"
        },
        {
          "internalType": "uint256",
          "name": "amount",
          "type": "uint256"
        }
      ],
      "name": "setCumImBalances",
      "outputs": [],
      "stateMutability": "nonpayable",
      "type": "function"
    },
    {
      "inputs": [
        {
          "internalType": "address",
          "name": "id",
          "type": "address"
        },
        {
          "internalType": "uint256",
          "name": "value",
          "type": "uint256"
        }
      ],
      "name": "setGracePeriodLockedTime",
      "outputs": [],
      "stateMutability": "nonpayable",
      "type": "function"
    },
    {
      "inputs": [
        {
          "internalType": "address",
          "name": "user",
          "type": "address"
        },
        {
          "internalType": "address",
          "name": "counterparty",
          "type": "address"
        },
        {
          "internalType": "uint256",
          "name": "amount",
          "type": "uint256"
        }
      ],
      "name": "setOwedAmount",
      "outputs": [],
      "stateMutability": "nonpayable",
      "type": "function"
    },
    {
      "inputs": [
        {
          "internalType": "address",
          "name": "user",
          "type": "address"
        },
        {
          "internalType": "uint256",
          "name": "amount",
          "type": "uint256"
        }
      ],
      "name": "setTotalOwedAmount",
      "outputs": [],
      "stateMutability": "nonpayable",
      "type": "function"
    },
    {
      "inputs": [
        {
          "internalType": "address",
          "name": "user",
          "type": "address"
        },
        {
          "internalType": "uint256",
          "name": "amount",
          "type": "uint256"
        }
      ],
      "name": "setTotalOwedAmountPaid",
      "outputs": [],
      "stateMutability": "nonpayable",
      "type": "function"
    },
    {
      "inputs": [
        {
          "internalType": "address",
          "name": "kyc",
          "type": "address"
        },
        {
          "internalType": "uint256",
          "name": "_id",
          "type": "uint256"
        }
      ],
      "name": "setbOracleIdStable",
      "outputs": [],
      "stateMutability": "nonpayable",
      "type": "function"
    },
    {
      "inputs": [
        {
          "internalType": "uint256",
          "name": "signingPubKeyX",
          "type": "uint256"
        }
      ],
      "name": "validatePubKey",
      "outputs": [],
      "stateMutability": "pure",
      "type": "function"
    },
    {
      "inputs": [
        {
          "internalType": "uint256",
          "name": "signingPubKeyX",
          "type": "uint256"
        },
        {
          "internalType": "uint8",
          "name": "pubKeyYParity",
          "type": "uint8"
        },
        {
          "internalType": "uint256",
          "name": "signature",
          "type": "uint256"
        },
        {
          "internalType": "uint256",
          "name": "msgHash",
          "type": "uint256"
        },
        {
          "internalType": "address",
          "name": "nonceTimesGeneratorAddress",
          "type": "address"
        }
      ],
      "name": "verifySignature",
      "outputs": [
        {
          "internalType": "bool",
          "name": "",
          "type": "bool"
        }
      ],
      "stateMutability": "pure",
      "type": "function"
    }
  ],
  "bytecode": "0x60808060405234610016576144b9908161001c8239f35b600080fdfe608080604052600436101561001357600080fd5b60003560e01c90816302ad7f4314613ca45750806303339c8614613b9d57806306faa448146139f45780630b671e6f146139ba5780630c965b31146136c85780630cdbf967146135de5780630e129569146134ef57806311d7e2a0146134f45780631425d2fa146134ef578063154c7d1e146133d357806315c868781461339957806318967df81461335f5780631cd8e7001461325b5780631d74b67d146130d75780631da5475e146130b957806321e5383a14612fb55780632b08fc1514612f2a5780632eb41cf814612e18578063304e24e914612dde5780633205b1d714612dc057806339bbfb9114612d7b5780633a1ebe0c14612c775780633f06cd6614612c5957806343c3cc8514612b5557806345ba6a8214612b3757806346192c9c14612a3757806348d29b191461080457806355804d06146129fd5780635dee2839146129c357806361dbb3b2146129895780636526adbe146128835780636639013f1461278357806367aeb0f31461276557806367cf9c3b1461270157806374f95a401461236e5780637669c2bb146122a75780638224604a14612273578063828b6e9b1461216f57806384ad7169146121515780638738428d146121175780638da17917146120d25780638e95b51b14611fce5780638efb3bb214611f9d5780639023196114611f645780639766821c14611f3b5780639c13131214611f1d578063a1595d4514611d0b578063a24f76cb14611c09578063a67986a214611bb8578063a747300414611aaf578063af0825af146119ab578063af40d56f14611970578063af663e9b14611948578063b3f74d891461192a578063b5b2578a14611559578063b8d98ce514611459578063ba97893c14611355578063bd008a8f14611255578063bd3111711461114c578063c00694141461107c578063c84aae17146103ba578063cb1fb96414610f92578063cda25f4114610e8e578063d270f04c14610e2a578063d388ed23146108f8578063d4068158146108be578063db7e8c0f14610884578063e47e44551461084a578063e493ef8c1461081d578063e558391f14610804578063e57764f6146106e5578063e699af8a146106c7578063e919aa5f146104e5578063f0649dcf146104c7578063f4364a2f146103bf578063f8b2cb4f146103ba5763ff51dff21461036e57600080fd5b346103b55760a03660031901126103b55760243560ff811681036103b5576103ab60209161039a613d06565b9060643590604435906004356142ce565b6040519015158152f35b600080fd5b613fa0565b346103b55760403660031901126103b5576103d8613cda565b30331480156104b3575b801561049f575b801561048b575b8015610477575b8015610463575b801561044f575b801561043b575b61041590614091565b60018060a01b0316600052602960205260406000206104376024358254613f4d565b9055005b506019546001600160a01b0316331461040c565b506018546001600160a01b03163314610405565b506014546001600160a01b031633146103fe565b506013546001600160a01b031633146103f7565b506012546001600160a01b031633146103f0565b506011546001600160a01b031633146103e9565b506010546001600160a01b031633146103e2565b346103b55760003660031901126103b5576020600a54604051908152f35b346103b5576101203660031901126103b5576101003660231901126103b55760405161051081613dd8565b610518613cf0565b81526020810160443581526064359081151582036103b557604083019182526084359081151582036103b5576060840191825260a435906001600160a01b039081831683036103b5576080860192835260c4359180831683036103b55760059560a0880193845260c088019460e435865260e089019661010435885230331480156106ba575b80156106ad575b80156106a0575b8015610693575b8015610686575b8015610679575b801561066c575b6105d190614091565b600435600052601f6020528360406000209a5116946001600160601b0360a01b95868c5416178b555160018b015561061c60028b0193511515849060ff801983541691151516179055565b5182549151610100600160b01b031990921690151560081b61ff00161760109190911b62010000600160b01b03161790559151600387018054909216921691909117905551600484015551910155005b50601954841633146105c8565b50836018541633146105c1565b50836014541633146105ba565b50836013541633146105b3565b50836012541633146105ac565b50836011541633146105a5565b508360105416331461059e565b346103b55760003660031901126103b5576020602154604051908152f35b346103b55760203660031901126103b5576106fe613cda565b30331480156107f0575b80156107dc575b80156107c8575b80156107b4575b80156107a0575b801561078c575b8015610778575b61073b90614091565b6001600160a01b031660009081526023602052604090208054801561076257600019019055005b634e487b7160e01b600052601160045260246000fd5b506019546001600160a01b03163314610732565b506018546001600160a01b0316331461072b565b506014546001600160a01b03163314610724565b506013546001600160a01b0316331461071d565b506012546001600160a01b03163314610716565b506011546001600160a01b0316331461070f565b506010546001600160a01b03163314610708565b346103b55761081b61081536613d1c565b916140f1565b005b346103b55760003660031901126103b557602060405170014551231950b75fc4402da1732fc9bebe198152f35b346103b55760203660031901126103b5576001600160a01b0361086b613cda565b16600052602c6020526020604060002054604051908152f35b346103b55760203660031901126103b5576001600160a01b036108a5613cda565b16600052602b6020526020604060002054604051908152f35b346103b55760203660031901126103b5576001600160a01b036108df613cda565b1660005260276020526020604060002054604051908152f35b346103b5576003196040368201126103b557602435906001600160401b0382116103b5576101209082360301126103b5576040519061093682613d85565b80600401356001600160401b0381116103b5576109599060043691840101613fda565b825260248101356001600160401b0381116103b55761097e9060043691840101613fda565b602083015260448101356001600160401b0381116103b5576109a69060043691840101613fda565b604083015260648101356001600160401b0381116103b5576109ce9060043691840101613fda565b606083015260848101356001600160401b0381116103b5576109f69060043691840101613fda565b608083015260a4810135906001600160a01b03821682036103b5576101049160a084015260c481013560c084015260e481013560e084015201356101008201523033148015610e16575b8015610e02575b8015610dee575b8015610dda575b8015610dc6575b8015610db2575b8015610d9e575b610a7390614091565b600435600052602260205260406000209080518051906001600160401b038211610c8757600160401b8211610c87578354828555808310610d74575b5060200183600052602060002060005b838110610d6057858560208101518051906001600160401b038211610c8757600160401b8211610c87576001840154826001860155808310610d33575b5060200160018401600052602060002060005b838110610d1f57858560408101518051906001600160401b038211610c8757600160401b8211610c87576002840154826002860155808310610cf2575b5060200160028401600052602060002060005b838110610cde57858560608101518051906001600160401b038211610c8757600160401b8211610c87576003840154826003860155808310610cb1575b5060200160038401600052602060002060005b838110610c9d578585600482016080820151908151916001600160401b038311610c8757600160401b8311610c87578154838355808410610c5e575b5060200190600052602060002060005b838110610c4a5760a08501516005870180546001600160a01b0319166001600160a01b039290921691909117905560c0850151600687015560e085015160078701556101008501516008870155005b600190602084519401938184015501610bfb565b8260005283602060002091820191015b818110610c7b5750610beb565b60008155600101610c6e565b634e487b7160e01b600052604160045260246000fd5b600190602084519401938184015501610baf565b600385016000526020600020908382015b8183018110610cd2575050610b9c565b60008155600101610cc2565b600190602084519401938184015501610b5f565b600285016000526020600020908382015b8183018110610d13575050610b4c565b60008155600101610d03565b600190602084519401938184015501610b0f565b600185016000526020600020908382015b8183018110610d54575050610afc565b60008155600101610d44565b600190602084519401938184015501610abf565b846000526020600020908382015b8183018110610d92575050610aaf565b60008155600101610d82565b506019546001600160a01b03163314610a6a565b506018546001600160a01b03163314610a63565b506014546001600160a01b03163314610a5c565b506013546001600160a01b03163314610a55565b506012546001600160a01b03163314610a4e565b506011546001600160a01b03163314610a47565b506010546001600160a01b03163314610a40565b346103b557610e3836613ec9565b90604051908181519160005b838110610e79575050602091810160328152030190209060018060a01b03166000526020526020604060002054604051908152f35b60208282018101518683015285935001610e44565b346103b55760403660031901126103b557610ea7613cda565b3033148015610f7e575b8015610f6a575b8015610f56575b8015610f42575b8015610f2e575b8015610f1a575b8015610f06575b610ee490614091565b60018060a01b03166000526030602052604060002061043760243582546140e4565b506019546001600160a01b03163314610edb565b506018546001600160a01b03163314610ed4565b506014546001600160a01b03163314610ecd565b506013546001600160a01b03163314610ec6565b506012546001600160a01b03163314610ebf565b506011546001600160a01b03163314610eb8565b506010546001600160a01b03163314610eb1565b346103b55760003660031901126103b5573033148015611068575b8015611054575b8015611040575b801561102c575b8015611018575b8015611004575b8015610ff0575b610fe090614091565b610feb6021546140d5565b602155005b506019546001600160a01b03163314610fd7565b506018546001600160a01b03163314610fd0565b506014546001600160a01b03163314610fc9565b506013546001600160a01b03163314610fc2565b506012546001600160a01b03163314610fbb565b506011546001600160a01b03163314610fb4565b506010546001600160a01b03163314610fad565b346103b55760403660031901126103b55760a0611097613cf0565b604051906110a482613dbd565b600082526000608060209382858201528260408201528260608201520152600435600052818052604060002090600180851b031660005281526040600020604051906110ef82613dbd565b80549283835260018201549080840191825260028301549160408501928352608060ff6004600387015496606089019788520154169501941515855260405195865251908501525160408401525160608301525115156080820152f35b346103b557602061115c36613f5a565b9390923033148015611241575b801561122d575b8015611219575b8015611205575b80156111f1575b80156111dd575b80156111c9575b61119c90614091565b826040519384928337810160338152030190209060018060a01b0316600052602052604060002055600080f35b506019546001600160a01b03163314611193565b506018546001600160a01b0316331461118c565b506014546001600160a01b03163314611185565b506013546001600160a01b0316331461117e565b506012546001600160a01b03163314611177565b506011546001600160a01b03163314611170565b506010546001600160a01b03163314611169565b346103b55760403660031901126103b55761126e613cda565b3033148015611341575b801561132d575b8015611319575b8015611305575b80156112f1575b80156112dd575b80156112c9575b6112ab90614091565b6001600160a01b03166000908152602a602052604090206024359055005b506019546001600160a01b031633146112a2565b506018546001600160a01b0316331461129b565b506014546001600160a01b03163314611294565b506013546001600160a01b0316331461128d565b506012546001600160a01b03163314611286565b506011546001600160a01b0316331461127f565b506010546001600160a01b03163314611278565b346103b55760403660031901126103b55761136e613cda565b3033148015611445575b8015611431575b801561141d575b8015611409575b80156113f5575b80156113e1575b80156113cd575b6113ab90614091565b60018060a01b03166000526029602052604060002061043760243582546140e4565b506019546001600160a01b031633146113a2565b506018546001600160a01b0316331461139b565b506014546001600160a01b03163314611394565b506013546001600160a01b0316331461138d565b506012546001600160a01b03163314611386565b506011546001600160a01b0316331461137f565b506010546001600160a01b03163314611378565b346103b55760403660031901126103b557611472613cda565b3033148015611545575b8015611531575b801561151d575b8015611509575b80156114f5575b80156114e1575b80156114cd575b6114af90614091565b6001600160a01b031660009081526025602052604090206024359055005b506019546001600160a01b031633146114a6565b506018546001600160a01b0316331461149f565b506014546001600160a01b03163314611498565b506013546001600160a01b03163314611491565b506012546001600160a01b0316331461148a565b506011546001600160a01b03163314611483565b506010546001600160a01b0316331461147c565b346103b5576103a03660031901126103b5576103803660231901126103b55760405161158481613df4565b6024358152604435602082015260643560408201526115a1613d06565b606082015260a435608082015260c43560a082015260e43560c08201526101043560e0820152610124356001600160a01b03811681036103b55761010082015261014435610120820152610164356101408201526101843560ff811681036103b5576101608201526101a4356101808201526101c4356101a08201526101e4356101c0820152610204356101e0820152610224356102008201526102443561022082015261026435610240820152610284356102608201526102a4356102808201526102c4356102a08201526102e4356102c0820152610304356102e082015261032435610300820152610344356001600160a01b03811690036103b5576103443561032082015261036435151561036435036103b55761036435610340820152610384356103608201523033148015611916575b8015611902575b80156118ee575b80156118da575b80156118c6575b80156118b2575b801561189e575b61170990614091565b600435600052601c602052601a6103606040600020928051845560208101516001850155604081015160028501556003840160018060a01b03606083015116906001600160601b0360a01b91828254161790556080820151600486015560a0820151600586015560c0820151600686015560e08201516007860155600885019060018060a01b0361010084015116908254161790556101208101516009850155610140810151600a850155600b840160ff6101608301511660ff19825416179055610180810151600c8501556101a0810151600d8501556101c0810151600e8501556101e0810151600f850155610200810151601085015561022081015160118501556102408101516012850155610260810151601385015561028081015160148501556102a081015160158501556102c081015160168501556102e0810151601785015561030081015160188501556019840160018060a01b036103208301511681549060ff60a01b610340850151151560a01b16916affffffffffffffffffffff60a81b16171790550151910155600080f35b506019546001600160a01b03163314611700565b506018546001600160a01b031633146116f9565b506014546001600160a01b031633146116f2565b506013546001600160a01b031633146116eb565b506012546001600160a01b031633146116e4565b506011546001600160a01b031633146116dd565b506010546001600160a01b031633146116d6565b346103b55760003660031901126103b5576020600054604051908152f35b346103b55760003660031901126103b557604060015460ff6002541682519182526020820152f35b346103b55760203660031901126103b55760206001600160a01b0380611994613cda565b16600052602e825260406000205416604051908152f35b346103b55760403660031901126103b5576119c4613cda565b3033148015611a9b575b8015611a87575b8015611a73575b8015611a5f575b8015611a4b575b8015611a37575b8015611a23575b611a0190614091565b60018060a01b0316600052601a602052604060002061043760243582546140e4565b506019546001600160a01b031633146119f8565b506018546001600160a01b031633146119f1565b506014546001600160a01b031633146119ea565b506013546001600160a01b031633146119e3565b506012546001600160a01b031633146119dc565b506011546001600160a01b031633146119d5565b506010546001600160a01b031633146119ce565b346103b5576020611abf36613f5a565b9390923033148015611ba4575b8015611b90575b8015611b7c575b8015611b68575b8015611b54575b8015611b40575b8015611b2c575b611aff90614091565b826040519384928337810160328152030190209060018060a01b0316600052602052604060002055600080f35b506019546001600160a01b03163314611af6565b506018546001600160a01b03163314611aef565b506014546001600160a01b03163314611ae8565b506013546001600160a01b03163314611ae1565b506012546001600160a01b03163314611ada565b506011546001600160a01b03163314611ad3565b506010546001600160a01b03163314611acc565b346103b55760403660031901126103b557611bd1613cda565b611bd9613cf0565b9060018060a01b038091166000526024602052604060002091166000526020526020604060002054604051908152f35b346103b557611c1736613d1c565b913033148015611cf7575b8015611ce3575b8015611ccf575b8015611cbb575b8015611ca7575b8015611c93575b8015611c7f575b611c5590614091565b60018060a01b03809116600052602460205260406000209116600052602052604060002055600080f35b506019546001600160a01b03163314611c4c565b506018546001600160a01b03163314611c45565b506014546001600160a01b03163314611c3e565b506013546001600160a01b03163314611c37565b506012546001600160a01b03163314611c30565b506011546001600160a01b03163314611c29565b506010546001600160a01b03163314611c22565b346103b55760203660031901126103b55760006101a0604051611d2d81613da1565b8281528260208201528260408201528260608201528260808201528260a08201528260c08201528260e082015282610100820152826101208201528261014082015282610160820152826101808201520152600435600052601e6020526101c060406000206101a0604051611da181613da1565b600d60018060a01b038454169384835260018060a01b0360018201541660208401526002810154604084015260018060a01b03600382015416606084015260048101546080840152600581015460a0840152600681015460c084015260ff600782015416151560e08401526008810154610100840152600981015461012084015260018060a01b03600a8201541661014084015260018060a01b03600b8201541661016084015260018060a01b03600c8201541661018084015201548282015260405192835260018060a01b0360208201511660208401526040810151604084015260018060a01b0360608201511660608401526080810151608084015260a081015160a084015260c081015160c084015260e0810151151560e084015261010081015161010084015261012081015161012084015260018060a01b036101408201511661014084015260018060a01b036101608201511661016084015260018060a01b036101808201511661018084015201516101a0820152f35b346103b55760003660031901126103b5576020601d54604051908152f35b346103b55760003660031901126103b557600d546040516001600160a01b039091168152602090f35b346103b55760203660031901126103b5576001600160a01b03611f85613cda565b166000526023602052604060002061043781546140d5565b346103b55760003660031901126103b55760206040516fa2a8918ca85bafe22016d0b997e4df5f600160ff1b038152f35b346103b55760403660031901126103b557611fe7613cda565b30331480156120be575b80156120aa575b8015612096575b8015612082575b801561206e575b801561205a575b8015612046575b61202490614091565b60018060a01b0316600052603060205260406000206104376024358254613f4d565b506019546001600160a01b0316331461201b565b506018546001600160a01b03163314612014565b506014546001600160a01b0316331461200d565b506013546001600160a01b03163314612006565b506012546001600160a01b03163314611fff565b506011546001600160a01b03163314611ff8565b506010546001600160a01b03163314611ff1565b346103b55760206120e236613e87565b929091826040519384928337810160338152030190209060018060a01b03166000526020526020604060002054604051908152f35b346103b55760203660031901126103b5576001600160a01b03612138613cda565b1660005260266020526020604060002054604051908152f35b346103b55760003660031901126103b5576020601b54604051908152f35b346103b55760403660031901126103b557612188613cda565b303314801561225f575b801561224b575b8015612237575b8015612223575b801561220f575b80156121fb575b80156121e7575b6121c590614091565b60018060a01b0316600052602f60205260406000206104376024358254613f4d565b506019546001600160a01b031633146121bc565b506018546001600160a01b031633146121b5565b506014546001600160a01b031633146121ae565b506013546001600160a01b031633146121a7565b506012546001600160a01b031633146121a0565b506011546001600160a01b03163314612199565b506010546001600160a01b03163314612192565b346103b55760203660031901126103b55761081b6fa2a8918ca85bafe22016d0b997e4df5f600160ff1b0360043510614289565b346103b55760e03660031901126103b5576001600160401b036004358181116103b5576122d8903690600401613e5a565b9160603660431901126103b5576040516060810181811083821117610c875760405260443581526064356001600160a01b03811681036103b557602082015261231f613d06565b6040820152604060a3193601126103b55760405191604083019083821090821117610c875760405260a435825260c4359260ff841684036103b5576020946103ab9486850152602435916141ed565b346103b55760203660031901126103b557600061036060405161239081613df4565b8281528260208201528260408201528260608201528260808201528260a08201528260c08201528260e08201528261010082015282610120820152826101408201528261016082015282610180820152826101a0820152826101c0820152826101e08201528261020082015282610220820152826102408201528261026082015282610280820152826102a0820152826102c0820152826102e08201528261030082015282610320820152826103408201520152600435600052601c602052610380604060002061036060405161246681613df4565b601a835493848352600181015460208401526002810154604084015260018060a01b03600382015416606084015260048101546080840152600581015460a0840152600681015460c0840152600781015460e084015260018060a01b036008820154166101008401526009810154610120840152600a81015461014084015260ff600b82015416610160840152600c810154610180840152600d8101546101a0840152600e8101546101c0840152600f8101546101e08401526010810154610200840152601181015461022084015260128101546102408401526013810154610260840152601481015461028084015260158101546102a084015260168101546102c084015260178101546102e0840152601881015461030084015260ff601982015460018060a01b03811661032086015260a01c161515610340840152015482820152604051928352602081015160208401526040810151604084015260018060a01b0360608201511660608401526080810151608084015260a081015160a084015260c081015160c084015260e081015160e084015260018060a01b036101008201511661010084015261012081015161012084015261014081015161014084015260ff610160820151166101608401526101808101516101808401526101a08101516101a08401526101c08101516101c08401526101e08101516101e08401526102008101516102008401526102208101516102208401526102408101516102408401526102608101516102608401526102808101516102808401526102a08101516102a08401526102c08101516102c08401526102e08101516102e084015261030081015161030084015260018060a01b036103208201511661032084015261034081015115156103408401520151610360820152f35b346103b55761270f36613ec9565b90604051908181519160005b838110612750575050602091810160338152030190209060018060a01b03166000526020526020604060002054604051908152f35b6020828201810151868301528593500161271b565b346103b55760003660031901126103b5576020600954604051908152f35b346103b55760403660031901126103b55761279c613cda565b303314801561286f575b801561285b575b8015612847575b8015612833575b801561281f575b801561280b575b80156127f7575b6127d990614091565b6001600160a01b031660009081526026602052604090206024359055005b506019546001600160a01b031633146127d0565b506018546001600160a01b031633146127c9565b506014546001600160a01b031633146127c2565b506013546001600160a01b031633146127bb565b506012546001600160a01b031633146127b4565b506011546001600160a01b031633146127ad565b506010546001600160a01b031633146127a6565b346103b55760403660031901126103b55761289c613cda565b3033148015612975575b8015612961575b801561294d575b8015612939575b8015612925575b8015612911575b80156128fd575b6128d990614091565b6001600160a01b03166000908152602d6020526040902080546103b5576024359055005b506019546001600160a01b031633146128d0565b506018546001600160a01b031633146128c9565b506014546001600160a01b031633146128c2565b506013546001600160a01b031633146128bb565b506012546001600160a01b031633146128b4565b506011546001600160a01b031633146128ad565b506010546001600160a01b031633146128a6565b346103b55760203660031901126103b5576001600160a01b036129aa613cda565b16600052602a6020526020604060002054604051908152f35b346103b55760203660031901126103b5576001600160a01b036129e4613cda565b1660005260256020526020604060002054604051908152f35b346103b55760203660031901126103b5576001600160a01b03612a1e613cda565b16600052602d6020526020604060002054604051908152f35b346103b55760403660031901126103b557612a50613cda565b3033148015612b23575b8015612b0f575b8015612afb575b8015612ae7575b8015612ad3575b8015612abf575b8015612aab575b612a8d90614091565b6001600160a01b031660009081526030602052604090206024359055005b506019546001600160a01b03163314612a84565b506018546001600160a01b03163314612a7d565b506014546001600160a01b03163314612a76565b506013546001600160a01b03163314612a6f565b506012546001600160a01b03163314612a68565b506011546001600160a01b03163314612a61565b506010546001600160a01b03163314612a5a565b346103b55760003660031901126103b5576020600c54604051908152f35b346103b55760403660031901126103b557612b6e613cda565b3033148015612c45575b8015612c31575b8015612c1d575b8015612c09575b8015612bf5575b8015612be1575b8015612bcd575b612bab90614091565b60018060a01b0316600052602f602052604060002061043760243582546140e4565b506019546001600160a01b03163314612ba2565b506018546001600160a01b03163314612b9b565b506014546001600160a01b03163314612b94565b506013546001600160a01b03163314612b8d565b506012546001600160a01b03163314612b86565b506011546001600160a01b03163314612b7f565b506010546001600160a01b03163314612b78565b346103b55760003660031901126103b5576020600854604051908152f35b346103b55760403660031901126103b557612c90613cda565b3033148015612d67575b8015612d53575b8015612d3f575b8015612d2b575b8015612d17575b8015612d03575b8015612cef575b612ccd90614091565b60018060a01b03166000526025602052604060002061043760243582546140e4565b506019546001600160a01b03163314612cc4565b506018546001600160a01b03163314612cbd565b506014546001600160a01b03163314612cb6565b506013546001600160a01b03163314612caf565b506012546001600160a01b03163314612ca8565b506011546001600160a01b03163314612ca1565b506010546001600160a01b03163314612c9a565b346103b5576020612d8b36613e87565b929091826040519384928337810160328152030190209060018060a01b03166000526020526020604060002054604051908152f35b346103b55760003660031901126103b5576020600b54604051908152f35b346103b55760203660031901126103b5576001600160a01b03612dff613cda565b1660005260286020526020604060002054604051908152f35b346103b55760203660031901126103b557600060e0604051612e3981613dd8565b8281528260208201528260408201528260608201528260808201528260a08201528260c08201520152600435600052601f6020526101006040600020604051612e8181613dd8565b60018060a01b039182815416928383526001820154602084019081528160028401546040860160ff821615158152606087019060ff8360081c161515825283608089019360101c168352836003880154169460a0890195865260e0600560048a01549960c08c019a8b5201549901988952604051998a525160208a01525115156040890152511515606088015251166080860152511660a08401525160c08301525160e0820152f35b346103b55760003660031901126103b557610180600354600454600554600654600754600854600954600a5491600b5493600c549560018060a01b039788600d541698600e5416996040519b8c5260208c015260408b015260608a0152608089015260a088015260c087015260e0860152610100850152610120840152610140830152610160820152f35b346103b55760403660031901126103b557612fce613cda565b30331480156130a5575b8015613091575b801561307d575b8015613069575b8015613055575b8015613041575b801561302d575b61300b90614091565b60018060a01b0316600052601a60205260406000206104376024358254613f4d565b506019546001600160a01b03163314613002565b506018546001600160a01b03163314612ffb565b506014546001600160a01b03163314612ff4565b506013546001600160a01b03163314612fed565b506012546001600160a01b03163314612fe6565b506011546001600160a01b03163314612fdf565b506010546001600160a01b03163314612fd8565b346103b55760003660031901126103b5576020600354604051908152f35b346103b55760e03660031901126103b5576130f0613cf0565b60a03660431901126103b55760405161310881613dbd565b6044358152602081019160643583526040820160843581526060830160a435815260c4359182151583036103b55761081b95600494608087019485523033148015613247575b8015613233575b801561321f575b801561320b575b80156131f7575b80156131e3575b80156131cf575b61318190614091565b85356000526020805260406000209060018060a01b031660005260205260406000209551865551600186015551600285015551600384015551151591019060ff801983541691151516179055565b506019546001600160a01b03163314613178565b506018546001600160a01b03163314613171565b506014546001600160a01b0316331461316a565b506013546001600160a01b03163314613163565b506012546001600160a01b0316331461315c565b506011546001600160a01b03163314613155565b506010546001600160a01b0316331461314e565b346103b55760403660031901126103b557613274613cda565b303314801561334b575b8015613337575b8015613323575b801561330f575b80156132fb575b80156132e7575b80156132d3575b6132b190614091565b60018060a01b03166000526026602052604060002061043760243582546140e4565b506019546001600160a01b031633146132a8565b506018546001600160a01b031633146132a1565b506014546001600160a01b0316331461329a565b506013546001600160a01b03163314613293565b506012546001600160a01b0316331461328c565b506011546001600160a01b03163314613285565b506010546001600160a01b0316331461327e565b346103b55760203660031901126103b5576001600160a01b03613380613cda565b1660005260236020526020604060002054604051908152f35b346103b55760203660031901126103b5576001600160a01b036133ba613cda565b1660005260306020526020604060002054604051908152f35b346103b55760403660031901126103b5576133ec613cda565b6133f4613cf0565b9030331480156134db575b80156134c7575b80156134b3575b801561349f575b801561348b575b8015613477575b8015613463575b61343290614091565b6001600160a01b039081166000908152602e6020526040902080546001600160a01b03191692909116919091179055005b506019546001600160a01b03163314613429565b506018546001600160a01b03163314613422565b506014546001600160a01b0316331461341b565b506013546001600160a01b03163314613414565b506012546001600160a01b0316331461340d565b506011546001600160a01b03163314613406565b506010546001600160a01b031633146133ff565b613e31565b346103b55760003660031901126103b55730331480156135ca575b80156135b6575b80156135a2575b801561358e575b801561357a575b8015613566575b8015613552575b61354290614091565b61354d601b546140d5565b601b55005b506019546001600160a01b03163314613539565b506018546001600160a01b03163314613532565b506014546001600160a01b0316331461352b565b506013546001600160a01b03163314613524565b506012546001600160a01b0316331461351d565b506011546001600160a01b03163314613516565b506010546001600160a01b0316331461350f565b346103b55760003660031901126103b55730331480156136b4575b80156136a0575b801561368c575b8015613678575b8015613664575b8015613650575b801561363c575b61362c90614091565b613637601d546140d5565b601d55005b506019546001600160a01b03163314613623565b506018546001600160a01b0316331461361c565b506014546001600160a01b03163314613615565b506013546001600160a01b0316331461360e565b506012546001600160a01b03163314613607565b506011546001600160a01b03163314613600565b506010546001600160a01b031633146135f9565b346103b5576101e03660031901126103b5576101c03660231901126103b5576040516136f381613da1565b6136fb613cf0565b81526044356001600160a01b03811681036103b55760208201526064356040820152613725613d06565b606082015260a435608082015260c43560a082015260e43560c08201526101043580151581036103b55760e08201526101243561010082015261014435610120820152610164356001600160a01b03811681036103b557610140820152610184356001600160a01b03811681036103b5576101608201526101a4356001600160a01b03811690036103b5576101a4356101808201526101c4356101a082015230331480156139a6575b8015613992575b801561397e575b801561396a575b8015613956575b8015613942575b801561392e575b61380190614091565b600435600052601e602052600d6101a060406000209260018060a01b038151166001600160601b0360a01b8554161784556001840160018060a01b036020830151166001600160601b0360a01b825416179055604081015160028501556003840160018060a01b036060830151166001600160601b0360a01b8254161790556080810151600485015560a0810151600585015560c081015160068501556138bd60e08201511515600786019060ff801983541691151516179055565b61010081015160088501556101208101516009850155610140810151600a850180546001600160a01b039283166001600160a01b031991821617909155610160830151600b87018054918416918316919091179055610180830151600c870180549190931691161790550151910155005b506019546001600160a01b031633146137f8565b506018546001600160a01b031633146137f1565b506014546001600160a01b031633146137ea565b506013546001600160a01b031633146137e3565b506012546001600160a01b031633146137dc565b506011546001600160a01b031633146137d5565b506010546001600160a01b031633146137ce565b346103b55760203660031901126103b5576001600160a01b036139db613cda565b1660005260296020526020604060002054604051908152f35b346103b55760203660031901126103b5576000610100604051613a1681613d85565b606081526060602082015260606040820152606080820152606060808201528260a08201528260c08201528260e0820152015260043560005260226020526040600020600860405191613a6883613d85565b613a7181614040565b8352613a7f60018201614040565b6020840152613a9060028201614040565b6040840152613aa160038201614040565b6060840152613ab260048201614040565b608084015260018060a01b0360058201541660a0840152600681015460c0840152600781015460e084015201546101008201526040518091602082528051610100613b6d613b0e61012093846020880152610140870190613d51565b613b58613b44613b30602088015193601f1994858b83030160408c0152613d51565b6040880151848a83030160608b0152613d51565b6060870151838983030160808a0152613d51565b906080860151908783030160a0880152613d51565b9260018060a01b0360a08201511660c086015260c081015160e086015260e0810151828601520151908301520390f35b346103b557613bab36613d1c565b913033148015613c90575b8015613c7c575b8015613c68575b8015613c54575b8015613c40575b8015613c2c575b8015613c18575b613be990614091565b60018060a01b038091166000526024602052604060002091166000526020526104376040600020918254613f4d565b506019546001600160a01b03163314613be0565b506018546001600160a01b03163314613bd9565b506014546001600160a01b03163314613bd2565b506013546001600160a01b03163314613bcb565b506012546001600160a01b03163314613bc4565b506011546001600160a01b03163314613bbd565b506010546001600160a01b03163314613bb6565b346103b55760203660031901126103b5576020906001600160a01b03613cc8613cda565b16600052602f82526040600020548152f35b600435906001600160a01b03821682036103b557565b602435906001600160a01b03821682036103b557565b608435906001600160a01b03821682036103b557565b60609060031901126103b5576001600160a01b039060043582811681036103b5579160243590811681036103b5579060443590565b90815180825260208080930193019160005b828110613d71575050505090565b835185529381019392810192600101613d63565b61012081019081106001600160401b03821117610c8757604052565b6101c081019081106001600160401b03821117610c8757604052565b60a081019081106001600160401b03821117610c8757604052565b61010081019081106001600160401b03821117610c8757604052565b61038081019081106001600160401b03821117610c8757604052565b90601f801991011681019081106001600160401b03821117610c8757604052565b346103b55760003660031901126103b557600f546040516001600160a01b039091168152602090f35b9181601f840112156103b5578235916001600160401b0383116103b557602083818601950101116103b557565b60406003198201126103b557600435906001600160401b0382116103b557613eb191600401613e5a565b90916024356001600160a01b03811681036103b55790565b60406003198201126103b5576001600160401b036004358181116103b557826023820112156103b5578060040135918211610c875760405192613f16601f8401601f191660200185613e10565b828452602483830101116103b557816000926024602093018386013783010152906024356001600160a01b03811681036103b55790565b9190820180921161076257565b60606003198201126103b557600435906001600160401b0382116103b557613f8491600401613e5a565b90916024356001600160a01b03811681036103b5579060443590565b346103b55760203660031901126103b5576001600160a01b03613fc1613cda565b16600052601a6020526020604060002054604051908152f35b9080601f830112156103b5578135906001600160401b038211610c87578160051b6040519360209361400e85840187613e10565b855283808601928201019283116103b5578301905b828210614031575050505090565b81358152908301908301614023565b9060405191828154918282526020928383019160005283600020936000905b8282106140775750505061407592500383613e10565b565b85548452600195860195889550938101939091019061405f565b1561409857565b60405162461bcd60e51b815260206004820152601560248201527410d85b1b195c881b9bdd08185d5d1a1bdc9a5e9959605a1b6044820152606490fd5b60001981146107625760010190565b9190820391821161076257565b30331480156141d9575b80156141c5575b80156141b1575b801561419d575b8015614189575b8015614175575b8015614161575b61412e90614091565b60018060a01b0380911660005260246020526040600020911660005260205261415d60406000209182546140e4565b9055565b506019546001600160a01b03163314614125565b506018546001600160a01b0316331461411e565b506014546001600160a01b03163314614117565b506013546001600160a01b03163314614110565b506012546001600160a01b03163314614109565b506011546001600160a01b03163314614102565b506010546001600160a01b031633146140fb565b9092939161421890835190602085019660ff885116815191604060018060a01b0391015116936142ce565b15614280578260ff7f77e158c4de5b89cd65592962239c3cc6136696032ecc462ad1b04af14e8df53b956080946040519687956060875281606088015287870137600085850187015251602085015251166040830152601f01601f19168101030190a1600190565b50505050600090565b1561429057565b60405162461bcd60e51b81526020600482015260166024820152755075626c69632d6b65792078203e3d2048414c465f5160501b6044820152606490fd5b91906142f16fa2a8918ca85bafe22016d0b997e4df5f600160ff1b038410614289565b70014551231950b75fc4402da1732fc9bebe199485831015614433576001600160a01b03818116969095908715158061442a575b80614421575b80614418575b156143da576040519160208301936001600160601b03199060601b16845260348301526034825260608201928284106001600160401b03851117610c8757819084604052835190209587098103908082116107625760209660009660ff60c0948160809916158a146143d257601b905b885216878601528160a08601520991015282805260015afa156143c657600051161490565b6040513d6000823e3d90fd5b601c906143a1565b60405162461bcd60e51b81526020600482015260166024820152751b9bc81e995c9bc81a5b9c1d5d1cc8185b1b1bddd95960521b6044820152606490fd5b50811515614331565b5084151561432b565b50851515614325565b60405162461bcd60e51b815260206004820152602260248201527f7369676e6174757265206d7573742062652072656475636564206d6f64756c6f604482015261205160f01b6064820152608490fdfea2646970667358221220b9a6534a96583500249bcf5ed5cb675c62d5a630baba9726e6071aac225a787864736f6c63430008140033",
  "linkReferences": {},
  "deployedLinkReferences": {}
}