{
  "_format": "hh-sol-artifact-1",
  "contractName": "PionerV1Compliance",
  "sourceName": "contracts/Functions/PionerV1Compliance.sol",
  "abi": [
    {
      "inputs": [
        {
          "internalType": "address",
          "name": "_pionerV1",
          "type": "address"
        }
      ],
      "stateMutability": "nonpayable",
      "type": "constructor"
    },
    {
      "inputs": [
        {
          "internalType": "address",
          "name": "target",
          "type": "address"
        }
      ],
      "name": "AddressEmptyCode",
      "type": "error"
    },
    {
      "inputs": [
        {
          "internalType": "address",
          "name": "account",
          "type": "address"
        }
      ],
      "name": "AddressInsufficientBalance",
      "type": "error"
    },
    {
      "inputs": [],
      "name": "FailedInnerCall",
      "type": "error"
    },
    {
      "inputs": [
        {
          "internalType": "address",
          "name": "token",
          "type": "address"
        }
      ],
      "name": "SafeERC20FailedOperation",
      "type": "error"
    },
    {
      "anonymous": false,
      "inputs": [
        {
          "indexed": true,
          "internalType": "uint256",
          "name": "bOracleId",
          "type": "uint256"
        },
        {
          "indexed": false,
          "internalType": "bool",
          "name": "isPaused",
          "type": "bool"
        }
      ],
      "name": "BOracleRevoked",
      "type": "event"
    },
    {
      "anonymous": false,
      "inputs": [
        {
          "indexed": true,
          "internalType": "address",
          "name": "user",
          "type": "address"
        },
        {
          "indexed": false,
          "internalType": "uint256",
          "name": "amount",
          "type": "uint256"
        }
      ],
      "name": "CancelWithdrawEvent",
      "type": "event"
    },
    {
      "anonymous": false,
      "inputs": [
        {
          "indexed": true,
          "internalType": "address",
          "name": "user",
          "type": "address"
        },
        {
          "indexed": false,
          "internalType": "uint256",
          "name": "amount",
          "type": "uint256"
        }
      ],
      "name": "DepositEvent",
      "type": "event"
    },
    {
      "anonymous": false,
      "inputs": [
        {
          "indexed": true,
          "internalType": "address",
          "name": "user",
          "type": "address"
        },
        {
          "indexed": false,
          "internalType": "uint256",
          "name": "amount",
          "type": "uint256"
        }
      ],
      "name": "InitiateWithdrawEvent",
      "type": "event"
    },
    {
      "anonymous": false,
      "inputs": [
        {
          "indexed": false,
          "internalType": "address",
          "name": "target",
          "type": "address"
        },
        {
          "indexed": false,
          "internalType": "uint256",
          "name": "maxPositions",
          "type": "uint256"
        }
      ],
      "name": "KycParametersChanged",
      "type": "event"
    },
    {
      "anonymous": false,
      "inputs": [
        {
          "indexed": true,
          "internalType": "address",
          "name": "user",
          "type": "address"
        },
        {
          "indexed": false,
          "internalType": "uint256",
          "name": "amount",
          "type": "uint256"
        }
      ],
      "name": "WithdrawEvent",
      "type": "event"
    },
    {
      "anonymous": false,
      "inputs": [
        {
          "indexed": true,
          "internalType": "address",
          "name": "user",
          "type": "address"
        },
        {
          "indexed": false,
          "internalType": "address",
          "name": "kycAddress",
          "type": "address"
        }
      ],
      "name": "kycAddressSet",
      "type": "event"
    },
    {
      "anonymous": false,
      "inputs": [
        {
          "indexed": false,
          "internalType": "address",
          "name": "target",
          "type": "address"
        },
        {
          "indexed": false,
          "internalType": "bool",
          "name": "state",
          "type": "bool"
        }
      ],
      "name": "kycPausedEvent",
      "type": "event"
    },
    {
      "anonymous": false,
      "inputs": [
        {
          "indexed": true,
          "internalType": "address",
          "name": "revoker",
          "type": "address"
        },
        {
          "indexed": false,
          "internalType": "address",
          "name": "target",
          "type": "address"
        }
      ],
      "name": "kycRevoked",
      "type": "event"
    },
    {
      "anonymous": false,
      "inputs": [
        {
          "indexed": true,
          "internalType": "address",
          "name": "validator",
          "type": "address"
        },
        {
          "indexed": false,
          "internalType": "address",
          "name": "target",
          "type": "address"
        }
      ],
      "name": "kycToValidat",
      "type": "event"
    },
    {
      "anonymous": false,
      "inputs": [
        {
          "indexed": true,
          "internalType": "address",
          "name": "validator",
          "type": "address"
        },
        {
          "indexed": false,
          "internalType": "address",
          "name": "target",
          "type": "address"
        }
      ],
      "name": "kycValidated",
      "type": "event"
    },
    {
      "inputs": [
        {
          "internalType": "address",
          "name": "target",
          "type": "address"
        }
      ],
      "name": "_getMintValue",
      "outputs": [
        {
          "internalType": "uint256",
          "name": "",
          "type": "uint256"
        }
      ],
      "stateMutability": "view",
      "type": "function"
    },
    {
      "inputs": [
        {
          "internalType": "uint256",
          "name": "_amount",
          "type": "uint256"
        }
      ],
      "name": "cancelWithdraw",
      "outputs": [],
      "stateMutability": "nonpayable",
      "type": "function"
    },
    {
      "inputs": [
        {
          "internalType": "uint256",
          "name": "_amount",
          "type": "uint256"
        },
        {
          "internalType": "uint256",
          "name": "_kyc",
          "type": "uint256"
        },
        {
          "internalType": "address",
          "name": "_kycAddress",
          "type": "address"
        }
      ],
      "name": "deposit",
      "outputs": [],
      "stateMutability": "nonpayable",
      "type": "function"
    },
    {
      "inputs": [
        {
          "internalType": "uint256",
          "name": "_amount",
          "type": "uint256"
        }
      ],
      "name": "deposit",
      "outputs": [],
      "stateMutability": "nonpayable",
      "type": "function"
    },
    {
      "inputs": [
        {
          "internalType": "address",
          "name": "user",
          "type": "address"
        }
      ],
      "name": "getKycAddress",
      "outputs": [
        {
          "internalType": "address",
          "name": "",
          "type": "address"
        }
      ],
      "stateMutability": "view",
      "type": "function"
    },
    {
      "inputs": [
        {
          "internalType": "address",
          "name": "user",
          "type": "address"
        }
      ],
      "name": "getKycPaused",
      "outputs": [
        {
          "internalType": "bool",
          "name": "",
          "type": "bool"
        }
      ],
      "stateMutability": "view",
      "type": "function"
    },
    {
      "inputs": [
        {
          "internalType": "address",
          "name": "user",
          "type": "address"
        }
      ],
      "name": "getKycType",
      "outputs": [
        {
          "internalType": "uint256",
          "name": "",
          "type": "uint256"
        }
      ],
      "stateMutability": "view",
      "type": "function"
    },
    {
      "inputs": [
        {
          "internalType": "address",
          "name": "user",
          "type": "address"
        },
        {
          "internalType": "address",
          "name": "counterparty",
          "type": "address"
        }
      ],
      "name": "getKycWaitingAddress",
      "outputs": [
        {
          "internalType": "bool",
          "name": "",
          "type": "bool"
        }
      ],
      "stateMutability": "view",
      "type": "function"
    },
    {
      "inputs": [
        {
          "internalType": "address",
          "name": "user",
          "type": "address"
        }
      ],
      "name": "getLastKycParameterUpdateTime",
      "outputs": [
        {
          "internalType": "uint256",
          "name": "",
          "type": "uint256"
        }
      ],
      "stateMutability": "view",
      "type": "function"
    },
    {
      "inputs": [
        {
          "internalType": "address",
          "name": "user",
          "type": "address"
        }
      ],
      "name": "getMaxPositions",
      "outputs": [
        {
          "internalType": "uint256",
          "name": "",
          "type": "uint256"
        }
      ],
      "stateMutability": "view",
      "type": "function"
    },
    {
      "inputs": [
        {
          "internalType": "address",
          "name": "target",
          "type": "address"
        }
      ],
      "name": "getMintValue",
      "outputs": [
        {
          "internalType": "uint256",
          "name": "",
          "type": "uint256"
        }
      ],
      "stateMutability": "view",
      "type": "function"
    },
    {
      "inputs": [
        {
          "internalType": "address",
          "name": "user",
          "type": "address"
        }
      ],
      "name": "getNextMaxPositions",
      "outputs": [
        {
          "internalType": "uint256",
          "name": "",
          "type": "uint256"
        }
      ],
      "stateMutability": "view",
      "type": "function"
    },
    {
      "inputs": [
        {
          "internalType": "uint256",
          "name": "_amount",
          "type": "uint256"
        }
      ],
      "name": "initiateWithdraw",
      "outputs": [],
      "stateMutability": "nonpayable",
      "type": "function"
    },
    {
      "inputs": [
        {
          "internalType": "address",
          "name": "target",
          "type": "address"
        },
        {
          "internalType": "address",
          "name": "openQuoteParty",
          "type": "address"
        }
      ],
      "name": "kycCheck",
      "outputs": [
        {
          "internalType": "bool",
          "name": "",
          "type": "bool"
        }
      ],
      "stateMutability": "view",
      "type": "function"
    },
    {
      "inputs": [
        {
          "internalType": "uint256",
          "name": "bOracleId",
          "type": "uint256"
        },
        {
          "internalType": "bool",
          "name": "isPaused",
          "type": "bool"
        }
      ],
      "name": "manageBOracle",
      "outputs": [],
      "stateMutability": "nonpayable",
      "type": "function"
    },
    {
      "inputs": [
        {
          "internalType": "uint256",
          "name": "_maxPositions",
          "type": "uint256"
        }
      ],
      "name": "manageKycParameters",
      "outputs": [],
      "stateMutability": "nonpayable",
      "type": "function"
    },
    {
      "inputs": [
        {
          "internalType": "bool",
          "name": "newState",
          "type": "bool"
        }
      ],
      "name": "pauseKyc",
      "outputs": [],
      "stateMutability": "nonpayable",
      "type": "function"
    },
    {
      "inputs": [
        {
          "internalType": "address",
          "name": "target",
          "type": "address"
        }
      ],
      "name": "revokeKyc",
      "outputs": [],
      "stateMutability": "nonpayable",
      "type": "function"
    },
    {
      "inputs": [
        {
          "internalType": "address",
          "name": "target",
          "type": "address"
        }
      ],
      "name": "validateKyc",
      "outputs": [],
      "stateMutability": "nonpayable",
      "type": "function"
    },
    {
      "inputs": [
        {
          "internalType": "uint256",
          "name": "_amount",
          "type": "uint256"
        }
      ],
      "name": "withdraw",
      "outputs": [],
      "stateMutability": "nonpayable",
      "type": "function"
    }
  ],
  "bytecode": "0x60803461007457601f611d2f38819003918201601f19168301916001600160401b038311848410176100795780849260209460405283398101031261007457516001600160a01b0381169081900361007457600080546001600160a01b031916919091179055604051611c9f90816100908239f35b600080fd5b634e487b7160e01b600052604160045260246000fdfe608060408181526004918236101561001657600080fd5b600092833560e01c918263046423271461143a5750816312283191146113705781631c64d0d4146113385781631e8c9cd8146111f55781632e1a7d4d14610e135781633a2700a614610d205781634cd5feb014610dc35781636349878314610d8d57816366cb02a314610d255781636a7296b514610d2057816373a16ebb14610ce55781637e108d5214610a765781638c861b6114610a385781638dbdbe6d1461068b57816390fbf1ac146105ca57816394c55c60146105935781639f01f7ba146103be578163a840d60b14610386578163b6b55f2514610195575063fe400c701461010157600080fd5b346101915760203660031901126101915761011a61146e565b9033835260016020528083209160018060a01b0316918260005260205260ff816000205416610171575b519081527fc2051f9c5dc7de0b2924c067335557c75a163032a969f9e0f0dad10c1cb10fec60203392a280f35b818352600260205280832080546001600160a01b03191633179055610144565b5080fd5b9050346103825760208060031936011261037e57813592338552600282528460018060a01b03936101cc85848420541615156114c5565b6101d78615156114f7565b8482541690835195630e12956960e01b875285878381865afa96871561034057849761034a575b50856024918651928380926370a0823160e01b825233878301528b165afa908115610340578693929189918691610306575b5061027f939291610242911015611594565b855163e95e380f60e01b8152908101898152336020820152600060408201819052600160608301526080820152909485938492839160a090910190565b03925af180156102fc579085916102cb575b506102c1907f2d8a08b6430a894aea608bcaa6013d5d3e263bc49110605e4d4ba76930ae5c2994309033906115c6565b519283523392a280f35b838092503d83116102f5575b6102e18183611553565b810103126102f0578338610291565b600080fd5b503d6102d7565b82513d88823e3d90fd5b93955050509181813d8311610339575b6103208183611553565b810103126102f05751879285929091889061027f610230565b503d610316565b85513d86823e3d90fd5b602491975061036f8791823d8411610377575b6103678183611553565b810190611575565b9791506101fe565b503d61035d565b8380fd5b8280fd5b5050346101915760203660031901126101915760209181906001600160a01b036103ae61146e565b1681526003845220549051908152f35b919050346103825760208060031936011261037e5783548251630b671e6f60e01b81523381860152843594916001600160a01b0391908216908481602481855afa908115610589579087918991610558575b50106105305790818793923b1561037e578551632ea5e24f60e21b815233848201908152602081018990529091859183919082908490829060400103925af180156105265785939291859161050b575b5054865163e95e380f60e01b81529283018881523360208201526000604082018190526001606083015260808201529294859384900360a001928492165af18015610501576104d7575b507fa32df7fd9bdff13f7511ef5680cc1e538ab7174dddcc0b453ed66f48bebb4c1d91519283523392a280f35b8190813d83116104fa575b6104ec8183611553565b810103126102f057386104aa565b503d6104e2565b83513d87823e3d90fd5b6105189192939450611529565b610382579083918338610460565b86513d86823e3d90fd5b5050606492519162461bcd60e51b8352818301526024820152634341353160e01b6044820152fd5b809250868092503d8311610582575b6105718183611553565b810103126102f05786905138610410565b503d610567565b86513d8a823e3d90fd5b5050346101915780600319360112610191576020906105c16105b361146e565b6105bb611484565b90611915565b90519015158152f35b83833461019157602090816003193601126103825783359133845260068152818420544203428111610678579160067f2187ec47ea522bf5d3fe14e4a08f9b7cae36323083a419e6cb11c4443734da2194928762093a8061065a9611610660575b503380885260058252838820859055919052818620429055905190815260208101919091529081906040820190565b0390a180f35b3388526005825283882054908252838820558761062b565b634e487b7160e01b855260118652602485fd5b905034610382576060366003190112610382578035916001600160a01b03916044358381169291602435918490036102f05786913383526020946002865284842080548881161580610a2f575b61089d575b50505060028114908115610893575b8115610888575b811561087d575b8115610872575b5061070a575080f35b3382526002845261072185848420541615156114c5565b61072c8615156114f7565b8482541690835195630e12956960e01b875285878381865afa96871561034057849761084e575b50856024918651928380926370a0823160e01b825233878301528b165afa908115610340578693929189918691610814575b50610797939291610242911015611594565b03925af180156102fc579085916107e8575b506107d9907f2d8a08b6430a894aea608bcaa6013d5d3e263bc49110605e4d4ba76930ae5c2994309033906115c6565b519283523392a2388080808480f35b838092503d831161080d575b6107fe8183611553565b810103126102f05783386107a9565b503d6107f4565b93955050509181813d8311610847575b61082e8183611553565b810103126102f057518792859290918890610797610785565b503d610824565b602491975061086a8791823d8411610377576103678183611553565b979150610753565b600191501438610701565b6007811491506106fa565b6006811491506106f3565b82811491506106ec565b33830361090357505033845260028652848420816bffffffffffffffffffffffff60a01b82541617905560038652818585205584519081527fc2051f9c5dc7de0b2924c067335557c75a163032a969f9e0f0dad10c1cb10fec863392a25b3880806106dd565b600384148015610a25575b1561096f5750503384526001865284842081600052865284600020600160ff1982541617905533845260038652818585205584519081527fb27031628f05482b0561ae51ffea35aaaf5c4f5683e60b3e258467c9863718af863392a26108fb565b600284148015610a1c575b8015610a12575b8015610a08575b80156109fe575b80156109f4575b6109a3575b5050506108fb565b82906bffffffffffffffffffffffff60a01b1617905560038652818585205584519081527fc2051f9c5dc7de0b2924c067335557c75a163032a969f9e0f0dad10c1cb10fec863392a238808061099b565b5060018414610996565b506009841461098f565b5060078414610988565b5060068414610981565b5084841461097a565b506005841461090e565b508315156106d8565b5050346101915760203660031901126101915760209160ff9082906001600160a01b03610a6361146e565b1681526007855220541690519015158152f35b919050346103825760208060031936011261037e578354825163f8b2cb4f60e01b81523381860152843594916001600160a01b039187918316908581602481855afa908115610cdb578391610caa575b50610ad033611ad8565b8751635dee283960e01b81523387820152908782602481875afa918215610ca0578592610c6c575b5090610b0391611765565b1161019157803b1561019157855163bd008a8f60e01b8152338582019081524260208201529091839183919082908490829060400103925af18015610c4e57610c58575b5081815416803b1561019157855163f4364a2f60e01b815233858201908152602081018990529091839183919082908490829060400103925af18015610c4e57918593918893610c2e575b509060a491541693888751958694859363e95e380f60e01b85528401523360248401526000604484015260006064840152600160848401525af1801561050157610c04575b507f9dd030f3e2840824330ac4fae7aa57e19e3aeb4c6777be97477d0ec39bb9054e91519283523392a280f35b8190813d8311610c27575b610c198183611553565b810103126102f05738610bd7565b503d610c0f565b909250610c3c919350611529565b610c4a578483918738610b92565b8580fd5b86513d84823e3d90fd5b610c6190611529565b610c4a578538610b47565b88809296508193503d8311610c99575b610c868183611553565b810103126102f057518993610b03610af8565b503d610c7c565b89513d87823e3d90fd5b809350868092503d8311610cd4575b610cc38183611553565b810103126102f05787915138610ac6565b503d610cb9565b87513d85823e3d90fd5b505034610191576020366003190112610191576020916001600160a01b0390829082610d0f61146e565b168152600285522054169051908152f35b61149a565b9050346103825760203660031901126103825735908115158092036102f0577f1693252fbc7777de6a5b90d62573a0e0540bfe5198ca04d336ddb38c08fb3b3891338452600760205281842060ff1981541660ff83161790558151903382526020820152a180f35b9050346103825760203660031901126103825760209282916001600160a01b03610db561146e565b168252845220549051908152f35b505034610191578060031936011261019157602091610de061146e565b82610de9611484565b9260018060a01b03809316815260018652209116600052825260ff81600020541690519015158152f35b83833461019157602080600319360112610382578254825163f8b2cb4f60e01b815233818701526001600160a01b0391821695803594929160249190858184818c5afa9081156110755788916111c8575b50610e6e33611ad8565b8551635dee283960e01b81523384820152878186818e5afa9081156110d9578a91611199575b50610e9e91611765565b11611195578351630b671e6f60e01b81523382820152858184818c5afa908115611075579087918991611164575b501061113d578351630e12956960e01b815292858483818c5afa93841561107557889461111e575b5084516330edd9d960e11b81523383820152868185818d5afa9081156111145789916110e3575b5085516322dd354160e11b8152878185818e5afa9081156110d9578a916110a6575b50610f4791611765565b42111561107f57883b1561105d578451632ea5e24f60e21b81523383820190815260208101899052909989918b919082908490829060400103925af1801561107557611061575b878099505416803b1561105d57845163bd008a8f60e01b81523392810192835242602084015297918291899182908490829060400103925af1968715611051578697611038575b5050825163a9059cbb60e01b858201523391810191825260208201959095527f5dba113b49cfa7c90315e8e604e6b506f7abcb909b01dcb19ec39005086e68fc946102c192909161103390839060400103601f198101845283611553565b61162e565b61104491929650611529565b610c4a5784938688610fd5565b508351903d90823e3d90fd5b8780fd5b96909761106d90611529565b958790610f8e565b85513d8a823e3d90fd5b606486838588519262461bcd60e51b8452828401528201526321a09a1960e11b6044820152fd5b90508781813d83116110d2575b6110bd8183611553565b810103126110ce5751610f47610f3d565b8980fd5b503d6110b3565b87513d8c823e3d90fd5b90508681813d831161110d575b6110fa8183611553565b8101031261110957518a610f1b565b8880fd5b503d6110f0565b86513d8b823e3d90fd5b611136919450863d8811610377576103678183611553565b9289610ef4565b915060649392519262461bcd60e51b845282840152820152634341343160e01b6044820152fd5b809250878092503d831161118e575b61117d8183611553565b8101031261105d578690518a610ecc565b503d611173565b8680fd5b90508781813d83116111c1575b6111b08183611553565b810103126110ce5751610e9e610e94565b503d6111a6565b90508581813d83116111ee575b6111df8183611553565b8101031261105d575189610e64565b503d6111d5565b90503461038257816003193601126103825780359160243580151580910361133457845482516301d3e56960e61b815284810186905261038093916001600160a01b03919085908290602490829086165afa94851561132a5788956112fb575b50506103208401511633036112ca5761036083019384519061276082018092116112b75750421015610c4a577fbfae5c742c92155ec36b9385e288289391ece67af39311244d2cfe1499c3d93f9382610340602095015242905251908152a280f35b634e487b7160e01b885260119052602487fd5b5162461bcd60e51b8152602081850152600c60248201526b155b985d5d1a1bdc9a5e995960a21b6044820152606490fd5b61131b929550803d10611323575b6113138183611553565b81019061179c565b923880611255565b503d611309565b83513d8a823e3d90fd5b8480fd5b5050346101915760203660031901126101915760209181906001600160a01b0361136061146e565b1681526006845220549051908152f35b919050346103825760203660031901126103825761138c61146e565b9133845260036020528184205490811490811561140a575b506113e3575b516001600160a01b03909116815233907fd3c7bc7939ec0b783cee5f363712ce3f0086af1987dbc1ff49add9528d606ba290602090a280f35b6001600160a01b0382168352600260205280832080546001600160a01b03191690556113aa565b60059150148061141b575b386113a4565b506001600160a01b038281168452600260205281842054163314611415565b84908434610382576020366003190112610382576020926001600160a01b0361146161146e565b1681526005845220548152f35b600435906001600160a01b03821682036102f057565b602435906001600160a01b03821682036102f057565b346102f05760203660031901126102f05760206114bd6114b861146e565b611ad8565b604051908152f35b156114cc57565b606460405162461bcd60e51b81526020600482015260046024820152634341313160e01b6044820152fd5b156114fe57565b606460405162461bcd60e51b815260206004820152600460248201526321a0989960e11b6044820152fd5b67ffffffffffffffff811161153d57604052565b634e487b7160e01b600052604160045260246000fd5b90601f8019910116810190811067ffffffffffffffff82111761153d57604052565b908160209103126102f057516001600160a01b03811681036102f05790565b1561159b57565b606460405162461bcd60e51b81526020600482015260046024820152634341313360e01b6044820152fd5b6040516323b872dd60e01b60208201526001600160a01b03928316602482015292909116604483015260648083019390935291815260a081019181831067ffffffffffffffff84111761153d5761161f9260405261162e565b565b519081151582036102f057565b60018060a01b031690600080826020829451910182865af13d156116f6573d9067ffffffffffffffff82116116e2579061168a916040519161167a6020601f19601f8401160184611553565b82523d84602084013e5b84611702565b80519182151592836116b9575b5050506116a15750565b60249060405190635274afe760e01b82526004820152fd5b8293509160209192810103126116df575060206116d69101611621565b15388080611697565b80fd5b634e487b7160e01b83526041600452602483fd5b61168a90606090611684565b90611729575080511561171757805190602001fd5b604051630a12f52160e11b8152600490fd5b8151158061175c575b61173a575090565b604051639996b31560e01b81526001600160a01b039091166004820152602490fd5b50803b15611732565b9190820180921161177257565b634e487b7160e01b600052601160045260246000fd5b51906001600160a01b03821682036102f057565b809161038092839103126102f05760405191820182811067ffffffffffffffff82111761153d576040528051825260208101516020830152604081015160408301526117ea60608201611788565b60608301526080810151608083015260a081015160a083015260c081015160c083015260e081015160e0830152610100611825818301611788565b9083015261012080820151908301526101408082015190830152610160808201519060ff821682036102f05783015261018080820151908301526101a080820151908301526101c080820151908301526101e08082015190830152610200808201519083015261022080820151908301526102408082015190830152610260808201519083015261028080820151908301526102a080820151908301526102c080820151908301526102e0808201519083015261030080820151908301526103206118f1818301611788565b90830152610340611903818301611621565b90830152610360809101519082015290565b60018060a01b03809116916000928084526020926003845260408086205493600286528282882054169360018614908115611a5c575b5015611a30578387526007865260ff8288205416611a04578216948561198557505050506009915014156000146119825750600190565b90565b600485149586156119f9575b86156119ee575b86156119e3575b866119cb575b505050505081156119c0575b50156119ba5790565b50600190565b6009915014386119b1565b875260029052852054161415915038808080806119a5565b60088614965061199f565b600586149650611998565b600586149650611991565b815162461bcd60e51b815260048101879052600560248201526435bcb1989960d91b6044820152606490fd5b815162461bcd60e51b81526004810187905260056024820152646b7963313160d81b6044820152606490fd5b9050848852600487528288205487858a5416926024865180958193630312cfbf60e31b835260048301525afa918215611ace578992611a9f575b5010153861194b565b9091508781813d8311611ac7575b611ab78183611553565b8101031261110957519038611a96565b503d611aad565b84513d8b823e3d90fd5b600080546001600160a01b03928316808352600260209081526040808520548151632ac0268360e11b815290871660048201529095909316918184602481865afa938415611c5f578594611c30575b508551936301d3e56960e61b85526004850152610380938481602481875afa948515611c26578695611c07575b5050611b6b6101808501516101c086015190611765565b42111561133457819060248751809581936302ad7f4360e01b835260048301525afa948515611bfe57508394611bcc575b50506101a0015191828102928184041490151715611bb8575090565b634e487b7160e01b81526011600452602490fd5b9080929450813d8311611bf7575b611be48183611553565b810103126101915751916101a038611b9c565b503d611bda565b513d85823e3d90fd5b611c1e929550803d10611323576113138183611553565b923880611b54565b87513d88823e3d90fd5b9093508181813d8311611c58575b611c488183611553565b8101031261133457519238611b27565b503d611c3e565b86513d87823e3d90fdfea2646970667358221220838c11f8e6b601d7bc78bb198653f662c4d3f31d82a28340739d3b958dcc146664736f6c63430008140033",
  "linkReferences": {},
  "deployedLinkReferences": {}
}