{
  "_format": "hh-sol-artifact-1",
  "contractName": "PionerV1Warper",
  "sourceName": "contracts/Functions/PionerV1Warper.sol",
  "abi": [
    {
      "inputs": [
        {
          "internalType": "address",
          "name": "pionerV1Address",
          "type": "address"
        },
        {
          "internalType": "address",
          "name": "pionerV1ComplianceAddress",
          "type": "address"
        },
        {
          "internalType": "address",
          "name": "pionerV1OpenAddress",
          "type": "address"
        },
        {
          "internalType": "address",
          "name": "pionerV1CloseAddress",
          "type": "address"
        },
        {
          "internalType": "address",
          "name": "pionerV1DefaultAddress",
          "type": "address"
        },
        {
          "internalType": "address",
          "name": "pionerV1OracleAddress",
          "type": "address"
        }
      ],
      "stateMutability": "nonpayable",
      "type": "constructor"
    },
    {
      "inputs": [],
      "name": "ECDSAInvalidSignature",
      "type": "error"
    },
    {
      "inputs": [
        {
          "internalType": "uint256",
          "name": "length",
          "type": "uint256"
        }
      ],
      "name": "ECDSAInvalidSignatureLength",
      "type": "error"
    },
    {
      "inputs": [
        {
          "internalType": "bytes32",
          "name": "s",
          "type": "bytes32"
        }
      ],
      "name": "ECDSAInvalidSignatureS",
      "type": "error"
    },
    {
      "inputs": [],
      "name": "InvalidShortString",
      "type": "error"
    },
    {
      "inputs": [
        {
          "internalType": "string",
          "name": "str",
          "type": "string"
        }
      ],
      "name": "StringTooLong",
      "type": "error"
    },
    {
      "anonymous": false,
      "inputs": [],
      "name": "EIP712DomainChanged",
      "type": "event"
    },
    {
      "inputs": [],
      "name": "eip712Domain",
      "outputs": [
        {
          "internalType": "bytes1",
          "name": "fields",
          "type": "bytes1"
        },
        {
          "internalType": "string",
          "name": "name",
          "type": "string"
        },
        {
          "internalType": "string",
          "name": "version",
          "type": "string"
        },
        {
          "internalType": "uint256",
          "name": "chainId",
          "type": "uint256"
        },
        {
          "internalType": "address",
          "name": "verifyingContract",
          "type": "address"
        },
        {
          "internalType": "bytes32",
          "name": "salt",
          "type": "bytes32"
        },
        {
          "internalType": "uint256[]",
          "name": "extensions",
          "type": "uint256[]"
        }
      ],
      "stateMutability": "view",
      "type": "function"
    },
    {
      "inputs": [
        {
          "components": [
            {
              "internalType": "uint256",
              "name": "bContractId",
              "type": "uint256"
            },
            {
              "internalType": "uint256",
              "name": "price",
              "type": "uint256"
            },
            {
              "internalType": "uint256",
              "name": "amount",
              "type": "uint256"
            },
            {
              "internalType": "uint256",
              "name": "limitOrStop",
              "type": "uint256"
            },
            {
              "internalType": "uint256",
              "name": "expiry",
              "type": "uint256"
            },
            {
              "internalType": "address",
              "name": "authorized",
              "type": "address"
            },
            {
              "internalType": "uint256",
              "name": "nonce",
              "type": "uint256"
            }
          ],
          "internalType": "struct PionerV1Utils.OpenCloseQuote",
          "name": "quote",
          "type": "tuple"
        },
        {
          "internalType": "bytes",
          "name": "signHash",
          "type": "bytes"
        }
      ],
      "name": "warperCloseQuoteSignedAndAcceptClose",
      "outputs": [],
      "stateMutability": "nonpayable",
      "type": "function"
    },
    {
      "inputs": [
        {
          "components": [
            {
              "internalType": "uint256",
              "name": "x",
              "type": "uint256"
            },
            {
              "internalType": "uint8",
              "name": "parity",
              "type": "uint8"
            },
            {
              "internalType": "uint256",
              "name": "maxConfidence",
              "type": "uint256"
            },
            {
              "internalType": "bytes32",
              "name": "asset1",
              "type": "bytes32"
            },
            {
              "internalType": "bytes32",
              "name": "asset2",
              "type": "bytes32"
            },
            {
              "internalType": "uint256",
              "name": "maxDelay",
              "type": "uint256"
            },
            {
              "internalType": "uint256",
              "name": "imA",
              "type": "uint256"
            },
            {
              "internalType": "uint256",
              "name": "imB",
              "type": "uint256"
            },
            {
              "internalType": "uint256",
              "name": "dfA",
              "type": "uint256"
            },
            {
              "internalType": "uint256",
              "name": "dfB",
              "type": "uint256"
            },
            {
              "internalType": "uint256",
              "name": "expiryA",
              "type": "uint256"
            },
            {
              "internalType": "uint256",
              "name": "expiryB",
              "type": "uint256"
            },
            {
              "internalType": "uint256",
              "name": "timeLockA",
              "type": "uint256"
            },
            {
              "internalType": "bytes",
              "name": "signatureHashOpenQuote",
              "type": "bytes"
            },
            {
              "internalType": "uint256",
              "name": "nonce",
              "type": "uint256"
            }
          ],
          "internalType": "struct PionerV1Utils.OracleSwapWithSignature",
          "name": "oracleSwapWithSignature",
          "type": "tuple"
        },
        {
          "internalType": "bytes",
          "name": "signatureOracleSwapWithSignature",
          "type": "bytes"
        },
        {
          "components": [
            {
              "internalType": "bool",
              "name": "isLong",
              "type": "bool"
            },
            {
              "internalType": "uint256",
              "name": "bOracleId",
              "type": "uint256"
            },
            {
              "internalType": "uint256",
              "name": "price",
              "type": "uint256"
            },
            {
              "internalType": "uint256",
              "name": "amount",
              "type": "uint256"
            },
            {
              "internalType": "uint256",
              "name": "interestRate",
              "type": "uint256"
            },
            {
              "internalType": "bool",
              "name": "isAPayingAPR",
              "type": "bool"
            },
            {
              "internalType": "address",
              "name": "frontEnd",
              "type": "address"
            },
            {
              "internalType": "address",
              "name": "affiliate",
              "type": "address"
            },
            {
              "internalType": "address",
              "name": "authorized",
              "type": "address"
            },
            {
              "internalType": "uint256",
              "name": "nonce",
              "type": "uint256"
            }
          ],
          "internalType": "struct PionerV1Utils.OpenQuoteSign",
          "name": "openQuoteSign",
          "type": "tuple"
        },
        {
          "internalType": "bytes",
          "name": "openQuoteSignature",
          "type": "bytes"
        },
        {
          "components": [
            {
              "internalType": "uint256",
              "name": "bContractId",
              "type": "uint256"
            },
            {
              "internalType": "uint256",
              "name": "acceptPrice",
              "type": "uint256"
            },
            {
              "internalType": "address",
              "name": "backendAffiliate",
              "type": "address"
            },
            {
              "internalType": "uint256",
              "name": "amount",
              "type": "uint256"
            },
            {
              "internalType": "uint256",
              "name": "nonce",
              "type": "uint256"
            }
          ],
          "internalType": "struct PionerV1Utils.AcceptQuoteSign",
          "name": "acceptQuoteSign",
          "type": "tuple"
        },
        {
          "internalType": "bytes",
          "name": "signHash",
          "type": "bytes"
        }
      ],
      "name": "warperOpenQuoteDeployOracleAndAcceptQuoteAPI",
      "outputs": [],
      "stateMutability": "nonpayable",
      "type": "function"
    },
    {
      "inputs": [
        {
          "components": [
            {
              "internalType": "uint256",
              "name": "x",
              "type": "uint256"
            },
            {
              "internalType": "uint8",
              "name": "parity",
              "type": "uint8"
            },
            {
              "internalType": "uint256",
              "name": "maxConfidence",
              "type": "uint256"
            },
            {
              "internalType": "bytes32",
              "name": "asset1",
              "type": "bytes32"
            },
            {
              "internalType": "bytes32",
              "name": "asset2",
              "type": "bytes32"
            },
            {
              "internalType": "uint256",
              "name": "maxDelay",
              "type": "uint256"
            },
            {
              "internalType": "uint256",
              "name": "imA",
              "type": "uint256"
            },
            {
              "internalType": "uint256",
              "name": "imB",
              "type": "uint256"
            },
            {
              "internalType": "uint256",
              "name": "dfA",
              "type": "uint256"
            },
            {
              "internalType": "uint256",
              "name": "dfB",
              "type": "uint256"
            },
            {
              "internalType": "uint256",
              "name": "expiryA",
              "type": "uint256"
            },
            {
              "internalType": "uint256",
              "name": "expiryB",
              "type": "uint256"
            },
            {
              "internalType": "uint256",
              "name": "timeLockA",
              "type": "uint256"
            },
            {
              "internalType": "bytes",
              "name": "signatureHashOpenQuote",
              "type": "bytes"
            },
            {
              "internalType": "uint256",
              "name": "nonce",
              "type": "uint256"
            }
          ],
          "internalType": "struct PionerV1Utils.OracleSwapWithSignature",
          "name": "oracleSwapWithSignature",
          "type": "tuple"
        },
        {
          "internalType": "bytes",
          "name": "signatureOracleSwapWithSignature",
          "type": "bytes"
        },
        {
          "components": [
            {
              "internalType": "bool",
              "name": "isLong",
              "type": "bool"
            },
            {
              "internalType": "uint256",
              "name": "bOracleId",
              "type": "uint256"
            },
            {
              "internalType": "uint256",
              "name": "price",
              "type": "uint256"
            },
            {
              "internalType": "uint256",
              "name": "amount",
              "type": "uint256"
            },
            {
              "internalType": "uint256",
              "name": "interestRate",
              "type": "uint256"
            },
            {
              "internalType": "bool",
              "name": "isAPayingAPR",
              "type": "bool"
            },
            {
              "internalType": "address",
              "name": "frontEnd",
              "type": "address"
            },
            {
              "internalType": "address",
              "name": "affiliate",
              "type": "address"
            },
            {
              "internalType": "address",
              "name": "authorized",
              "type": "address"
            },
            {
              "internalType": "uint256",
              "name": "nonce",
              "type": "uint256"
            }
          ],
          "internalType": "struct PionerV1Utils.OpenQuoteSign",
          "name": "openQuoteSign",
          "type": "tuple"
        },
        {
          "internalType": "bytes",
          "name": "openQuoteSignature",
          "type": "bytes"
        },
        {
          "internalType": "uint256",
          "name": "bContractId",
          "type": "uint256"
        },
        {
          "internalType": "uint256",
          "name": "_acceptPrice",
          "type": "uint256"
        },
        {
          "internalType": "address",
          "name": "backendAffiliate",
          "type": "address"
        }
      ],
      "name": "warperOpenQuoteDeployOracleAndAcceptQuoteMM",
      "outputs": [],
      "stateMutability": "nonpayable",
      "type": "function"
    },
    {
      "inputs": [
        {
          "components": [
            {
              "internalType": "uint256",
              "name": "x",
              "type": "uint256"
            },
            {
              "internalType": "uint8",
              "name": "parity",
              "type": "uint8"
            },
            {
              "internalType": "uint256",
              "name": "maxConfidence",
              "type": "uint256"
            },
            {
              "internalType": "bytes32",
              "name": "asset1",
              "type": "bytes32"
            },
            {
              "internalType": "bytes32",
              "name": "asset2",
              "type": "bytes32"
            },
            {
              "internalType": "uint256",
              "name": "maxDelay",
              "type": "uint256"
            },
            {
              "internalType": "uint256",
              "name": "imA",
              "type": "uint256"
            },
            {
              "internalType": "uint256",
              "name": "imB",
              "type": "uint256"
            },
            {
              "internalType": "uint256",
              "name": "dfA",
              "type": "uint256"
            },
            {
              "internalType": "uint256",
              "name": "dfB",
              "type": "uint256"
            },
            {
              "internalType": "uint256",
              "name": "expiryA",
              "type": "uint256"
            },
            {
              "internalType": "uint256",
              "name": "expiryB",
              "type": "uint256"
            },
            {
              "internalType": "uint256",
              "name": "timeLockA",
              "type": "uint256"
            },
            {
              "internalType": "bytes",
              "name": "signatureHashOpenQuote",
              "type": "bytes"
            },
            {
              "internalType": "uint256",
              "name": "nonce",
              "type": "uint256"
            }
          ],
          "internalType": "struct PionerV1Utils.OracleSwapWithSignature",
          "name": "oracleSwapWithSignature",
          "type": "tuple"
        },
        {
          "internalType": "bytes",
          "name": "signatureOracleSwapWithSignature",
          "type": "bytes"
        },
        {
          "components": [
            {
              "internalType": "bool",
              "name": "isLong",
              "type": "bool"
            },
            {
              "internalType": "uint256",
              "name": "bOracleId",
              "type": "uint256"
            },
            {
              "internalType": "uint256",
              "name": "price",
              "type": "uint256"
            },
            {
              "internalType": "uint256",
              "name": "amount",
              "type": "uint256"
            },
            {
              "internalType": "uint256",
              "name": "interestRate",
              "type": "uint256"
            },
            {
              "internalType": "bool",
              "name": "isAPayingAPR",
              "type": "bool"
            },
            {
              "internalType": "address",
              "name": "frontEnd",
              "type": "address"
            },
            {
              "internalType": "address",
              "name": "affiliate",
              "type": "address"
            },
            {
              "internalType": "address",
              "name": "authorized",
              "type": "address"
            },
            {
              "internalType": "uint256",
              "name": "nonce",
              "type": "uint256"
            }
          ],
          "internalType": "struct PionerV1Utils.OpenQuoteSign",
          "name": "openQuoteSign",
          "type": "tuple"
        },
        {
          "internalType": "bytes",
          "name": "openQuoteSignature",
          "type": "bytes"
        }
      ],
      "name": "wrapperOpenQuoteAndDeployPionOracleSigned",
      "outputs": [],
      "stateMutability": "nonpayable",
      "type": "function"
    },
    {
      "inputs": [
        {
          "internalType": "bool",
          "name": "isLong",
          "type": "bool"
        },
        {
          "internalType": "uint256",
          "name": "price",
          "type": "uint256"
        },
        {
          "internalType": "uint256",
          "name": "amount",
          "type": "uint256"
        },
        {
          "internalType": "uint256",
          "name": "interestRate",
          "type": "uint256"
        },
        {
          "internalType": "bool",
          "name": "isAPayingAPR",
          "type": "bool"
        },
        {
          "internalType": "address",
          "name": "frontEnd",
          "type": "address"
        },
        {
          "internalType": "address",
          "name": "affiliate",
          "type": "address"
        },
        {
          "internalType": "bytes32",
          "name": "_asset1",
          "type": "bytes32"
        },
        {
          "internalType": "bytes32",
          "name": "_asset2",
          "type": "bytes32"
        },
        {
          "internalType": "uint256",
          "name": "_x",
          "type": "uint256"
        },
        {
          "internalType": "uint8",
          "name": "_parity",
          "type": "uint8"
        },
        {
          "internalType": "uint256",
          "name": "_maxConfidence",
          "type": "uint256"
        },
        {
          "internalType": "uint256",
          "name": "_maxDelay",
          "type": "uint256"
        },
        {
          "internalType": "uint256",
          "name": "_imA",
          "type": "uint256"
        },
        {
          "internalType": "uint256",
          "name": "_imB",
          "type": "uint256"
        },
        {
          "internalType": "uint256",
          "name": "_dfA",
          "type": "uint256"
        },
        {
          "internalType": "uint256",
          "name": "_dfB",
          "type": "uint256"
        },
        {
          "internalType": "uint256",
          "name": "_expiryA",
          "type": "uint256"
        },
        {
          "internalType": "uint256",
          "name": "_expiryB",
          "type": "uint256"
        },
        {
          "internalType": "uint256",
          "name": "_timeLockA",
          "type": "uint256"
        },
        {
          "internalType": "uint256[]",
          "name": "bContractIdsTP",
          "type": "uint256[]"
        },
        {
          "internalType": "uint256[]",
          "name": "priceTP",
          "type": "uint256[]"
        },
        {
          "internalType": "uint256[]",
          "name": "amountTP",
          "type": "uint256[]"
        },
        {
          "internalType": "uint256[]",
          "name": "limitOrStopTP",
          "type": "uint256[]"
        },
        {
          "internalType": "uint256[]",
          "name": "expiryTP",
          "type": "uint256[]"
        },
        {
          "internalType": "uint256[]",
          "name": "bContractIdsSL",
          "type": "uint256[]"
        },
        {
          "internalType": "uint256[]",
          "name": "priceSL",
          "type": "uint256[]"
        },
        {
          "internalType": "uint256[]",
          "name": "amountSL",
          "type": "uint256[]"
        },
        {
          "internalType": "uint256[]",
          "name": "limitOrStopSL",
          "type": "uint256[]"
        },
        {
          "internalType": "uint256[]",
          "name": "expirySL",
          "type": "uint256[]"
        }
      ],
      "name": "wrapperOpenTPSLOracleSwap",
      "outputs": [],
      "stateMutability": "nonpayable",
      "type": "function"
    },
    {
      "inputs": [
        {
          "components": [
            {
              "internalType": "int256",
              "name": "appId",
              "type": "int256"
            },
            {
              "internalType": "bytes",
              "name": "reqId",
              "type": "bytes"
            },
            {
              "internalType": "bytes32",
              "name": "asset1",
              "type": "bytes32"
            },
            {
              "internalType": "bytes32",
              "name": "asset2",
              "type": "bytes32"
            },
            {
              "internalType": "uint256",
              "name": "lastBid",
              "type": "uint256"
            },
            {
              "internalType": "uint256",
              "name": "lastAsk",
              "type": "uint256"
            },
            {
              "internalType": "uint256",
              "name": "confidence",
              "type": "uint256"
            },
            {
              "internalType": "uint256",
              "name": "signTime",
              "type": "uint256"
            },
            {
              "internalType": "uint256",
              "name": "signature",
              "type": "uint256"
            },
            {
              "internalType": "address",
              "name": "owner",
              "type": "address"
            },
            {
              "internalType": "address",
              "name": "nonce",
              "type": "address"
            }
          ],
          "internalType": "struct PionerV1Utils.upnlSig",
          "name": "priceSignature",
          "type": "tuple"
        },
        {
          "internalType": "uint256",
          "name": "bOracleId",
          "type": "uint256"
        },
        {
          "internalType": "uint256",
          "name": "bCloseQuoteId",
          "type": "uint256"
        },
        {
          "internalType": "uint256",
          "name": "index",
          "type": "uint256"
        }
      ],
      "name": "wrapperUpdatePriceAndCloseMarket",
      "outputs": [],
      "stateMutability": "nonpayable",
      "type": "function"
    },
    {
      "inputs": [
        {
          "components": [
            {
              "internalType": "int256",
              "name": "appId",
              "type": "int256"
            },
            {
              "internalType": "bytes",
              "name": "reqId",
              "type": "bytes"
            },
            {
              "internalType": "bytes32",
              "name": "asset1",
              "type": "bytes32"
            },
            {
              "internalType": "bytes32",
              "name": "asset2",
              "type": "bytes32"
            },
            {
              "internalType": "uint256",
              "name": "lastBid",
              "type": "uint256"
            },
            {
              "internalType": "uint256",
              "name": "lastAsk",
              "type": "uint256"
            },
            {
              "internalType": "uint256",
              "name": "confidence",
              "type": "uint256"
            },
            {
              "internalType": "uint256",
              "name": "signTime",
              "type": "uint256"
            },
            {
              "internalType": "uint256",
              "name": "signature",
              "type": "uint256"
            },
            {
              "internalType": "address",
              "name": "owner",
              "type": "address"
            },
            {
              "internalType": "address",
              "name": "nonce",
              "type": "address"
            }
          ],
          "internalType": "struct PionerV1Utils.upnlSig",
          "name": "priceSignature",
          "type": "tuple"
        },
        {
          "internalType": "uint256",
          "name": "bOracleId",
          "type": "uint256"
        },
        {
          "internalType": "uint256",
          "name": "bContractId",
          "type": "uint256"
        }
      ],
      "name": "wrapperUpdatePriceAndDefault",
      "outputs": [],
      "stateMutability": "nonpayable",
      "type": "function"
    }
  ],
  "bytecode": "0x610160346200023157601f62001e9638819003918201601f19168301926001600160401b03929091838511838610176200021b578160c092849260409788528339810103126200023157620000548162000252565b620000626020830162000252565b906200007085840162000252565b6200007e6060850162000252565b906200009b60a0620000936080880162000252565b960162000252565b90875195620000aa8762000236565b600e875260208701956d2834b7b732b92b18abb0b93832b960911b87528951620000d48162000236565b6003815260208101620312e360ec1b8152620000f08a62000267565b98610120998a5262000102836200043a565b9a6101409b8c52519020918260e0525190206101009b818d524660a05280519160208301937f8b73c3c69bb8fe3d512ecc4cf759cc79239f7b179b0ffacaa9a75d522b39400f85528284015260608301524660808301523060a083015260a0825260c082019b828d10908d11176200021b578b90525190206080523060c05260018060a01b03948580948180948160018060a01b03199b168b600254161760025516896003541617600355168760045416176004551685600554161760055516836006541617600655169060075416176007556118ae9384620005e8853960805184611787015260a05184611852015260c05184611751015260e051846117d6015251836117fc015251826104240152518161044d0152f35b634e487b7160e01b600052604160045260246000fd5b600080fd5b604081019081106001600160401b038211176200021b57604052565b51906001600160a01b03821682036200023157565b8051602091908281101562000306575090601f825111620002a557808251920151908083106200029657501790565b82600019910360031b1b161790565b90604051809263305a27a960e01b82528060048301528251908160248401526000935b828510620002ec575050604492506000838284010152601f80199101168101030190fd5b8481018201518686016044015293810193859350620002c8565b6001600160401b0381116200021b576000928354926001938481811c911680156200042f575b838210146200041b57601f8111620003e5575b5081601f84116001146200037e5750928293918392869462000372575b50501b916000199060031b1c191617905560ff90565b0151925038806200035c565b919083601f1981168780528488209488905b88838310620003ca5750505010620003b0575b505050811b01905560ff90565b015160001960f88460031b161c19169055388080620003a3565b85870151885590960195948501948793509081019062000390565b85805284601f848820920160051c820191601f860160051c015b8281106200040f5750506200033f565b878155018590620003ff565b634e487b7160e01b86526022600452602486fd5b90607f16906200032c565b805160209081811015620004c85750601f8251116200046757808251920151908083106200029657501790565b90604051809263305a27a960e01b82528060048301528251908160248401526000935b828510620004ae575050604492506000838284010152601f80199101168101030190fd5b84810182015186860160440152938101938593506200048a565b9192916001600160401b0381116200021b5760019182548381811c91168015620005dc575b82821014620005c657601f81116200058d575b5080601f83116001146200054057508192939460009262000534575b5050600019600383901b1c191690821b17905560ff90565b0151905038806200051c565b90601f198316958460005282600020926000905b888210620005755750508385969710620003b057505050811b01905560ff90565b80878596829496860151815501950193019062000554565b8360005283601f83600020920160051c820191601f850160051c015b828110620005b957505062000500565b60008155018490620005a9565b634e487b7160e01b600052602260045260246000fd5b90607f1690620004ed56fe610100604052600436101561001357600080fd5b600060a05260003560e01c80632260d4fa14610a9a5780632af7f8341461066b5780632d479d6f1461058a578063326d53d71461050857806384b0196e1461040c5780638b081bfa1461033b5780639c14aa7b1461017d5763d226965e1461007a57600080fd5b34610162576080366003190112610162576004356001600160401b038111610162576100aa903690600401610dbd565b6007546001600160a01b039190821690813b1561016257604051809263a47695b560e01b825281806100e660a051956024359060048401611084565b039160a051905af1801561015557610168575b5060055416803b15610162576040519063395209d560e01b8252604435600483015260643560248301528160448160a05180945af180156101555761013f575b60a05180f35b61014890610c4e565b60a0518015610139575b80fd5b6040513d60a051823e3d90fd5b60a05180fd5b61017190610c4e565b60a05180156100f95780fd5b346101625761010036600319018181126101625760e0136101625760e4356001600160401b038111610162576101b7903690600401610be0565b6005546001600160a01b03929083169190823b156101625761023a9260405180809581946319d4c42960e01b835260043560048401526024356024840152604435998a60448501526064356064850152608435608485015289610218610c24565b1660a485015260c43560c485015260e484015260a05196610104840191611122565b039160a051905af180156101555761031f575b506004916020826005541692600254166040519485809263734cd7c560e11b82525afa9283156101555760a051936102e7575b5060001983019283116102cf57813b15610162576040519263c30bdca960e01b8452600484015260a051602484015260448301528160648160a05180945af180156101555761013f5760a05180f35b634e487b7160e01b60a051526011600452602460a051fd5b9092506020813d8211610317575b8161030260209383610c7c565b8101031261031257519183610280565b600080fd5b3d91506102f5565b61032890610c4e565b60a0519182610337579161024d565b8280fd5b34610162576060366003190112610162576004356001600160401b0381116101625761036b903690600401610dbd565b6007546001600160a01b039190821690813b1561016257604051809263a47695b560e01b825281806103a760a051956024359060048401611084565b039160a051905af18015610155576103f7575b5060065416803b156101625760405190632d01fce560e11b825260443560048301528160248160a05180945af180156101555761013f5760a05180f35b61040090610c4e565b60a05180156103ba5780fd5b346101625760a05180600319360112610152576104487f0000000000000000000000000000000000000000000000000000000000000000610e8b565b6104717f0000000000000000000000000000000000000000000000000000000000000000610fb1565b906040519160208301928084106001600160401b038511176104f2576104cc6104ee926104be9560405260a0518352604051958695600f60f81b875260e0602088015260e0870190610d03565b908582036040870152610d03565b9046606085015230608085015260a05160a085015283820360c0850152610d43565b0390f35b634e487b7160e01b600052604160045260246000fd5b34610162576003196101a036820112610162576004356001600160401b0391828211610162576101e09082360301126101625760243582811161016257610553903690600401610be0565b90919061014036604319011261016257610184359384116101625761057f610139943690600401610be0565b939092600401611257565b34610162576003196102003682011261016257600435906001600160401b0390818311610162576101e090833603011261016257602435818111610162576105d6903690600401610be0565b90610140366043190112610162576101843592831161016257610600610614933690600401610be0565b92909161060b610c0d565b95600401611257565b6004546001600160a01b0390811690813b156101625760405192632ee8229760e01b84526101a43560048501526101c43560248501521660448301528160648160a05180945af180156101555761013f5760a05180f35b34610162576103c0366003190112610162576004358015158103610312576084359081151582036103125761069e610c24565b60805260c435916001600160a01b03831683036103125760ff6101443516610144350361016257610284356001600160401b038111610162576106e5903690600401610c9d565b6102a4356001600160401b03811161016257610705903690600401610c9d565b926102c4356001600160401b03811161016257610726903690600401610c9d565b916102e4356001600160401b03811161016257610747903690600401610c9d565b90610304356001600160401b03811161016257610768903690600401610c9d565b91610324356001600160401b03811161016257610789903690600401610c9d565b966001600160401b036103443511610162576107ab3661034435600401610c9d565b956001600160401b036103643511610162576107cd3661036435600401610c9d565b956001600160401b036103843511610162576107ef3661038435600401610c9d565b986001600160401b036103a4351161016257610811366103a435600401610c9d565b600754909c906001600160a01b0316803b156101625760405190630b550f0160e21b82528160a05191818061087e61026435806102443561022435610204356101e4356101c4356101a435610184356101043560e435610164358d61014435906004610124359101611143565b039160a051905af1801561015557610a85575b50600480546002546040516384ad716960e01b81526001600160a01b03928316959390926020928492918391165afa9081156101555760a05191610a54575b50806000198101116102cf57833b1561016257604051946385d047df60e01b865215156004860152600019016024850152602435604485015260443560648501526064356084850152151560a484015260018060a01b036080511660c484015260018060a01b031660e4830152816101048160a05180945af1801561015557610a3f575b5083516109d6575b5050505050835161096d5760a05180f35b6005546001600160a01b031691823b15610162576109a5604051968795869485946332283bed60e01b865260a05199600487016111bc565b039160a051905af18015610155576109c1575b80808080610139565b6109ca90610c4e565b60a05180156109b85780fd5b6005546001600160a01b031691823b1561016257610a0e604051968795869485946332283bed60e01b865260a05199600487016111bc565b039160a051905af1801561015557610a2a575b8080808061095c565b610a3390610c4e565b60a0518015610a215780fd5b610a4890610c4e565b60a05180156109545780fd5b90506020813d8211610a7d575b81610a6e60209383610c7c565b8101031261031257518f6108d0565b3d9150610a61565b610a8e90610c4e565b60a05180156108915780fd5b34610312576003196102603682011261031257600435906001600160401b0390818311610312576101e09083360301126103125760243581811161031257610ae6903690600401610be0565b909190610140366043190112610312576101843582811161031257610b0f903690600401610be0565b9160a0366101a3190112610312576102443593841161031257610b39610b44943690600401610be0565b959096600401611257565b6004546001600160a01b0392908316803b156101625760405163a6d2634160e01b81526101a43560048201526101c435602482015293849283918291610bb991610b8c610c0d565b16604484015261020435606484015261022435608484015260c060a484015260a0519660c4840191611122565b039160a051905af1801561015557610bd15760a05180f35b610bda90610c4e565b80610139565b9181601f84011215610312578235916001600160401b038311610312576020838186019501011161031257565b6101e435906001600160a01b038216820361031257565b60a435906001600160a01b038216820361031257565b35906001600160a01b038216820361031257565b6001600160401b0381116104f257604052565b604081019081106001600160401b038211176104f257604052565b90601f801991011681019081106001600160401b038211176104f257604052565b9080601f83011215610312578135906001600160401b0382116104f2578160051b60405193602093610cd185840187610c7c565b85528380860192820101928311610312578301905b828210610cf4575050505090565b81358152908301908301610ce6565b919082519283825260005b848110610d2f575050826000602080949584010152601f8019910116010190565b602081830181015184830182015201610d0e565b90815180825260208080930193019160005b828110610d63575050505090565b835185529381019392810192600101610d55565b9291926001600160401b0382116104f25760405191610da0601f8201601f191660200184610c7c565b829481845281830111610312578281602093846000960137010152565b91909161016090818185031261031257604051918201936001600160401b0394838110868211176104f25760405282948235845260208301359081116103125782019080601f8301121561031257816020610e1a93359101610d77565b602083015260408101356040830152606081013560608301526080810135608083015260a081013560a083015260c081013560c083015260e081013560e08301526101008082013590830152610120610e74818301610c3a565b90830152610e86610140809201610c3a565b910152565b60ff8114610ec95760ff811690601f8211610eb75760405191610ead83610c61565b8252602082015290565b604051632cd44ac360e21b8152600490fd5b506040516000805490600182811c90808416938415610fa7575b6020948584108114610f935783875286949392918115610f735750600114610f17575b5050610f1492500382610c7c565b90565b60008080527f290decd9548b62a8d60345a988386fc84ba6bc95484008f6362f93160ef3e56395935091905b818310610f5b575050610f1493508201013880610f06565b85548784018501529485019486945091830191610f43565b915050610f1494925060ff191682840152151560051b8201013880610f06565b634e487b7160e01b85526022600452602485fd5b91607f1691610ee3565b60ff8114610fd35760ff811690601f8211610eb75760405191610ead83610c61565b50604051600060019081549182811c9080841693841561107a575b6020948584108114610f935783875286949392918115610f73575060011461101e575050610f1492500382610c7c565b60008181527fb10e2d527612073b26eecdfd717e6a320cf44b4afac2b0732d9fcbe2b7fa0cf695935091905b818310611062575050610f1493508201013880610f06565b8554878401850152948501948694509183019161104a565b91607f1691610fee565b929190602090604085528051604086015281810151906110b2610160928360608901526101a0880190610d03565b9160408201516080880152606082015160a0880152608082015160c088015260a082015160e088015260c082015191610100928389015260e08101519261012093848a01528101519161014092838a015260018060a01b0380948301511690890152015116610180860152930152565b908060209392818452848401376000828201840152601f01601f1916010190565b9c9a98969492909e9d9b99979593919e60e05260e05160c0528c6101e081019f60e051825260ff16906020015260408d015260608c015260808b015260a08a015260c089015260e08801526101008701526101208601526101408501526101608401526101808301526101a08201526101c00160019052565b9390610f1495936111ed611209946111df6111fb9460a08a5260a08a0190610d43565b9088820360208a0152610d43565b908682036040880152610d43565b908482036060860152610d43565b916080818403910152610d43565b903590601e198136030182121561031257018035906001600160401b0382116103125760200191813603831361031257565b3560ff811681036103125790565b93929093611266368584610d77565b60208151910120946101a08201936112886112818685611217565b3691610d77565b60208151910120600097036115b8576113d2946113c98493926113c38594604260ff6113946112c36112bc60208b01611249565b988a611217565b6040999199519384927fd324fe22bef57b1e65d79a435046dcc0599eee5cb25579e1ff4604030b7f52a560208501528c35604085015216606083015260408b0135608083015260a08b013560a083015260c08b013560c083015260e08b013560e08301526101008b013561010083015261137d6101209a8b8d01358c850152610140809e810135908501526101609e8f80910135908501526101808d01356101808501526101c092836101a08601526101e0850191611122565b90808c01359083015203601f198101835282610c7c565b602081519101206113a361174e565b906040519161190160f01b83526002830152602282015220923691610d77565b906115fd565b909791976116c9565b6007546001600160a01b0316916113eb60208201611249565b833b156115b4578994939291611460869260405198899788968795630b550f0160e21b875261018081013594610180820135948201359382013592820135916101008101359160e08201359160c0810135918b60a0830135926080810135926060820135926004604084013593359101611143565b03925af180156115a957611596575b506004546001600160a01b0316803b156115925760405163ea2665f560e01b815293604435801515908190036103125760048601526064356024860152608435604486015260a435606486015260c435608486015260e4358015158091036103125760a486015261010480356001600160a01b038116908190036103125760c48701526101249485356001600160a01b038116908190036103125760e48801526001600160a01b03610144803591821697909291889003610312576115558997889661018088968e9c8d9989015261016495863590890152870152610184860191611122565b6001600160a01b039092169083015203925af1801561158757611576575050565b6115808291610c4e565b6101525750565b6040513d84823e3d90fd5b8480fd5b6115a290949194610c4e565b923861146f565b6040513d87823e3d90fd5b8980fd5b60405162461bcd60e51b815260206004820152601760248201527f5369676e61747572652068617368206d69736d617463680000000000000000006044820152606490fd5b815191906041830361162e5761162792506020820151906060604084015193015160001a90611639565b9192909190565b505060009160029190565b91907f7fffffffffffffffffffffffffffffff5d576e7357a4501ddfe92f46681b20a084116116bd57926020929160ff608095604051948552168484015260408301526060820152600092839182805260015afa156116b15780516001600160a01b038116156116a857918190565b50809160019190565b604051903d90823e3d90fd5b50505060009160039190565b600481101561173857806116db575050565b600181036116f55760405163f645eedf60e01b8152600490fd5b600281036117165760405163fce698f760e01b815260048101839052602490fd5b6003146117205750565b602490604051906335e2f38360e21b82526004820152fd5b634e487b7160e01b600052602160045260246000fd5b307f00000000000000000000000000000000000000000000000000000000000000006001600160a01b0316148061184f575b156117a9577f000000000000000000000000000000000000000000000000000000000000000090565b60405160208101907f8b73c3c69bb8fe3d512ecc4cf759cc79239f7b179b0ffacaa9a75d522b39400f82527f000000000000000000000000000000000000000000000000000000000000000060408201527f000000000000000000000000000000000000000000000000000000000000000060608201524660808201523060a082015260a0815260c081018181106001600160401b038211176104f25760405251902090565b507f0000000000000000000000000000000000000000000000000000000000000000461461178056fea2646970667358221220b162b76d510724cedd29dfcb211bcf3542230a9e81fb1678aca66c2d77140f8d64736f6c63430008140033",
  "linkReferences": {},
  "deployedLinkReferences": {}
}