{
  "_format": "hh-sol-artifact-1",
  "contractName": "SchnorrSECP256K1Verifier",
  "sourceName": "contracts/Libs/SchnorrSECP256K1Verifier.sol",
  "abi": [
    {
      "inputs": [],
      "name": "HALF_Q",
      "outputs": [
        {
          "internalType": "uint256",
          "name": "",
          "type": "uint256"
        }
      ],
      "stateMutability": "view",
      "type": "function"
    },
    {
      "inputs": [],
      "name": "Q",
      "outputs": [
        {
          "internalType": "uint256",
          "name": "",
          "type": "uint256"
        }
      ],
      "stateMutability": "view",
      "type": "function"
    },
    {
      "inputs": [
        {
          "internalType": "uint256",
          "name": "signingPubKeyX",
          "type": "uint256"
        }
      ],
      "name": "validatePubKey",
      "outputs": [],
      "stateMutability": "pure",
      "type": "function"
    },
    {
      "inputs": [
        {
          "internalType": "uint256",
          "name": "signingPubKeyX",
          "type": "uint256"
        },
        {
          "internalType": "uint8",
          "name": "pubKeyYParity",
          "type": "uint8"
        },
        {
          "internalType": "uint256",
          "name": "signature",
          "type": "uint256"
        },
        {
          "internalType": "uint256",
          "name": "msgHash",
          "type": "uint256"
        },
        {
          "internalType": "address",
          "name": "nonceTimesGeneratorAddress",
          "type": "address"
        }
      ],
      "name": "verifySignature",
      "outputs": [
        {
          "internalType": "bool",
          "name": "",
          "type": "bool"
        }
      ],
      "stateMutability": "pure",
      "type": "function"
    }
  ],
  "bytecode": "0x6080806040523461001657610383908161001c8239f35b600080fdfe6040608081526004908136101561001557600080fd5b600091823560e01c80638224604a146102d05780638efb3bb21461029f578063e493ef8c1461026e5763ff51dff21461004d57600080fd5b3461026a5760a036600319011261026a5780356024359060ff8216809203610266576001600160a01b0360843581811694919390926064359260443590878603610262576100b26fa2a8918ca85bafe22016d0b997e4df5f600160ff1b038410610308565b70014551231950b75fc4402da1732fc9bebe199384831015610214578815158061020b575b80610202575b806101f9575b156101bd5789519560208701976bffffffffffffffffffffffff199060601b168852603487015260348652606086019686881067ffffffffffffffff8911176101aa578590888c5287519020938509850391858311610197575093602096938b969360ff60c0946080981560001461018f57601b905b885216878601528160a08601520991015282805260015afa15610183576020935116149051908152f35b505051903d90823e3d90fd5b601c90610159565b634e487b7160e01b8c526011905260248bfd5b634e487b7160e01b8c526041835260248cfd5b895162461bcd60e51b815260208184015260166024820152751b9bc81e995c9bc81a5b9c1d5d1cc8185b1b1bddd95960521b6044820152606490fd5b508515156100e3565b508215156100dd565b508315156100d7565b895162461bcd60e51b8152602081840152602260248201527f7369676e6174757265206d7573742062652072656475636564206d6f64756c6f604482015261205160f01b6064820152608490fd5b8980fd5b8480fd5b8280fd5b50503461029b578160031936011261029b575170014551231950b75fc4402da1732fc9bebe198152602090f35b5080fd5b50503461029b578160031936011261029b57602090516fa2a8918ca85bafe22016d0b997e4df5f600160ff1b038152f35b83823461029b57602036600319011261029b576fa2a8918ca85bafe22016d0b997e4df5f600160ff1b03610305913510610308565b80f35b1561030f57565b60405162461bcd60e51b81526020600482015260166024820152755075626c69632d6b65792078203e3d2048414c465f5160501b6044820152606490fdfea2646970667358221220c19cbf96f7fe7ca038e1d8c316a0b5ef9d2d7cdb4645c38b3e682c8544788c0064736f6c63430008140033",
  "linkReferences": {},
  "deployedLinkReferences": {}
}