{
  "_format": "hh-sol-artifact-1",
  "contractName": "SchnorrSECP256K1VerifierV2",
  "sourceName": "contracts/Libs/SchnorrSECP256K1VerifierV2.sol",
  "abi": [
    {
      "inputs": [],
      "name": "HALF_Q",
      "outputs": [
        {
          "internalType": "uint256",
          "name": "",
          "type": "uint256"
        }
      ],
      "stateMutability": "view",
      "type": "function"
    },
    {
      "inputs": [],
      "name": "Q",
      "outputs": [
        {
          "internalType": "uint256",
          "name": "",
          "type": "uint256"
        }
      ],
      "stateMutability": "view",
      "type": "function"
    },
    {
      "inputs": [
        {
          "internalType": "uint256",
          "name": "signingPubKeyX",
          "type": "uint256"
        }
      ],
      "name": "validatePubKey",
      "outputs": [],
      "stateMutability": "pure",
      "type": "function"
    },
    {
      "inputs": [
        {
          "internalType": "uint256",
          "name": "signingPubKeyX",
          "type": "uint256"
        },
        {
          "internalType": "uint8",
          "name": "pubKeyYParity",
          "type": "uint8"
        },
        {
          "internalType": "uint256",
          "name": "signature",
          "type": "uint256"
        },
        {
          "internalType": "uint256",
          "name": "msgHash",
          "type": "uint256"
        },
        {
          "internalType": "address",
          "name": "nonceTimesGeneratorAddress",
          "type": "address"
        }
      ],
      "name": "verifySignature",
      "outputs": [
        {
          "internalType": "bool",
          "name": "",
          "type": "bool"
        }
      ],
      "stateMutability": "pure",
      "type": "function"
    }
  ],
  "bytecode": "0x608080604052346100165761039b908161001c8239f35b600080fdfe6040608081526004908136101561001557600080fd5b600091823560e01c80638224604a146102e85780638efb3bb2146102b7578063e493ef8c146102865763ff51dff21461004d57600080fd5b346102825760a03660031901126102825780359060243560ff81169283820361027e57604435606435916084359160018060a01b03958684169788850361027a576100af6fa2a8918ca85bafe22016d0b997e4df5f600160ff1b038510610320565b70014551231950b75fc4402da1732fc9bebe19948584101561022c5789151580610223575b8061021a575b80610211575b156101d5578a516020810186815260f89990991b6001600160f81b031916818d0152604181019790975260601b6bffffffffffffffffffffffff1916606187015260558652608086019667ffffffffffffffff8811878910176101c2578590888c52875190209385098503918583116101af575093602096938b969360ff60e094608098156000146101a757601b905b88521660a08601528160c08601520991015282805260015afa1561019b576020935116149051908152f35b505051903d90823e3d90fd5b601c90610170565b634e487b7160e01b8c526011905260248bfd5b634e487b7160e01b8c526041835260248cfd5b8a5162461bcd60e51b815260208185015260166024820152751b9bc81e995c9bc81a5b9c1d5d1cc8185b1b1bddd95960521b6044820152606490fd5b508615156100e0565b508315156100da565b508415156100d4565b8a5162461bcd60e51b8152602081850152602260248201527f7369676e6174757265206d7573742062652072656475636564206d6f64756c6f604482015261205160f01b6064820152608490fd5b8a80fd5b8580fd5b8280fd5b5050346102b357816003193601126102b3575170014551231950b75fc4402da1732fc9bebe198152602090f35b5080fd5b5050346102b357816003193601126102b357602090516fa2a8918ca85bafe22016d0b997e4df5f600160ff1b038152f35b8382346102b35760203660031901126102b3576fa2a8918ca85bafe22016d0b997e4df5f600160ff1b0361031d913510610320565b80f35b1561032757565b60405162461bcd60e51b81526020600482015260166024820152755075626c69632d6b65792078203e3d2048414c465f5160501b6044820152606490fdfea26469706673582212200b707977481e63b28f4474018eff189dcd823c8bd9761859a8e010d0c8e6d2db64736f6c63430008140033",
  "linkReferences": {},
  "deployedLinkReferences": {}
}