{
  "_format": "hh-sol-artifact-1",
  "contractName": "PionerV1",
  "sourceName": "contracts/PionerV1.sol",
  "abi": [
    {
      "inputs": [
        {
          "internalType": "address",
          "name": "daiAddress",
          "type": "address"
        },
        {
          "internalType": "uint256",
          "name": "min_notional",
          "type": "uint256"
        },
        {
          "internalType": "uint256",
          "name": "frontend_share",
          "type": "uint256"
        },
        {
          "internalType": "uint256",
          "name": "affiliation_share",
          "type": "uint256"
        },
        {
          "internalType": "uint256",
          "name": "hedger_share",
          "type": "uint256"
        },
        {
          "internalType": "uint256",
          "name": "pioner_dao_share",
          "type": "uint256"
        },
        {
          "internalType": "uint256",
          "name": "total_share",
          "type": "uint256"
        },
        {
          "internalType": "uint256",
          "name": "default_auction_period",
          "type": "uint256"
        },
        {
          "internalType": "uint256",
          "name": "cancel_time_buffer",
          "type": "uint256"
        },
        {
          "internalType": "uint256",
          "name": "max_open_positions",
          "type": "uint256"
        },
        {
          "internalType": "uint256",
          "name": "grace_period",
          "type": "uint256"
        },
        {
          "internalType": "address",
          "name": "pioner_dao",
          "type": "address"
        },
        {
          "internalType": "address",
          "name": "admin",
          "type": "address"
        }
      ],
      "stateMutability": "nonpayable",
      "type": "constructor"
    },
    {
      "anonymous": false,
      "inputs": [
        {
          "indexed": true,
          "internalType": "address",
          "name": "target",
          "type": "address"
        },
        {
          "indexed": true,
          "internalType": "address",
          "name": "receiver",
          "type": "address"
        },
        {
          "indexed": false,
          "internalType": "uint256",
          "name": "deficit",
          "type": "uint256"
        }
      ],
      "name": "AddToOwedEvent",
      "type": "event"
    },
    {
      "anonymous": false,
      "inputs": [
        {
          "indexed": true,
          "internalType": "address",
          "name": "target",
          "type": "address"
        },
        {
          "indexed": true,
          "internalType": "address",
          "name": "receiver",
          "type": "address"
        },
        {
          "indexed": false,
          "internalType": "uint256",
          "name": "amount",
          "type": "uint256"
        }
      ],
      "name": "ClaimOwedEvent",
      "type": "event"
    },
    {
      "anonymous": false,
      "inputs": [
        {
          "indexed": false,
          "internalType": "bytes",
          "name": "reqId",
          "type": "bytes"
        },
        {
          "components": [
            {
              "internalType": "uint256",
              "name": "x",
              "type": "uint256"
            },
            {
              "internalType": "uint8",
              "name": "parity",
              "type": "uint8"
            }
          ],
          "indexed": false,
          "internalType": "struct MuonClientBase.PublicKey",
          "name": "pubKey",
          "type": "tuple"
        }
      ],
      "name": "MuonTX",
      "type": "event"
    },
    {
      "anonymous": false,
      "inputs": [
        {
          "indexed": true,
          "internalType": "address",
          "name": "target",
          "type": "address"
        },
        {
          "indexed": false,
          "internalType": "uint256",
          "name": "returnedAmount",
          "type": "uint256"
        }
      ],
      "name": "PayOwedEvent",
      "type": "event"
    },
    {
      "anonymous": false,
      "inputs": [
        {
          "indexed": true,
          "internalType": "uint256",
          "name": "bOracleLength",
          "type": "uint256"
        }
      ],
      "name": "deployPriceFeedEvent",
      "type": "event"
    },
    {
      "anonymous": false,
      "inputs": [
        {
          "indexed": true,
          "internalType": "uint256",
          "name": "bOracleId",
          "type": "uint256"
        },
        {
          "indexed": false,
          "internalType": "uint256",
          "name": "lastPrice",
          "type": "uint256"
        }
      ],
      "name": "updatePricePythEvent",
      "type": "event"
    },
    {
      "inputs": [],
      "name": "HALF_Q",
      "outputs": [
        {
          "internalType": "uint256",
          "name": "",
          "type": "uint256"
        }
      ],
      "stateMutability": "view",
      "type": "function"
    },
    {
      "inputs": [],
      "name": "Q",
      "outputs": [
        {
          "internalType": "uint256",
          "name": "",
          "type": "uint256"
        }
      ],
      "stateMutability": "view",
      "type": "function"
    },
    {
      "inputs": [],
      "name": "addBCloseQuoteLength",
      "outputs": [],
      "stateMutability": "nonpayable",
      "type": "function"
    },
    {
      "inputs": [],
      "name": "addBContractLength",
      "outputs": [],
      "stateMutability": "nonpayable",
      "type": "function"
    },
    {
      "inputs": [],
      "name": "addBOracleLength",
      "outputs": [],
      "stateMutability": "nonpayable",
      "type": "function"
    },
    {
      "inputs": [
        {
          "internalType": "address",
          "name": "user",
          "type": "address"
        },
        {
          "internalType": "uint256",
          "name": "amount",
          "type": "uint256"
        }
      ],
      "name": "addBalance",
      "outputs": [],
      "stateMutability": "nonpayable",
      "type": "function"
    },
    {
      "inputs": [
        {
          "internalType": "address",
          "name": "user",
          "type": "address"
        },
        {
          "internalType": "uint256",
          "name": "amount",
          "type": "uint256"
        }
      ],
      "name": "addCumImBalances",
      "outputs": [],
      "stateMutability": "nonpayable",
      "type": "function"
    },
    {
      "inputs": [
        {
          "internalType": "address",
          "name": "user",
          "type": "address"
        },
        {
          "internalType": "uint256",
          "name": "amount",
          "type": "uint256"
        }
      ],
      "name": "addGracePeriodLockedWithdrawBalances",
      "outputs": [],
      "stateMutability": "nonpayable",
      "type": "function"
    },
    {
      "inputs": [
        {
          "internalType": "address",
          "name": "user",
          "type": "address"
        },
        {
          "internalType": "uint256",
          "name": "amount",
          "type": "uint256"
        }
      ],
      "name": "addMintedAmounts",
      "outputs": [],
      "stateMutability": "nonpayable",
      "type": "function"
    },
    {
      "inputs": [
        {
          "internalType": "address",
          "name": "user",
          "type": "address"
        }
      ],
      "name": "addOpenPositionNumber",
      "outputs": [],
      "stateMutability": "nonpayable",
      "type": "function"
    },
    {
      "inputs": [
        {
          "internalType": "address",
          "name": "user",
          "type": "address"
        },
        {
          "internalType": "address",
          "name": "counterparty",
          "type": "address"
        },
        {
          "internalType": "uint256",
          "name": "amount",
          "type": "uint256"
        }
      ],
      "name": "addOwedAmount",
      "outputs": [],
      "stateMutability": "nonpayable",
      "type": "function"
    },
    {
      "inputs": [
        {
          "internalType": "uint256",
          "name": "deficit",
          "type": "uint256"
        },
        {
          "internalType": "address",
          "name": "target",
          "type": "address"
        },
        {
          "internalType": "address",
          "name": "receiver",
          "type": "address"
        }
      ],
      "name": "addToOwed",
      "outputs": [],
      "stateMutability": "nonpayable",
      "type": "function"
    },
    {
      "inputs": [
        {
          "internalType": "bytes",
          "name": "",
          "type": "bytes"
        },
        {
          "internalType": "address",
          "name": "",
          "type": "address"
        }
      ],
      "name": "cancelledCloseQuotes",
      "outputs": [
        {
          "internalType": "uint256",
          "name": "",
          "type": "uint256"
        }
      ],
      "stateMutability": "view",
      "type": "function"
    },
    {
      "inputs": [
        {
          "internalType": "bytes",
          "name": "",
          "type": "bytes"
        },
        {
          "internalType": "address",
          "name": "",
          "type": "address"
        }
      ],
      "name": "cancelledOpenQuotes",
      "outputs": [
        {
          "internalType": "uint256",
          "name": "",
          "type": "uint256"
        }
      ],
      "stateMutability": "view",
      "type": "function"
    },
    {
      "inputs": [
        {
          "internalType": "address",
          "name": "target",
          "type": "address"
        },
        {
          "internalType": "address",
          "name": "receiver",
          "type": "address"
        }
      ],
      "name": "claimOwed",
      "outputs": [],
      "stateMutability": "nonpayable",
      "type": "function"
    },
    {
      "inputs": [
        {
          "internalType": "address",
          "name": "user",
          "type": "address"
        }
      ],
      "name": "decreaseOpenPositionNumber",
      "outputs": [],
      "stateMutability": "nonpayable",
      "type": "function"
    },
    {
      "inputs": [
        {
          "internalType": "address",
          "name": "user",
          "type": "address"
        },
        {
          "internalType": "address",
          "name": "counterparty",
          "type": "address"
        },
        {
          "internalType": "uint256",
          "name": "amount",
          "type": "uint256"
        }
      ],
      "name": "decreaseOwedAmount",
      "outputs": [],
      "stateMutability": "nonpayable",
      "type": "function"
    },
    {
      "inputs": [
        {
          "internalType": "address",
          "name": "user",
          "type": "address"
        },
        {
          "internalType": "uint256",
          "name": "amount",
          "type": "uint256"
        }
      ],
      "name": "decreaseTotalOwedAmount",
      "outputs": [],
      "stateMutability": "nonpayable",
      "type": "function"
    },
    {
      "inputs": [
        {
          "internalType": "address",
          "name": "user",
          "type": "address"
        },
        {
          "internalType": "uint256",
          "name": "amount",
          "type": "uint256"
        }
      ],
      "name": "decreaseTotalOwedAmountPaid",
      "outputs": [],
      "stateMutability": "nonpayable",
      "type": "function"
    },
    {
      "inputs": [
        {
          "internalType": "address",
          "name": "user",
          "type": "address"
        }
      ],
      "name": "getAccountToToken",
      "outputs": [
        {
          "internalType": "address",
          "name": "",
          "type": "address"
        }
      ],
      "stateMutability": "view",
      "type": "function"
    },
    {
      "inputs": [],
      "name": "getAllStateVariables",
      "outputs": [
        {
          "internalType": "uint256",
          "name": "minNotional",
          "type": "uint256"
        },
        {
          "internalType": "uint256",
          "name": "frontendShare",
          "type": "uint256"
        },
        {
          "internalType": "uint256",
          "name": "affiliationShare",
          "type": "uint256"
        },
        {
          "internalType": "uint256",
          "name": "hedgerShare",
          "type": "uint256"
        },
        {
          "internalType": "uint256",
          "name": "pionerDaoShare",
          "type": "uint256"
        },
        {
          "internalType": "uint256",
          "name": "totalShare",
          "type": "uint256"
        },
        {
          "internalType": "uint256",
          "name": "defaultAuctionPeriod",
          "type": "uint256"
        },
        {
          "internalType": "uint256",
          "name": "cancelTimeBuffer",
          "type": "uint256"
        },
        {
          "internalType": "uint256",
          "name": "maxOpenPositions",
          "type": "uint256"
        },
        {
          "internalType": "uint256",
          "name": "gracePeriod",
          "type": "uint256"
        },
        {
          "internalType": "address",
          "name": "pionerDao",
          "type": "address"
        },
        {
          "internalType": "address",
          "name": "admin",
          "type": "address"
        }
      ],
      "stateMutability": "view",
      "type": "function"
    },
    {
      "inputs": [
        {
          "internalType": "address",
          "name": "user",
          "type": "address"
        }
      ],
      "name": "getAvgOpenOwedTime",
      "outputs": [
        {
          "internalType": "uint256",
          "name": "",
          "type": "uint256"
        }
      ],
      "stateMutability": "view",
      "type": "function"
    },
    {
      "inputs": [],
      "name": "getBALANCETOKEN",
      "outputs": [
        {
          "internalType": "contract IERC20",
          "name": "",
          "type": "address"
        }
      ],
      "stateMutability": "view",
      "type": "function"
    },
    {
      "inputs": [
        {
          "internalType": "uint256",
          "name": "id",
          "type": "uint256"
        }
      ],
      "name": "getBCloseQuote",
      "outputs": [
        {
          "components": [
            {
              "internalType": "uint256[]",
              "name": "bContractIds",
              "type": "uint256[]"
            },
            {
              "internalType": "uint256[]",
              "name": "price",
              "type": "uint256[]"
            },
            {
              "internalType": "uint256[]",
              "name": "amount",
              "type": "uint256[]"
            },
            {
              "internalType": "uint256[]",
              "name": "limitOrStop",
              "type": "uint256[]"
            },
            {
              "internalType": "uint256[]",
              "name": "expiry",
              "type": "uint256[]"
            },
            {
              "internalType": "address",
              "name": "initiator",
              "type": "address"
            },
            {
              "internalType": "uint256",
              "name": "cancelTime",
              "type": "uint256"
            },
            {
              "internalType": "uint256",
              "name": "openTime",
              "type": "uint256"
            },
            {
              "internalType": "uint256",
              "name": "state",
              "type": "uint256"
            }
          ],
          "internalType": "struct PionerV1Utils.bCloseQuote",
          "name": "",
          "type": "tuple"
        }
      ],
      "stateMutability": "view",
      "type": "function"
    },
    {
      "inputs": [],
      "name": "getBCloseQuoteLength",
      "outputs": [
        {
          "internalType": "uint256",
          "name": "closeQuoteLength",
          "type": "uint256"
        }
      ],
      "stateMutability": "view",
      "type": "function"
    },
    {
      "inputs": [
        {
          "internalType": "uint256",
          "name": "id",
          "type": "uint256"
        }
      ],
      "name": "getBContract",
      "outputs": [
        {
          "components": [
            {
              "internalType": "address",
              "name": "pA",
              "type": "address"
            },
            {
              "internalType": "address",
              "name": "pB",
              "type": "address"
            },
            {
              "internalType": "uint256",
              "name": "oracleId",
              "type": "uint256"
            },
            {
              "internalType": "address",
              "name": "initiator",
              "type": "address"
            },
            {
              "internalType": "uint256",
              "name": "price",
              "type": "uint256"
            },
            {
              "internalType": "uint256",
              "name": "amount",
              "type": "uint256"
            },
            {
              "internalType": "uint256",
              "name": "interestRate",
              "type": "uint256"
            },
            {
              "internalType": "bool",
              "name": "isAPayingAPR",
              "type": "bool"
            },
            {
              "internalType": "uint256",
              "name": "openTime",
              "type": "uint256"
            },
            {
              "internalType": "uint256",
              "name": "state",
              "type": "uint256"
            },
            {
              "internalType": "address",
              "name": "frontEnd",
              "type": "address"
            },
            {
              "internalType": "address",
              "name": "hedger",
              "type": "address"
            },
            {
              "internalType": "address",
              "name": "affiliate",
              "type": "address"
            },
            {
              "internalType": "uint256",
              "name": "cancelTime",
              "type": "uint256"
            }
          ],
          "internalType": "struct PionerV1Utils.bContract",
          "name": "",
          "type": "tuple"
        }
      ],
      "stateMutability": "view",
      "type": "function"
    },
    {
      "inputs": [],
      "name": "getBContractLength",
      "outputs": [
        {
          "internalType": "uint256",
          "name": "contractLength",
          "type": "uint256"
        }
      ],
      "stateMutability": "view",
      "type": "function"
    },
    {
      "inputs": [
        {
          "internalType": "uint256",
          "name": "id",
          "type": "uint256"
        },
        {
          "internalType": "address",
          "name": "target",
          "type": "address"
        }
      ],
      "name": "getBContractTransferQuote",
      "outputs": [
        {
          "components": [
            {
              "internalType": "uint256",
              "name": "transferOffer",
              "type": "uint256"
            },
            {
              "internalType": "uint256",
              "name": "transferOfferBribe",
              "type": "uint256"
            },
            {
              "internalType": "uint256",
              "name": "transferMethod",
              "type": "uint256"
            },
            {
              "internalType": "uint256",
              "name": "transferQuoteExpiry",
              "type": "uint256"
            },
            {
              "internalType": "bool",
              "name": "transferSide",
              "type": "bool"
            }
          ],
          "internalType": "struct PionerV1Utils.bContractTransferQuote",
          "name": "",
          "type": "tuple"
        }
      ],
      "stateMutability": "view",
      "type": "function"
    },
    {
      "inputs": [
        {
          "internalType": "uint256",
          "name": "id",
          "type": "uint256"
        }
      ],
      "name": "getBContractUpdate",
      "outputs": [
        {
          "components": [
            {
              "internalType": "address",
              "name": "oracleChangeInitializer",
              "type": "address"
            },
            {
              "internalType": "uint256",
              "name": "oracleChangeId",
              "type": "uint256"
            },
            {
              "internalType": "bool",
              "name": "isTranferAInit",
              "type": "bool"
            },
            {
              "internalType": "bool",
              "name": "isTranferBInit",
              "type": "bool"
            },
            {
              "internalType": "address",
              "name": "targetTransferA",
              "type": "address"
            },
            {
              "internalType": "address",
              "name": "targetTransferB",
              "type": "address"
            },
            {
              "internalType": "uint256",
              "name": "transferBribeA",
              "type": "uint256"
            },
            {
              "internalType": "uint256",
              "name": "transferBribeB",
              "type": "uint256"
            }
          ],
          "internalType": "struct PionerV1Utils.bContractUpdate",
          "name": "",
          "type": "tuple"
        }
      ],
      "stateMutability": "view",
      "type": "function"
    },
    {
      "inputs": [
        {
          "internalType": "uint256",
          "name": "id",
          "type": "uint256"
        }
      ],
      "name": "getBOracle",
      "outputs": [
        {
          "components": [
            {
              "internalType": "bytes32",
              "name": "asset1",
              "type": "bytes32"
            },
            {
              "internalType": "bytes32",
              "name": "asset2",
              "type": "bytes32"
            },
            {
              "internalType": "uint256",
              "name": "oracleType",
              "type": "uint256"
            },
            {
              "internalType": "address",
              "name": "priceFeedAddress",
              "type": "address"
            },
            {
              "internalType": "bytes32",
              "name": "pythAddress1",
              "type": "bytes32"
            },
            {
              "internalType": "bytes32",
              "name": "pythAddress2",
              "type": "bytes32"
            },
            {
              "internalType": "uint256",
              "name": "lastBid",
              "type": "uint256"
            },
            {
              "internalType": "uint256",
              "name": "lastAsk",
              "type": "uint256"
            },
            {
              "internalType": "address",
              "name": "publicOracleAddress",
              "type": "address"
            },
            {
              "internalType": "uint256",
              "name": "maxConfidence",
              "type": "uint256"
            },
            {
              "internalType": "uint256",
              "name": "x",
              "type": "uint256"
            },
            {
              "internalType": "uint8",
              "name": "parity",
              "type": "uint8"
            },
            {
              "internalType": "uint256",
              "name": "maxDelay",
              "type": "uint256"
            },
            {
              "internalType": "uint256",
              "name": "lastPrice",
              "type": "uint256"
            },
            {
              "internalType": "uint256",
              "name": "lastPriceUpdateTime",
              "type": "uint256"
            },
            {
              "internalType": "uint256",
              "name": "imA",
              "type": "uint256"
            },
            {
              "internalType": "uint256",
              "name": "imB",
              "type": "uint256"
            },
            {
              "internalType": "uint256",
              "name": "dfA",
              "type": "uint256"
            },
            {
              "internalType": "uint256",
              "name": "dfB",
              "type": "uint256"
            },
            {
              "internalType": "uint256",
              "name": "expiryA",
              "type": "uint256"
            },
            {
              "internalType": "uint256",
              "name": "expiryB",
              "type": "uint256"
            },
            {
              "internalType": "uint256",
              "name": "timeLockA",
              "type": "uint256"
            },
            {
              "internalType": "uint256",
              "name": "timeLockB",
              "type": "uint256"
            },
            {
              "internalType": "uint256",
              "name": "cType",
              "type": "uint256"
            },
            {
              "internalType": "uint256",
              "name": "forceCloseType",
              "type": "uint256"
            },
            {
              "internalType": "address",
              "name": "kycAddress",
              "type": "address"
            },
            {
              "internalType": "bool",
              "name": "isPaused",
              "type": "bool"
            },
            {
              "internalType": "uint256",
              "name": "deployTime",
              "type": "uint256"
            }
          ],
          "internalType": "struct PionerV1Utils.bOracle",
          "name": "",
          "type": "tuple"
        }
      ],
      "stateMutability": "view",
      "type": "function"
    },
    {
      "inputs": [
        {
          "internalType": "address",
          "name": "user",
          "type": "address"
        }
      ],
      "name": "getBOracleIdStable",
      "outputs": [
        {
          "internalType": "uint256",
          "name": "",
          "type": "uint256"
        }
      ],
      "stateMutability": "view",
      "type": "function"
    },
    {
      "inputs": [],
      "name": "getBOracleLength",
      "outputs": [
        {
          "internalType": "uint256",
          "name": "oracleLength",
          "type": "uint256"
        }
      ],
      "stateMutability": "view",
      "type": "function"
    },
    {
      "inputs": [
        {
          "internalType": "address",
          "name": "user",
          "type": "address"
        }
      ],
      "name": "getBalance",
      "outputs": [
        {
          "internalType": "uint256",
          "name": "",
          "type": "uint256"
        }
      ],
      "stateMutability": "view",
      "type": "function"
    },
    {
      "inputs": [],
      "name": "getBalanceToken",
      "outputs": [
        {
          "internalType": "contract IERC20",
          "name": "",
          "type": "address"
        }
      ],
      "stateMutability": "view",
      "type": "function"
    },
    {
      "inputs": [
        {
          "internalType": "address",
          "name": "user",
          "type": "address"
        }
      ],
      "name": "getBalances",
      "outputs": [
        {
          "internalType": "uint256",
          "name": "",
          "type": "uint256"
        }
      ],
      "stateMutability": "view",
      "type": "function"
    },
    {
      "inputs": [],
      "name": "getCancelTimeBuffer",
      "outputs": [
        {
          "internalType": "uint256",
          "name": "",
          "type": "uint256"
        }
      ],
      "stateMutability": "view",
      "type": "function"
    },
    {
      "inputs": [
        {
          "internalType": "bytes",
          "name": "id",
          "type": "bytes"
        },
        {
          "internalType": "address",
          "name": "target",
          "type": "address"
        }
      ],
      "name": "getCancelledCloseQuotes",
      "outputs": [
        {
          "internalType": "uint256",
          "name": "",
          "type": "uint256"
        }
      ],
      "stateMutability": "view",
      "type": "function"
    },
    {
      "inputs": [
        {
          "internalType": "bytes",
          "name": "id",
          "type": "bytes"
        },
        {
          "internalType": "address",
          "name": "target",
          "type": "address"
        }
      ],
      "name": "getCancelledOpenQuotes",
      "outputs": [
        {
          "internalType": "uint256",
          "name": "",
          "type": "uint256"
        }
      ],
      "stateMutability": "view",
      "type": "function"
    },
    {
      "inputs": [
        {
          "internalType": "address",
          "name": "user",
          "type": "address"
        }
      ],
      "name": "getClaimedKycIrAmount",
      "outputs": [
        {
          "internalType": "uint256",
          "name": "",
          "type": "uint256"
        }
      ],
      "stateMutability": "view",
      "type": "function"
    },
    {
      "inputs": [
        {
          "internalType": "address",
          "name": "user",
          "type": "address"
        }
      ],
      "name": "getCumImBalances",
      "outputs": [
        {
          "internalType": "uint256",
          "name": "",
          "type": "uint256"
        }
      ],
      "stateMutability": "view",
      "type": "function"
    },
    {
      "inputs": [],
      "name": "getDefaultAuctionPeriod",
      "outputs": [
        {
          "internalType": "uint256",
          "name": "",
          "type": "uint256"
        }
      ],
      "stateMutability": "view",
      "type": "function"
    },
    {
      "inputs": [],
      "name": "getGRACE_PERIOD",
      "outputs": [
        {
          "internalType": "uint256",
          "name": "",
          "type": "uint256"
        }
      ],
      "stateMutability": "view",
      "type": "function"
    },
    {
      "inputs": [
        {
          "internalType": "address",
          "name": "user",
          "type": "address"
        }
      ],
      "name": "getGracePeriodLockedTime",
      "outputs": [
        {
          "internalType": "uint256",
          "name": "",
          "type": "uint256"
        }
      ],
      "stateMutability": "view",
      "type": "function"
    },
    {
      "inputs": [
        {
          "internalType": "address",
          "name": "user",
          "type": "address"
        }
      ],
      "name": "getGracePeriodLockedWithdrawBalance",
      "outputs": [
        {
          "internalType": "uint256",
          "name": "",
          "type": "uint256"
        }
      ],
      "stateMutability": "view",
      "type": "function"
    },
    {
      "inputs": [],
      "name": "getMaxOpenPositions",
      "outputs": [
        {
          "internalType": "uint256",
          "name": "",
          "type": "uint256"
        }
      ],
      "stateMutability": "view",
      "type": "function"
    },
    {
      "inputs": [],
      "name": "getMinNotional",
      "outputs": [
        {
          "internalType": "uint256",
          "name": "",
          "type": "uint256"
        }
      ],
      "stateMutability": "view",
      "type": "function"
    },
    {
      "inputs": [
        {
          "internalType": "address",
          "name": "user",
          "type": "address"
        }
      ],
      "name": "getMinimumOpenPartialFillNotional",
      "outputs": [
        {
          "internalType": "uint256",
          "name": "",
          "type": "uint256"
        }
      ],
      "stateMutability": "view",
      "type": "function"
    },
    {
      "inputs": [
        {
          "internalType": "address",
          "name": "user",
          "type": "address"
        }
      ],
      "name": "getMintedAmounts",
      "outputs": [
        {
          "internalType": "uint256",
          "name": "",
          "type": "uint256"
        }
      ],
      "stateMutability": "view",
      "type": "function"
    },
    {
      "inputs": [
        {
          "internalType": "address",
          "name": "user",
          "type": "address"
        }
      ],
      "name": "getOpenPositionNumber",
      "outputs": [
        {
          "internalType": "uint256",
          "name": "",
          "type": "uint256"
        }
      ],
      "stateMutability": "view",
      "type": "function"
    },
    {
      "inputs": [
        {
          "internalType": "address",
          "name": "user",
          "type": "address"
        },
        {
          "internalType": "address",
          "name": "counterparty",
          "type": "address"
        }
      ],
      "name": "getOwedAmount",
      "outputs": [
        {
          "internalType": "uint256",
          "name": "",
          "type": "uint256"
        }
      ],
      "stateMutability": "view",
      "type": "function"
    },
    {
      "inputs": [],
      "name": "getPioneerDao",
      "outputs": [
        {
          "internalType": "address",
          "name": "",
          "type": "address"
        }
      ],
      "stateMutability": "view",
      "type": "function"
    },
    {
      "inputs": [
        {
          "internalType": "address",
          "name": "user",
          "type": "address"
        }
      ],
      "name": "getSponsorReward",
      "outputs": [
        {
          "internalType": "uint256",
          "name": "",
          "type": "uint256"
        }
      ],
      "stateMutability": "view",
      "type": "function"
    },
    {
      "inputs": [
        {
          "internalType": "address",
          "name": "user",
          "type": "address"
        }
      ],
      "name": "getTotalOwedAmount",
      "outputs": [
        {
          "internalType": "uint256",
          "name": "",
          "type": "uint256"
        }
      ],
      "stateMutability": "view",
      "type": "function"
    },
    {
      "inputs": [
        {
          "internalType": "address",
          "name": "user",
          "type": "address"
        }
      ],
      "name": "getTotalOwedAmountPaid",
      "outputs": [
        {
          "internalType": "uint256",
          "name": "",
          "type": "uint256"
        }
      ],
      "stateMutability": "view",
      "type": "function"
    },
    {
      "inputs": [],
      "name": "getTotalShare",
      "outputs": [
        {
          "internalType": "uint256",
          "name": "",
          "type": "uint256"
        }
      ],
      "stateMutability": "view",
      "type": "function"
    },
    {
      "inputs": [],
      "name": "muonAppId",
      "outputs": [
        {
          "internalType": "uint256",
          "name": "",
          "type": "uint256"
        }
      ],
      "stateMutability": "view",
      "type": "function"
    },
    {
      "inputs": [],
      "name": "muonPublicKey",
      "outputs": [
        {
          "internalType": "uint256",
          "name": "x",
          "type": "uint256"
        },
        {
          "internalType": "uint8",
          "name": "parity",
          "type": "uint8"
        }
      ],
      "stateMutability": "view",
      "type": "function"
    },
    {
      "inputs": [
        {
          "internalType": "bytes",
          "name": "reqId",
          "type": "bytes"
        },
        {
          "internalType": "uint256",
          "name": "hash",
          "type": "uint256"
        },
        {
          "components": [
            {
              "internalType": "uint256",
              "name": "signature",
              "type": "uint256"
            },
            {
              "internalType": "address",
              "name": "owner",
              "type": "address"
            },
            {
              "internalType": "address",
              "name": "nonce",
              "type": "address"
            }
          ],
          "internalType": "struct MuonClientBase.SchnorrSign",
          "name": "signature",
          "type": "tuple"
        },
        {
          "components": [
            {
              "internalType": "uint256",
              "name": "x",
              "type": "uint256"
            },
            {
              "internalType": "uint8",
              "name": "parity",
              "type": "uint8"
            }
          ],
          "internalType": "struct MuonClientBase.PublicKey",
          "name": "pubKey",
          "type": "tuple"
        }
      ],
      "name": "muonVerify",
      "outputs": [
        {
          "internalType": "bool",
          "name": "",
          "type": "bool"
        }
      ],
      "stateMutability": "nonpayable",
      "type": "function"
    },
    {
      "inputs": [
        {
          "internalType": "uint256",
          "name": "amount",
          "type": "uint256"
        },
        {
          "internalType": "address",
          "name": "frontend",
          "type": "address"
        },
        {
          "internalType": "address",
          "name": "affiliate",
          "type": "address"
        },
        {
          "internalType": "address",
          "name": "hedger",
          "type": "address"
        }
      ],
      "name": "payAffiliates",
      "outputs": [],
      "stateMutability": "nonpayable",
      "type": "function"
    },
    {
      "inputs": [
        {
          "internalType": "address",
          "name": "receiver",
          "type": "address"
        },
        {
          "internalType": "address",
          "name": "target",
          "type": "address"
        },
        {
          "internalType": "uint256",
          "name": "price",
          "type": "uint256"
        },
        {
          "internalType": "uint256",
          "name": "lastPrice",
          "type": "uint256"
        },
        {
          "internalType": "uint256",
          "name": "im",
          "type": "uint256"
        },
        {
          "internalType": "bool",
          "name": "isA",
          "type": "bool"
        }
      ],
      "name": "paySponsor",
      "outputs": [],
      "stateMutability": "nonpayable",
      "type": "function"
    },
    {
      "inputs": [
        {
          "internalType": "address",
          "name": "user",
          "type": "address"
        },
        {
          "internalType": "uint256",
          "name": "amount",
          "type": "uint256"
        }
      ],
      "name": "removeBalance",
      "outputs": [],
      "stateMutability": "nonpayable",
      "type": "function"
    },
    {
      "inputs": [
        {
          "internalType": "address",
          "name": "user",
          "type": "address"
        },
        {
          "internalType": "uint256",
          "name": "amount",
          "type": "uint256"
        }
      ],
      "name": "removeCumImBalances",
      "outputs": [],
      "stateMutability": "nonpayable",
      "type": "function"
    },
    {
      "inputs": [
        {
          "internalType": "address",
          "name": "user",
          "type": "address"
        },
        {
          "internalType": "uint256",
          "name": "amount",
          "type": "uint256"
        }
      ],
      "name": "removeGracePeriodLockedWithdrawBalances",
      "outputs": [],
      "stateMutability": "nonpayable",
      "type": "function"
    },
    {
      "inputs": [
        {
          "internalType": "address",
          "name": "user",
          "type": "address"
        },
        {
          "internalType": "uint256",
          "name": "amount",
          "type": "uint256"
        }
      ],
      "name": "removeMintedAmounts",
      "outputs": [],
      "stateMutability": "nonpayable",
      "type": "function"
    },
    {
      "inputs": [
        {
          "internalType": "address",
          "name": "user",
          "type": "address"
        },
        {
          "internalType": "address",
          "name": "counterparty",
          "type": "address"
        },
        {
          "internalType": "uint256",
          "name": "amount",
          "type": "uint256"
        }
      ],
      "name": "removeOwedAmount",
      "outputs": [],
      "stateMutability": "nonpayable",
      "type": "function"
    },
    {
      "inputs": [
        {
          "internalType": "address",
          "name": "user",
          "type": "address"
        },
        {
          "internalType": "address",
          "name": "_token",
          "type": "address"
        }
      ],
      "name": "setAccountToToken",
      "outputs": [],
      "stateMutability": "nonpayable",
      "type": "function"
    },
    {
      "inputs": [
        {
          "internalType": "uint256",
          "name": "id",
          "type": "uint256"
        },
        {
          "components": [
            {
              "internalType": "uint256[]",
              "name": "bContractIds",
              "type": "uint256[]"
            },
            {
              "internalType": "uint256[]",
              "name": "price",
              "type": "uint256[]"
            },
            {
              "internalType": "uint256[]",
              "name": "amount",
              "type": "uint256[]"
            },
            {
              "internalType": "uint256[]",
              "name": "limitOrStop",
              "type": "uint256[]"
            },
            {
              "internalType": "uint256[]",
              "name": "expiry",
              "type": "uint256[]"
            },
            {
              "internalType": "address",
              "name": "initiator",
              "type": "address"
            },
            {
              "internalType": "uint256",
              "name": "cancelTime",
              "type": "uint256"
            },
            {
              "internalType": "uint256",
              "name": "openTime",
              "type": "uint256"
            },
            {
              "internalType": "uint256",
              "name": "state",
              "type": "uint256"
            }
          ],
          "internalType": "struct PionerV1Utils.bCloseQuote",
          "name": "newCloseQuote",
          "type": "tuple"
        }
      ],
      "name": "setBCloseQuote",
      "outputs": [],
      "stateMutability": "nonpayable",
      "type": "function"
    },
    {
      "inputs": [
        {
          "internalType": "uint256",
          "name": "id",
          "type": "uint256"
        },
        {
          "components": [
            {
              "internalType": "address",
              "name": "pA",
              "type": "address"
            },
            {
              "internalType": "address",
              "name": "pB",
              "type": "address"
            },
            {
              "internalType": "uint256",
              "name": "oracleId",
              "type": "uint256"
            },
            {
              "internalType": "address",
              "name": "initiator",
              "type": "address"
            },
            {
              "internalType": "uint256",
              "name": "price",
              "type": "uint256"
            },
            {
              "internalType": "uint256",
              "name": "amount",
              "type": "uint256"
            },
            {
              "internalType": "uint256",
              "name": "interestRate",
              "type": "uint256"
            },
            {
              "internalType": "bool",
              "name": "isAPayingAPR",
              "type": "bool"
            },
            {
              "internalType": "uint256",
              "name": "openTime",
              "type": "uint256"
            },
            {
              "internalType": "uint256",
              "name": "state",
              "type": "uint256"
            },
            {
              "internalType": "address",
              "name": "frontEnd",
              "type": "address"
            },
            {
              "internalType": "address",
              "name": "hedger",
              "type": "address"
            },
            {
              "internalType": "address",
              "name": "affiliate",
              "type": "address"
            },
            {
              "internalType": "uint256",
              "name": "cancelTime",
              "type": "uint256"
            }
          ],
          "internalType": "struct PionerV1Utils.bContract",
          "name": "newContract",
          "type": "tuple"
        }
      ],
      "name": "setBContract",
      "outputs": [],
      "stateMutability": "nonpayable",
      "type": "function"
    },
    {
      "inputs": [
        {
          "internalType": "uint256",
          "name": "id",
          "type": "uint256"
        },
        {
          "internalType": "address",
          "name": "target",
          "type": "address"
        },
        {
          "components": [
            {
              "internalType": "uint256",
              "name": "transferOffer",
              "type": "uint256"
            },
            {
              "internalType": "uint256",
              "name": "transferOfferBribe",
              "type": "uint256"
            },
            {
              "internalType": "uint256",
              "name": "transferMethod",
              "type": "uint256"
            },
            {
              "internalType": "uint256",
              "name": "transferQuoteExpiry",
              "type": "uint256"
            },
            {
              "internalType": "bool",
              "name": "transferSide",
              "type": "bool"
            }
          ],
          "internalType": "struct PionerV1Utils.bContractTransferQuote",
          "name": "newBContractTransferQuote",
          "type": "tuple"
        }
      ],
      "name": "setBContractTransferQuote",
      "outputs": [],
      "stateMutability": "nonpayable",
      "type": "function"
    },
    {
      "inputs": [
        {
          "internalType": "uint256",
          "name": "id",
          "type": "uint256"
        },
        {
          "components": [
            {
              "internalType": "address",
              "name": "oracleChangeInitializer",
              "type": "address"
            },
            {
              "internalType": "uint256",
              "name": "oracleChangeId",
              "type": "uint256"
            },
            {
              "internalType": "bool",
              "name": "isTranferAInit",
              "type": "bool"
            },
            {
              "internalType": "bool",
              "name": "isTranferBInit",
              "type": "bool"
            },
            {
              "internalType": "address",
              "name": "targetTransferA",
              "type": "address"
            },
            {
              "internalType": "address",
              "name": "targetTransferB",
              "type": "address"
            },
            {
              "internalType": "uint256",
              "name": "transferBribeA",
              "type": "uint256"
            },
            {
              "internalType": "uint256",
              "name": "transferBribeB",
              "type": "uint256"
            }
          ],
          "internalType": "struct PionerV1Utils.bContractUpdate",
          "name": "newContractUpdate",
          "type": "tuple"
        }
      ],
      "name": "setBContractUpdate",
      "outputs": [],
      "stateMutability": "nonpayable",
      "type": "function"
    },
    {
      "inputs": [
        {
          "internalType": "uint256",
          "name": "id",
          "type": "uint256"
        },
        {
          "components": [
            {
              "internalType": "bytes32",
              "name": "asset1",
              "type": "bytes32"
            },
            {
              "internalType": "bytes32",
              "name": "asset2",
              "type": "bytes32"
            },
            {
              "internalType": "uint256",
              "name": "oracleType",
              "type": "uint256"
            },
            {
              "internalType": "address",
              "name": "priceFeedAddress",
              "type": "address"
            },
            {
              "internalType": "bytes32",
              "name": "pythAddress1",
              "type": "bytes32"
            },
            {
              "internalType": "bytes32",
              "name": "pythAddress2",
              "type": "bytes32"
            },
            {
              "internalType": "uint256",
              "name": "lastBid",
              "type": "uint256"
            },
            {
              "internalType": "uint256",
              "name": "lastAsk",
              "type": "uint256"
            },
            {
              "internalType": "address",
              "name": "publicOracleAddress",
              "type": "address"
            },
            {
              "internalType": "uint256",
              "name": "maxConfidence",
              "type": "uint256"
            },
            {
              "internalType": "uint256",
              "name": "x",
              "type": "uint256"
            },
            {
              "internalType": "uint8",
              "name": "parity",
              "type": "uint8"
            },
            {
              "internalType": "uint256",
              "name": "maxDelay",
              "type": "uint256"
            },
            {
              "internalType": "uint256",
              "name": "lastPrice",
              "type": "uint256"
            },
            {
              "internalType": "uint256",
              "name": "lastPriceUpdateTime",
              "type": "uint256"
            },
            {
              "internalType": "uint256",
              "name": "imA",
              "type": "uint256"
            },
            {
              "internalType": "uint256",
              "name": "imB",
              "type": "uint256"
            },
            {
              "internalType": "uint256",
              "name": "dfA",
              "type": "uint256"
            },
            {
              "internalType": "uint256",
              "name": "dfB",
              "type": "uint256"
            },
            {
              "internalType": "uint256",
              "name": "expiryA",
              "type": "uint256"
            },
            {
              "internalType": "uint256",
              "name": "expiryB",
              "type": "uint256"
            },
            {
              "internalType": "uint256",
              "name": "timeLockA",
              "type": "uint256"
            },
            {
              "internalType": "uint256",
              "name": "timeLockB",
              "type": "uint256"
            },
            {
              "internalType": "uint256",
              "name": "cType",
              "type": "uint256"
            },
            {
              "internalType": "uint256",
              "name": "forceCloseType",
              "type": "uint256"
            },
            {
              "internalType": "address",
              "name": "kycAddress",
              "type": "address"
            },
            {
              "internalType": "bool",
              "name": "isPaused",
              "type": "bool"
            },
            {
              "internalType": "uint256",
              "name": "deployTime",
              "type": "uint256"
            }
          ],
          "internalType": "struct PionerV1Utils.bOracle",
          "name": "newOracle",
          "type": "tuple"
        }
      ],
      "name": "setBOracle",
      "outputs": [],
      "stateMutability": "nonpayable",
      "type": "function"
    },
    {
      "inputs": [
        {
          "internalType": "uint256",
          "name": "amount",
          "type": "uint256"
        },
        {
          "internalType": "address",
          "name": "target",
          "type": "address"
        },
        {
          "internalType": "address",
          "name": "receiver",
          "type": "address"
        },
        {
          "internalType": "bool",
          "name": "sign",
          "type": "bool"
        },
        {
          "internalType": "bool",
          "name": "revertMode",
          "type": "bool"
        }
      ],
      "name": "setBalance",
      "outputs": [
        {
          "internalType": "uint256",
          "name": "",
          "type": "uint256"
        }
      ],
      "stateMutability": "nonpayable",
      "type": "function"
    },
    {
      "inputs": [
        {
          "internalType": "bytes",
          "name": "id",
          "type": "bytes"
        },
        {
          "internalType": "address",
          "name": "target",
          "type": "address"
        },
        {
          "internalType": "uint256",
          "name": "value",
          "type": "uint256"
        }
      ],
      "name": "setCancelledCloseQuotes",
      "outputs": [],
      "stateMutability": "nonpayable",
      "type": "function"
    },
    {
      "inputs": [
        {
          "internalType": "bytes",
          "name": "id",
          "type": "bytes"
        },
        {
          "internalType": "address",
          "name": "target",
          "type": "address"
        },
        {
          "internalType": "uint256",
          "name": "value",
          "type": "uint256"
        }
      ],
      "name": "setCancelledOpenQuotes",
      "outputs": [],
      "stateMutability": "nonpayable",
      "type": "function"
    },
    {
      "inputs": [
        {
          "internalType": "address",
          "name": "_PIONERV1OPEN",
          "type": "address"
        },
        {
          "internalType": "address",
          "name": "_PIONERV1CLOSE",
          "type": "address"
        },
        {
          "internalType": "address",
          "name": "_PIONERV1DEFAULT",
          "type": "address"
        },
        {
          "internalType": "address",
          "name": "_PIONERV1STABLE",
          "type": "address"
        },
        {
          "internalType": "address",
          "name": "_PIONERV1COMPLIANCE",
          "type": "address"
        },
        {
          "internalType": "address",
          "name": "_PIONERV1ORACLE",
          "type": "address"
        },
        {
          "internalType": "address",
          "name": "_PIONERV1WARPER",
          "type": "address"
        }
      ],
      "name": "setContactAddress",
      "outputs": [],
      "stateMutability": "nonpayable",
      "type": "function"
    },
    {
      "inputs": [
        {
          "internalType": "address",
          "name": "user",
          "type": "address"
        },
        {
          "internalType": "uint256",
          "name": "amount",
          "type": "uint256"
        }
      ],
      "name": "setCumImBalances",
      "outputs": [],
      "stateMutability": "nonpayable",
      "type": "function"
    },
    {
      "inputs": [
        {
          "internalType": "address",
          "name": "id",
          "type": "address"
        },
        {
          "internalType": "uint256",
          "name": "value",
          "type": "uint256"
        }
      ],
      "name": "setGracePeriodLockedTime",
      "outputs": [],
      "stateMutability": "nonpayable",
      "type": "function"
    },
    {
      "inputs": [
        {
          "internalType": "address",
          "name": "user",
          "type": "address"
        },
        {
          "internalType": "address",
          "name": "counterparty",
          "type": "address"
        },
        {
          "internalType": "uint256",
          "name": "amount",
          "type": "uint256"
        }
      ],
      "name": "setOwedAmount",
      "outputs": [],
      "stateMutability": "nonpayable",
      "type": "function"
    },
    {
      "inputs": [
        {
          "internalType": "address",
          "name": "user",
          "type": "address"
        },
        {
          "internalType": "uint256",
          "name": "amount",
          "type": "uint256"
        }
      ],
      "name": "setTotalOwedAmount",
      "outputs": [],
      "stateMutability": "nonpayable",
      "type": "function"
    },
    {
      "inputs": [
        {
          "internalType": "address",
          "name": "user",
          "type": "address"
        },
        {
          "internalType": "uint256",
          "name": "amount",
          "type": "uint256"
        }
      ],
      "name": "setTotalOwedAmountPaid",
      "outputs": [],
      "stateMutability": "nonpayable",
      "type": "function"
    },
    {
      "inputs": [
        {
          "internalType": "address",
          "name": "kyc",
          "type": "address"
        },
        {
          "internalType": "uint256",
          "name": "_id",
          "type": "uint256"
        }
      ],
      "name": "setbOracleIdStable",
      "outputs": [],
      "stateMutability": "nonpayable",
      "type": "function"
    },
    {
      "inputs": [
        {
          "components": [
            {
              "internalType": "bytes32",
              "name": "asset1",
              "type": "bytes32"
            },
            {
              "internalType": "bytes32",
              "name": "asset2",
              "type": "bytes32"
            },
            {
              "internalType": "uint256",
              "name": "oracleType",
              "type": "uint256"
            },
            {
              "internalType": "address",
              "name": "priceFeedAddress",
              "type": "address"
            },
            {
              "internalType": "bytes32",
              "name": "pythAddress1",
              "type": "bytes32"
            },
            {
              "internalType": "bytes32",
              "name": "pythAddress2",
              "type": "bytes32"
            },
            {
              "internalType": "uint256",
              "name": "lastBid",
              "type": "uint256"
            },
            {
              "internalType": "uint256",
              "name": "lastAsk",
              "type": "uint256"
            },
            {
              "internalType": "address",
              "name": "publicOracleAddress",
              "type": "address"
            },
            {
              "internalType": "uint256",
              "name": "maxConfidence",
              "type": "uint256"
            },
            {
              "internalType": "uint256",
              "name": "x",
              "type": "uint256"
            },
            {
              "internalType": "uint8",
              "name": "parity",
              "type": "uint8"
            },
            {
              "internalType": "uint256",
              "name": "maxDelay",
              "type": "uint256"
            },
            {
              "internalType": "uint256",
              "name": "lastPrice",
              "type": "uint256"
            },
            {
              "internalType": "uint256",
              "name": "lastPriceUpdateTime",
              "type": "uint256"
            },
            {
              "internalType": "uint256",
              "name": "imA",
              "type": "uint256"
            },
            {
              "internalType": "uint256",
              "name": "imB",
              "type": "uint256"
            },
            {
              "internalType": "uint256",
              "name": "dfA",
              "type": "uint256"
            },
            {
              "internalType": "uint256",
              "name": "dfB",
              "type": "uint256"
            },
            {
              "internalType": "uint256",
              "name": "expiryA",
              "type": "uint256"
            },
            {
              "internalType": "uint256",
              "name": "expiryB",
              "type": "uint256"
            },
            {
              "internalType": "uint256",
              "name": "timeLockA",
              "type": "uint256"
            },
            {
              "internalType": "uint256",
              "name": "timeLockB",
              "type": "uint256"
            },
            {
              "internalType": "uint256",
              "name": "cType",
              "type": "uint256"
            },
            {
              "internalType": "uint256",
              "name": "forceCloseType",
              "type": "uint256"
            },
            {
              "internalType": "address",
              "name": "kycAddress",
              "type": "address"
            },
            {
              "internalType": "bool",
              "name": "isPaused",
              "type": "bool"
            },
            {
              "internalType": "uint256",
              "name": "deployTime",
              "type": "uint256"
            }
          ],
          "internalType": "struct PionerV1Utils.bOracle",
          "name": "bO",
          "type": "tuple"
        },
        {
          "components": [
            {
              "internalType": "address",
              "name": "pA",
              "type": "address"
            },
            {
              "internalType": "address",
              "name": "pB",
              "type": "address"
            },
            {
              "internalType": "uint256",
              "name": "oracleId",
              "type": "uint256"
            },
            {
              "internalType": "address",
              "name": "initiator",
              "type": "address"
            },
            {
              "internalType": "uint256",
              "name": "price",
              "type": "uint256"
            },
            {
              "internalType": "uint256",
              "name": "amount",
              "type": "uint256"
            },
            {
              "internalType": "uint256",
              "name": "interestRate",
              "type": "uint256"
            },
            {
              "internalType": "bool",
              "name": "isAPayingAPR",
              "type": "bool"
            },
            {
              "internalType": "uint256",
              "name": "openTime",
              "type": "uint256"
            },
            {
              "internalType": "uint256",
              "name": "state",
              "type": "uint256"
            },
            {
              "internalType": "address",
              "name": "frontEnd",
              "type": "address"
            },
            {
              "internalType": "address",
              "name": "hedger",
              "type": "address"
            },
            {
              "internalType": "address",
              "name": "affiliate",
              "type": "address"
            },
            {
              "internalType": "uint256",
              "name": "cancelTime",
              "type": "uint256"
            }
          ],
          "internalType": "struct PionerV1Utils.bContract",
          "name": "bC",
          "type": "tuple"
        },
        {
          "internalType": "uint256",
          "name": "bContractId",
          "type": "uint256"
        }
      ],
      "name": "updateCumIm",
      "outputs": [],
      "stateMutability": "nonpayable",
      "type": "function"
    },
    {
      "inputs": [
        {
          "internalType": "uint256",
          "name": "newAmount",
          "type": "uint256"
        }
      ],
      "name": "updateMinimumOpenPartialFillNotional",
      "outputs": [],
      "stateMutability": "nonpayable",
      "type": "function"
    },
    {
      "inputs": [
        {
          "internalType": "uint256",
          "name": "newAmount",
          "type": "uint256"
        }
      ],
      "name": "updateSponsorReward",
      "outputs": [],
      "stateMutability": "nonpayable",
      "type": "function"
    },
    {
      "inputs": [
        {
          "internalType": "uint256",
          "name": "signingPubKeyX",
          "type": "uint256"
        }
      ],
      "name": "validatePubKey",
      "outputs": [],
      "stateMutability": "pure",
      "type": "function"
    },
    {
      "inputs": [
        {
          "internalType": "uint256",
          "name": "signingPubKeyX",
          "type": "uint256"
        },
        {
          "internalType": "uint8",
          "name": "pubKeyYParity",
          "type": "uint8"
        },
        {
          "internalType": "uint256",
          "name": "signature",
          "type": "uint256"
        },
        {
          "internalType": "uint256",
          "name": "msgHash",
          "type": "uint256"
        },
        {
          "internalType": "address",
          "name": "nonceTimesGeneratorAddress",
          "type": "address"
        }
      ],
      "name": "verifySignature",
      "outputs": [
        {
          "internalType": "bool",
          "name": "",
          "type": "bool"
        }
      ],
      "stateMutability": "pure",
      "type": "function"
    }
  ],
  "bytecode": "0x6080346200011257601f6200571638819003918201601f19168301916001600160401b0383118484101762000117578084926101a09460405283398101031262000112576200004e816200012d565b9060208101519060408101516060820151608083015160a084015160c085015160e086015191610100870151936101208801519561014089015197620000a76101806200009f6101608d016200012d565b9b016200012d565b9a60018060a01b03199c60018060a01b03168d600f541617600f55600355600455600555600655600755600855600955600a55600b55600c5560018060a01b031682600d541617600d5560018060a01b031690600e541617600e556040516155d39081620001438239f35b600080fd5b634e487b7160e01b600052604160045260246000fd5b51906001600160a01b0382168203620001125756fe608080604052600436101561001357600080fd5b60003560e01c90816302ad7f4314614a645750806303339c861461495d57806306faa448146147b45780630b671e6f1461477a5780630c965b31146144725780630cdbf967146143885780630e1295691461429957806311d7e2a01461429e5780631425d2fa14614299578063154c7d1e1461417d57806315c868781461414357806318967df8146141095780631cd8e700146140055780631d74b67d14613e815780631da5475e14613e6357806321e5383a14613d5f5780632b08fc1514613cd45780632eb41cf814613bc2578063304e24e914613b885780633205b1d714613b6a57806339bbfb9114613b255780633a1ebe0c14613a215780633f06cd6614613a0357806343c3cc85146138ff57806345ba6a82146138e157806346192c9c146137e157806348d29b1914610a6057806355804d06146137a75780635dee28391461376d57806360c97a701461369457806361dbb3b21461365a5780636526adbe146135545780636639013f1461345457806367aeb0f31461343657806367cf9c3b146133d25780636846ce93146133aa57806374f95a40146130175780637669c2bb14612f5b5780638224604a14612f27578063828b6e9b14612e2357806384ad716914612e055780638738428d14612dcb5780638da1791714612d865780638e95b51b14612c825780638efb3bb214612c515780639023196114612c185780639766821c14612bef5780639c13131214612bd15780639dd87ac814612ba9578063a1595d4514612997578063a24f76cb14612895578063a67986a214612844578063a74730041461273b578063af0825af14612637578063af40d56f146125fc578063af663e9b146125d4578063b3f74d89146125b6578063b5b2578a146121da578063b8d98ce5146120da578063ba97893c14611fd6578063bd008a8f14611ed6578063bd31117114611dcd578063c006941414611cfd578063c309cdd614611855578063c84aae171461041d578063cb1fb9641461176b578063cda25f4114611667578063d270f04c14611603578063d388ed23146110d1578063d406815814611097578063d74e595914610e60578063db7e8c0f14610e26578063e1dd0fdc14610cbf578063e3f4740b14610ae0578063e47e445514610aa6578063e493ef8c14610a79578063e558391f14610a60578063e57764f614610941578063e654ea8714610877578063e699af8a14610859578063e919aa5f14610659578063e95e380f14610548578063f0649dcf1461052a578063f4364a2f14610422578063f8b2cb4f1461041d5763ff51dff2146103d157600080fd5b346104185760a03660031901126104185760243560ff811681036104185761040e6020916103fd614af2565b9060643590604435906004356153e8565b6040519015158152f35b600080fd5b614dd6565b346104185760403660031901126104185761043b614a9a565b3033148015610516575b8015610502575b80156104ee575b80156104da575b80156104c6575b80156104b2575b801561049e575b61047890614e76565b60018060a01b03166000526029602052604060002061049a6024358254614d83565b9055005b506019546001600160a01b0316331461046f565b506018546001600160a01b03163314610468565b506014546001600160a01b03163314610461565b506013546001600160a01b0316331461045a565b506012546001600160a01b03163314610453565b506011546001600160a01b0316331461044c565b506010546001600160a01b03163314610445565b34610418576000366003190112610418576020600a54604051908152f35b346104185760a03660031901126104185760206105c5610566614ab0565b61056e614ac6565b50610577614c49565b61057f614c58565b913033148015610645575b8015610631575b801561061d575b8015610609575b80156105f5575b80156105e1575b80156105cd575b6105bd90614e76565b600435614ec7565b604051908152f35b506019546001600160a01b031633146105b4565b506018546001600160a01b031633146105ad565b506014546001600160a01b031633146105a6565b506013546001600160a01b0316331461059f565b506012546001600160a01b03163314610598565b506011546001600160a01b03163314610591565b506010546001600160a01b0316331461058a565b3461041857610120366003190112610418576101003660231901126104185760405161068481614bd4565b61068c614ab0565b815260056020820160443581526106a1614c49565b604084019081526106b0614c58565b93606081019485526106c0614b08565b92608082019384526106d0614b1e565b9160a0810192835260c081019360e435855260e08201956101043587523033148015610845575b8015610831575b801561081d575b8015610809575b80156107f5575b80156107e1575b80156107cd575b61072a90614e76565b600435600052601f60205260406000209860018060a01b0380945116946001600160601b0360a01b95868c5416178b555160018b015561077d60028b0193511515849060ff801983541691151516179055565b5182549151610100600160b01b031990921690151560081b61ff00161760109190911b62010000600160b01b03161790559151600387018054909216921691909117905551600484015551910155005b506019546001600160a01b03163314610721565b506018546001600160a01b0316331461071a565b506014546001600160a01b03163314610713565b506013546001600160a01b0316331461070c565b506012546001600160a01b03163314610705565b506011546001600160a01b031633146106fe565b506010546001600160a01b031633146106f7565b34610418576000366003190112610418576020602154604051908152f35b346104185760e036600319011261041857610890614a9a565b610898614ab0565b6108a0614ac6565b916108a9614adc565b6108b1614af2565b936108ba614b08565b906108c3614b1e565b916034549560ff871661041857600197888060a01b038096818096818096816001600160601b0360a01b9d168d6010541617601055168b6011541617601155168960125416176012551687601354161760135516856014541617601455168360185416176018551690601954161760195560ff191617603455600080f35b346104185760203660031901126104185761095a614a9a565b3033148015610a4c575b8015610a38575b8015610a24575b8015610a10575b80156109fc575b80156109e8575b80156109d4575b61099790614e76565b6001600160a01b03166000908152602360205260409020805480156109be57600019019055005b634e487b7160e01b600052601160045260246000fd5b506019546001600160a01b0316331461098e565b506018546001600160a01b03163314610987565b506014546001600160a01b03163314610980565b506013546001600160a01b03163314610979565b506012546001600160a01b03163314610972565b506011546001600160a01b0316331461096b565b506010546001600160a01b03163314610964565b3461041857610a77610a7136614b34565b916151ee565b005b3461041857600036600319011261041857602060405170014551231950b75fc4402da1732fc9bebe198152f35b34610418576020366003190112610418576001600160a01b03610ac7614a9a565b16600052602c6020526020604060002054604051908152f35b3461041857604036600319011261041857610af9614a9a565b610b01614ab0565b7f9294c47cb49f2703e2d3095ef1f312352722b8664ddb79aa4d4bc4ed0f70246160018060a01b03928381169283600052610b7660209260298452604060002054601a8552610b566040600020918254614d83565b9055856000526029845260006040812055601a8452604060002054614f8b565b84600052601a8352604060002055602482526040600020948116948560005282526040600020549084600052602683526040600020549082821015600014610c3557610bf7915085600052602584526040600020610bd5848254614eba565b905585600052602684526040600020610bef848254614eba565b905582614f8b565b85600052601a8352610c0f6040600020918254614d83565b905583600052602482526040600020856000528252600060408120555b604051908152a3005b610c919160258552610c4d6040600020918254614eba565b90558560005260268452604060002054602485526040600020886000528552610c7c6040600020918254614eba565b90558560005260268452604060002054614f8b565b85600052601a8352610ca96040600020918254614d83565b9055836000526026825260006040812055610c2c565b3461041857606036600319011261041857600435610cdb614ab0565b7f899caa590d55a05310519b00a93a11cba0e670b993797f02ed5eff3738747ce46020610d06614ac6565b933033148015610e12575b8015610dfe575b8015610dea575b8015610dd6575b8015610dc2575b8015610dae575b8015610d9a575b610d4490614e76565b60018060a01b0380941693846000526024835260406000209516948560005282526040600020610d75828254614d83565b905583600052602582526040600020610d8f828254614d83565b9055604051908152a3005b506019546001600160a01b03163314610d3b565b506018546001600160a01b03163314610d34565b506014546001600160a01b03163314610d2d565b506013546001600160a01b03163314610d26565b506012546001600160a01b03163314610d1f565b506011546001600160a01b03163314610d18565b506010546001600160a01b03163314610d11565b34610418576020366003190112610418576001600160a01b03610e47614a9a565b16600052602b6020526020604060002054604051908152f35b346104185760c036600319011261041857610e79614a9a565b610e81614ab0565b604435906064356084359060a4359384159384158603610418573033148015611083575b801561106f575b801561105b575b8015611047575b8015611033575b801561101f575b801561100b575b610ed890614e76565b6001600160a01b03908116961694868603610eef57005b80610fd3575b15610f60575050505081600052601a60205260406000205490602c60205260406000205480921015610f2357005b600052601a602052610f3b6040600020918254614d83565b9055600052602c602052604060002054601a60205261049a6040600020918254614eba565b83610f94575b505050610f6f57005b81600052601a60205260406000205490602c60205260406000205480921015610f2357005b90919250610fac670de0b6b3a764000092839261516e565b0491670b1a2bc2ec500000908181029181830414901517156109be57041015838080610f66565b50670de0b6b3a764000080610fe8838561516e565b0490670b1a2bc2ec5000008086029086820414861517156109be57041015610ef5565b506019546001600160a01b03163314610ecf565b506018546001600160a01b03163314610ec8565b506014546001600160a01b03163314610ec1565b506013546001600160a01b03163314610eba565b506012546001600160a01b03163314610eb3565b506011546001600160a01b03163314610eac565b506010546001600160a01b03163314610ea5565b34610418576020366003190112610418576001600160a01b036110b8614a9a565b1660005260276020526020604060002054604051908152f35b346104185760031960403682011261041857602435906001600160401b03821161041857610120908236030112610418576040519061110f82614b9d565b80600401356001600160401b038111610418576111329060043691840101614e10565b825260248101356001600160401b038111610418576111579060043691840101614e10565b602083015260448101356001600160401b0381116104185761117f9060043691840101614e10565b604083015260648101356001600160401b038111610418576111a79060043691840101614e10565b606083015260848101356001600160401b038111610418576111cf9060043691840101614e10565b608083015260a4810135906001600160a01b0382168203610418576101049160a084015260c481013560c084015260e481013560e0840152013561010082015230331480156115ef575b80156115db575b80156115c7575b80156115b3575b801561159f575b801561158b575b8015611577575b61124c90614e76565b600435600052602260205260406000209080518051906001600160401b03821161146057600160401b821161146057835482855580831061154d575b5060200183600052602060002060005b83811061153957858560208101518051906001600160401b03821161146057600160401b821161146057600184015482600186015580831061150c575b5060200160018401600052602060002060005b8381106114f857858560408101518051906001600160401b03821161146057600160401b82116114605760028401548260028601558083106114cb575b5060200160028401600052602060002060005b8381106114b757858560608101518051906001600160401b03821161146057600160401b821161146057600384015482600386015580831061148a575b5060200160038401600052602060002060005b838110611476578585600482016080820151908151916001600160401b03831161146057600160401b8311611460578154838355808410611437575b5060200190600052602060002060005b8381106114235760a08501516005870180546001600160a01b0319166001600160a01b039290921691909117905560c0850151600687015560e085015160078701556101008501516008870155005b6001906020845194019381840155016113d4565b8260005283602060002091820191015b81811061145457506113c4565b60008155600101611447565b634e487b7160e01b600052604160045260246000fd5b600190602084519401938184015501611388565b600385016000526020600020908382015b81830181106114ab575050611375565b6000815560010161149b565b600190602084519401938184015501611338565b600285016000526020600020908382015b81830181106114ec575050611325565b600081556001016114dc565b6001906020845194019381840155016112e8565b600185016000526020600020908382015b818301811061152d5750506112d5565b6000815560010161151d565b600190602084519401938184015501611298565b846000526020600020908382015b818301811061156b575050611288565b6000815560010161155b565b506019546001600160a01b03163314611243565b506018546001600160a01b0316331461123c565b506014546001600160a01b03163314611235565b506013546001600160a01b0316331461122e565b506012546001600160a01b03163314611227565b506011546001600160a01b03163314611220565b506010546001600160a01b03163314611219565b346104185761161136614cff565b90604051908181519160005b838110611652575050602091810160328152030190209060018060a01b03166000526020526020604060002054604051908152f35b6020828201810151868301528593500161161d565b3461041857604036600319011261041857611680614a9a565b3033148015611757575b8015611743575b801561172f575b801561171b575b8015611707575b80156116f3575b80156116df575b6116bd90614e76565b60018060a01b03166000526030602052604060002061049a6024358254614eba565b506019546001600160a01b031633146116b4565b506018546001600160a01b031633146116ad565b506014546001600160a01b031633146116a6565b506013546001600160a01b0316331461169f565b506012546001600160a01b03163314611698565b506011546001600160a01b03163314611691565b506010546001600160a01b0316331461168a565b34610418576000366003190112610418573033148015611841575b801561182d575b8015611819575b8015611805575b80156117f1575b80156117dd575b80156117c9575b6117b990614e76565b6117c46021546151df565b602155005b506019546001600160a01b031633146117b0565b506018546001600160a01b031633146117a9565b506014546001600160a01b031633146117a2565b506013546001600160a01b0316331461179b565b506012546001600160a01b03163314611794565b506011546001600160a01b0316331461178d565b506010546001600160a01b03163314611786565b34610418573660031901610560811261041857610380136104185760405161187c81614bf0565b600435815260243560208083019190915260443560408301526001600160a01b03906064358281168103610418576060840152608435608084015260a43560a084015260c43560c084015260e43560e08401526101043591808316830361041857610100928385015261012061012435818601526101406101443581870152610164359560ff8716870361041857610160968782015261018061018435818301526101a06101a435818401526101c06101c435818501526101e4356101e085015261020435610200850152610224356102208501526102443561024085015261026435610260850152610284356102808501526102a4356102a08501526102c4356102c08501526102e4356102e0850152610304356103008501526103243587811681036104185761032085015261034435801515810361041857610340850152610364356103608501523661038319011261041857604051916119df83614c0c565b6103843587811681036104185783526103a43599878b168b03610418578884019a8b526103c43560408501526103e4358881168103610418576060850152608084019661040435885260a085019a610424358c526104443560c08701526104643580151581036104185760e087015261048435908601528401956104a43587526104c435908982168203610418578501526104e435908882168203610418578401526105043590878216820361041857830152610524359082015261054435923033148015611cf0575b8015611ce3575b8015611cd6575b8015611cc9575b8015611cbc575b8015611caf575b8015611ca2575b611adc90614e76565b51600281148015611c98575b15611bdd575084815116611b6c575b5083875116611b0257005b603095670de0b6b3a7640000611b29611b5595611b21611b3295615386565b90519061515b565b0490519061515b565b908387511660005260318552604060002090600052845260406000205490614eba565b9351166000525261049a6040600020918254614d83565b84611bbb611b99670de0b6b3a7640000611b90611b8887615386565b89519061515b565b048a519061515b565b8284511660005260318952604060002086600052895260406000205490614eba565b91511660005260308652611bd56040600020918254614d83565b905587611af7565b92965092505060038114908115611c8d575b8115611c82575b50611bfd57005b8181511680611c46575b505080845116928315610a77576030936000526031835260406000209060005282526040600020549351166000525261049a6040600020918254614eba565b6000526031835260406000208460005283528160406000205491511660005260308352611c796040600020918254614eba565b90558480611c07565b600491501486611bf6565b600481149150611bef565b5060018114611ae8565b5060195486163314611ad3565b5085601854163314611acc565b5085601454163314611ac5565b5085601354163314611abe565b5085601254163314611ab7565b5085601154163314611ab0565b5085601054163314611aa9565b346104185760403660031901126104185760a0611d18614ab0565b60405190611d2582614bb9565b600082526000608060209382858201528260408201528260608201520152600435600052818052604060002090600180851b03166000528152604060002060405190611d7082614bb9565b80549283835260018201549080840191825260028301549160408501928352608060ff6004600387015496606089019788520154169501941515855260405195865251908501525160408401525160608301525115156080820152f35b34610418576020611ddd36614d90565b9390923033148015611ec2575b8015611eae575b8015611e9a575b8015611e86575b8015611e72575b8015611e5e575b8015611e4a575b611e1d90614e76565b826040519384928337810160338152030190209060018060a01b0316600052602052604060002055600080f35b506019546001600160a01b03163314611e14565b506018546001600160a01b03163314611e0d565b506014546001600160a01b03163314611e06565b506013546001600160a01b03163314611dff565b506012546001600160a01b03163314611df8565b506011546001600160a01b03163314611df1565b506010546001600160a01b03163314611dea565b3461041857604036600319011261041857611eef614a9a565b3033148015611fc2575b8015611fae575b8015611f9a575b8015611f86575b8015611f72575b8015611f5e575b8015611f4a575b611f2c90614e76565b6001600160a01b03166000908152602a602052604090206024359055005b506019546001600160a01b03163314611f23565b506018546001600160a01b03163314611f1c565b506014546001600160a01b03163314611f15565b506013546001600160a01b03163314611f0e565b506012546001600160a01b03163314611f07565b506011546001600160a01b03163314611f00565b506010546001600160a01b03163314611ef9565b3461041857604036600319011261041857611fef614a9a565b30331480156120c6575b80156120b2575b801561209e575b801561208a575b8015612076575b8015612062575b801561204e575b61202c90614e76565b60018060a01b03166000526029602052604060002061049a6024358254614eba565b506019546001600160a01b03163314612023565b506018546001600160a01b0316331461201c565b506014546001600160a01b03163314612015565b506013546001600160a01b0316331461200e565b506012546001600160a01b03163314612007565b506011546001600160a01b03163314612000565b506010546001600160a01b03163314611ff9565b34610418576040366003190112610418576120f3614a9a565b30331480156121c6575b80156121b2575b801561219e575b801561218a575b8015612176575b8015612162575b801561214e575b61213090614e76565b6001600160a01b031660009081526025602052604090206024359055005b506019546001600160a01b03163314612127565b506018546001600160a01b03163314612120565b506014546001600160a01b03163314612119565b506013546001600160a01b03163314612112565b506012546001600160a01b0316331461210b565b506011546001600160a01b03163314612104565b506010546001600160a01b031633146120fd565b34610418576103a0366003190112610418576103803660231901126104185760405161220581614bf0565b6024358152604435602082015260643560408201526084356001600160a01b038116810361041857606082015260a435608082015260c43560a082015260e43560c08201526101043560e0820152610124356001600160a01b03811681036104185761010082015261014435610120820152610164356101408201526101843560ff81168103610418576101608201526101a4356101808201526101c4356101a08201526101e4356101c0820152610204356101e0820152610224356102008201526102443561022082015261026435610240820152610284356102608201526102a4356102808201526102c4356102a08201526102e4356102c0820152610304356102e082015261032435610300820152610344356001600160a01b03811690036104185761034435610320820152610364351515610364350361041857610364356103408201526103843561036082015230331480156125a2575b801561258e575b801561257a575b8015612566575b8015612552575b801561253e575b801561252a575b61239590614e76565b600435600052601c602052601a6103606040600020928051845560208101516001850155604081015160028501556003840160018060a01b03606083015116906001600160601b0360a01b91828254161790556080820151600486015560a0820151600586015560c0820151600686015560e08201516007860155600885019060018060a01b0361010084015116908254161790556101208101516009850155610140810151600a850155600b840160ff6101608301511660ff19825416179055610180810151600c8501556101a0810151600d8501556101c0810151600e8501556101e0810151600f850155610200810151601085015561022081015160118501556102408101516012850155610260810151601385015561028081015160148501556102a081015160158501556102c081015160168501556102e0810151601785015561030081015160188501556019840160018060a01b036103208301511681549060ff60a01b610340850151151560a01b16916affffffffffffffffffffff60a81b16171790550151910155600080f35b506019546001600160a01b0316331461238c565b506018546001600160a01b03163314612385565b506014546001600160a01b0316331461237e565b506013546001600160a01b03163314612377565b506012546001600160a01b03163314612370565b506011546001600160a01b03163314612369565b506010546001600160a01b03163314612362565b34610418576000366003190112610418576020600054604051908152f35b3461041857600036600319011261041857604060015460ff6002541682519182526020820152f35b346104185760203660031901126104185760206001600160a01b0380612620614a9a565b16600052602e825260406000205416604051908152f35b3461041857604036600319011261041857612650614a9a565b3033148015612727575b8015612713575b80156126ff575b80156126eb575b80156126d7575b80156126c3575b80156126af575b61268d90614e76565b60018060a01b0316600052601a602052604060002061049a6024358254614eba565b506019546001600160a01b03163314612684565b506018546001600160a01b0316331461267d565b506014546001600160a01b03163314612676565b506013546001600160a01b0316331461266f565b506012546001600160a01b03163314612668565b506011546001600160a01b03163314612661565b506010546001600160a01b0316331461265a565b3461041857602061274b36614d90565b9390923033148015612830575b801561281c575b8015612808575b80156127f4575b80156127e0575b80156127cc575b80156127b8575b61278b90614e76565b826040519384928337810160328152030190209060018060a01b0316600052602052604060002055600080f35b506019546001600160a01b03163314612782565b506018546001600160a01b0316331461277b565b506014546001600160a01b03163314612774565b506013546001600160a01b0316331461276d565b506012546001600160a01b03163314612766565b506011546001600160a01b0316331461275f565b506010546001600160a01b03163314612758565b346104185760403660031901126104185761285d614a9a565b612865614ab0565b9060018060a01b038091166000526024602052604060002091166000526020526020604060002054604051908152f35b34610418576128a336614b34565b913033148015612983575b801561296f575b801561295b575b8015612947575b8015612933575b801561291f575b801561290b575b6128e190614e76565b60018060a01b03809116600052602460205260406000209116600052602052604060002055600080f35b506019546001600160a01b031633146128d8565b506018546001600160a01b031633146128d1565b506014546001600160a01b031633146128ca565b506013546001600160a01b031633146128c3565b506012546001600160a01b031633146128bc565b506011546001600160a01b031633146128b5565b506010546001600160a01b031633146128ae565b346104185760203660031901126104185760006101a06040516129b981614c0c565b8281528260208201528260408201528260608201528260808201528260a08201528260c08201528260e082015282610100820152826101208201528261014082015282610160820152826101808201520152600435600052601e6020526101c060406000206101a0604051612a2d81614c0c565b600d60018060a01b038454169384835260018060a01b0360018201541660208401526002810154604084015260018060a01b03600382015416606084015260048101546080840152600581015460a0840152600681015460c084015260ff600782015416151560e08401526008810154610100840152600981015461012084015260018060a01b03600a8201541661014084015260018060a01b03600b8201541661016084015260018060a01b03600c8201541661018084015201548282015260405192835260018060a01b0360208201511660208401526040810151604084015260018060a01b0360608201511660608401526080810151608084015260a081015160a084015260c081015160c084015260e0810151151560e084015261010081015161010084015261012081015161012084015260018060a01b036101408201511661014084015260018060a01b036101608201511661016084015260018060a01b036101808201511661018084015201516101a0820152f35b346104185760203660031901126104185733600052602b602052600435604060002055600080f35b34610418576000366003190112610418576020601d54604051908152f35b3461041857600036600319011261041857600d546040516001600160a01b039091168152602090f35b34610418576020366003190112610418576001600160a01b03612c39614a9a565b166000526023602052604060002061049a81546151df565b346104185760003660031901126104185760206040516fa2a8918ca85bafe22016d0b997e4df5f600160ff1b038152f35b3461041857604036600319011261041857612c9b614a9a565b3033148015612d72575b8015612d5e575b8015612d4a575b8015612d36575b8015612d22575b8015612d0e575b8015612cfa575b612cd890614e76565b60018060a01b03166000526030602052604060002061049a6024358254614d83565b506019546001600160a01b03163314612ccf565b506018546001600160a01b03163314612cc8565b506014546001600160a01b03163314612cc1565b506013546001600160a01b03163314612cba565b506012546001600160a01b03163314612cb3565b506011546001600160a01b03163314612cac565b506010546001600160a01b03163314612ca5565b34610418576020612d9636614cbd565b929091826040519384928337810160338152030190209060018060a01b03166000526020526020604060002054604051908152f35b34610418576020366003190112610418576001600160a01b03612dec614a9a565b1660005260266020526020604060002054604051908152f35b34610418576000366003190112610418576020601b54604051908152f35b3461041857604036600319011261041857612e3c614a9a565b3033148015612f13575b8015612eff575b8015612eeb575b8015612ed7575b8015612ec3575b8015612eaf575b8015612e9b575b612e7990614e76565b60018060a01b0316600052602f602052604060002061049a6024358254614d83565b506019546001600160a01b03163314612e70565b506018546001600160a01b03163314612e69565b506014546001600160a01b03163314612e62565b506013546001600160a01b03163314612e5b565b506012546001600160a01b03163314612e54565b506011546001600160a01b03163314612e4d565b506010546001600160a01b03163314612e46565b3461041857602036600319011261041857610a776fa2a8918ca85bafe22016d0b997e4df5f600160ff1b03600435106153a3565b346104185760e0366003190112610418576001600160401b0360043581811161041857612f8c903690600401614c90565b916060366043190112610418576040516060810181811083821117611460576040526044358152612fbb614adc565b6020820152612fc8614af2565b6040820152604060a31936011261041857604051916040830190838210908211176114605760405260a435825260c4359260ff841684036104185760209461040e9486850152602435916152ea565b3461041857602036600319011261041857600061036060405161303981614bf0565b8281528260208201528260408201528260608201528260808201528260a08201528260c08201528260e08201528261010082015282610120820152826101408201528261016082015282610180820152826101a0820152826101c0820152826101e08201528261020082015282610220820152826102408201528261026082015282610280820152826102a0820152826102c0820152826102e08201528261030082015282610320820152826103408201520152600435600052601c602052610380604060002061036060405161310f81614bf0565b601a835493848352600181015460208401526002810154604084015260018060a01b03600382015416606084015260048101546080840152600581015460a0840152600681015460c0840152600781015460e084015260018060a01b036008820154166101008401526009810154610120840152600a81015461014084015260ff600b82015416610160840152600c810154610180840152600d8101546101a0840152600e8101546101c0840152600f8101546101e08401526010810154610200840152601181015461022084015260128101546102408401526013810154610260840152601481015461028084015260158101546102a084015260168101546102c084015260178101546102e0840152601881015461030084015260ff601982015460018060a01b03811661032086015260a01c161515610340840152015482820152604051928352602081015160208401526040810151604084015260018060a01b0360608201511660608401526080810151608084015260a081015160a084015260c081015160c084015260e081015160e084015260018060a01b036101008201511661010084015261012081015161012084015261014081015161014084015260ff610160820151166101608401526101808101516101808401526101a08101516101a08401526101c08101516101c08401526101e08101516101e08401526102008101516102008401526102208101516102208401526102408101516102408401526102608101516102608401526102808101516102808401526102a08101516102a08401526102c08101516102c08401526102e08101516102e084015261030081015161030084015260018060a01b036103208201511661032084015261034081015115156103408401520151610360820152f35b346104185760203660031901126104185733600052602c602052600435604060002055600080f35b34610418576133e036614cff565b90604051908181519160005b838110613421575050602091810160338152030190209060018060a01b03166000526020526020604060002054604051908152f35b602082820181015186830152859350016133ec565b34610418576000366003190112610418576020600954604051908152f35b346104185760403660031901126104185761346d614a9a565b3033148015613540575b801561352c575b8015613518575b8015613504575b80156134f0575b80156134dc575b80156134c8575b6134aa90614e76565b6001600160a01b031660009081526026602052604090206024359055005b506019546001600160a01b031633146134a1565b506018546001600160a01b0316331461349a565b506014546001600160a01b03163314613493565b506013546001600160a01b0316331461348c565b506012546001600160a01b03163314613485565b506011546001600160a01b0316331461347e565b506010546001600160a01b03163314613477565b346104185760403660031901126104185761356d614a9a565b3033148015613646575b8015613632575b801561361e575b801561360a575b80156135f6575b80156135e2575b80156135ce575b6135aa90614e76565b6001600160a01b03166000908152602d602052604090208054610418576024359055005b506019546001600160a01b031633146135a1565b506018546001600160a01b0316331461359a565b506014546001600160a01b03163314613593565b506013546001600160a01b0316331461358c565b506012546001600160a01b03163314613585565b506011546001600160a01b0316331461357e565b506010546001600160a01b03163314613577565b34610418576020366003190112610418576001600160a01b0361367b614a9a565b16600052602a6020526020604060002054604051908152f35b34610418576080366003190112610418576004356137506136b3614ab0565b916136bc614ac6565b6136c4614adc565b906136d16004548461515b565b60018060a01b03809616600052601a6020526136f36040600020918254614d83565b9055846137026005548561515b565b9116600052601a60205261371c6040600020918254614d83565b90558361372b6006548461515b565b9116600052601a6020526137456040600020918254614d83565b90556007549061515b565b90600d5416600052601a60205261049a6040600020918254614d83565b34610418576020366003190112610418576001600160a01b0361378e614a9a565b1660005260256020526020604060002054604051908152f35b34610418576020366003190112610418576001600160a01b036137c8614a9a565b16600052602d6020526020604060002054604051908152f35b34610418576040366003190112610418576137fa614a9a565b30331480156138cd575b80156138b9575b80156138a5575b8015613891575b801561387d575b8015613869575b8015613855575b61383790614e76565b6001600160a01b031660009081526030602052604090206024359055005b506019546001600160a01b0316331461382e565b506018546001600160a01b03163314613827565b506014546001600160a01b03163314613820565b506013546001600160a01b03163314613819565b506012546001600160a01b03163314613812565b506011546001600160a01b0316331461380b565b506010546001600160a01b03163314613804565b34610418576000366003190112610418576020600c54604051908152f35b3461041857604036600319011261041857613918614a9a565b30331480156139ef575b80156139db575b80156139c7575b80156139b3575b801561399f575b801561398b575b8015613977575b61395590614e76565b60018060a01b0316600052602f602052604060002061049a6024358254614eba565b506019546001600160a01b0316331461394c565b506018546001600160a01b03163314613945565b506014546001600160a01b0316331461393e565b506013546001600160a01b03163314613937565b506012546001600160a01b03163314613930565b506011546001600160a01b03163314613929565b506010546001600160a01b03163314613922565b34610418576000366003190112610418576020600854604051908152f35b3461041857604036600319011261041857613a3a614a9a565b3033148015613b11575b8015613afd575b8015613ae9575b8015613ad5575b8015613ac1575b8015613aad575b8015613a99575b613a7790614e76565b60018060a01b03166000526025602052604060002061049a6024358254614eba565b506019546001600160a01b03163314613a6e565b506018546001600160a01b03163314613a67565b506014546001600160a01b03163314613a60565b506013546001600160a01b03163314613a59565b506012546001600160a01b03163314613a52565b506011546001600160a01b03163314613a4b565b506010546001600160a01b03163314613a44565b34610418576020613b3536614cbd565b929091826040519384928337810160328152030190209060018060a01b03166000526020526020604060002054604051908152f35b34610418576000366003190112610418576020600b54604051908152f35b34610418576020366003190112610418576001600160a01b03613ba9614a9a565b1660005260286020526020604060002054604051908152f35b3461041857602036600319011261041857600060e0604051613be381614bd4565b8281528260208201528260408201528260608201528260808201528260a08201528260c08201520152600435600052601f6020526101006040600020604051613c2b81614bd4565b60018060a01b039182815416928383526001820154602084019081528160028401546040860160ff821615158152606087019060ff8360081c161515825283608089019360101c168352836003880154169460a0890195865260e0600560048a01549960c08c019a8b5201549901988952604051998a525160208a01525115156040890152511515606088015251166080860152511660a08401525160c08301525160e0820152f35b3461041857600036600319011261041857610180600354600454600554600654600754600854600954600a5491600b5493600c549560018060a01b039788600d541698600e5416996040519b8c5260208c015260408b015260608a0152608089015260a088015260c087015260e0860152610100850152610120840152610140830152610160820152f35b3461041857604036600319011261041857613d78614a9a565b3033148015613e4f575b8015613e3b575b8015613e27575b8015613e13575b8015613dff575b8015613deb575b8015613dd7575b613db590614e76565b60018060a01b0316600052601a602052604060002061049a6024358254614d83565b506019546001600160a01b03163314613dac565b506018546001600160a01b03163314613da5565b506014546001600160a01b03163314613d9e565b506013546001600160a01b03163314613d97565b506012546001600160a01b03163314613d90565b506011546001600160a01b03163314613d89565b506010546001600160a01b03163314613d82565b34610418576000366003190112610418576020600354604051908152f35b346104185760e036600319011261041857613e9a614ab0565b60a036604319011261041857604051613eb281614bb9565b6044358152602081019160643583526040820160843581526060830160a435815260c43591821515830361041857610a7795600494608087019485523033148015613ff1575b8015613fdd575b8015613fc9575b8015613fb5575b8015613fa1575b8015613f8d575b8015613f79575b613f2b90614e76565b85356000526020805260406000209060018060a01b031660005260205260406000209551865551600186015551600285015551600384015551151591019060ff801983541691151516179055565b506019546001600160a01b03163314613f22565b506018546001600160a01b03163314613f1b565b506014546001600160a01b03163314613f14565b506013546001600160a01b03163314613f0d565b506012546001600160a01b03163314613f06565b506011546001600160a01b03163314613eff565b506010546001600160a01b03163314613ef8565b346104185760403660031901126104185761401e614a9a565b30331480156140f5575b80156140e1575b80156140cd575b80156140b9575b80156140a5575b8015614091575b801561407d575b61405b90614e76565b60018060a01b03166000526026602052604060002061049a6024358254614eba565b506019546001600160a01b03163314614052565b506018546001600160a01b0316331461404b565b506014546001600160a01b03163314614044565b506013546001600160a01b0316331461403d565b506012546001600160a01b03163314614036565b506011546001600160a01b0316331461402f565b506010546001600160a01b03163314614028565b34610418576020366003190112610418576001600160a01b0361412a614a9a565b1660005260236020526020604060002054604051908152f35b34610418576020366003190112610418576001600160a01b03614164614a9a565b1660005260306020526020604060002054604051908152f35b3461041857604036600319011261041857614196614a9a565b61419e614ab0565b903033148015614285575b8015614271575b801561425d575b8015614249575b8015614235575b8015614221575b801561420d575b6141dc90614e76565b6001600160a01b039081166000908152602e6020526040902080546001600160a01b03191692909116919091179055005b506019546001600160a01b031633146141d3565b506018546001600160a01b031633146141cc565b506014546001600160a01b031633146141c5565b506013546001600160a01b031633146141be565b506012546001600160a01b031633146141b7565b506011546001600160a01b031633146141b0565b506010546001600160a01b031633146141a9565b614c67565b34610418576000366003190112610418573033148015614374575b8015614360575b801561434c575b8015614338575b8015614324575b8015614310575b80156142fc575b6142ec90614e76565b6142f7601b546151df565b601b55005b506019546001600160a01b031633146142e3565b506018546001600160a01b031633146142dc565b506014546001600160a01b031633146142d5565b506013546001600160a01b031633146142ce565b506012546001600160a01b031633146142c7565b506011546001600160a01b031633146142c0565b506010546001600160a01b031633146142b9565b3461041857600036600319011261041857303314801561445e575b801561444a575b8015614436575b8015614422575b801561440e575b80156143fa575b80156143e6575b6143d690614e76565b6143e1601d546151df565b601d55005b506019546001600160a01b031633146143cd565b506018546001600160a01b031633146143c6565b506014546001600160a01b031633146143bf565b506013546001600160a01b031633146143b8565b506012546001600160a01b031633146143b1565b506011546001600160a01b031633146143aa565b506010546001600160a01b031633146143a3565b34610418576101e0366003190112610418576101c03660231901126104185760405161449d81614c0c565b6024356001600160a01b03811681036104185781526044356001600160a01b038116810361041857602082015260643560408201526084356001600160a01b038116810361041857606082015260a435608082015260c43560a082015260e43560c08201526101043580151581036104185760e08201526101243561010082015261014435610120820152610164356001600160a01b038116810361041857610140820152610184356001600160a01b0381168103610418576101608201526101a4356001600160a01b0381169003610418576101a4356101808201526101c4356101a08201523033148015614766575b8015614752575b801561473e575b801561472a575b8015614716575b8015614702575b80156146ee575b6145c190614e76565b600435600052601e602052600d6101a060406000209260018060a01b038151166001600160601b0360a01b8554161784556001840160018060a01b036020830151166001600160601b0360a01b825416179055604081015160028501556003840160018060a01b036060830151166001600160601b0360a01b8254161790556080810151600485015560a0810151600585015560c0810151600685015561467d60e08201511515600786019060ff801983541691151516179055565b61010081015160088501556101208101516009850155610140810151600a850180546001600160a01b039283166001600160a01b031991821617909155610160830151600b87018054918416918316919091179055610180830151600c870180549190931691161790550151910155005b506019546001600160a01b031633146145b8565b506018546001600160a01b031633146145b1565b506014546001600160a01b031633146145aa565b506013546001600160a01b031633146145a3565b506012546001600160a01b0316331461459c565b506011546001600160a01b03163314614595565b506010546001600160a01b0316331461458e565b34610418576020366003190112610418576001600160a01b0361479b614a9a565b1660005260296020526020604060002054604051908152f35b346104185760203660031901126104185760006101006040516147d681614b9d565b606081526060602082015260606040820152606080820152606060808201528260a08201528260c08201528260e082015201526004356000526022602052604060002060086040519161482883614b9d565b6148318161518e565b835261483f6001820161518e565b60208401526148506002820161518e565b60408401526148616003820161518e565b60608401526148726004820161518e565b608084015260018060a01b0360058201541660a0840152600681015460c0840152600781015460e08401520154610100820152604051809160208252805161010061492d6148ce61012093846020880152610140870190614b69565b6149186149046148f0602088015193601f1994858b83030160408c0152614b69565b6040880151848a83030160608b0152614b69565b6060870151838983030160808a0152614b69565b906080860151908783030160a0880152614b69565b9260018060a01b0360a08201511660c086015260c081015160e086015260e0810151828601520151908301520390f35b346104185761496b36614b34565b913033148015614a50575b8015614a3c575b8015614a28575b8015614a14575b8015614a00575b80156149ec575b80156149d8575b6149a990614e76565b60018060a01b0380911660005260246020526040600020911660005260205261049a6040600020918254614d83565b506019546001600160a01b031633146149a0565b506018546001600160a01b03163314614999565b506014546001600160a01b03163314614992565b506013546001600160a01b0316331461498b565b506012546001600160a01b03163314614984565b506011546001600160a01b0316331461497d565b506010546001600160a01b03163314614976565b34610418576020366003190112610418576020906001600160a01b03614a88614a9a565b16600052602f82526040600020548152f35b600435906001600160a01b038216820361041857565b602435906001600160a01b038216820361041857565b604435906001600160a01b038216820361041857565b606435906001600160a01b038216820361041857565b608435906001600160a01b038216820361041857565b60a435906001600160a01b038216820361041857565b60c435906001600160a01b038216820361041857565b6060906003190112610418576001600160a01b0390600435828116810361041857916024359081168103610418579060443590565b90815180825260208080930193019160005b828110614b89575050505090565b835185529381019392810192600101614b7b565b61012081019081106001600160401b0382111761146057604052565b60a081019081106001600160401b0382111761146057604052565b61010081019081106001600160401b0382111761146057604052565b61038081019081106001600160401b0382111761146057604052565b6101c081019081106001600160401b0382111761146057604052565b90601f801991011681019081106001600160401b0382111761146057604052565b60643590811515820361041857565b60843590811515820361041857565b3461041857600036600319011261041857600f546040516001600160a01b039091168152602090f35b9181601f84011215610418578235916001600160401b038311610418576020838186019501011161041857565b604060031982011261041857600435906001600160401b03821161041857614ce791600401614c90565b90916024356001600160a01b03811681036104185790565b6040600319820112610418576001600160401b0360043581811161041857826023820112156104185780600401359182116114605760405192614d4c601f8401601f191660200185614c28565b8284526024838301011161041857816000926024602093018386013783010152906024356001600160a01b03811681036104185790565b919082018092116109be57565b606060031982011261041857600435906001600160401b03821161041857614dba91600401614c90565b90916024356001600160a01b0381168103610418579060443590565b34610418576020366003190112610418576001600160a01b03614df7614a9a565b16600052601a6020526020604060002054604051908152f35b9080601f83011215610418578135906001600160401b038211611460578160051b60405193602093614e4485840187614c28565b85528380860192820101928311610418578301905b828210614e67575050505090565b81358152908301908301614e59565b15614e7d57565b60405162461bcd60e51b815260206004820152601560248201527410d85b1b195c881b9bdd08185d5d1a1bdc9a5e9959605a1b6044820152606490fd5b919082039182116109be57565b92909115614f005750614eda8183614f8b565b9060018060a01b0316600052601a602052614efb6040600020918254614d83565b905590565b6001600160a01b039091166000818152601a602052604090208054919391808310614f7c57505050614f4257600052601a602052604060002060008154915590565b60405162461bcd60e51b81526020600482015260126024820152714e6f7420656e6f7567682062616c616e636560701b6044820152606490fd5b829450614efb92919350614eba565b6000913383526020602781526040938481205442810361503c575b506001600160a01b03909216808352602582528483205490937fc92893341acd93f991b534dda4ab5ff9a2ef4eaa9bf1c1b7a35d32d70a75f18a9391869082811061500e57505084825260268352615002868320918254614d83565b9055935b51848152a290565b926150369360268652615025838320918254614d83565b905586815260258552205490614eba565b93615006565b6150469042614eba565b923382526025835285822054865194632762fe1b60e11b86526702c68af0bb14000060048701526024860152670de0b6b3a764000060448601526064850152828460848173__$04afeda1751f1fab6ddfb73e5b53963b72$__5af480156151515782906150fa575b7fc92893341acd93f991b534dda4ab5ff9a2ef4eaa9bf1c1b7a35d32d70a75f18a9450338352602584526150e6878420918254614d83565b905533825260278352428683205592614fa6565b509091928381813d831161514a575b6151138183614c28565b8101031261514657907fc92893341acd93f991b534dda4ab5ff9a2ef4eaa9bf1c1b7a35d32d70a75f18a939291516150ae565b8280fd5b503d615109565b86513d84823e3d90fd5b818102929181159184041417156109be57565b8115615178570490565b634e487b7160e01b600052601260045260246000fd5b9060405191828154918282526020928383019160005283600020936000905b8282106151c5575050506151c392500383614c28565b565b8554845260019586019588955093810193909101906151ad565b60001981146109be5760010190565b30331480156152d6575b80156152c2575b80156152ae575b801561529a575b8015615286575b8015615272575b801561525e575b61522b90614e76565b60018060a01b0380911660005260246020526040600020911660005260205261525a6040600020918254614eba565b9055565b506019546001600160a01b03163314615222565b506018546001600160a01b0316331461521b565b506014546001600160a01b03163314615214565b506013546001600160a01b0316331461520d565b506012546001600160a01b03163314615206565b506011546001600160a01b031633146151ff565b506010546001600160a01b031633146151f8565b9092939161531590835190602085019660ff885116815191604060018060a01b0391015116936153e8565b1561537d578260ff7f77e158c4de5b89cd65592962239c3cc6136696032ecc462ad1b04af14e8df53b956080946040519687956060875281606088015287870137600085850187015251602085015251166040830152601f01601f19168101030190a1600190565b50505050600090565b9060009160016102e08201511461539a5750565b6101e001519150565b156153aa57565b60405162461bcd60e51b81526020600482015260166024820152755075626c69632d6b65792078203e3d2048414c465f5160501b6044820152606490fd5b919061540b6fa2a8918ca85bafe22016d0b997e4df5f600160ff1b0384106153a3565b70014551231950b75fc4402da1732fc9bebe19948583101561554d576001600160a01b038181169690959087151580615544575b8061553b575b80615532575b156154f4576040519160208301936001600160601b03199060601b16845260348301526034825260608201928284106001600160401b0385111761146057819084604052835190209587098103908082116109be5760209660009660ff60c0948160809916158a146154ec57601b905b885216878601528160a08601520991015282805260015afa156154e057600051161490565b6040513d6000823e3d90fd5b601c906154bb565b60405162461bcd60e51b81526020600482015260166024820152751b9bc81e995c9bc81a5b9c1d5d1cc8185b1b1bddd95960521b6044820152606490fd5b5081151561544b565b50841515615445565b5085151561543f565b60405162461bcd60e51b815260206004820152602260248201527f7369676e6174757265206d7573742062652072656475636564206d6f64756c6f604482015261205160f01b6064820152608490fdfea26469706673582212207bd331503b76fd1e4ab5cb3869ef71e2355ef8e0e368a1d78ce36909eabd6d5a64736f6c63430008140033",
  "linkReferences": {
    "contracts/Libs/PionerV1Utils.sol": {
      "PionerV1Utils": [
        {
          "length": 20,
          "start": 20943
        }
      ]
    }
  },
  "deployedLinkReferences": {
    "contracts/Libs/PionerV1Utils.sol": {
      "PionerV1Utils": [
        {
          "length": 20,
          "start": 20620
        }
      ]
    }
  }
}