{
  "_format": "hh-sol-artifact-1",
  "contractName": "PionerV1Close",
  "sourceName": "contracts/Functions/PionerV1Close.sol",
  "abi": [
    {
      "inputs": [
        {
          "internalType": "address",
          "name": "_pionerV1",
          "type": "address"
        },
        {
          "internalType": "address",
          "name": "_pionerV1Compliance",
          "type": "address"
        }
      ],
      "stateMutability": "nonpayable",
      "type": "constructor"
    },
    {
      "inputs": [],
      "name": "ECDSAInvalidSignature",
      "type": "error"
    },
    {
      "inputs": [
        {
          "internalType": "uint256",
          "name": "length",
          "type": "uint256"
        }
      ],
      "name": "ECDSAInvalidSignatureLength",
      "type": "error"
    },
    {
      "inputs": [
        {
          "internalType": "bytes32",
          "name": "s",
          "type": "bytes32"
        }
      ],
      "name": "ECDSAInvalidSignatureS",
      "type": "error"
    },
    {
      "inputs": [],
      "name": "InvalidShortString",
      "type": "error"
    },
    {
      "inputs": [
        {
          "internalType": "string",
          "name": "str",
          "type": "string"
        }
      ],
      "name": "StringTooLong",
      "type": "error"
    },
    {
      "anonymous": false,
      "inputs": [],
      "name": "EIP712DomainChanged",
      "type": "event"
    },
    {
      "anonymous": false,
      "inputs": [
        {
          "indexed": true,
          "internalType": "uint256",
          "name": "bCloseQuoteId",
          "type": "uint256"
        }
      ],
      "name": "acceptCloseQuoteEvent",
      "type": "event"
    },
    {
      "anonymous": false,
      "inputs": [
        {
          "indexed": true,
          "internalType": "uint256",
          "name": "bContractId",
          "type": "uint256"
        }
      ],
      "name": "cancelOpenCloseQuoteContractEvent",
      "type": "event"
    },
    {
      "anonymous": false,
      "inputs": [
        {
          "indexed": true,
          "internalType": "address",
          "name": "sender",
          "type": "address"
        },
        {
          "indexed": true,
          "internalType": "bytes",
          "name": "messageHash",
          "type": "bytes"
        }
      ],
      "name": "cancelSignedMessageCloseEvent",
      "type": "event"
    },
    {
      "anonymous": false,
      "inputs": [
        {
          "indexed": true,
          "internalType": "uint256",
          "name": "bCloseQuoteId",
          "type": "uint256"
        }
      ],
      "name": "closeMarketEvent",
      "type": "event"
    },
    {
      "anonymous": false,
      "inputs": [
        {
          "indexed": true,
          "internalType": "uint256",
          "name": "bContractId",
          "type": "uint256"
        }
      ],
      "name": "expirateBContractEvent",
      "type": "event"
    },
    {
      "anonymous": false,
      "inputs": [
        {
          "indexed": true,
          "internalType": "uint256",
          "name": "bCloseQuoteId",
          "type": "uint256"
        }
      ],
      "name": "openCloseQuoteEvent",
      "type": "event"
    },
    {
      "inputs": [
        {
          "internalType": "uint256",
          "name": "bCloseQuoteId",
          "type": "uint256"
        },
        {
          "internalType": "uint256",
          "name": "index",
          "type": "uint256"
        },
        {
          "internalType": "uint256",
          "name": "amount",
          "type": "uint256"
        }
      ],
      "name": "acceptCloseQuote",
      "outputs": [],
      "stateMutability": "nonpayable",
      "type": "function"
    },
    {
      "inputs": [
        {
          "internalType": "uint256",
          "name": "bCloseQuoteId",
          "type": "uint256"
        }
      ],
      "name": "cancelCloseQuote",
      "outputs": [],
      "stateMutability": "nonpayable",
      "type": "function"
    },
    {
      "inputs": [
        {
          "components": [
            {
              "internalType": "bytes",
              "name": "targetHash",
              "type": "bytes"
            },
            {
              "internalType": "uint256",
              "name": "nonce",
              "type": "uint256"
            }
          ],
          "internalType": "struct PionerV1Utils.CancelCloseRequest",
          "name": "cancelRequest",
          "type": "tuple"
        },
        {
          "internalType": "bytes",
          "name": "signature",
          "type": "bytes"
        }
      ],
      "name": "cancelSignedMessageClose",
      "outputs": [],
      "stateMutability": "nonpayable",
      "type": "function"
    },
    {
      "inputs": [
        {
          "internalType": "uint256",
          "name": "bCloseQuoteId",
          "type": "uint256"
        },
        {
          "internalType": "uint256",
          "name": "index",
          "type": "uint256"
        }
      ],
      "name": "closeMarket",
      "outputs": [],
      "stateMutability": "nonpayable",
      "type": "function"
    },
    {
      "inputs": [],
      "name": "eip712Domain",
      "outputs": [
        {
          "internalType": "bytes1",
          "name": "fields",
          "type": "bytes1"
        },
        {
          "internalType": "string",
          "name": "name",
          "type": "string"
        },
        {
          "internalType": "string",
          "name": "version",
          "type": "string"
        },
        {
          "internalType": "uint256",
          "name": "chainId",
          "type": "uint256"
        },
        {
          "internalType": "address",
          "name": "verifyingContract",
          "type": "address"
        },
        {
          "internalType": "bytes32",
          "name": "salt",
          "type": "bytes32"
        },
        {
          "internalType": "uint256[]",
          "name": "extensions",
          "type": "uint256[]"
        }
      ],
      "stateMutability": "view",
      "type": "function"
    },
    {
      "inputs": [
        {
          "internalType": "uint256",
          "name": "bContractId",
          "type": "uint256"
        }
      ],
      "name": "expirateBContract",
      "outputs": [],
      "stateMutability": "nonpayable",
      "type": "function"
    },
    {
      "inputs": [
        {
          "internalType": "uint256",
          "name": "bContractId",
          "type": "uint256"
        }
      ],
      "name": "expirateBContractOracleTimeout",
      "outputs": [],
      "stateMutability": "nonpayable",
      "type": "function"
    },
    {
      "inputs": [
        {
          "internalType": "uint256[]",
          "name": "bContractIds",
          "type": "uint256[]"
        },
        {
          "internalType": "uint256[]",
          "name": "price",
          "type": "uint256[]"
        },
        {
          "internalType": "uint256[]",
          "name": "amount",
          "type": "uint256[]"
        },
        {
          "internalType": "uint256[]",
          "name": "limitOrStop",
          "type": "uint256[]"
        },
        {
          "internalType": "uint256[]",
          "name": "expiry",
          "type": "uint256[]"
        }
      ],
      "name": "openCloseQuote",
      "outputs": [],
      "stateMutability": "nonpayable",
      "type": "function"
    },
    {
      "inputs": [
        {
          "components": [
            {
              "internalType": "uint256",
              "name": "bContractId",
              "type": "uint256"
            },
            {
              "internalType": "uint256",
              "name": "price",
              "type": "uint256"
            },
            {
              "internalType": "uint256",
              "name": "amount",
              "type": "uint256"
            },
            {
              "internalType": "uint256",
              "name": "limitOrStop",
              "type": "uint256"
            },
            {
              "internalType": "uint256",
              "name": "expiry",
              "type": "uint256"
            },
            {
              "internalType": "address",
              "name": "authorized",
              "type": "address"
            },
            {
              "internalType": "uint256",
              "name": "nonce",
              "type": "uint256"
            }
          ],
          "internalType": "struct PionerV1Utils.OpenCloseQuote",
          "name": "quote",
          "type": "tuple"
        },
        {
          "internalType": "bytes",
          "name": "signHash",
          "type": "bytes"
        }
      ],
      "name": "openCloseQuoteSigned",
      "outputs": [],
      "stateMutability": "nonpayable",
      "type": "function"
    }
  ],
  "bytecode": "0x61016034620001cc57620041ea906001600160401b0390601f38849003908101601f191682019083821183831017620001b65780839160409687948552833981010312620001cc576200006060206200005883620001ed565b9201620001ed565b8351916200006e83620001d1565b600d835260208301916c50696f6e65725631436c6f736560981b835285516200009781620001d1565b6003815260208101620312e360ec1b8152620000b38662000202565b94610120958652620000c583620003d5565b96610140978852519020918260e052519020610100978189524660a05280519160208301937f8b73c3c69bb8fe3d512ecc4cf759cc79239f7b179b0ffacaa9a75d522b39400f85528284015260608301524660808301523060a083015260a0825260c082019782891090891117620001b6578790525190206080523060c052600280546001600160a01b039384166001600160a01b03199182161790915560038054929093169116179055613c679384620005838539608051846129d9015260a05184612aa4015260c051846129a3015260e05184612a2801525183612a4e0152518261108b015251816110b50152f35b634e487b7160e01b600052604160045260246000fd5b600080fd5b604081019081106001600160401b03821117620001b657604052565b51906001600160a01b0382168203620001cc57565b80516020919082811015620002a1575090601f8251116200024057808251920151908083106200023157501790565b82600019910360031b1b161790565b90604051809263305a27a960e01b82528060048301528251908160248401526000935b82851062000287575050604492506000838284010152601f80199101168101030190fd5b848101820151868601604401529381019385935062000263565b6001600160401b038111620001b6576000928354926001938481811c91168015620003ca575b83821014620003b657601f811162000380575b5081601f841160011462000319575092829391839286946200030d575b50501b916000199060031b1c191617905560ff90565b015192503880620002f7565b919083601f1981168780528488209488905b888383106200036557505050106200034b575b505050811b01905560ff90565b015160001960f88460031b161c191690553880806200033e565b8587015188559096019594850194879350908101906200032b565b85805284601f848820920160051c820191601f860160051c015b828110620003aa575050620002da565b8781550185906200039a565b634e487b7160e01b86526022600452602486fd5b90607f1690620002c7565b805160209081811015620004635750601f8251116200040257808251920151908083106200023157501790565b90604051809263305a27a960e01b82528060048301528251908160248401526000935b82851062000449575050604492506000838284010152601f80199101168101030190fd5b848101820151868601604401529381019385935062000425565b9192916001600160401b038111620001b65760019182548381811c9116801562000577575b828210146200056157601f811162000528575b5080601f8311600114620004db575081929394600092620004cf575b5050600019600383901b1c191690821b17905560ff90565b015190503880620004b7565b90601f198316958460005282600020926000905b8882106200051057505083859697106200034b57505050811b01905560ff90565b808785968294968601518155019501930190620004ef565b8360005283601f83600020920160051c820191601f850160051c015b828110620005545750506200049b565b6000815501849062000544565b634e487b7160e01b600052602260045260246000fd5b90607f16906200048856fe6080604052600436101561001257600080fd5b6000803560e01c806319d4c42914611d6257806332283bed146119c1578063395209d51461117f57806384b0196e1461107557806386b25b5014610e7d5780639a9c517914610cb3578063c30bdca914610541578063cd32e494146101df5763e112b4391461008057600080fd5b346101dc5760203660031901126101dc5760025460405162df548960e31b815260048035908201819052916001600160a01b0316908381602481855afa9081156101d15784916101af575b5061010081019160048351146101715760048593524260c0830152803b1561016d5760405163d388ed2360e01b81529183918391829084908290610113908a60048401612ba4565b03925af180156101625761014a575b50807f88213484d5850812fd41a57414f0ce0d1abe843f94ad00e97648cd438201976891a280f35b61015390612449565b61015e578138610122565b5080fd5b6040513d84823e3d90fd5b8280fd5b60405162461bcd60e51b8152602060048201526016602482015275145d5bdd1948185b1c9958591e4818d85b98d95b195960521b6044820152606490fd5b6101cb91503d8086833e6101c38183612493565b810190612cd1565b386100cb565b6040513d86823e3d90fd5b80fd5b50346101dc5760203660031901126101dc5760043560018060a01b03806002541660405163a1595d4560e01b81528360048201526101c08082602481865afa918215610536578692610507575b5060408201516040519384916301d3e56960e61b835260048301528160246103809687935afa9384156104fc5787946104c7575b5050610280908301516102796101808501514290612b09565b1015613258565b61029160026101208301511461328e565b8281511633146000146104bc5760e0820151925b608082015160a08301805160c08501516101008601805160e08801516040805163629acbc760e11b81526004810198909852602488018c905260448801959095526064870193909352608486015290151560a4850152969192908160c48173__$04afeda1751f1fab6ddfb73e5b53963b72$__5af49687156104b15789918a9861047e575b5084865116331460001461040f575161034a42916102a089015190612b09565b116103e057889661035f935191898888613328565b6002541691823b156103dc5761039192849283879360405196879586948593636184e6eb60e11b8552600485016130ee565b03925af18015610162576103c8575b50807fb69c58a92215227533d4af8bf5c60ada42d235e95493a8b76ef188a3d929f09991a280f35b6103d190612449565b61015e5781386103a0565b8380fd5b60405162461bcd60e51b815260206004820152600760248201526621b637b9b29a1960c91b6044820152606490fd5b929684602087015116330361044f57899761044061044a955161043942916102c08c015190612b09565b11156132c4565b5191898888613328565b61035f565b60405162461bcd60e51b8152602060048201526007602482015266436c6f7365343360c81b6044820152606490fd5b9097506104a3915060403d6040116104aa575b61049b8183612493565b810190613032565b963861032a565b503d610491565b6040513d8b823e3d90fd5b60c0820151926102a5565b61028092945090816104ed92903d106104f5575b6104e58183612493565b810190612eba565b929038610260565b503d6104db565b6040513d89823e3d90fd5b816105289293503d841161052f575b6105208183612493565b810190612dd1565b903861022c565b503d610516565b6040513d88823e3d90fd5b50346101dc5760603660031901126101dc5760025460405162df548960e31b81526004803590820152604435916001600160a01b03168382602481845afa9182156101d1578492610c97575b506105988251612b39565b51916040519263a1595d4560e01b845260048401526101c0928381602481865afa938415610536578694610c78575b5050604083015191604051926301d3e56960e61b84526004840152610380928381602481855afa9384156104fc578794610c59575b50508151516024351015610c2a576001610100830151149081610c0f575b8115610b83575b5015610b545760a0830151808511610b4c575b50836040608085015161064d6024356020860151612b5c565b5160c087015161010088015160e0890151855163629acbc760e11b81526004810195909552602485019390935260448401999099526064830152608482019790975295151560a48701528560c48173__$04afeda1751f1fab6ddfb73e5b53963b72$__5af480156105365786958791610b27575b5060a083015185516001600160a01b039081169116818103610a6c57505060208501516001600160a01b03163303610a3d57606083016107046024358251612b5c565b5115610a375761071e6101a0860151916024359051612b5c565b5111610a08575b60a0850151600254604051630ed2a3af60e11b81526001600160a01b0390911691602082600481865afa9081156109fd578a916109c7575b6107679250612b09565b831161099757602060049160405192838092630ed2a3af60e11b82525afa90811561098c578891610955575b5060a0860151801561093f57670de0b6b3a7640000910404821061090f578695826107e0926107c56024358751612b5c565b51926107d76024356020890151612b5c565b5193888a613328565b6108086107fe6040840151926107f860243585612b5c565b51612b2c565b9160243590612b5c565b526002546001600160a01b0316803b156108e75784604051809263d388ed2360e01b825281838161083f8860043560048401612ba4565b03925af19081156109045785916108eb575b505061086c60018060a01b0360025416916024359051612b5c565b5190803b156108e7576108999385809460405196879586948593636184e6eb60e11b8552600485016130ee565b03925af18015610162576108d3575b506004357ff9f8f1fbf1c004ceed6b4b2ce370c1c29928b62632f46417018ef540229cc18d8280a280f35b6108dc90612449565b6101dc5780386108a8565b8480fd5b6108f490612449565b6108ff578338610851565b505050fd5b6040513d87823e3d90fd5b60405162461bcd60e51b8152602060048201526008602482015267436c6f736532313160c01b6044820152606490fd5b634e487b7160e01b600052601260045260246000fd5b90506020813d602011610984575b8161097060209383612493565b8101031261097f575138610793565b600080fd5b3d9150610963565b6040513d8a823e3d90fd5b60405162461bcd60e51b81526020600482015260086024820152670436c6f73653231360c41b6044820152606490fd5b90506020823d6020116109f5575b816109e260209383612493565b8101031261097f5761076791519061075d565b3d91506109d5565b6040513d8c823e3d90fd5b60405162461bcd60e51b8152602060048201526007602482015266436c6f7365323560c81b6044820152606490fd5b50610725565b60405162461bcd60e51b815260206004820152600760248201526610db1bdcd94c8d60ca1b6044820152606490fd5b60208701516001600160a01b031614610a855750610725565b3303610af85760608301610a9c6024358251612b5c565b5115610af257610ab66101a0860151916024359051612b5c565b5110610ac3575b38610a37565b60405162461bcd60e51b8152602060048201526007602482015266086d8dee6ca64760cb1b6044820152606490fd5b50610abd565b60405162461bcd60e51b8152602060048201526007602482015266436c6f7365323760c81b6044820152606490fd5b9050610b4391955060403d6040116104aa5761049b8183612493565b949094386106c1565b935038610634565b60405162461bcd60e51b8152602060048201526007602482015266436c6f7365323360c81b6044820152606490fd5b610100830151600114915081610b9b575b5038610621565b60049150602060c0840151916040519384809263f0649dcf60e01b82525afa9081156104fc578791610bda575b610bd29250612b09565b421038610b94565b90506020823d8211610c07575b81610bf460209383612493565b8101031261097f57610bd2915190610bc8565b3d9150610be7565b9050610c216024356080840151612b5c565b5142109061061a565b60405162461bcd60e51b8152602060048201526007602482015266436c6f7365323160c81b6044820152606490fd5b610c70929450803d106104f5576104e58183612493565b9138806105fc565b610c8f929450803d1061052f576105208183612493565b9138806105c7565b610cac9192503d8086833e6101c38183612493565b903861058d565b50346101dc5760031960403682011261015e576001600160401b03906004358281116103dc576040816004019282360301126103dc576024358381116108e757610d0190369060040161241c565b9091610d0d8480612762565b610d30602060405183819483830196873781018b83820152038084520182612493565b5190209260246040519260208401957fc536442e275016211e44ccb09143e23da694f863abb5d8542b1f093523ca2e8c875260408501520135606083015260608252608082019582871090871117610e6757610d9c610daa94610da493610db39860405251902061297a565b923691612794565b90612829565b909391936128f5565b6002546001600160a01b03919084908316610dce8380612762565b90823b156103dc57610dfd92878580946040519687958694859363bd31117160e01b85524292600486016127fb565b03925af1801561016257610e53575b505080610e1891612762565b90816040519283928337810185815203902091167ffb23ba782c96620f5407cf24f10ead3526f6ecfc8933af3f86232d0b98ff8d0b8380a380f35b610e5c90612449565b6103dc578338610e0c565b634e487b7160e01b600052604160045260246000fd5b50346101dc5760203660031901126101dc5760025460405163a1595d4560e01b8152600480359082018190529183916001600160a01b03918216916101c08083602481875afa928315610904578593611056575b5060408301516040519485916301d3e56960e61b835260048301528160246103809788935afa94851561053657869561102f575b5050610f17610f219185015142612b2c565b62093a8010613258565b610f3260026101208401511461328e565b60808201516101a08401805160a08501805160c08701516101008801805160e08a01516040805163629acbc760e11b8152600481019a909a5260248a019790975260448901949094526064880192909252608487019190915290151560a48601529392918360c48173__$04afeda1751f1fab6ddfb73e5b53963b72$__5af490811561098c578893899261100b575b50858751163314600014610fe05761035f945051915192898888613328565b610fff61044a9551610ff942916102c08c015190612b09565b116132c4565b51915192898888613328565b909350611027915060403d6040116104aa5761049b8183612493565b909238610fc1565b610f21929550610f17918161104f92903d106104f5576104e58183612493565b9491610f05565b8161106e9294503d851161052f576105208183612493565b9138610ed1565b50346101dc57806003193601126101dc576110af7f0000000000000000000000000000000000000000000000000000000000000000612569565b906110d97f000000000000000000000000000000000000000000000000000000000000000061268f565b9060405190602090818301938385106001600160401b03861117610e675792828593611135889661112798604052858552604051988998600f60f81b8a5260e0858b015260e08a0190612529565b9088820360408a0152612529565b924660608801523060808801528460a088015286840360c088015251928381520193925b82811061116857505050500390f35b835185528695509381019392810192600101611159565b50346101dc5760403660031901126101dc5760025460405162df548960e31b81526004803590820152906001600160a01b03168282602481845afa9182156119b657839261199a575b506111d66024358351612b5c565b51906040519163a1595d4560e01b835260048301526101c082602481845afa9182156101d1578492611977575b50604082015190604051916301d3e56960e61b83526004830152610380918281602481855afa928315610536578693611958575b50506001610300830151036119295783515160243510156118fa576112626024356040860151612b5c565b5160a0840151604051630ed2a3af60e11b815290602082600481875afa90811561098c5788916118c4575b6112979250612b09565b1061189557670de0b6b3a76400006112c56112b86024356040880151612b5c565b516101a085015190613245565b604051630ed2a3af60e11b8152919004602082600481865afa9182156104fc578792611861575b5010611832576002610120840151036118035761130f6024356080860151612b5c565b5142116117d3576101c082015161018083019061132d428351612b09565b106117a35761134161010085015142612b2c565b905110156117745760a08401516001600160a01b0316330361174557600161136f6024356060870151612b5c565b5103611716576004602060e0860151926040519283809263f0649dcf60e01b82525afa80156105365786906116e2575b6113ab91504292612b09565b116116b3578151336001600160a01b03909116036116a85760e0810151925b608083015193602082019460406113e46024358851612b5c565b5160a087015160c088015161010089015160e08a0151855163629acbc760e11b815260048101979097526024870194909452604486019290925260648501526084840152151560a48301528160c48173__$04afeda1751f1fab6ddfb73e5b53963b72$__5af49182156104fc5787918893611685575b508551336001600160a01b03909116036115f35761147b6024358851612b5c565b51116115c35786956114bf925b6114956024358651612b5c565b51926114b66114aa6024356040890151612b5c565b51936024359051612b5c565b51938789613328565b836114d06024356040840151612b5c565b526002546001600160a01b0316803b156108e75784604051809263d388ed2360e01b82528183816115078860043560048401612ba4565b03925af19081156109045785916115af575b505061153460018060a01b0360025416916024359051612b5c565b5190803b156108e7576115619385809460405196879586948593636184e6eb60e11b8552600485016130ee565b03925af180156101625761159b575b506004357f11081b718f6d2de68e1b67a8189b807da4959a7946656539ff9e09dd3922e6858280a280f35b6115a490612449565b6101dc578038611570565b6115b890612449565b6108ff578338611519565b60405162461bcd60e51b81526020600482015260086024820152670436c6f73653331360c41b6044820152606490fd5b60208601516001600160a01b03163303611655576116146024358851612b5c565b51106116255786956114bf92611488565b60405162461bcd60e51b815260206004820152600860248201526721b637b9b299989960c11b6044820152606490fd5b60405162461bcd60e51b8152602060048201526008602482015267436c6f736533313160c01b6044820152606490fd5b9092506116a1915060403d6040116104aa5761049b8183612493565b913861145a565b60c0810151926113ca565b60405162461bcd60e51b8152602060048201526007602482015266086d8dee6ca66760cb1b6044820152606490fd5b506020813d60201161170e575b816116fc60209383612493565b8101031261097f576113ab905161139f565b3d91506116ef565b60405162461bcd60e51b8152602060048201526007602482015266436c6f7365333760c81b6044820152606490fd5b60405162461bcd60e51b815260206004820152600760248201526621b637b9b2999b60c91b6044820152606490fd5b60405162461bcd60e51b8152602060048201526007602482015266436c6f7365333560c81b6044820152606490fd5b60405162461bcd60e51b8152602060048201526008602482015267436c6f736533346360c01b6044820152606490fd5b60405162461bcd60e51b8152602060048201526008602482015267436c6f736533346160c01b6044820152606490fd5b60405162461bcd60e51b815260206004820152600760248201526610db1bdcd94ccd60ca1b6044820152606490fd5b60405162461bcd60e51b8152602060048201526007602482015266436c6f7365333360c81b6044820152606490fd5b9091506020813d60201161188d575b8161187d60209383612493565b8101031261097f575190386112ec565b3d9150611870565b60405162461bcd60e51b815260206004820152600760248201526621b637b9b2999960c91b6044820152606490fd5b90506020823d6020116118f2575b816118df60209383612493565b8101031261097f5761129791519061128d565b3d91506118d2565b60405162461bcd60e51b8152602060048201526007602482015266436c6f7365333160c81b6044820152606490fd5b60405162461bcd60e51b81526020600482015260076024820152660636c6f736533360cc1b6044820152606490fd5b61196f929350803d106104f5576104e58183612493565b903880611237565b6119939192506101c03d6101c01161052f576105208183612493565b9038611203565b6119af9192503d8085833e6101c38183612493565b90386111c8565b6040513d85823e3d90fd5b50346101dc5760a03660031901126101dc576001600160401b0360043581811161016d576119f39036906004016124cb565b91602492833583811161016d57611a0e9036906004016124cb565b60449081358581116108e757611a289036906004016124cb565b6064938435878111611d5e57611a429036906004016124cb565b96608435908111611d5e57611a5b9036906004016124cb565b815184518091149081611d53575b5080611d48575b80611d3d575b15611d1157865b8351811015611b2257611a908185612b5c565b5115611af657611aa08186612b5c565b5115611aca576000198114611ab757600101611a7d565b634e487b7160e01b885260116004528988fd5b60405162461bcd60e51b8152602060048201526007818c015266436c6f7365313360c81b818801528790fd5b60405162461bcd60e51b8152602060048201526007818c01526621b637b9b2989960c91b818801528790fd5b5086945087899360405193611b368561245c565b8452602095868501526040840152606083015260808201523360a08201528360c08201524260e082015260016101008201528360018060a01b03806002541660405163734cd7c560e11b948582528782600481865afa918215610904578592611cdf575b50823b156108e757611bc59285928360405180968195829463d388ed2360e01b845260048401612ba4565b03925af19081156119b6578391611ccb575b50508060025416803b1561016d578280916004604051809681936332c7ee5960e21b83525af1928315611cbe578693611ca5575b5050600254169160046040518094819382525afa9283156101d1578493611c75575b50506000198201918211611c6357507f6e1dab4a207a51a5183302635b17bcbcdbbe4f6bff9fe955dfdd91a3d3d8591d8280a280f35b634e487b7160e01b8352601160045282fd5b9080929350813d8311611c9e575b611c8d8183612493565b8101031261097f5751908380611c2d565b503d611c83565b611cb191929350612449565b6108e75783908587611c0b565b50604051903d90823e3d90fd5b611cd490612449565b61015e578187611bd7565b945090508684813d8111611d0a575b611cf88183612493565b8101031261097f578793519089611b9a565b503d611cee565b60405162461bcd60e51b8152602060048201526007818b015266436c6f7365313160c81b818701528690fd5b508251815114611a76565b508251885114611a70565b905083511438611a69565b8680fd5b50346101dc573660031901610100811261015e5760e0136101dc5760e4356001600160401b03811161015e5790611da0611e3c92369060040161241c565b611da8612aca565b7f772fa129093cf20a3bb0484b5829a5cba64f016fbb9152e50f5f86e2aa50094960a05260043560c05260243560e05260443561010090815260643561012052608435610140526001600160a01b03919091166101605260c435610180526080908152611e149061245c565b611e33611e2860805160206080012061297a565b610da4368486612794565b909591956128f5565b600254604051638da1791760e01b81526001600160a01b03909116919060208180611e6c89868960048501612ae0565b0381865afa9081156109045785916123ea575b5060405163f0649dcf60e01b8152602081600481875afa9081156105365786916123b2575b50611eae91612b09565b4211801590612345575b156123105760405163f0649dcf60e01b8152602081600481865afa80156109045785906122dc575b611eeb915042612b2c565b806000198101116122c857823b156108e757918591858094611f286040519788968795869463bd31117160e01b86526000190192600486016127fb565b03925af18015610162576122b9575b50906001600160a01b03611f49612aca565b6001600160a01b039092169116811480156122a1575b1561225257604435151580612247575b1561220d5760405190611f8182612478565b60019081835260203681850137600435611f9a84612b39565b52604051611fa781612478565b82815260203681830137602435611fbd82612b39565b52604051611fca81612478565b83815260203681830137604435611fe082612b39565b5260405190611fee82612478565b8482526020368184013760643561200483612b39565b526040519261201284612478565b8584526020368186013760843561202885612b39565b52604051966120368861245c565b8752602087015260408601526060850152608084015260a08301528260c08301524260e08301526101008201528160018060a01b036002541660405163734cd7c560e11b93848252602082600481865afa9182156101d15784926121d6575b50823b156103dc576120c09284928360405180968195829463d388ed2360e01b845260048401612ba4565b03925af18015610162576121c2575b506002546001600160a01b0316803b1561015e578180916004604051809481936332c7ee5960e21b83525af18015610162576121ae575b5050600254604051918252602090829060049082906001600160a01b03165afa90811561016257829161217c575b506000198101908111612168577f6e1dab4a207a51a5183302635b17bcbcdbbe4f6bff9fe955dfdd91a3d3d8591d8280a280f35b634e487b7160e01b82526011600452602482fd5b90506020813d6020116121a6575b8161219760209383612493565b8101031261097f575138612134565b3d915061218a565b6121b790612449565b61015e578138612106565b6121cb90612449565b61015e5781386120cf565b935090506020833d602011612205575b816121f360209383612493565b8101031261097f578492519038612095565b3d91506121e6565b60405162461bcd60e51b8152602060048201526012602482015271496e76616c696420706172616d657465727360701b6044820152606490fd5b506024351515611f6f565b60405162461bcd60e51b815260206004820152602160248201527f496e76616c6964207369676e6174757265206f7220756e617574686f72697a656044820152601960fa1b6064820152608490fd5b506001600160a01b036122b2612aca565b1615611f5f565b6122c290612449565b38611f37565b634e487b7160e01b85526011600452602485fd5b506020813d602011612308575b816122f660209383612493565b810103126108e757611eeb9051611ee0565b3d91506122e9565b60405162461bcd60e51b815260206004820152600d60248201526c145d5bdd1948195e1c1a5c9959609a1b6044820152606490fd5b50604051638da1791760e01b81526020818061236689868960048501612ae0565b0381865afa908115610904578591612380575b5015611eb8565b90506020813d6020116123aa575b8161239b60209383612493565b810103126108e7575138612379565b3d915061238e565b90506020813d6020116123e2575b816123cd60209383612493565b810103126123de5751611eae611ea4565b8580fd5b3d91506123c0565b90506020813d602011612414575b8161240560209383612493565b810103126108e7575138611e7f565b3d91506123f8565b9181601f8401121561097f578235916001600160401b03831161097f576020838186019501011161097f57565b6001600160401b038111610e6757604052565b61012081019081106001600160401b03821117610e6757604052565b604081019081106001600160401b03821117610e6757604052565b90601f801991011681019081106001600160401b03821117610e6757604052565b6001600160401b038111610e675760051b60200190565b81601f8201121561097f578035916124e2836124b4565b926124f06040519485612493565b808452602092838086019260051b82010192831161097f578301905b82821061251a575050505090565b8135815290830190830161250c565b919082519283825260005b848110612555575050826000602080949584010152601f8019910116010190565b602081830181015184830182015201612534565b60ff81146125a75760ff811690601f8211612595576040519161258b83612478565b8252602082015290565b604051632cd44ac360e21b8152600490fd5b506040516000805490600182811c90808416938415612685575b6020948584108114612671578387528694939291811561265157506001146125f5575b50506125f292500382612493565b90565b60008080527f290decd9548b62a8d60345a988386fc84ba6bc95484008f6362f93160ef3e56395935091905b8183106126395750506125f2935082010138806125e4565b85548784018501529485019486945091830191612621565b9150506125f294925060ff191682840152151560051b82010138806125e4565b634e487b7160e01b85526022600452602485fd5b91607f16916125c1565b60ff81146126b15760ff811690601f8211612595576040519161258b83612478565b50604051600060019081549182811c90808416938415612758575b6020948584108114612671578387528694939291811561265157506001146126fc5750506125f292500382612493565b60008181527fb10e2d527612073b26eecdfd717e6a320cf44b4afac2b0732d9fcbe2b7fa0cf695935091905b8183106127405750506125f2935082010138806125e4565b85548784018501529485019486945091830191612728565b91607f16916126cc565b903590601e198136030182121561097f57018035906001600160401b03821161097f5760200191813603831361097f57565b9291926001600160401b038211610e6757604051916127bd601f8201601f191660200184612493565b82948184528183011161097f578281602093846000960137010152565b908060209392818452848401376000828201840152601f01601f1916010190565b9061281590604093969594966060845260608401916127da565b6001600160a01b0390951660208201520152565b815191906041830361285a5761285392506020820151906060604084015193015160001a90612865565b9192909190565b505060009160029190565b91907f7fffffffffffffffffffffffffffffff5d576e7357a4501ddfe92f46681b20a084116128e957926020929160ff608095604051948552168484015260408301526060820152600092839182805260015afa156128dd5780516001600160a01b038116156128d457918190565b50809160019190565b604051903d90823e3d90fd5b50505060009160039190565b60048110156129645780612907575050565b600181036129215760405163f645eedf60e01b8152600490fd5b600281036129425760405163fce698f760e01b815260048101839052602490fd5b60031461294c5750565b602490604051906335e2f38360e21b82526004820152fd5b634e487b7160e01b600052602160045260246000fd5b6042906129856129a0565b906040519161190160f01b8352600283015260228201522090565b307f00000000000000000000000000000000000000000000000000000000000000006001600160a01b03161480612aa1575b156129fb577f000000000000000000000000000000000000000000000000000000000000000090565b60405160208101907f8b73c3c69bb8fe3d512ecc4cf759cc79239f7b179b0ffacaa9a75d522b39400f82527f000000000000000000000000000000000000000000000000000000000000000060408201527f000000000000000000000000000000000000000000000000000000000000000060608201524660808201523060a082015260a0815260c081018181106001600160401b03821117610e675760405251902090565b507f000000000000000000000000000000000000000000000000000000000000000046146129d2565b60a4356001600160a01b038116810361097f5790565b91602091612af9919594956040855260408501916127da565b6001600160a01b03909416910152565b91908201809211612b1657565b634e487b7160e01b600052601160045260246000fd5b91908203918211612b1657565b805115612b465760200190565b634e487b7160e01b600052603260045260246000fd5b8051821015612b465760209160051b010190565b90815180825260208080930193019160005b828110612b90575050505090565b835185529381019392810192600101612b82565b908152604060208201526101408251612c2d612bce61012092836040870152610160860190612b70565b612c18612c04612bf0602089015193603f1994858a83030160608b0152612b70565b6040890151848983030160808a0152612b70565b6060880151838883030160a0890152612b70565b906080870151908683030160c0870152612b70565b9360018060a01b0360a08201511660e085015260c081015191610100928386015260e082015190850152015191015290565b81601f8201121561097f57805191612c76836124b4565b92612c846040519485612493565b808452602092838086019260051b82010192831161097f578301905b828210612cae575050505090565b81518152908301908301612ca0565b51906001600160a01b038216820361097f57565b60208183031261097f5780516001600160401b039182821161097f5701906101208284031261097f5760405192612d078461245c565b825182811161097f5781612d1c918501612c5f565b8452602083015182811161097f5781612d36918501612c5f565b6020850152604083015182811161097f5781612d53918501612c5f565b6040850152606083015182811161097f5781612d70918501612c5f565b6060850152608083015191821161097f57612d8c918301612c5f565b6080830152612d9d60a08201612cbd565b60a083015260c081015160c083015260e081015160e0830152610100809101519082015290565b5190811515820361097f57565b80916101c0928391031261097f576040519182018281106001600160401b03821117610e6757604052612e0381612cbd565b8252612e1160208201612cbd565b602083015260408101516040830152612e2c60608201612cbd565b60608301526080810151608083015260a081015160a083015260c081015160c0830152612e5b60e08201612dc4565b60e083015261010080820151908301526101208082015190830152610140612e84818301612cbd565b90830152610160612e96818301612cbd565b90830152610180612ea8818301612cbd565b908301526101a0809101519082015290565b8091610380928391031261097f576040519182018281106001600160401b03821117610e6757604052805182526020810151602083015260408101516040830152612f0760608201612cbd565b60608301526080810151608083015260a081015160a083015260c081015160c083015260e081015160e0830152610100612f42818301612cbd565b9083015261012080820151908301526101408082015190830152610160808201519060ff8216820361097f5783015261018080820151908301526101a080820151908301526101c080820151908301526101e08082015190830152610200808201519083015261022080820151908301526102408082015190830152610260808201519083015261028080820151908301526102a080820151908301526102c080820151908301526102e08082015190830152610300808201519083015261032061300e818301612cbd565b90830152610340613020818301612dc4565b90830152610360809101519082015290565b919082604091031261097f576125f2602083519301612dc4565b60018060a01b03808251168352806020830151166020840152604082015160408401528060608301511660608401526080820151608084015260a082015160a084015260c082015160c084015260e0820151151560e0840152610100808301519084015261012080830151908401526101408181840151169084015261016081818401511690840152610180908183015116908301526101a080910151910152565b6132416105409295949361056083019680518452602081015160208501526040810151604085015260018060a01b038060608301511660608601526080820151608086015260a082015160a086015260c082015160c086015260e082015160e0860152610100818184015116908601526101208083015190860152610140808301519086015261016060ff81840151169086015261018080830151908601526101a080830151908601526101c080830151908601526101e08083015190860152610200808301519086015261022080830151908601526102408083015190860152610260808301519086015261028080830151908601526102a080830151908601526102c080830151908601526102e0808301519086015261030080830151908601526103209081830151169085015261034080820151151590850152610360809101519084015261038083019061304c565b0152565b81810292918115918404141715612b1657565b1561325f57565b60405162461bcd60e51b81526020600482015260076024820152660436c6f736534360cc1b6044820152606490fd5b1561329557565b60405162461bcd60e51b8152602060048201526007602482015266436c6f7365343160c81b6044820152606490fd5b156132cb57565b60405162461bcd60e51b815260206004820152600760248201526610db1bdcd94d0d60ca1b6044820152606490fd5b9081526001600160a01b03909116602082015260006040820181905260016060830152608082015260a00190565b9495939092919260c08601519260009761334761010089015142612b2c565b91604097885193632762fe1b60e11b85526004978886015260248501526044840152816064840152602092838160848173__$04afeda1751f1fab6ddfb73e5b53963b72$__5af4908115613c27578b91613bf6575b50600280548a51631f8366b360e11b81526001600160a01b039892979189169387828c81885afa91821561382457928f93928f95928997948692613baa575b506133fb959697608061340492670de0b6b3a76400009889958692613245565b04990151613245565b049361343f81613428876134236101e087015161022088015190612b09565b613245565b049561342361020085015161024086015190612b09565b0494506101c061345442610180840151612b09565b91015111613b7d57878f8f908f93948e8e97966000146138a85790508c868b106138305754871691613486878c612b2c565b84519486018051975163e95e380f60e01b81529384019182526001600160a01b03958a1686166020830152969098169390931660408801526000606088018190526080880152939584928391829060a00103925af190811561382457908f918f949392916137ef575b50906134fa91612b09565b94898061350b88828d541694612b2c565b94511692511692813b156137eb578d5163387743f760e21b81528c81019182526001600160a01b0393841660208301529390921660408301528e9183919082908490829060600103925af180156137c957908d916137d7575b50505b6135718184612b09565b8211156136b8575b5050505b61358c60a08901918251612b2c565b809152156135f4575b505416803b156123de57859291836101e4926135c887519889968795630c965b3160e01b8752860152602485019061304c565b5af19081156135eb57506135da575050565b6135e48291612449565b6101dc5750565b513d84823e3d90fd5b6003610120880152828254168388511690803b156136925789809160248a51809481936372bbb27b60e11b978884528c8401525af180156136ae57908a91613696575b50508380845416928901511690823b15613692579060248a92838a51958694859384528a8401525af1801561368857908891613674575b50613595565b61367d90612449565b611d5e57863861366e565b86513d8a823e3d90fd5b8980fd5b61369f90612449565b6136aa578838613637565b8880fd5b88513d8c823e3d90fd5b8a8787541688610160816101408501511693015116813b156137d3578c5163060c97a760e41b81528b81018681526001600160a01b039485166020820181905260408201529190931660608201528e91839182908490829060800103925af180156137c957869392918e916137aa575b50506137699391613740613745928a8a541694612b09565b612b2c565b9087838d015116918d8a8d519687958694859363e95e380f60e01b855284016132fa565b03925af180156136ae57908391613781575b80613579565b813d83116137a3575b6137948183612493565b8101031261097f57813861377b565b503d61378a565b6137b79192939450612449565b6137c5579084918c38613728565b8b80fd5b8b513d8f823e3d90fd5b8e80fd5b6137e090612449565b6137c5578b38613564565b8f80fd5b80929450898092503d831161381d575b6138098183612493565b8101031261097f57518d92906134fa6134ef565b503d6137ff565b8f8e51903d90823e3d90fd5b966138488b826138659a9d9b9d999799541696612b2c565b93511694519687958694859363e95e380f60e01b855284016132fa565b03925af180156137c95790869161387f575b505091613567565b813d83116138a1575b6138928183612493565b8101031261097f578438613877565b503d613888565b959795868b10613b07579050868d5416916138c3878c612b2c565b84860180519551975163e95e380f60e01b81529384019182526001600160a01b03958a1686166020830152969098169390931660408801526000606088018190526080880152939584928391829060a00103925af190811561382457908f918f939291613ad2575b509061393691612b09565b94898061394788828d541694612b2c565b94511692511692813b156137eb578d5163387743f760e21b81528c81019182526001600160a01b0393841660208301529390921660408301528e9183919082908490829060600103925af180156137c957613abf575b505b6139a98184612b09565b8211156139b9575b50505061357d565b8a8787541688610160816101408501511693015116813b156137d3578c5163060c97a760e41b81528b81018681526001600160a01b039485166020820181905260408201529190931660608201528e91839182908490829060800103925af180156137c957869392918e91613aa4575b5050613a639391613740613a41928a8a541694612b09565b90878c5116918d8a8d519687958694859363e95e380f60e01b855284016132fa565b03925af180156136ae57908391613a7b575b806139b1565b813d8311613a9d575b613a8e8183612493565b8101031261097f578138613a75565b503d613a84565b613ab19192939450612449565b6137c5579084918c38613a29565b613acb909c919c612449565b9a3861399d565b80929350898092503d8311613b00575b613aec8183612493565b810103126137d357518d919061393661392b565b503d613ae2565b9093959686613b1c8c613b3a9a9d9b9d612b2c565b9401511694519687958694859363e95e380f60e01b855284016132fa565b03925af180156137c957908691613b54575b50509161399f565b813d8311613b76575b613b678183612493565b810103126137c5578438613b4c565b503d613b5d565b8c5162461bcd60e51b8152808c018990526007602482015266436c6f7365353160c81b6044820152606490fd5b9396509396505092508781813d8311613bef575b613bc88183612493565b810103126137d357926133fb928f94928f96938960806134049251939250509796956133db565b503d613bbe565b90508381813d8311613c20575b613c0d8183612493565b81010312613c1c57513861339c565b8a80fd5b503d613c03565b89513d8d823e3d90fdfea26469706673582212205768ea443a02f717baf97bbda3d29ac360c952fd0fa58e227f78c326a78febf464736f6c63430008140033",
  "linkReferences": {
    "contracts/Libs/PionerV1Utils.sol": {
      "PionerV1Utils": [
        {
          "length": 20,
          "start": 2184
        },
        {
          "length": 20,
          "start": 3104
        },
        {
          "length": 20,
          "start": 5407
        },
        {
          "length": 20,
          "start": 6584
        },
        {
          "length": 20,
          "start": 14588
        }
      ]
    }
  },
  "deployedLinkReferences": {
    "contracts/Libs/PionerV1Utils.sol": {
      "PionerV1Utils": [
        {
          "length": 20,
          "start": 773
        },
        {
          "length": 20,
          "start": 1693
        },
        {
          "length": 20,
          "start": 3996
        },
        {
          "length": 20,
          "start": 5173
        },
        {
          "length": 20,
          "start": 13177
        }
      ]
    }
  }
}