{
  "_format": "hh-sol-artifact-1",
  "contractName": "PionerV1Stable",
  "sourceName": "contracts/Functions/PionerV1Stable.sol",
  "abi": [
    {
      "inputs": [
        {
          "internalType": "address",
          "name": "_pionerV1",
          "type": "address"
        },
        {
          "internalType": "address",
          "name": "_pionerV1Compliance",
          "type": "address"
        }
      ],
      "stateMutability": "nonpayable",
      "type": "constructor"
    },
    {
      "anonymous": false,
      "inputs": [
        {
          "indexed": true,
          "internalType": "address",
          "name": "account",
          "type": "address"
        },
        {
          "indexed": false,
          "internalType": "uint256",
          "name": "amountBurned",
          "type": "uint256"
        }
      ],
      "name": "LiquidationTriggered",
      "type": "event"
    },
    {
      "anonymous": false,
      "inputs": [
        {
          "indexed": true,
          "internalType": "address",
          "name": "tokenAddress",
          "type": "address"
        }
      ],
      "name": "TokenCreated",
      "type": "event"
    },
    {
      "inputs": [
        {
          "internalType": "uint256",
          "name": "amount",
          "type": "uint256"
        }
      ],
      "name": "burnToken",
      "outputs": [],
      "stateMutability": "nonpayable",
      "type": "function"
    },
    {
      "inputs": [
        {
          "internalType": "string",
          "name": "name",
          "type": "string"
        },
        {
          "internalType": "string",
          "name": "symbol",
          "type": "string"
        },
        {
          "internalType": "uint256",
          "name": "bOracleId",
          "type": "uint256"
        }
      ],
      "name": "createToken",
      "outputs": [],
      "stateMutability": "nonpayable",
      "type": "function"
    },
    {
      "inputs": [
        {
          "internalType": "uint256",
          "name": "amount",
          "type": "uint256"
        }
      ],
      "name": "mintToken",
      "outputs": [],
      "stateMutability": "nonpayable",
      "type": "function"
    }
  ],
  "bytecode": "0x60803461008d57601f6118d238819003918201601f19168301916001600160401b0383118484101761009257808492604094855283398101031261008d57610052602061004b836100a8565b92016100a8565b600080546001600160a01b039384166001600160a01b0319918216179091556001805492909316911617905560405161181590816100bd8239f35b600080fd5b634e487b7160e01b600052604160045260246000fd5b51906001600160a01b038216820361008d5756fe6040608081526004803610156200001557600080fd5b600090813560e01c80635b06053014620006505780637b47ec1a14620003d85763c634d032146200004557600080fd5b34620003d45760209283600319360112620003d0578254815163f8b2cb4f60e01b81523381850152602495843594926001600160a01b03929083169082818a81855afa908115620003c657889162000393575b506001548651631d13805360e11b815233878201529085169184828c81865afa90811562000351578a916200035b575b620000d49250620009de565b86516302ad7f4360e01b8152338782015284818c81875afa8015620003515789908b9062000314575b620001099250620009de565b11620002b557978083899a8851928380926373a16ebb60e01b8252338b8301525afa908115620002ab5791859185938b9162000289575b508851948593849263af40d56f60e01b845216898301525afa9182156200027f579083929188926200024b575b505016803b15620002475783516340c10f1960e01b815233848201908152602081018790529091879183919082908490829060400103925af180156200023d5790869162000225575b50541692833b156200022157825163828b6e9b60e01b81523392810192835260208301919091529284918491908290849082906040015b03925af1908115620002185750620002025750f35b6200020d90620008d1565b620002155780f35b80fd5b513d84823e3d90fd5b8480fd5b6200023090620008d1565b62000221578438620001b6565b84513d88823e3d90fd5b8580fd5b6200026f9250803d1062000277575b620002668183620008fc565b8101906200097b565b38806200016d565b503d6200025a565b85513d89823e3d90fd5b620002a49150843d86116200027757620002668183620008fc565b3862000140565b87513d8b823e3d90fd5b855162461bcd60e51b81528086018490526034818b01527f546f6b656e466163746f72793a20496e73756666696369656e74206d616769636044820152732062616c616e636520666f72206d696e74696e6760601b6064820152608490fd5b50508481813d831162000349575b6200032e8183620008fc565b81010312620003445788620001099151620000fd565b600080fd5b503d62000322565b88513d8c823e3d90fd5b90508482813d83116200038b575b620003758183620008fc565b810103126200034457620000d4915190620000c8565b503d62000369565b90508281813d8311620003be575b620003ad8183620008fc565b810103126200034457513862000098565b503d620003a1565b86513d8a823e3d90fd5b8280fd5b5080fd5b5034620003d45760209283600319360112620003d05781359160018060a01b03808554169560248183600154168651928380926373a16ebb60e01b825233898301525afa9081156200027f5787916200062e575b50845163af40d56f60e01b81529083168482015281816024818b5afa9081156200027f578360249284928a916200060c575b5016988651928380926302ad7f4360e01b825233898301525afa9081156200027f578791620005d9575b508511620002475783516370a0823160e01b8152338482015281816024818b5afa9081156200027f579086918891620005a2575b50106200056057508585963b1562000247578351632770a7eb60e21b815233848201908152602081018790529091879183919082908490829060400103925af180156200023d5790869162000548575b50541692833b15620002215782516343c3cc8560e01b8152339281019283526020830191909152928491849190829084908290604001620001ed565b6200055390620008d1565b620002215784386200050c565b9050606492519162461bcd60e51b8352820152601a60248201527f496e73756666696369656e7420746f6b656e2062616c616e63650000000000006044820152fd5b809250838092503d8311620005d1575b620005be8183620008fc565b81010312620003445785905138620004bc565b503d620005b2565b90508181813d831162000604575b620005f38183620008fc565b810103126200034457513862000488565b503d620005e7565b620006279150833d85116200027757620002668183620008fc565b386200045e565b620006499150823d84116200027757620002668183620008fc565b386200042c565b50829034620003d0576060366003190112620003d05767ffffffffffffffff91813583811162000221576200068990369084016200091f565b6024358481116200024757620006a390369085016200091f565b8554835163af40d56f60e01b815233868201526001600160a01b03969291602090829060249082908b165afa908115620008c7579087918991620008a4575b5016620008a057835192610ddd808501938411858510176200088d57916200071e8594926200072d9462000a038739878452878401906200099c565b9160208184039101526200099c565b039085f080156200088357831692833b156200022157815163f2fde38b60e01b81523084820152858160248183895af1801562000879576200085f575b509081859392845416803b156200022157825163329356df60e11b81523385820190815260443560208201529091869183919082908490829060400103925af1801562000855579085916200083d575b50541691823b15620008395783926044849284519586938492630aa63e8f60e11b845233908401528960248401525af190811562000218575062000821575b50807f2e2b3f61b70d2d131b2a807371103cc98d51adcaa5e9a8f9c32658ad8426e74e91a280f35b6200082c90620008d1565b620003d4578183620007f9565b8380fd5b6200084890620008d1565b62000839578387620007ba565b83513d87823e3d90fd5b6200086f909591939295620008d1565b939091856200076a565b83513d88823e3d90fd5b81513d86823e3d90fd5b634e487b7160e01b895260418752602489fd5b8680fd5b620008c0915060203d81116200027757620002668183620008fc565b89620006e2565b85513d8a823e3d90fd5b67ffffffffffffffff8111620008e657604052565b634e487b7160e01b600052604160045260246000fd5b90601f8019910116810190811067ffffffffffffffff821117620008e657604052565b81601f82011215620003445780359067ffffffffffffffff8211620008e6576040519262000958601f8401601f191660200185620008fc565b828452602083830101116200034457816000926020809301838601378301015290565b908160209103126200034457516001600160a01b0381168103620003445790565b919082519283825260005b848110620009c9575050826000602080949584010152601f8019910116010190565b602081830181015184830182015201620009a7565b91908201809211620009ec57565b634e487b7160e01b600052601160045260246000fdfe608060405234620003815762000ddd803803806200001d8162000386565b928339810190604081830312620003815780516001600160401b03908181116200038157836200004f918401620003ac565b916020938482015183811162000381576200006b9201620003ac565b825182811162000281576003918254916001958684811c9416801562000376575b8885101462000360578190601f948581116200030a575b508890858311600114620002a35760009262000297575b505060001982861b1c191690861b1783555b8051938411620002815760049586548681811c9116801562000276575b82821014620002615783811162000216575b5080928511600114620001a857509383949184926000956200019c575b50501b92600019911b1c19161781555b3315620001845760058054336001600160a01b03198216811790925560405191906001600160a01b03167f8be0079c531659141344cd1fd0a4f28419497f9722a3daafe3b4186f6b6457e0600080a36109be90816200041f8239f35b602490600060405191631e4fbdf760e01b8352820152fd5b01519350388062000118565b92919084601f1981168860005285600020956000905b89838310620001fb5750505010620001e0575b50505050811b01815562000128565b01519060f884600019921b161c1916905538808080620001d1565b858701518955909701969485019488935090810190620001be565b87600052816000208480880160051c82019284891062000257575b0160051c019087905b8281106200024a575050620000fb565b600081550187906200023a565b9250819262000231565b602288634e487b7160e01b6000525260246000fd5b90607f1690620000e9565b634e487b7160e01b600052604160045260246000fd5b015190503880620000ba565b90889350601f19831691876000528a6000209260005b8c828210620002f35750508411620002da575b505050811b018355620000cc565b015160001983881b60f8161c19169055388080620002cc565b8385015186558c97909501949384019301620002b9565b90915085600052886000208580850160051c8201928b861062000356575b918a91869594930160051c01915b82811062000346575050620000a3565b600081558594508a910162000336565b9250819262000328565b634e487b7160e01b600052602260045260246000fd5b93607f16936200008c565b600080fd5b6040519190601f01601f191682016001600160401b038111838210176200028157604052565b919080601f84011215620003815782516001600160401b0381116200028157602090620003e2601f8201601f1916830162000386565b92818452828287010111620003815760005b8181106200040a57508260009394955001015290565b8581018301518482018401528201620003f456fe6080604081815260048036101561001557600080fd5b600092833560e01c90816306fdde031461070f57508063095ea7b31461066657806318160ddd1461064757806323b872dd14610554578063313ce5671461053857806340c10f191461048957806370a0823114610452578063715018a6146103f25780638da5cb5b146103c957806395d89b41146102a95780639dc29fac146101cd578063a9059cbb1461019c578063dd62ed3e1461014f5763f2fde38b146100bd57600080fd5b3461014b57602036600319011261014b576100d661084d565b906100df61087e565b6001600160a01b03918216928315610135575050600554826bffffffffffffffffffffffff60a01b821617600555167f8be0079c531659141344cd1fd0a4f28419497f9722a3daafe3b4186f6b6457e08380a380f35b51631e4fbdf760e01b8152908101849052602490fd5b8280fd5b5050346101985780600319360112610198578060209261016d61084d565b610175610868565b6001600160a01b0391821683526001865283832091168252845220549051908152f35b5080fd5b5050346101985780600319360112610198576020906101c66101bc61084d565b60243590336108aa565b5160018152f35b508290346101985782600319360112610198576101e861084d565b90602435906101f561087e565b6001600160a01b0383169283156102925783855284602052858520549183831061025e5750508184957fddf252ad1be2c89b69c2b068fc378daa952ba7f163c4a11628f55a4df523b3ef936020938688528785520381872055816002540360025551908152a380f35b865163391434e360e21b81526001600160a01b03909216908201908152602081018390526040810184905281906060010390fd5b8551634b637e8f60e11b8152808301869052602490fd5b50919034610198578160031936011261019857805190828454600181811c908083169283156103bf575b60209384841081146103ac57838852908115610390575060011461033b575b505050829003601f01601f191682019267ffffffffffffffff8411838510176103285750829182610324925282610804565b0390f35b634e487b7160e01b815260418552602490fd5b8787529192508591837f8a35acfbc15ff81a39ae7d344fd709f28e8600b4aa8c65c6b64bfe7fe36bd19b5b83851061037c57505050508301013880806102f2565b805488860183015293019284908201610366565b60ff1916878501525050151560051b84010190503880806102f2565b634e487b7160e01b895260228a52602489fd5b91607f16916102d3565b50503461019857816003193601126101985760055490516001600160a01b039091168152602090f35b833461044f578060031936011261044f5761040b61087e565b600580546001600160a01b0319811690915581906001600160a01b03167f8be0079c531659141344cd1fd0a4f28419497f9722a3daafe3b4186f6b6457e08280a380f35b80fd5b5050346101985760203660031901126101985760209181906001600160a01b0361047a61084d565b16815280845220549051908152f35b50903461014b578060031936011261014b576104a361084d565b90602435916104b061087e565b6001600160a01b03169283156105235760025490838201809211610510575084927fddf252ad1be2c89b69c2b068fc378daa952ba7f163c4a11628f55a4df523b3ef9260209260025585855284835280852082815401905551908152a380f35b634e487b7160e01b865260119052602485fd5b84602492519163ec442f0560e01b8352820152fd5b5050346101985781600319360112610198576020905160128152f35b50823461044f57606036600319011261044f5761056f61084d565b610577610868565b916044359360018060a01b0383168083526001602052868320338452602052868320549160001983036105b3575b6020886101c68989896108aa565b86831061061b5781156106045733156105ed575082526001602090815286832033845281529186902090859003905582906101c6876105a5565b8751634a1406b160e11b8152908101849052602490fd5b875163e602df0560e01b8152908101849052602490fd5b8751637dc7a0d960e11b8152339181019182526020820193909352604081018790528291506060010390fd5b5050346101985781600319360112610198576020906002549051908152f35b503461014b578160031936011261014b5761067f61084d565b6024359033156106f8576001600160a01b03169182156106e157508083602095338152600187528181208582528752205582519081527f8c5be1e5ebec7d5bd14f71427d1e84f3dd0314c0f7b2291e5b200ac8c7c3b925843392a35160018152f35b8351634a1406b160e11b8152908101859052602490fd5b835163e602df0560e01b8152808401869052602490fd5b849150833461014b578260031936011261014b5782600354600181811c908083169283156107fa575b60209384841081146103ac578388529081156107de575060011461078857505050829003601f01601f191682019267ffffffffffffffff8411838510176103285750829182610324925282610804565b600387529192508591837fc2575a0e9e593c00f959f8c92f12db2869c3395a3b0502d05e2516446f71f85b5b8385106107ca57505050508301018580806102f2565b8054888601830152930192849082016107b4565b60ff1916878501525050151560051b84010190508580806102f2565b91607f1691610738565b6020808252825181830181905290939260005b82811061083957505060409293506000838284010152601f8019910116010190565b818101860151848201604001528501610817565b600435906001600160a01b038216820361086357565b600080fd5b602435906001600160a01b038216820361086357565b6005546001600160a01b0316330361089257565b60405163118cdaa760e01b8152336004820152602490fd5b916001600160a01b0380841692831561096f57169283156109565760009083825281602052604082205490838210610924575091604082827fddf252ad1be2c89b69c2b068fc378daa952ba7f163c4a11628f55a4df523b3ef958760209652828652038282205586815220818154019055604051908152a3565b60405163391434e360e21b81526001600160a01b03919091166004820152602481019190915260448101839052606490fd5b60405163ec442f0560e01b815260006004820152602490fd5b604051634b637e8f60e11b815260006004820152602490fdfea264697066735822122084a03870e88825a6553912134fee8fbd4c7d47652990e053d91cea136c40774164736f6c63430008140033a26469706673582212202f71d7aefc65b55484751366beaad5c3e8b4570a57f446ff063692e9f24edb3564736f6c63430008140033",
  "linkReferences": {},
  "deployedLinkReferences": {}
}