{
  "_format": "hh-sol-artifact-1",
  "contractName": "MuonClientBase",
  "sourceName": "contracts/Libs/MuonClientBase.sol",
  "abi": [
    {
      "anonymous": false,
      "inputs": [
        {
          "indexed": false,
          "internalType": "bytes",
          "name": "reqId",
          "type": "bytes"
        },
        {
          "components": [
            {
              "internalType": "uint256",
              "name": "x",
              "type": "uint256"
            },
            {
              "internalType": "uint8",
              "name": "parity",
              "type": "uint8"
            }
          ],
          "indexed": false,
          "internalType": "struct MuonClientBase.PublicKey",
          "name": "pubKey",
          "type": "tuple"
        }
      ],
      "name": "MuonTX",
      "type": "event"
    },
    {
      "inputs": [],
      "name": "HALF_Q",
      "outputs": [
        {
          "internalType": "uint256",
          "name": "",
          "type": "uint256"
        }
      ],
      "stateMutability": "view",
      "type": "function"
    },
    {
      "inputs": [],
      "name": "Q",
      "outputs": [
        {
          "internalType": "uint256",
          "name": "",
          "type": "uint256"
        }
      ],
      "stateMutability": "view",
      "type": "function"
    },
    {
      "inputs": [],
      "name": "muonAppId",
      "outputs": [
        {
          "internalType": "uint256",
          "name": "",
          "type": "uint256"
        }
      ],
      "stateMutability": "view",
      "type": "function"
    },
    {
      "inputs": [],
      "name": "muonPublicKey",
      "outputs": [
        {
          "internalType": "uint256",
          "name": "x",
          "type": "uint256"
        },
        {
          "internalType": "uint8",
          "name": "parity",
          "type": "uint8"
        }
      ],
      "stateMutability": "view",
      "type": "function"
    },
    {
      "inputs": [
        {
          "internalType": "bytes",
          "name": "reqId",
          "type": "bytes"
        },
        {
          "internalType": "uint256",
          "name": "hash",
          "type": "uint256"
        },
        {
          "components": [
            {
              "internalType": "uint256",
              "name": "signature",
              "type": "uint256"
            },
            {
              "internalType": "address",
              "name": "owner",
              "type": "address"
            },
            {
              "internalType": "address",
              "name": "nonce",
              "type": "address"
            }
          ],
          "internalType": "struct MuonClientBase.SchnorrSign",
          "name": "signature",
          "type": "tuple"
        },
        {
          "components": [
            {
              "internalType": "uint256",
              "name": "x",
              "type": "uint256"
            },
            {
              "internalType": "uint8",
              "name": "parity",
              "type": "uint8"
            }
          ],
          "internalType": "struct MuonClientBase.PublicKey",
          "name": "pubKey",
          "type": "tuple"
        }
      ],
      "name": "muonVerify",
      "outputs": [
        {
          "internalType": "bool",
          "name": "",
          "type": "bool"
        }
      ],
      "stateMutability": "nonpayable",
      "type": "function"
    },
    {
      "inputs": [
        {
          "internalType": "uint256",
          "name": "signingPubKeyX",
          "type": "uint256"
        }
      ],
      "name": "validatePubKey",
      "outputs": [],
      "stateMutability": "pure",
      "type": "function"
    },
    {
      "inputs": [
        {
          "internalType": "uint256",
          "name": "signingPubKeyX",
          "type": "uint256"
        },
        {
          "internalType": "uint8",
          "name": "pubKeyYParity",
          "type": "uint8"
        },
        {
          "internalType": "uint256",
          "name": "signature",
          "type": "uint256"
        },
        {
          "internalType": "uint256",
          "name": "msgHash",
          "type": "uint256"
        },
        {
          "internalType": "address",
          "name": "nonceTimesGeneratorAddress",
          "type": "address"
        }
      ],
      "name": "verifySignature",
      "outputs": [
        {
          "internalType": "bool",
          "name": "",
          "type": "bool"
        }
      ],
      "stateMutability": "pure",
      "type": "function"
    }
  ],
  "bytecode": "0x60808060405234610016576105b9908161001c8239f35b600080fdfe608060408181526004918236101561001657600080fd5b600090813560e01c9081637669c2bb14610199575080638224604a146101615780638efb3bb214610130578063af663e9b14610109578063b3f74d89146100ec578063e493ef8c146100bb5763ff51dff21461007157600080fd5b346100b85760a03660031901126100b8576024359060ff821682036100b857506020926100af916100a06102a0565b9160643591604435913561039c565b90519015158152f35b80fd5b5090346100e857816003193601126100e8575170014551231950b75fc4402da1732fc9bebe198152602090f35b5080fd5b5090346100e857816003193601126100e857602091549051908152f35b50346100b857806003193601126100b8575060015460ff6002541682519182526020820152f35b5090346100e857816003193601126100e857602090516fa2a8918ca85bafe22016d0b997e4df5f600160ff1b038152f35b5082346100e85760203660031901126100e8576fa2a8918ca85bafe22016d0b997e4df5f600160ff1b03610196913510610357565b80f35b919050346100b85760e03660031901126100b85783359067ffffffffffffffff908183116100b857366023840112156100b85782860135918083116100e85736602484860101116100e85760603660431901126100e857606085018581108282111761028d57865260443585526064356001600160a01b03811681036102895760208601526102266102a0565b868601528560a3193601126100e857855196878701918211888310176102765750855260a435865260c4359060ff821682036100b85750916100af939186936020809801526024803592016102bb565b634e487b7160e01b835260419052602482fd5b8280fd5b634e487b7160e01b835260418852602483fd5b608435906001600160a01b03821682036102b657565b600080fd5b909293916102e690835190602085019660ff885116815191604060018060a01b03910151169361039c565b1561034e578260ff7f77e158c4de5b89cd65592962239c3cc6136696032ecc462ad1b04af14e8df53b956080946040519687956060875281606088015287870137600085850187015251602085015251166040830152601f01601f19168101030190a1600190565b50505050600090565b1561035e57565b60405162461bcd60e51b81526020600482015260166024820152755075626c69632d6b65792078203e3d2048414c465f5160501b6044820152606490fd5b91906103bf6fa2a8918ca85bafe22016d0b997e4df5f600160ff1b038410610357565b70014551231950b75fc4402da1732fc9bebe199485831015610533576001600160a01b03818116969095908715158061052a575b80610521575b80610518575b156104da576040519160208301936bffffffffffffffffffffffff199060601b168452603483015260348252606082019282841067ffffffffffffffff8511176104c457819084604052835190209587098103908082116104ae5760209660009660ff60c0948160809916158a146104a657601b905b885216878601528160a08601520991015282805260015afa1561049a57600051161490565b6040513d6000823e3d90fd5b601c90610475565b634e487b7160e01b600052601160045260246000fd5b634e487b7160e01b600052604160045260246000fd5b60405162461bcd60e51b81526020600482015260166024820152751b9bc81e995c9bc81a5b9c1d5d1cc8185b1b1bddd95960521b6044820152606490fd5b508115156103ff565b508415156103f9565b508515156103f3565b60405162461bcd60e51b815260206004820152602260248201527f7369676e6174757265206d7573742062652072656475636564206d6f64756c6f604482015261205160f01b6064820152608490fdfea264697066735822122032fdb461a3ba1ea526ea5fa0f911721a28b0440f182070a7964730c015e7e44164736f6c63430008140033",
  "linkReferences": {},
  "deployedLinkReferences": {}
}