{
  "_format": "hh-sol-artifact-1",
  "contractName": "PionerV1Default",
  "sourceName": "contracts/Functions/PionerV1Default.sol",
  "abi": [
    {
      "inputs": [
        {
          "internalType": "address",
          "name": "_pionerV1",
          "type": "address"
        },
        {
          "internalType": "address",
          "name": "_pionerV1Compliance",
          "type": "address"
        }
      ],
      "stateMutability": "nonpayable",
      "type": "constructor"
    },
    {
      "anonymous": false,
      "inputs": [
        {
          "indexed": false,
          "internalType": "uint256",
          "name": "bContractId",
          "type": "uint256"
        }
      ],
      "name": "flashAuctionBuyBackEvent",
      "type": "event"
    },
    {
      "anonymous": false,
      "inputs": [
        {
          "indexed": false,
          "internalType": "uint256",
          "name": "bContractId",
          "type": "uint256"
        }
      ],
      "name": "liquidatedEvent",
      "type": "event"
    },
    {
      "anonymous": false,
      "inputs": [
        {
          "indexed": false,
          "internalType": "uint256",
          "name": "bContractId",
          "type": "uint256"
        }
      ],
      "name": "settledEvent",
      "type": "event"
    },
    {
      "inputs": [
        {
          "internalType": "uint256",
          "name": "bContractId",
          "type": "uint256"
        }
      ],
      "name": "settleAndLiquidate",
      "outputs": [],
      "stateMutability": "nonpayable",
      "type": "function"
    }
  ],
  "bytecode": "0x60803461008f57601f62001c7138819003918201601f19168301916001600160401b0383118484101761009457808492604094855283398101031261008f57610053602061004c836100aa565b92016100aa565b600080546001600160a01b039384166001600160a01b03199182161790915560018054929093169116179055604051611bb29081620000bf8239f35b600080fd5b634e487b7160e01b600052604160045260246000fd5b51906001600160a01b038216820361008f5756fe608080604052600436101561001357600080fd5b6000803560e01c635a03f9ca1461002957600080fd5b3461092757602036600319011261092757805463a1595d4560e01b835260048035908401526001600160a01b0316916101c0908181602481875afa908115611a93578391611989575b5060408101516040519485916301d3e56960e61b835260048301528160246103809384935afa94851561170d5784956117e0575b505060015460405163a840d60b60e01b815233600482015290602090829060249082906001600160a01b03165afa801561170d5784906117ad575b600691501461177b57600261012082015103611749578184015161010b6101808601514290611b0b565b10611718576080810151936101a081015160a083015160c0840151858401519160e08601511515936040519963629acbc760e11b8b5260048b015260248a015260448901526064880152608487015260a486015260408560c48173__$04afeda1751f1fab6ddfb73e5b53963b72$__5af4801561170d57849585916116c9575b5060c083015161019e8584015142611b2e565b6101a084015160a08601519160405193632762fe1b60e11b8552600485015260248401526044830152606482015260208160848173__$04afeda1751f1fab6ddfb73e5b53963b72$__5af4908115610a04578691611697575b5060808401516101a084015160a08601516101e08601516102208701516040516371947b5560e01b8152600481019590955260248501939093526044840191909152606483015260848201529060208260a48173__$04afeda1751f1fab6ddfb73e5b53963b72$__5af49182156109ca57879261165f575b5060808501516101a085015160a08701516102008701516102408801516040516371947b5560e01b8152600481019590955260248501939093526044840191909152606483015260848201529060208260a48173__$04afeda1751f1fab6ddfb73e5b53963b72$__5af49182156115ec57889261162b575b50670de0b6b3a76400006103068160808901510460a089015190611b3b565b0493889015610e7c57838a1115610de8578854610383906020906001600160a01b0316610333878e611b2e565b8a51838c015160405163e95e380f60e01b815260048101939093526001600160a01b03918216602484015216604482015260006064820181905260848201529283919082908e90829060a4820190565b03925af1908115610ddd578a91610dab575b506103a181958c611b2e565b03610da3575b15610b0f5750506103c7906103c1836101e0860151611b3b565b90611b0b565b9580871115610a7857855484516001600160a01b03908116929116906103ed9089611b2e565b91813b15610a74576040516310f29c1d60e11b81526001600160a01b03919091166004820152602481019290925286908290604490829084905af18015610a0457908691610a60575b50505b60018060a01b0385541661045861024084015161020085015190611b0b565b610220840151604051631f8366b360e11b8152602081600481875afa908115610a55578991610a23575b50670de0b6b3a764000081810311610a0f5788996103c1866104c4602096670de0b6b3a76400006104bd6104f99a986104c998830390611b3b565b0490611b0b565b611b3b565b8683015160405163e95e380f60e01b81529485939284928c92849290916001600160a01b03169060048401611b4e565b03925af18015610a04576109d5575b5061052260018060a01b0386541691610220840151611b3b565b604051631f8366b360e11b815290602082600481865afa9182156109ca57879261098d575b509061055291611b3b565b6101408401516101808501516101608601516001600160a01b03908116949181169216813b156109895760405163060c97a760e41b815260048101949094526001600160a01b0390811660248501529182166044840152921660648201529085908290608490829084905af1908115610952578591610975575b505081516001600160a01b0390811660608401526004610120840152426101a0808501919091528201516080840152845460208401519082169116813b1561095d5785916024839260405194859384926372bbb27b60e11b845260048401525af1908115610952578591610961575b5050835482516001600160a01b039182169116813b1561095d5785916024839260405194859384926372bbb27b60e11b845260048401525af1908115610952578591610939575b50507fd683579525e3897d8fd11cfe09054b56d5d5bf8a541df6dab2f55800b04ddd2460206040516004358152a15b83546001600160a01b0316803b15610935576103609385610564926101a082966040519889978896636184e6eb60e11b885281516004890152602082015160248901526040820151604489015260018060a01b0360608301511660648901526080820151608489015260a082015160a489015260c082015160c489015260e082015160e489015260018060a01b036101008301511661010489015261012082015161012489015261014082015161014489015260ff61016083015116610164890152610180820151610184890152848201516101a48901528101516101c48801526101e08101516101e48801526102008101516102048801526102208101516102248801526102408101516102448801526102608101516102648801526102808101516102848801526102a08101516102a48801526102c08101516102c48801526102e08101516102e488015261030081015161030488015260018060a01b03610320820151166103248801526103408101511515610344880152015161036486015260018060a01b0381511661038486015260018060a01b036020820151166103a486015260408101516103c486015260018060a01b036060820151166103e4860152608081015161040486015260a081015161042486015260c081015161044486015260e081015115156104648601526101008101516104848601526101208101516104a486015260018060a01b03610140820151166104c486015260018060a01b03610160820151166104e486015260018060a01b036101808201511661050486015201516105248401526004356105448401525af1801561092a576109175750f35b61092090611a9e565b6109275780f35b80fd5b6040513d84823e3d90fd5b8480fd5b61094290611a9e565b61094d578338610682565b505050fd5b6040513d87823e3d90fd5b8580fd5b61096a90611a9e565b61094d57833861063b565b61097e90611a9e565b61094d5783386105cc565b8880fd5b915095506020813d6020116109c2575b816109aa60209383611ac8565b810103126109bd57518695610552610547565b600080fd5b3d915061099d565b6040513d89823e3d90fd5b6020809296503d83116109fd575b6109ed8183611ac8565b810103126109bd57849338610508565b503d6109e3565b6040513d88823e3d90fd5b634e487b7160e01b89526011600452602489fd5b90506020813d602011610a4d575b81610a3e60209383611ac8565b810103126109bd575138610482565b3d9150610a31565b6040513d8b823e3d90fd5b610a6990611a9e565b610935578438610436565b8780fd5b85546001600160a01b031690610a8f908890611b2e565b845160208601516001600160a01b039081169392911690823b156109895760405163387743f760e21b815260048101919091526001600160a01b0391821660248201529216604483015286908290606490829084905af18015610a0457908691610afb575b5050610439565b610b0490611a9e565b610935578438610af4565b8754604051631f8366b360e11b815298998a999095509293506001600160a01b03169190602082600481865afa918215610a55578992610d6a575b50670de0b6b3a764000091610b5e91611b3b565b6101408701516101808801516101608901516001600160a01b0390811695949093049390831692909116813b15610d665760405163060c97a760e41b815260048101949094526001600160a01b0390811660248501529182166044840152921660648201529087908290608490829084905af19081156109ca578791610d52575b5050610c2b91610bfb60209260018060a01b0389541692611b0b565b8583015160405163e95e380f60e01b81529485939284928b92849290916001600160a01b03169060048401611b4e565b03925af1801561095257610d23575b508354825160808401516101a08401516101e0850151936001600160a01b03938416939192911690813b156109895760405163d74e595960e01b81523360048201526001600160a01b039094166024850152604484015260648301919091526084820192909252600060a4820152908590829081838160c481015b03925af1908115610952578591610d0f575b50506101a08101516080830152828101516101008301527f9b57fb9f981408812d891144415d662cd21510220f5b721f8f6c06f61b93774960206040516004358152a16106b1565b610d1890611a9e565b61094d578338610cc7565b6020809295503d8311610d4b575b610d3b8183611ac8565b810103126109bd57839238610c3a565b503d610d31565b610d5b90611a9e565b61095d578538610bdf565b8a80fd5b985090506020883d602011610d9b575b81610d8760209383611ac8565b810103126109bd5796518897610b5e610b4a565b3d9150610d7a565b5060016103a7565b90506020813d602011610dd5575b81610dc660209383611ac8565b810103126109bd575138610395565b3d9150610db9565b6040513d8c823e3d90fd5b926020610e3191610e038c60018060a01b038d541692611b2e565b895160405163e95e380f60e01b81529485939284928f92849290916001600160a01b03169060048401611b4e565b03925af1908115610a55578991610e4a575b50926103a7565b90506020813d602011610e74575b81610e6560209383611ac8565b810103126109bd575138610e43565b3d9150610e58565b5091610ee99192602060018060a01b038a5416610e99868d611b0b565b898301518a5160405163e95e380f60e01b815260048101939093526001600160a01b03918216602484015216604482015260006064820181905260848201529485919082908d90829060a4820190565b03925af1928315610a555789936115f7575b50610f0783948b611b0b565b83146113be575050878111156113a45750806103c188610f38610f3d94610f33876102008a0151611b3b565b611b0b565b611b2e565b955b8087111561130d57855460208501516001600160a01b0390811692911690610f679089611b2e565b91813b15610a74576040516310f29c1d60e11b81526001600160a01b03919091166004820152602481019290925286908290604490829084905af18015610a04579086916112f9575b50505b60018060a01b03855416610fd26102208401516101e085015190611b0b565b610240840151604051631f8366b360e11b8152602081600481875afa908115610a555789916112c7575b50670de0b6b3a764000081810311610a0f5788996103c1866104c4602096670de0b6b3a76400006104bd6110659a9861103798830390611b3b565b865160405163e95e380f60e01b81529485939284928c92849290916001600160a01b03169060048401611b4e565b03925af18015610a0457611298575b5061108e60018060a01b0386541691610240840151611b3b565b604051631f8366b360e11b815290602082600481865afa9182156109ca578792611260575b50906110be91611b3b565b6101408401516101808501516101608601516001600160a01b03908116949181169216813b156109895760405163060c97a760e41b815260048101949094526001600160a01b0390811660248501529182166044840152921660648201529085908290608490829084905af190811561095257859161124c575b505060208201516001600160a01b0390811660608401526004610120840152426101a0808501919091528201516080840152845483519082169116813b1561095d5785916024839260405194859384926372bbb27b60e11b845260048401525af1908115610952578591611238575b5050835460208301516001600160a01b039182169116813b1561095d5785916024839260405194859384926372bbb27b60e11b845260048401525af1908115610952578591611224575b50507fd683579525e3897d8fd11cfe09054b56d5d5bf8a541df6dab2f55800b04ddd2460206040516004358152a16106b1565b61122d90611a9e565b61094d5783386111f1565b61124190611a9e565b61094d5783386111a7565b61125590611a9e565b61094d578338611138565b915095506020813d602011611290575b8161127d60209383611ac8565b810103126109bd575186956110be6110b3565b3d9150611270565b6020809296503d83116112c0575b6112b08183611ac8565b810103126109bd57849338611074565b503d6112a6565b90506020813d6020116112f1575b816112e260209383611ac8565b810103126109bd575138610ffc565b3d91506112d5565b61130290611a9e565b610935578438610fb0565b85546001600160a01b031690611324908890611b2e565b602085015185516001600160a01b039081169392911690823b156109895760405163387743f760e21b815260048101919091526001600160a01b0391821660248201529216604483015286908290606490829084905af18015610a0457908691611390575b5050610fb3565b61139990611a9e565b610935578438611389565b6113b891506103c183610200860151611b3b565b95610f3f565b8854604051631f8366b360e11b81529295506001600160a01b031693509150602081600481865afa9081156115ec5788916115b2575b5061140890670de0b6b3a764000092611b3b565b6101408601516101808701516101608801516001600160a01b039081169591811694919392169104823b156115ae5760405163060c97a760e41b815260048101919091526001600160a01b03918216602482015292811660448401529290921660648201529086908290608490829084905af18015610a0457611590575b50602085966114a26114d09360018060a01b0389541692611b2e565b855160405163e95e380f60e01b81529485939284928b92849290916001600160a01b03169060048401611b4e565b03925af1801561095257611561575b508354602083015160808401516101a0840151610200850151936001600160a01b03938416939192911690813b156109895760405163d74e595960e01b81523360048201526001600160a01b039094166024850152604484015260648301919091526084820192909252600060a4820152908590829081838160c48101610cb5565b6020809295503d8311611589575b6115798183611ac8565b810103126109bd578392386114df565b503d61156f565b6114a2966114d092966115a4602093611a9e565b9692509650611486565b8980fd5b90506020813d6020116115e4575b816115cd60209383611ac8565b81010312610a745751670de0b6b3a76400006113f4565b3d91506115c0565b6040513d8a823e3d90fd5b9092506020813d602011611623575b8161161360209383611ac8565b8101031261098957519138610efb565b3d9150611606565b9091506020813d602011611657575b8161164760209383611ac8565b81010312610a74575190386102e7565b3d915061163a565b9091506020813d60201161168f575b8161167b60209383611ac8565b8101031261168b5751903861026f565b8680fd5b3d915061166e565b90506020813d6020116116c1575b816116b260209383611ac8565b8101031261095d5751386101f7565b3d91506116a5565b9550506040853d604011611705575b816116e560409383611ac8565b81010312611701576116fb602086519601611afe565b3861018b565b8380fd5b3d91506116d8565b6040513d86823e3d90fd5b60405162461bcd60e51b81526020600482015260096024820152682232b330bab63a191960b91b6044820152606490fd5b60405162461bcd60e51b815260206004820152600a6024820152692232b330bab63a1918b160b11b6044820152606490fd5b60405162461bcd60e51b815260206004820152600a60248201526944656661756c7432316160b01b6044820152606490fd5b506020813d6020116117d8575b816117c760209383611ac8565b8101031261170157600690516100e1565b3d91506117ba565b908092955081813d8311611982575b6117f98183611ac8565b810103126117015760405191820182811067ffffffffffffffff82111761196e5760405280518252602081015160208301526040810151604083015261184160608201611aea565b60608301526080810151608083015260a081015160a083015260c081015160c083015260e081015160e083015261010061187c818301611aea565b9083015261012080820151908301526101408082015190830152610160808201519060ff8216820361095d5783015261018080820151908301526101a0808201519083015282810151838301526101e08082015190830152610200808201519083015261022080820151908301526102408082015190830152610260808201519083015261028080820151908301526102a080820151908301526102c080820151908301526102e080820151908301526103008082015190830152610320611945818301611aea565b90830152610340611957818301611afe565b9083015261036080910151908201529238806100a6565b634e487b7160e01b85526041600452602485fd5b503d6117ef565b90508181813d8311611a8c575b6119a08183611ac8565b81010312611a88576040519082820182811067ffffffffffffffff82111761196e576040526119ce81611aea565b82526119dc60208201611aea565b6020830152604081015160408301526119f760608201611aea565b60608301526080810151608083015260a081015160a083015260c081015160c0830152611a2660e08201611afe565b60e083015261010080820151908301526101208082015190830152610140611a4f818301611aea565b90830152610160611a61818301611aea565b90830152610180611a73818301611aea565b908301526101a0809101519082015238610072565b8280fd5b503d611996565b6040513d85823e3d90fd5b67ffffffffffffffff8111611ab257604052565b634e487b7160e01b600052604160045260246000fd5b90601f8019910116810190811067ffffffffffffffff821117611ab257604052565b51906001600160a01b03821682036109bd57565b519081151582036109bd57565b91908201809211611b1857565b634e487b7160e01b600052601160045260246000fd5b91908203918211611b1857565b81810292918115918404141715611b1857565b9081526001600160a01b03909116602082015260006040820181905260016060830152608082015260a0019056fea2646970667358221220d203d91cf5e3827f1d88c592e5b832ebecc1f0915298cdba02d19464f85c2c4d64736f6c63430008140033",
  "linkReferences": {
    "contracts/Libs/PionerV1Utils.sol": {
      "PionerV1Utils": [
        {
          "length": 20,
          "start": 550
        },
        {
          "length": 20,
          "start": 659
        },
        {
          "length": 20,
          "start": 779
        },
        {
          "length": 20,
          "start": 899
        }
      ]
    }
  },
  "deployedLinkReferences": {
    "contracts/Libs/PionerV1Utils.sol": {
      "PionerV1Utils": [
        {
          "length": 20,
          "start": 359
        },
        {
          "length": 20,
          "start": 468
        },
        {
          "length": 20,
          "start": 588
        },
        {
          "length": 20,
          "start": 708
        }
      ]
    }
  }
}