{
  "_format": "hh-sol-artifact-1",
  "contractName": "PionerV1Oracle",
  "sourceName": "contracts/Functions/PionerV1Oracle.sol",
  "abi": [
    {
      "inputs": [
        {
          "internalType": "address",
          "name": "_pionerV1",
          "type": "address"
        },
        {
          "internalType": "address",
          "name": "_verifierAddress",
          "type": "address"
        }
      ],
      "stateMutability": "nonpayable",
      "type": "constructor"
    },
    {
      "anonymous": false,
      "inputs": [
        {
          "indexed": true,
          "internalType": "uint256",
          "name": "bOracleId",
          "type": "uint256"
        }
      ],
      "name": "deployBContract",
      "type": "event"
    },
    {
      "inputs": [
        {
          "internalType": "uint256",
          "name": "x",
          "type": "uint256"
        },
        {
          "internalType": "uint8",
          "name": "parity",
          "type": "uint8"
        },
        {
          "internalType": "uint256",
          "name": "_maxConfidence",
          "type": "uint256"
        },
        {
          "internalType": "bytes32",
          "name": "_asset1",
          "type": "bytes32"
        },
        {
          "internalType": "bytes32",
          "name": "_asset2",
          "type": "bytes32"
        },
        {
          "internalType": "uint256",
          "name": "_maxDelay",
          "type": "uint256"
        },
        {
          "internalType": "uint256",
          "name": "_imA",
          "type": "uint256"
        },
        {
          "internalType": "uint256",
          "name": "_imB",
          "type": "uint256"
        },
        {
          "internalType": "uint256",
          "name": "_dfA",
          "type": "uint256"
        },
        {
          "internalType": "uint256",
          "name": "_dfB",
          "type": "uint256"
        },
        {
          "internalType": "uint256",
          "name": "_expiryA",
          "type": "uint256"
        },
        {
          "internalType": "uint256",
          "name": "_expiryB",
          "type": "uint256"
        },
        {
          "internalType": "uint256",
          "name": "_timeLockA",
          "type": "uint256"
        },
        {
          "internalType": "uint256",
          "name": "_timeLockB",
          "type": "uint256"
        },
        {
          "internalType": "uint256",
          "name": "_cType",
          "type": "uint256"
        }
      ],
      "name": "deployBOraclePion",
      "outputs": [],
      "stateMutability": "nonpayable",
      "type": "function"
    },
    {
      "inputs": [
        {
          "internalType": "address",
          "name": "_priceFeedAddress",
          "type": "address"
        },
        {
          "internalType": "bytes32",
          "name": "_pythAddress1",
          "type": "bytes32"
        },
        {
          "internalType": "bytes32",
          "name": "_pythAddress2",
          "type": "bytes32"
        },
        {
          "internalType": "uint256",
          "name": "_maxDelay",
          "type": "uint256"
        },
        {
          "internalType": "uint256",
          "name": "_oracleType",
          "type": "uint256"
        },
        {
          "internalType": "uint256",
          "name": "_imA",
          "type": "uint256"
        },
        {
          "internalType": "uint256",
          "name": "_imB",
          "type": "uint256"
        },
        {
          "internalType": "uint256",
          "name": "_dfA",
          "type": "uint256"
        },
        {
          "internalType": "uint256",
          "name": "_dfB",
          "type": "uint256"
        },
        {
          "internalType": "uint256",
          "name": "_expiryA",
          "type": "uint256"
        },
        {
          "internalType": "uint256",
          "name": "_expiryB",
          "type": "uint256"
        },
        {
          "internalType": "uint256",
          "name": "_timeLockA",
          "type": "uint256"
        },
        {
          "internalType": "uint256",
          "name": "_timeLockB",
          "type": "uint256"
        },
        {
          "internalType": "uint256",
          "name": "_cType",
          "type": "uint256"
        }
      ],
      "name": "deployBOraclePyth",
      "outputs": [],
      "stateMutability": "nonpayable",
      "type": "function"
    },
    {
      "inputs": [
        {
          "internalType": "uint256",
          "name": "bContractId",
          "type": "uint256"
        },
        {
          "internalType": "uint256",
          "name": "oracleChangeId",
          "type": "uint256"
        }
      ],
      "name": "twoWaybOracleChange",
      "outputs": [],
      "stateMutability": "nonpayable",
      "type": "function"
    },
    {
      "inputs": [
        {
          "internalType": "uint256",
          "name": "bOracleId",
          "type": "uint256"
        },
        {
          "internalType": "uint256",
          "name": "price",
          "type": "uint256"
        },
        {
          "internalType": "uint256",
          "name": "time",
          "type": "uint256"
        }
      ],
      "name": "updatePriceDummy",
      "outputs": [],
      "stateMutability": "nonpayable",
      "type": "function"
    },
    {
      "inputs": [
        {
          "components": [
            {
              "internalType": "int256",
              "name": "appId",
              "type": "int256"
            },
            {
              "internalType": "bytes",
              "name": "reqId",
              "type": "bytes"
            },
            {
              "internalType": "bytes32",
              "name": "asset1",
              "type": "bytes32"
            },
            {
              "internalType": "bytes32",
              "name": "asset2",
              "type": "bytes32"
            },
            {
              "internalType": "uint256",
              "name": "lastBid",
              "type": "uint256"
            },
            {
              "internalType": "uint256",
              "name": "lastAsk",
              "type": "uint256"
            },
            {
              "internalType": "uint256",
              "name": "confidence",
              "type": "uint256"
            },
            {
              "internalType": "uint256",
              "name": "signTime",
              "type": "uint256"
            },
            {
              "internalType": "uint256",
              "name": "signature",
              "type": "uint256"
            },
            {
              "internalType": "address",
              "name": "owner",
              "type": "address"
            },
            {
              "internalType": "address",
              "name": "nonce",
              "type": "address"
            }
          ],
          "internalType": "struct PionerV1Utils.upnlSig",
          "name": "priceSignature",
          "type": "tuple"
        },
        {
          "internalType": "uint256",
          "name": "bOracleId",
          "type": "uint256"
        }
      ],
      "name": "updatePricePion",
      "outputs": [],
      "stateMutability": "nonpayable",
      "type": "function"
    },
    {
      "inputs": [],
      "name": "verifier",
      "outputs": [
        {
          "internalType": "contract SchnorrSECP256K1VerifierV2",
          "name": "",
          "type": "address"
        }
      ],
      "stateMutability": "view",
      "type": "function"
    }
  ],
  "bytecode": "0x60803461008d57601f61130e38819003918201601f19168301916001600160401b0383118484101761009257808492604094855283398101031261008d57610052602061004b836100a8565b92016100a8565b600080546001600160a01b039384166001600160a01b0319918216179091556001805492909316911617905560405161125190816100bd8239f35b600080fd5b634e487b7160e01b600052604160045260246000fd5b51906001600160a01b038216820361008d5756fe608080604052600436101561001357600080fd5b600090813560e01c9081632b7ac3f314610ea6575080632d543c0414610bf85780637cf0a850146107df578063a47695b51461046c578063ae60c4301461019c5763d9cd9a121461006357600080fd5b3461011e57606036600319011261011e5780546040516301d3e56960e61b815260048035908201819052610380926001600160a01b0316918381602481865afa938415610191578594610162575b50506024356101a08401526044356101c08401526003604084015103610131578392823b1561012c576100fd92849283604051809681958294635ad92bc560e11b8452600484016110af565b03925af180156101215761010e5750f35b61011790610ecb565b61011e5780f35b80fd5b6040513d84823e3d90fd5b505050fd5b60405162461bcd60e51b81526020600482015260096024820152686e6f742064756d6d7960b81b6044820152606490fd5b610182929450803d1061018a575b61017a8183610edf565b810190610f36565b9138806100b1565b503d610170565b6040513d87823e3d90fd5b503461011e576101c036600319011261011e576004356001600160a01b03818116918290036103bc57829181835416906040516384ad716960e01b8082526020928383600481885afa92831561040557879361043a575b50604051926301d3e56960e61b84526004840152610380928381602481895afa93841561042f578894610410575b50506060830152606435610180830152602435608083015260443560a0830152608435604083015260a4356101e083015260c43561020083015260e435610220830152610104356102408301526101243561026083015261014435610280830152610164356102a0830152610184356102c08301526101a4356102e0830152604051908082528382600481885afa9182156104055787926103d3575b50604051917f4897a3033812f33a2e4af646da63ae75294709de0d5a30bb117997acf837ef368880a281528281600481875afa9283156103c8578693610390575b5050823b1561038c5761032a92859283604051809681958294635ad92bc560e11b8452600484016110af565b03925af190811561038157839161036d575b505416803b1561036a57818091600460405180948193628ebf1560e51b83525af180156101215761010e5750f35b50fd5b61037690610ecb565b61036a57813861033c565b6040513d85823e3d90fd5b8480fd5b819650809293503d83116103c1575b6103a98183610edf565b810103126103bc578493519038806102fe565b600080fd5b503d61039f565b6040513d88823e3d90fd5b965090508286813d81116103fe575b6103ec8183610edf565b810103126103bc5786955190386102bd565b503d6103e2565b6040513d89823e3d90fd5b610427929450803d1061018a5761017a8183610edf565b913880610221565b6040513d8a823e3d90fd5b965091508286813d8111610465575b6104538183610edf565b810103126103bc5786955191386101f3565b503d610449565b503461011e576003199060403683011261011e5760043567ffffffffffffffff8082116107db57610160809483360301126107db57604051938401848110828211176107c5576040528160040135845260248201358181116107c157820190366023830112156107c15760048201359081116107ad57604051916104fa601f8301601f191660200184610edf565b818352366024838301011161038c5791846020836105889694602461014497018386013783010152602086015260448101356040860152606481013560608601526084810135608086015260a481013560a086015260c481013560c086015260e481013560e086015261010481013561010086015261057c6101248201610f01565b61012086015201610f01565b61014083015260018060a01b03815416916040516301d3e56960e61b8152602435600482015261038081602481875afa90811561038157839161078c575b5081519360208301519460408401516060850151608086015160c08701519060e0880151926040519560208701528a518a5b8181106107765750928695926101009592879561063e9901946040860152606085015280608085015260a084015260c083015260e08201520360e0810183520190610edf565b6101c08201805160e08501518091109081610767575b81610758575b81610746575b8161072c575b5080610719575b156106d45760e0846106946080889701518060c088015260a08301519081858901526111f8565b60011c6101a086015201519052803b156106d057604051635ad92bc560e11b815291839183918290849082906100fd90602435600484016110af565b5050fd5b60405162461bcd60e51b815260206004820152601960248201527f77726f6e67207369676e617475726520706172616d65746572000000000000006044820152606490fd5b5060c0840151610120840151101561066d565b61073d9150610180850151906111f8565b42111586610666565b60208501516060870151149150610660565b8451604087015114915061065a565b60408501516004149150610654565b80602080928f0101516040828b010152016105f8565b6107a791506103803d6103801161018a5761017a8183610edf565b386105c6565b634e487b7160e01b84526041600452602484fd5b8380fd5b634e487b7160e01b600052604160045260246000fd5b8280fd5b503461011e57604036600319011261011e57805460405163a1595d4560e01b81526004803590820181905292916001600160a01b03908116906024906101c080858481875afa9485156103c8578695610ad6575b50506040516305d6839f60e31b815260048101879052956101009485888581885afa8015610405578790610a0c575b879850838151168015806109f1575b156109595750338152602085359101525b843b156109555786946101a086926101e495604051998a988997630c965b3160e01b89526004890152828451169088015281602084015116604488015260408301516064880152816060840151166084880152608083015160a488015260a083015160c488015260c083015160e488015260e0830151151561010488015282015161012487015261012082015161014487015280610140830151166101648701528061016083015116610184870152610180820151166101a486015201516101c48401525af180156101215761010e5750f35b8680fd5b84835116808214918280156109e2575b806109d9575b1561097e575b50505050610882565b826109c8575b826109b8575b50816109ae575b5061099f575b808080610975565b60200151604082015238610997565b9050331438610991565b602085015187161491503861098a565b915085602085015116331491610984565b5080331461096f565b50866020860151168114610969565b50848351163314806108715750846020840151163314610871565b508588813d8311610acf575b610a228183610edf565b810103126109555760405186810181811067ffffffffffffffff821117610aba57889960e091604052610a5481610f15565b835260208101516020840152610a6c60408201610f29565b6040840152610a7d60608201610f29565b6060840152610a8e60808201610f15565b6080840152610a9f60a08201610f15565b60a084015260c081015160c0840152015160e0820152610862565b85634e487b7160e01b60005260416004526000fd5b503d610a18565b908092955081813d8311610bf1575b610aef8183610edf565b81010312610bed5760405191820182811067ffffffffffffffff821117610bd857604052610b1c81610f15565b8252610b2a60208201610f15565b602083015260408101516040830152610b4560608201610f15565b60608301526080810151608083015260a081015160a083015260c081015160c0830152610b7460e08201610f29565b60e083015261010080820151908301526101208082015190830152610140610b9d818301610f15565b90830152610160610baf818301610f15565b90830152610180610bc1818301610f15565b908301526101a08091015190820152923880610833565b83634e487b7160e01b60005260416004526000fd5b8580fd5b503d610ae5565b503461011e576101e0908160031936011261011e576024359160ff8316809303610ea25781546040516384ad716960e01b8082526001600160a01b03959193928616926020928386600481885afa958615610405578796610e73575b50604051956301d3e56960e61b87526004870152610380958681602481895afa96871561042f578897610e54575b505060043561014087015261016086015260a4356101808601526064358552608435838601526004604086015260443561012086015260c4359085015260e43561020085015261010435610220850152610124356102408501526101443561026085015261016435610280850152610184356102a08501526101a4356102c08501526101c4356102e08501526001610300850152426101c0850152604051908082528282600481875afa9182156103c8578692610e25575b50604051917f4897a3033812f33a2e4af646da63ae75294709de0d5a30bb117997acf837ef368780a281528181600481865afa918215610191578592610df7575b5050813b156107c157918391610da89383604051809681958294635ad92bc560e11b8452600484016110af565b03925af1801561012157610de8575b508091815416803b1561036a57818091600460405180948193628ebf1560e51b83525af180156101215761010e5750f35b610df190610ecb565b38610db7565b90809250813d8311610e1e575b610e0e8183610edf565b810103126107c157513880610d7b565b503d610e04565b9091508281813d8311610e4d575b610e3d8183610edf565b81010312610bed57519038610d3a565b503d610e33565b610e6b929750803d1061018a5761017a8183610edf565b943880610c82565b9095508381813d8311610e9b575b610e8b8183610edf565b8101031261095557519438610c54565b503d610e81565b5080fd5b905034610ea25781600319360112610ea2576001546001600160a01b03168152602090f35b67ffffffffffffffff81116107c557604052565b90601f8019910116810190811067ffffffffffffffff8211176107c557604052565b35906001600160a01b03821682036103bc57565b51906001600160a01b03821682036103bc57565b519081151582036103bc57565b809161038092839103126103bc5760405191820182811067ffffffffffffffff8211176107c557604052805182526020810151602083015260408101516040830152610f8460608201610f15565b60608301526080810151608083015260a081015160a083015260c081015160c083015260e081015160e0830152610100610fbf818301610f15565b9083015261012080820151908301526101408082015190830152610160808201519060ff821682036103bc5783015261018080820151908301526101a080820151908301526101c080820151908301526101e08082015190830152610200808201519083015261022080820151908301526102408082015190830152610260808201519083015261028080820151908301526102a080820151908301526102c080820151908301526102e08082015190830152610300808201519083015261032061108b818301610f15565b9083015261034061109d818301610f29565b90830152610360809101519082015290565b909291610380906103a0830194835280516020840152602081015160408401526040810151606084015260018060a01b03806060830151166080850152608082015160a085015260a082015160c085015260c082015160e085015260ff8160e08401516101009081880152840151166101209081870152830151610140908187015283015161016090818701528301511661018090818601528201516101a090818601528201516101c090818601528201516101e09081860152820151610200908186015282015161022090818601528201516102409081860152820151610260908186015282015161028090818601528201516102a090818601528201516102c090818601528201516102e090818601528201516103009081860152820151610320908186015282015116610340908185015281015115159061036091828501520151910152565b9190820180921161120557565b634e487b7160e01b600052601160045260246000fdfea2646970667358221220d5243c3976042d3cce63c1e55f0c57e85edbabf0441f88571e65fe21fe98a38e64736f6c63430008140033",
  "linkReferences": {},
  "deployedLinkReferences": {}
}