{
  "_format": "hh-sol-artifact-1",
  "contractName": "PionerV1Utils",
  "sourceName": "contracts/Libs/PionerV1Utils.sol",
  "abi": [
    {
      "inputs": [
        {
          "internalType": "bytes",
          "name": "b",
          "type": "bytes"
        }
      ],
      "name": "bytesToUint256",
      "outputs": [
        {
          "internalType": "uint256",
          "name": "result",
          "type": "uint256"
        }
      ],
      "stateMutability": "pure",
      "type": "function"
    },
    {
      "inputs": [
        {
          "internalType": "uint256",
          "name": "rate",
          "type": "uint256"
        },
        {
          "internalType": "uint256",
          "name": "time",
          "type": "uint256"
        },
        {
          "internalType": "uint256",
          "name": "price",
          "type": "uint256"
        },
        {
          "internalType": "uint256",
          "name": "amount",
          "type": "uint256"
        }
      ],
      "name": "calculateIr",
      "outputs": [
        {
          "internalType": "uint256",
          "name": "",
          "type": "uint256"
        }
      ],
      "stateMutability": "pure",
      "type": "function"
    },
    {
      "inputs": [
        {
          "internalType": "uint256",
          "name": "price",
          "type": "uint256"
        },
        {
          "internalType": "uint256",
          "name": "lastPrice",
          "type": "uint256"
        },
        {
          "internalType": "uint256",
          "name": "amount",
          "type": "uint256"
        },
        {
          "internalType": "uint256",
          "name": "interestRate",
          "type": "uint256"
        },
        {
          "internalType": "uint256",
          "name": "lastPriceUpdateTime",
          "type": "uint256"
        },
        {
          "internalType": "bool",
          "name": "isPayingIr",
          "type": "bool"
        }
      ],
      "name": "calculateuPnl",
      "outputs": [
        {
          "internalType": "uint256",
          "name": "",
          "type": "uint256"
        },
        {
          "internalType": "bool",
          "name": "",
          "type": "bool"
        }
      ],
      "stateMutability": "view",
      "type": "function"
    },
    {
      "inputs": [
        {
          "internalType": "uint256",
          "name": "price",
          "type": "uint256"
        },
        {
          "internalType": "uint256",
          "name": "lastPrice",
          "type": "uint256"
        },
        {
          "internalType": "uint256",
          "name": "amount",
          "type": "uint256"
        },
        {
          "internalType": "uint256",
          "name": "im",
          "type": "uint256"
        },
        {
          "internalType": "uint256",
          "name": "df",
          "type": "uint256"
        }
      ],
      "name": "dynamicIm",
      "outputs": [
        {
          "internalType": "uint256",
          "name": "",
          "type": "uint256"
        }
      ],
      "stateMutability": "pure",
      "type": "function"
    },
    {
      "inputs": [
        {
          "components": [
            {
              "internalType": "bytes32",
              "name": "asset1",
              "type": "bytes32"
            },
            {
              "internalType": "bytes32",
              "name": "asset2",
              "type": "bytes32"
            },
            {
              "internalType": "uint256",
              "name": "oracleType",
              "type": "uint256"
            },
            {
              "internalType": "address",
              "name": "priceFeedAddress",
              "type": "address"
            },
            {
              "internalType": "bytes32",
              "name": "pythAddress1",
              "type": "bytes32"
            },
            {
              "internalType": "bytes32",
              "name": "pythAddress2",
              "type": "bytes32"
            },
            {
              "internalType": "uint256",
              "name": "lastBid",
              "type": "uint256"
            },
            {
              "internalType": "uint256",
              "name": "lastAsk",
              "type": "uint256"
            },
            {
              "internalType": "address",
              "name": "publicOracleAddress",
              "type": "address"
            },
            {
              "internalType": "uint256",
              "name": "maxConfidence",
              "type": "uint256"
            },
            {
              "internalType": "uint256",
              "name": "x",
              "type": "uint256"
            },
            {
              "internalType": "uint8",
              "name": "parity",
              "type": "uint8"
            },
            {
              "internalType": "uint256",
              "name": "maxDelay",
              "type": "uint256"
            },
            {
              "internalType": "uint256",
              "name": "lastPrice",
              "type": "uint256"
            },
            {
              "internalType": "uint256",
              "name": "lastPriceUpdateTime",
              "type": "uint256"
            },
            {
              "internalType": "uint256",
              "name": "imA",
              "type": "uint256"
            },
            {
              "internalType": "uint256",
              "name": "imB",
              "type": "uint256"
            },
            {
              "internalType": "uint256",
              "name": "dfA",
              "type": "uint256"
            },
            {
              "internalType": "uint256",
              "name": "dfB",
              "type": "uint256"
            },
            {
              "internalType": "uint256",
              "name": "expiryA",
              "type": "uint256"
            },
            {
              "internalType": "uint256",
              "name": "expiryB",
              "type": "uint256"
            },
            {
              "internalType": "uint256",
              "name": "timeLockA",
              "type": "uint256"
            },
            {
              "internalType": "uint256",
              "name": "timeLockB",
              "type": "uint256"
            },
            {
              "internalType": "uint256",
              "name": "cType",
              "type": "uint256"
            },
            {
              "internalType": "uint256",
              "name": "forceCloseType",
              "type": "uint256"
            },
            {
              "internalType": "address",
              "name": "kycAddress",
              "type": "address"
            },
            {
              "internalType": "bool",
              "name": "isPaused",
              "type": "bool"
            },
            {
              "internalType": "uint256",
              "name": "deployTime",
              "type": "uint256"
            }
          ],
          "internalType": "struct PionerV1Utils.bOracle",
          "name": "bO",
          "type": "tuple"
        },
        {
          "components": [
            {
              "internalType": "address",
              "name": "pA",
              "type": "address"
            },
            {
              "internalType": "address",
              "name": "pB",
              "type": "address"
            },
            {
              "internalType": "uint256",
              "name": "oracleId",
              "type": "uint256"
            },
            {
              "internalType": "address",
              "name": "initiator",
              "type": "address"
            },
            {
              "internalType": "uint256",
              "name": "price",
              "type": "uint256"
            },
            {
              "internalType": "uint256",
              "name": "amount",
              "type": "uint256"
            },
            {
              "internalType": "uint256",
              "name": "interestRate",
              "type": "uint256"
            },
            {
              "internalType": "bool",
              "name": "isAPayingAPR",
              "type": "bool"
            },
            {
              "internalType": "uint256",
              "name": "openTime",
              "type": "uint256"
            },
            {
              "internalType": "uint256",
              "name": "state",
              "type": "uint256"
            },
            {
              "internalType": "address",
              "name": "frontEnd",
              "type": "address"
            },
            {
              "internalType": "address",
              "name": "hedger",
              "type": "address"
            },
            {
              "internalType": "address",
              "name": "affiliate",
              "type": "address"
            },
            {
              "internalType": "uint256",
              "name": "cancelTime",
              "type": "uint256"
            }
          ],
          "internalType": "struct PionerV1Utils.bContract",
          "name": "bC",
          "type": "tuple"
        },
        {
          "internalType": "bool",
          "name": "isA",
          "type": "bool"
        }
      ],
      "name": "getNotional",
      "outputs": [
        {
          "internalType": "uint256",
          "name": "",
          "type": "uint256"
        }
      ],
      "stateMutability": "pure",
      "type": "function"
    },
    {
      "inputs": [
        {
          "internalType": "int64",
          "name": "value",
          "type": "int64"
        }
      ],
      "name": "int64ToUint256",
      "outputs": [
        {
          "internalType": "uint256",
          "name": "",
          "type": "uint256"
        }
      ],
      "stateMutability": "pure",
      "type": "function"
    }
  ],
  "bytecode": "0x6080806040523461001a5761083c9081610020823930815050f35b600080fdfe6080604052600436101561001257600080fd5b60003560e01c80634ec5fc36146100775780636d37714a1461007257806371947b551461006d578063c535978e14610068578063cc9de25d146100635763eec27a651461005e57600080fd5b61055b565b6104e6565b6104a6565b610479565b610310565b60803660031901126100c35760206301e13380670de0b6b3a76400006100b9606435826100b36044356100ae60243560043561064a565b61064a565b0461064a565b0404604051908152f35b600080fd5b634e487b7160e01b600052604160045260246000fd5b604051906101c0820182811067ffffffffffffffff8211176100ff57604052565b6100c8565b60405190610380820182811067ffffffffffffffff8211176100ff57604052565b6040519190601f01601f1916820167ffffffffffffffff8111838210176100ff57604052565b606435906001600160a01b03821682036100c357565b61010435906001600160a01b03821682036100c357565b61032435906001600160a01b03821682036100c357565b61038435906001600160a01b03821682036100c357565b6103a435906001600160a01b03821682036100c357565b6103e435906001600160a01b03821682036100c357565b6104c435906001600160a01b03821682036100c357565b6104e435906001600160a01b03821682036100c357565b61050435906001600160a01b03821682036100c357565b610164359060ff821682036100c357565b610344359081151582036100c357565b610544359081151582036100c357565b610464359081151582036100c357565b6101c0906103831901126100c3576102706100de565b9061027961018f565b82526102836101a6565b60208301526103c43560408301526102996101bd565b60608301526104043560808301526104243560a08301526104443560c08301526102c161024a565b60e0830152610484356101008301526104a4356101208301526102e26101d4565b6101408301526102f06101eb565b6101608301526102fe610202565b610180830152610524356101a0830152565b366003190161056081126100c357610380136100c357610475610465610334610104565b60043581526024356020820152604435604082015261035161014b565b6060820152608435608082015260a43560a082015260c43560c082015260e43560e082015261037e610161565b61010082015261012435610120820152610144356101408201526103a0610219565b610160820152610184356101808201526101a4356101a08201526101c4356101c08201526101e4356101e082015261020435610200820152610224356102208201526102443561024082015261026435610260820152610284356102808201526102a4356102a08201526102c4356102c08201526102e4356102e082015261030435610300820152610430610178565b61032082015261043e61022a565b610340820152610364356103608201526104573661025a565b61045f61023a565b91610793565b6040519081529081906020820190565b0390f35b60a03660031901126100c357602061049e60843560643560443560243560043561066a565b604051908152f35b60c03660031901126100c35760a43580151581036100c3576104d86040916084356064356044356024356004356106c9565b825191825215156020820152f35b60203660031901126100c35767ffffffffffffffff6004358181116100c357366023820112156100c35780600401359182116100ff5761052f601f8301601f1916602001610125565b82815236602484840101116100c3576000602084610475956024610465960183860137830101526105db565b60203660031901126100c3576004358060070b8091036100c3576000811261058857602090604051908152f35b60405162461bcd60e51b815260206004820152602560248201527f43616e6e6f742063617374206e6567617469766520696e74363420746f207569604482015264373a191a9b60d91b6064820152608490fd5b60208151106105eb576020015190565b60405162461bcd60e51b815260206004820152600f60248201526e125b9c1d5d081d1bdbc81cda1bdc9d608a1b6044820152606490fd5b634e487b7160e01b600052601160045260246000fd5b9190820391821161064557565b610622565b8181029291811591840414171561064557565b9190820180921161064557565b91939291908082106106ab57810390811161064557610693670de0b6b3a764000094859261064a565b04918101809111610645576106a79161064a565b0490565b90810390811161064557610693670de0b6b3a764000094859261064a565b918181946106dc6106e294989742610638565b9061076b565b9381811061073f57916100ae6106fb9261070994610638565b670de0b6b3a7640000900490565b901561073557818110610726579061072091610638565b90600090565b61072f91610638565b90600190565b906107209161065d565b916100ae610753936106fb93969596610638565b91156107625761072f91610638565b61072f9161065d565b926301e13380936100b361078e93946100ae670de0b6b3a764000096879461064a565b040490565b9091156107d6576107d39160a06107ca6106fb6107bf856102206101e06106fb9801519101519061065d565b60808501519061064a565b9101519061064a565b90565b6102406102008201519101518101809111610645578160a06107ca6106fb6106fb9460806107d39701519061064a56fea264697066735822122009553123019e009809dc2ac8228c259cdc24007a061dd2af374121e6577bef9864736f6c63430008140033",
  "linkReferences": {},
  "deployedLinkReferences": {}
}