{
  "_format": "hh-sol-artifact-1",
  "contractName": "PionerV1CA",
  "sourceName": "contracts/Functions/PionerV1CA.sol",
  "abi": [
    {
      "anonymous": false,
      "inputs": [
        {
          "indexed": true,
          "internalType": "address",
          "name": "target",
          "type": "address"
        },
        {
          "indexed": true,
          "internalType": "address",
          "name": "receiver",
          "type": "address"
        },
        {
          "indexed": false,
          "internalType": "uint256",
          "name": "deficit",
          "type": "uint256"
        }
      ],
      "name": "AddToOwedEvent",
      "type": "event"
    },
    {
      "anonymous": false,
      "inputs": [
        {
          "indexed": true,
          "internalType": "address",
          "name": "target",
          "type": "address"
        },
        {
          "indexed": true,
          "internalType": "address",
          "name": "receiver",
          "type": "address"
        },
        {
          "indexed": false,
          "internalType": "uint256",
          "name": "amount",
          "type": "uint256"
        }
      ],
      "name": "ClaimOwedEvent",
      "type": "event"
    },
    {
      "anonymous": false,
      "inputs": [
        {
          "indexed": false,
          "internalType": "bytes",
          "name": "reqId",
          "type": "bytes"
        },
        {
          "components": [
            {
              "internalType": "uint256",
              "name": "x",
              "type": "uint256"
            },
            {
              "internalType": "uint8",
              "name": "parity",
              "type": "uint8"
            }
          ],
          "indexed": false,
          "internalType": "struct MuonClientBase.PublicKey",
          "name": "pubKey",
          "type": "tuple"
        }
      ],
      "name": "MuonTX",
      "type": "event"
    },
    {
      "anonymous": false,
      "inputs": [
        {
          "indexed": true,
          "internalType": "address",
          "name": "target",
          "type": "address"
        },
        {
          "indexed": false,
          "internalType": "uint256",
          "name": "returnedAmount",
          "type": "uint256"
        }
      ],
      "name": "PayOwedEvent",
      "type": "event"
    },
    {
      "anonymous": false,
      "inputs": [
        {
          "indexed": true,
          "internalType": "uint256",
          "name": "bOracleLength",
          "type": "uint256"
        }
      ],
      "name": "deployPriceFeedEvent",
      "type": "event"
    },
    {
      "anonymous": false,
      "inputs": [
        {
          "indexed": true,
          "internalType": "uint256",
          "name": "bOracleId",
          "type": "uint256"
        },
        {
          "indexed": false,
          "internalType": "uint256",
          "name": "lastPrice",
          "type": "uint256"
        }
      ],
      "name": "updatePricePythEvent",
      "type": "event"
    },
    {
      "inputs": [],
      "name": "HALF_Q",
      "outputs": [
        {
          "internalType": "uint256",
          "name": "",
          "type": "uint256"
        }
      ],
      "stateMutability": "view",
      "type": "function"
    },
    {
      "inputs": [],
      "name": "Q",
      "outputs": [
        {
          "internalType": "uint256",
          "name": "",
          "type": "uint256"
        }
      ],
      "stateMutability": "view",
      "type": "function"
    },
    {
      "inputs": [],
      "name": "addBCloseQuoteLength",
      "outputs": [],
      "stateMutability": "nonpayable",
      "type": "function"
    },
    {
      "inputs": [],
      "name": "addBContractLength",
      "outputs": [],
      "stateMutability": "nonpayable",
      "type": "function"
    },
    {
      "inputs": [],
      "name": "addBOracleLength",
      "outputs": [],
      "stateMutability": "nonpayable",
      "type": "function"
    },
    {
      "inputs": [
        {
          "internalType": "address",
          "name": "user",
          "type": "address"
        },
        {
          "internalType": "uint256",
          "name": "amount",
          "type": "uint256"
        }
      ],
      "name": "addBalance",
      "outputs": [],
      "stateMutability": "nonpayable",
      "type": "function"
    },
    {
      "inputs": [
        {
          "internalType": "address",
          "name": "user",
          "type": "address"
        },
        {
          "internalType": "uint256",
          "name": "amount",
          "type": "uint256"
        }
      ],
      "name": "addCumImBalances",
      "outputs": [],
      "stateMutability": "nonpayable",
      "type": "function"
    },
    {
      "inputs": [
        {
          "internalType": "address",
          "name": "user",
          "type": "address"
        },
        {
          "internalType": "uint256",
          "name": "amount",
          "type": "uint256"
        }
      ],
      "name": "addGracePeriodLockedWithdrawBalances",
      "outputs": [],
      "stateMutability": "nonpayable",
      "type": "function"
    },
    {
      "inputs": [
        {
          "internalType": "address",
          "name": "user",
          "type": "address"
        },
        {
          "internalType": "uint256",
          "name": "amount",
          "type": "uint256"
        }
      ],
      "name": "addMintedAmounts",
      "outputs": [],
      "stateMutability": "nonpayable",
      "type": "function"
    },
    {
      "inputs": [
        {
          "internalType": "address",
          "name": "user",
          "type": "address"
        }
      ],
      "name": "addOpenPositionNumber",
      "outputs": [],
      "stateMutability": "nonpayable",
      "type": "function"
    },
    {
      "inputs": [
        {
          "internalType": "address",
          "name": "user",
          "type": "address"
        },
        {
          "internalType": "address",
          "name": "counterparty",
          "type": "address"
        },
        {
          "internalType": "uint256",
          "name": "amount",
          "type": "uint256"
        }
      ],
      "name": "addOwedAmount",
      "outputs": [],
      "stateMutability": "nonpayable",
      "type": "function"
    },
    {
      "inputs": [
        {
          "internalType": "uint256",
          "name": "deficit",
          "type": "uint256"
        },
        {
          "internalType": "address",
          "name": "target",
          "type": "address"
        },
        {
          "internalType": "address",
          "name": "receiver",
          "type": "address"
        }
      ],
      "name": "addToOwed",
      "outputs": [],
      "stateMutability": "nonpayable",
      "type": "function"
    },
    {
      "inputs": [
        {
          "internalType": "bytes",
          "name": "",
          "type": "bytes"
        },
        {
          "internalType": "address",
          "name": "",
          "type": "address"
        }
      ],
      "name": "cancelledCloseQuotes",
      "outputs": [
        {
          "internalType": "uint256",
          "name": "",
          "type": "uint256"
        }
      ],
      "stateMutability": "view",
      "type": "function"
    },
    {
      "inputs": [
        {
          "internalType": "bytes",
          "name": "",
          "type": "bytes"
        },
        {
          "internalType": "address",
          "name": "",
          "type": "address"
        }
      ],
      "name": "cancelledOpenQuotes",
      "outputs": [
        {
          "internalType": "uint256",
          "name": "",
          "type": "uint256"
        }
      ],
      "stateMutability": "view",
      "type": "function"
    },
    {
      "inputs": [
        {
          "internalType": "address",
          "name": "target",
          "type": "address"
        },
        {
          "internalType": "address",
          "name": "receiver",
          "type": "address"
        }
      ],
      "name": "claimOwed",
      "outputs": [],
      "stateMutability": "nonpayable",
      "type": "function"
    },
    {
      "inputs": [
        {
          "internalType": "address",
          "name": "user",
          "type": "address"
        }
      ],
      "name": "decreaseOpenPositionNumber",
      "outputs": [],
      "stateMutability": "nonpayable",
      "type": "function"
    },
    {
      "inputs": [
        {
          "internalType": "address",
          "name": "user",
          "type": "address"
        },
        {
          "internalType": "address",
          "name": "counterparty",
          "type": "address"
        },
        {
          "internalType": "uint256",
          "name": "amount",
          "type": "uint256"
        }
      ],
      "name": "decreaseOwedAmount",
      "outputs": [],
      "stateMutability": "nonpayable",
      "type": "function"
    },
    {
      "inputs": [
        {
          "internalType": "address",
          "name": "user",
          "type": "address"
        },
        {
          "internalType": "uint256",
          "name": "amount",
          "type": "uint256"
        }
      ],
      "name": "decreaseTotalOwedAmount",
      "outputs": [],
      "stateMutability": "nonpayable",
      "type": "function"
    },
    {
      "inputs": [
        {
          "internalType": "address",
          "name": "user",
          "type": "address"
        },
        {
          "internalType": "uint256",
          "name": "amount",
          "type": "uint256"
        }
      ],
      "name": "decreaseTotalOwedAmountPaid",
      "outputs": [],
      "stateMutability": "nonpayable",
      "type": "function"
    },
    {
      "inputs": [
        {
          "internalType": "address",
          "name": "user",
          "type": "address"
        }
      ],
      "name": "getAccountToToken",
      "outputs": [
        {
          "internalType": "address",
          "name": "",
          "type": "address"
        }
      ],
      "stateMutability": "view",
      "type": "function"
    },
    {
      "inputs": [],
      "name": "getAllStateVariables",
      "outputs": [
        {
          "internalType": "uint256",
          "name": "minNotional",
          "type": "uint256"
        },
        {
          "internalType": "uint256",
          "name": "frontendShare",
          "type": "uint256"
        },
        {
          "internalType": "uint256",
          "name": "affiliationShare",
          "type": "uint256"
        },
        {
          "internalType": "uint256",
          "name": "hedgerShare",
          "type": "uint256"
        },
        {
          "internalType": "uint256",
          "name": "pionerDaoShare",
          "type": "uint256"
        },
        {
          "internalType": "uint256",
          "name": "totalShare",
          "type": "uint256"
        },
        {
          "internalType": "uint256",
          "name": "defaultAuctionPeriod",
          "type": "uint256"
        },
        {
          "internalType": "uint256",
          "name": "cancelTimeBuffer",
          "type": "uint256"
        },
        {
          "internalType": "uint256",
          "name": "maxOpenPositions",
          "type": "uint256"
        },
        {
          "internalType": "uint256",
          "name": "gracePeriod",
          "type": "uint256"
        },
        {
          "internalType": "address",
          "name": "pionerDao",
          "type": "address"
        },
        {
          "internalType": "address",
          "name": "admin",
          "type": "address"
        }
      ],
      "stateMutability": "view",
      "type": "function"
    },
    {
      "inputs": [
        {
          "internalType": "address",
          "name": "user",
          "type": "address"
        }
      ],
      "name": "getAvgOpenOwedTime",
      "outputs": [
        {
          "internalType": "uint256",
          "name": "",
          "type": "uint256"
        }
      ],
      "stateMutability": "view",
      "type": "function"
    },
    {
      "inputs": [],
      "name": "getBALANCETOKEN",
      "outputs": [
        {
          "internalType": "contract IERC20",
          "name": "",
          "type": "address"
        }
      ],
      "stateMutability": "view",
      "type": "function"
    },
    {
      "inputs": [
        {
          "internalType": "uint256",
          "name": "id",
          "type": "uint256"
        }
      ],
      "name": "getBCloseQuote",
      "outputs": [
        {
          "components": [
            {
              "internalType": "uint256[]",
              "name": "bContractIds",
              "type": "uint256[]"
            },
            {
              "internalType": "uint256[]",
              "name": "price",
              "type": "uint256[]"
            },
            {
              "internalType": "uint256[]",
              "name": "amount",
              "type": "uint256[]"
            },
            {
              "internalType": "uint256[]",
              "name": "limitOrStop",
              "type": "uint256[]"
            },
            {
              "internalType": "uint256[]",
              "name": "expiry",
              "type": "uint256[]"
            },
            {
              "internalType": "address",
              "name": "initiator",
              "type": "address"
            },
            {
              "internalType": "uint256",
              "name": "cancelTime",
              "type": "uint256"
            },
            {
              "internalType": "uint256",
              "name": "openTime",
              "type": "uint256"
            },
            {
              "internalType": "uint256",
              "name": "state",
              "type": "uint256"
            }
          ],
          "internalType": "struct PionerV1Utils.bCloseQuote",
          "name": "",
          "type": "tuple"
        }
      ],
      "stateMutability": "view",
      "type": "function"
    },
    {
      "inputs": [],
      "name": "getBCloseQuoteLength",
      "outputs": [
        {
          "internalType": "uint256",
          "name": "closeQuoteLength",
          "type": "uint256"
        }
      ],
      "stateMutability": "view",
      "type": "function"
    },
    {
      "inputs": [
        {
          "internalType": "uint256",
          "name": "id",
          "type": "uint256"
        }
      ],
      "name": "getBContract",
      "outputs": [
        {
          "components": [
            {
              "internalType": "address",
              "name": "pA",
              "type": "address"
            },
            {
              "internalType": "address",
              "name": "pB",
              "type": "address"
            },
            {
              "internalType": "uint256",
              "name": "oracleId",
              "type": "uint256"
            },
            {
              "internalType": "address",
              "name": "initiator",
              "type": "address"
            },
            {
              "internalType": "uint256",
              "name": "price",
              "type": "uint256"
            },
            {
              "internalType": "uint256",
              "name": "amount",
              "type": "uint256"
            },
            {
              "internalType": "uint256",
              "name": "interestRate",
              "type": "uint256"
            },
            {
              "internalType": "bool",
              "name": "isAPayingAPR",
              "type": "bool"
            },
            {
              "internalType": "uint256",
              "name": "openTime",
              "type": "uint256"
            },
            {
              "internalType": "uint256",
              "name": "state",
              "type": "uint256"
            },
            {
              "internalType": "address",
              "name": "frontEnd",
              "type": "address"
            },
            {
              "internalType": "address",
              "name": "hedger",
              "type": "address"
            },
            {
              "internalType": "address",
              "name": "affiliate",
              "type": "address"
            },
            {
              "internalType": "uint256",
              "name": "cancelTime",
              "type": "uint256"
            }
          ],
          "internalType": "struct PionerV1Utils.bContract",
          "name": "",
          "type": "tuple"
        }
      ],
      "stateMutability": "view",
      "type": "function"
    },
    {
      "inputs": [],
      "name": "getBContractLength",
      "outputs": [
        {
          "internalType": "uint256",
          "name": "contractLength",
          "type": "uint256"
        }
      ],
      "stateMutability": "view",
      "type": "function"
    },
    {
      "inputs": [
        {
          "internalType": "uint256",
          "name": "id",
          "type": "uint256"
        },
        {
          "internalType": "address",
          "name": "target",
          "type": "address"
        }
      ],
      "name": "getBContractTransferQuote",
      "outputs": [
        {
          "components": [
            {
              "internalType": "uint256",
              "name": "transferOffer",
              "type": "uint256"
            },
            {
              "internalType": "uint256",
              "name": "transferOfferBribe",
              "type": "uint256"
            },
            {
              "internalType": "uint256",
              "name": "transferMethod",
              "type": "uint256"
            },
            {
              "internalType": "uint256",
              "name": "transferQuoteExpiry",
              "type": "uint256"
            },
            {
              "internalType": "bool",
              "name": "transferSide",
              "type": "bool"
            }
          ],
          "internalType": "struct PionerV1Utils.bContractTransferQuote",
          "name": "",
          "type": "tuple"
        }
      ],
      "stateMutability": "view",
      "type": "function"
    },
    {
      "inputs": [
        {
          "internalType": "uint256",
          "name": "id",
          "type": "uint256"
        }
      ],
      "name": "getBContractUpdate",
      "outputs": [
        {
          "components": [
            {
              "internalType": "address",
              "name": "oracleChangeInitializer",
              "type": "address"
            },
            {
              "internalType": "uint256",
              "name": "oracleChangeId",
              "type": "uint256"
            },
            {
              "internalType": "bool",
              "name": "isTranferAInit",
              "type": "bool"
            },
            {
              "internalType": "bool",
              "name": "isTranferBInit",
              "type": "bool"
            },
            {
              "internalType": "address",
              "name": "targetTransferA",
              "type": "address"
            },
            {
              "internalType": "address",
              "name": "targetTransferB",
              "type": "address"
            },
            {
              "internalType": "uint256",
              "name": "transferBribeA",
              "type": "uint256"
            },
            {
              "internalType": "uint256",
              "name": "transferBribeB",
              "type": "uint256"
            }
          ],
          "internalType": "struct PionerV1Utils.bContractUpdate",
          "name": "",
          "type": "tuple"
        }
      ],
      "stateMutability": "view",
      "type": "function"
    },
    {
      "inputs": [
        {
          "internalType": "uint256",
          "name": "id",
          "type": "uint256"
        }
      ],
      "name": "getBOracle",
      "outputs": [
        {
          "components": [
            {
              "internalType": "bytes32",
              "name": "asset1",
              "type": "bytes32"
            },
            {
              "internalType": "bytes32",
              "name": "asset2",
              "type": "bytes32"
            },
            {
              "internalType": "uint256",
              "name": "oracleType",
              "type": "uint256"
            },
            {
              "internalType": "address",
              "name": "priceFeedAddress",
              "type": "address"
            },
            {
              "internalType": "bytes32",
              "name": "pythAddress1",
              "type": "bytes32"
            },
            {
              "internalType": "bytes32",
              "name": "pythAddress2",
              "type": "bytes32"
            },
            {
              "internalType": "uint256",
              "name": "lastBid",
              "type": "uint256"
            },
            {
              "internalType": "uint256",
              "name": "lastAsk",
              "type": "uint256"
            },
            {
              "internalType": "address",
              "name": "publicOracleAddress",
              "type": "address"
            },
            {
              "internalType": "uint256",
              "name": "maxConfidence",
              "type": "uint256"
            },
            {
              "internalType": "uint256",
              "name": "x",
              "type": "uint256"
            },
            {
              "internalType": "uint8",
              "name": "parity",
              "type": "uint8"
            },
            {
              "internalType": "uint256",
              "name": "maxDelay",
              "type": "uint256"
            },
            {
              "internalType": "uint256",
              "name": "lastPrice",
              "type": "uint256"
            },
            {
              "internalType": "uint256",
              "name": "lastPriceUpdateTime",
              "type": "uint256"
            },
            {
              "internalType": "uint256",
              "name": "imA",
              "type": "uint256"
            },
            {
              "internalType": "uint256",
              "name": "imB",
              "type": "uint256"
            },
            {
              "internalType": "uint256",
              "name": "dfA",
              "type": "uint256"
            },
            {
              "internalType": "uint256",
              "name": "dfB",
              "type": "uint256"
            },
            {
              "internalType": "uint256",
              "name": "expiryA",
              "type": "uint256"
            },
            {
              "internalType": "uint256",
              "name": "expiryB",
              "type": "uint256"
            },
            {
              "internalType": "uint256",
              "name": "timeLockA",
              "type": "uint256"
            },
            {
              "internalType": "uint256",
              "name": "timeLockB",
              "type": "uint256"
            },
            {
              "internalType": "uint256",
              "name": "cType",
              "type": "uint256"
            },
            {
              "internalType": "uint256",
              "name": "forceCloseType",
              "type": "uint256"
            },
            {
              "internalType": "address",
              "name": "kycAddress",
              "type": "address"
            },
            {
              "internalType": "bool",
              "name": "isPaused",
              "type": "bool"
            },
            {
              "internalType": "uint256",
              "name": "deployTime",
              "type": "uint256"
            }
          ],
          "internalType": "struct PionerV1Utils.bOracle",
          "name": "",
          "type": "tuple"
        }
      ],
      "stateMutability": "view",
      "type": "function"
    },
    {
      "inputs": [
        {
          "internalType": "address",
          "name": "user",
          "type": "address"
        }
      ],
      "name": "getBOracleIdStable",
      "outputs": [
        {
          "internalType": "uint256",
          "name": "",
          "type": "uint256"
        }
      ],
      "stateMutability": "view",
      "type": "function"
    },
    {
      "inputs": [],
      "name": "getBOracleLength",
      "outputs": [
        {
          "internalType": "uint256",
          "name": "oracleLength",
          "type": "uint256"
        }
      ],
      "stateMutability": "view",
      "type": "function"
    },
    {
      "inputs": [
        {
          "internalType": "address",
          "name": "user",
          "type": "address"
        }
      ],
      "name": "getBalance",
      "outputs": [
        {
          "internalType": "uint256",
          "name": "",
          "type": "uint256"
        }
      ],
      "stateMutability": "view",
      "type": "function"
    },
    {
      "inputs": [],
      "name": "getBalanceToken",
      "outputs": [
        {
          "internalType": "contract IERC20",
          "name": "",
          "type": "address"
        }
      ],
      "stateMutability": "view",
      "type": "function"
    },
    {
      "inputs": [
        {
          "internalType": "address",
          "name": "user",
          "type": "address"
        }
      ],
      "name": "getBalances",
      "outputs": [
        {
          "internalType": "uint256",
          "name": "",
          "type": "uint256"
        }
      ],
      "stateMutability": "view",
      "type": "function"
    },
    {
      "inputs": [],
      "name": "getCancelTimeBuffer",
      "outputs": [
        {
          "internalType": "uint256",
          "name": "",
          "type": "uint256"
        }
      ],
      "stateMutability": "view",
      "type": "function"
    },
    {
      "inputs": [
        {
          "internalType": "bytes",
          "name": "id",
          "type": "bytes"
        },
        {
          "internalType": "address",
          "name": "target",
          "type": "address"
        }
      ],
      "name": "getCancelledCloseQuotes",
      "outputs": [
        {
          "internalType": "uint256",
          "name": "",
          "type": "uint256"
        }
      ],
      "stateMutability": "view",
      "type": "function"
    },
    {
      "inputs": [
        {
          "internalType": "bytes",
          "name": "id",
          "type": "bytes"
        },
        {
          "internalType": "address",
          "name": "target",
          "type": "address"
        }
      ],
      "name": "getCancelledOpenQuotes",
      "outputs": [
        {
          "internalType": "uint256",
          "name": "",
          "type": "uint256"
        }
      ],
      "stateMutability": "view",
      "type": "function"
    },
    {
      "inputs": [
        {
          "internalType": "address",
          "name": "user",
          "type": "address"
        }
      ],
      "name": "getClaimedKycIrAmount",
      "outputs": [
        {
          "internalType": "uint256",
          "name": "",
          "type": "uint256"
        }
      ],
      "stateMutability": "view",
      "type": "function"
    },
    {
      "inputs": [
        {
          "internalType": "address",
          "name": "user",
          "type": "address"
        }
      ],
      "name": "getCumImBalances",
      "outputs": [
        {
          "internalType": "uint256",
          "name": "",
          "type": "uint256"
        }
      ],
      "stateMutability": "view",
      "type": "function"
    },
    {
      "inputs": [],
      "name": "getDefaultAuctionPeriod",
      "outputs": [
        {
          "internalType": "uint256",
          "name": "",
          "type": "uint256"
        }
      ],
      "stateMutability": "view",
      "type": "function"
    },
    {
      "inputs": [],
      "name": "getGRACE_PERIOD",
      "outputs": [
        {
          "internalType": "uint256",
          "name": "",
          "type": "uint256"
        }
      ],
      "stateMutability": "view",
      "type": "function"
    },
    {
      "inputs": [
        {
          "internalType": "address",
          "name": "user",
          "type": "address"
        }
      ],
      "name": "getGracePeriodLockedTime",
      "outputs": [
        {
          "internalType": "uint256",
          "name": "",
          "type": "uint256"
        }
      ],
      "stateMutability": "view",
      "type": "function"
    },
    {
      "inputs": [
        {
          "internalType": "address",
          "name": "user",
          "type": "address"
        }
      ],
      "name": "getGracePeriodLockedWithdrawBalance",
      "outputs": [
        {
          "internalType": "uint256",
          "name": "",
          "type": "uint256"
        }
      ],
      "stateMutability": "view",
      "type": "function"
    },
    {
      "inputs": [],
      "name": "getMaxOpenPositions",
      "outputs": [
        {
          "internalType": "uint256",
          "name": "",
          "type": "uint256"
        }
      ],
      "stateMutability": "view",
      "type": "function"
    },
    {
      "inputs": [],
      "name": "getMinNotional",
      "outputs": [
        {
          "internalType": "uint256",
          "name": "",
          "type": "uint256"
        }
      ],
      "stateMutability": "view",
      "type": "function"
    },
    {
      "inputs": [
        {
          "internalType": "address",
          "name": "user",
          "type": "address"
        }
      ],
      "name": "getMinimumOpenPartialFillNotional",
      "outputs": [
        {
          "internalType": "uint256",
          "name": "",
          "type": "uint256"
        }
      ],
      "stateMutability": "view",
      "type": "function"
    },
    {
      "inputs": [
        {
          "internalType": "address",
          "name": "user",
          "type": "address"
        }
      ],
      "name": "getMintedAmounts",
      "outputs": [
        {
          "internalType": "uint256",
          "name": "",
          "type": "uint256"
        }
      ],
      "stateMutability": "view",
      "type": "function"
    },
    {
      "inputs": [
        {
          "internalType": "address",
          "name": "user",
          "type": "address"
        }
      ],
      "name": "getOpenPositionNumber",
      "outputs": [
        {
          "internalType": "uint256",
          "name": "",
          "type": "uint256"
        }
      ],
      "stateMutability": "view",
      "type": "function"
    },
    {
      "inputs": [
        {
          "internalType": "address",
          "name": "user",
          "type": "address"
        },
        {
          "internalType": "address",
          "name": "counterparty",
          "type": "address"
        }
      ],
      "name": "getOwedAmount",
      "outputs": [
        {
          "internalType": "uint256",
          "name": "",
          "type": "uint256"
        }
      ],
      "stateMutability": "view",
      "type": "function"
    },
    {
      "inputs": [],
      "name": "getPioneerDao",
      "outputs": [
        {
          "internalType": "address",
          "name": "",
          "type": "address"
        }
      ],
      "stateMutability": "view",
      "type": "function"
    },
    {
      "inputs": [
        {
          "internalType": "address",
          "name": "user",
          "type": "address"
        }
      ],
      "name": "getSponsorReward",
      "outputs": [
        {
          "internalType": "uint256",
          "name": "",
          "type": "uint256"
        }
      ],
      "stateMutability": "view",
      "type": "function"
    },
    {
      "inputs": [
        {
          "internalType": "address",
          "name": "user",
          "type": "address"
        }
      ],
      "name": "getTotalOwedAmount",
      "outputs": [
        {
          "internalType": "uint256",
          "name": "",
          "type": "uint256"
        }
      ],
      "stateMutability": "view",
      "type": "function"
    },
    {
      "inputs": [
        {
          "internalType": "address",
          "name": "user",
          "type": "address"
        }
      ],
      "name": "getTotalOwedAmountPaid",
      "outputs": [
        {
          "internalType": "uint256",
          "name": "",
          "type": "uint256"
        }
      ],
      "stateMutability": "view",
      "type": "function"
    },
    {
      "inputs": [],
      "name": "getTotalShare",
      "outputs": [
        {
          "internalType": "uint256",
          "name": "",
          "type": "uint256"
        }
      ],
      "stateMutability": "view",
      "type": "function"
    },
    {
      "inputs": [],
      "name": "muonAppId",
      "outputs": [
        {
          "internalType": "uint256",
          "name": "",
          "type": "uint256"
        }
      ],
      "stateMutability": "view",
      "type": "function"
    },
    {
      "inputs": [],
      "name": "muonPublicKey",
      "outputs": [
        {
          "internalType": "uint256",
          "name": "x",
          "type": "uint256"
        },
        {
          "internalType": "uint8",
          "name": "parity",
          "type": "uint8"
        }
      ],
      "stateMutability": "view",
      "type": "function"
    },
    {
      "inputs": [
        {
          "internalType": "bytes",
          "name": "reqId",
          "type": "bytes"
        },
        {
          "internalType": "uint256",
          "name": "hash",
          "type": "uint256"
        },
        {
          "components": [
            {
              "internalType": "uint256",
              "name": "signature",
              "type": "uint256"
            },
            {
              "internalType": "address",
              "name": "owner",
              "type": "address"
            },
            {
              "internalType": "address",
              "name": "nonce",
              "type": "address"
            }
          ],
          "internalType": "struct MuonClientBase.SchnorrSign",
          "name": "signature",
          "type": "tuple"
        },
        {
          "components": [
            {
              "internalType": "uint256",
              "name": "x",
              "type": "uint256"
            },
            {
              "internalType": "uint8",
              "name": "parity",
              "type": "uint8"
            }
          ],
          "internalType": "struct MuonClientBase.PublicKey",
          "name": "pubKey",
          "type": "tuple"
        }
      ],
      "name": "muonVerify",
      "outputs": [
        {
          "internalType": "bool",
          "name": "",
          "type": "bool"
        }
      ],
      "stateMutability": "nonpayable",
      "type": "function"
    },
    {
      "inputs": [
        {
          "internalType": "uint256",
          "name": "amount",
          "type": "uint256"
        },
        {
          "internalType": "address",
          "name": "frontend",
          "type": "address"
        },
        {
          "internalType": "address",
          "name": "affiliate",
          "type": "address"
        },
        {
          "internalType": "address",
          "name": "hedger",
          "type": "address"
        }
      ],
      "name": "payAffiliates",
      "outputs": [],
      "stateMutability": "nonpayable",
      "type": "function"
    },
    {
      "inputs": [
        {
          "internalType": "address",
          "name": "receiver",
          "type": "address"
        },
        {
          "internalType": "address",
          "name": "target",
          "type": "address"
        },
        {
          "internalType": "uint256",
          "name": "price",
          "type": "uint256"
        },
        {
          "internalType": "uint256",
          "name": "lastPrice",
          "type": "uint256"
        },
        {
          "internalType": "uint256",
          "name": "im",
          "type": "uint256"
        },
        {
          "internalType": "bool",
          "name": "isA",
          "type": "bool"
        }
      ],
      "name": "paySponsor",
      "outputs": [],
      "stateMutability": "nonpayable",
      "type": "function"
    },
    {
      "inputs": [
        {
          "internalType": "address",
          "name": "user",
          "type": "address"
        },
        {
          "internalType": "uint256",
          "name": "amount",
          "type": "uint256"
        }
      ],
      "name": "removeBalance",
      "outputs": [],
      "stateMutability": "nonpayable",
      "type": "function"
    },
    {
      "inputs": [
        {
          "internalType": "address",
          "name": "user",
          "type": "address"
        },
        {
          "internalType": "uint256",
          "name": "amount",
          "type": "uint256"
        }
      ],
      "name": "removeCumImBalances",
      "outputs": [],
      "stateMutability": "nonpayable",
      "type": "function"
    },
    {
      "inputs": [
        {
          "internalType": "address",
          "name": "user",
          "type": "address"
        },
        {
          "internalType": "uint256",
          "name": "amount",
          "type": "uint256"
        }
      ],
      "name": "removeGracePeriodLockedWithdrawBalances",
      "outputs": [],
      "stateMutability": "nonpayable",
      "type": "function"
    },
    {
      "inputs": [
        {
          "internalType": "address",
          "name": "user",
          "type": "address"
        },
        {
          "internalType": "uint256",
          "name": "amount",
          "type": "uint256"
        }
      ],
      "name": "removeMintedAmounts",
      "outputs": [],
      "stateMutability": "nonpayable",
      "type": "function"
    },
    {
      "inputs": [
        {
          "internalType": "address",
          "name": "user",
          "type": "address"
        },
        {
          "internalType": "address",
          "name": "counterparty",
          "type": "address"
        },
        {
          "internalType": "uint256",
          "name": "amount",
          "type": "uint256"
        }
      ],
      "name": "removeOwedAmount",
      "outputs": [],
      "stateMutability": "nonpayable",
      "type": "function"
    },
    {
      "inputs": [
        {
          "internalType": "address",
          "name": "user",
          "type": "address"
        },
        {
          "internalType": "address",
          "name": "_token",
          "type": "address"
        }
      ],
      "name": "setAccountToToken",
      "outputs": [],
      "stateMutability": "nonpayable",
      "type": "function"
    },
    {
      "inputs": [
        {
          "internalType": "uint256",
          "name": "id",
          "type": "uint256"
        },
        {
          "components": [
            {
              "internalType": "uint256[]",
              "name": "bContractIds",
              "type": "uint256[]"
            },
            {
              "internalType": "uint256[]",
              "name": "price",
              "type": "uint256[]"
            },
            {
              "internalType": "uint256[]",
              "name": "amount",
              "type": "uint256[]"
            },
            {
              "internalType": "uint256[]",
              "name": "limitOrStop",
              "type": "uint256[]"
            },
            {
              "internalType": "uint256[]",
              "name": "expiry",
              "type": "uint256[]"
            },
            {
              "internalType": "address",
              "name": "initiator",
              "type": "address"
            },
            {
              "internalType": "uint256",
              "name": "cancelTime",
              "type": "uint256"
            },
            {
              "internalType": "uint256",
              "name": "openTime",
              "type": "uint256"
            },
            {
              "internalType": "uint256",
              "name": "state",
              "type": "uint256"
            }
          ],
          "internalType": "struct PionerV1Utils.bCloseQuote",
          "name": "newCloseQuote",
          "type": "tuple"
        }
      ],
      "name": "setBCloseQuote",
      "outputs": [],
      "stateMutability": "nonpayable",
      "type": "function"
    },
    {
      "inputs": [
        {
          "internalType": "uint256",
          "name": "id",
          "type": "uint256"
        },
        {
          "components": [
            {
              "internalType": "address",
              "name": "pA",
              "type": "address"
            },
            {
              "internalType": "address",
              "name": "pB",
              "type": "address"
            },
            {
              "internalType": "uint256",
              "name": "oracleId",
              "type": "uint256"
            },
            {
              "internalType": "address",
              "name": "initiator",
              "type": "address"
            },
            {
              "internalType": "uint256",
              "name": "price",
              "type": "uint256"
            },
            {
              "internalType": "uint256",
              "name": "amount",
              "type": "uint256"
            },
            {
              "internalType": "uint256",
              "name": "interestRate",
              "type": "uint256"
            },
            {
              "internalType": "bool",
              "name": "isAPayingAPR",
              "type": "bool"
            },
            {
              "internalType": "uint256",
              "name": "openTime",
              "type": "uint256"
            },
            {
              "internalType": "uint256",
              "name": "state",
              "type": "uint256"
            },
            {
              "internalType": "address",
              "name": "frontEnd",
              "type": "address"
            },
            {
              "internalType": "address",
              "name": "hedger",
              "type": "address"
            },
            {
              "internalType": "address",
              "name": "affiliate",
              "type": "address"
            },
            {
              "internalType": "uint256",
              "name": "cancelTime",
              "type": "uint256"
            }
          ],
          "internalType": "struct PionerV1Utils.bContract",
          "name": "newContract",
          "type": "tuple"
        }
      ],
      "name": "setBContract",
      "outputs": [],
      "stateMutability": "nonpayable",
      "type": "function"
    },
    {
      "inputs": [
        {
          "internalType": "uint256",
          "name": "id",
          "type": "uint256"
        },
        {
          "internalType": "address",
          "name": "target",
          "type": "address"
        },
        {
          "components": [
            {
              "internalType": "uint256",
              "name": "transferOffer",
              "type": "uint256"
            },
            {
              "internalType": "uint256",
              "name": "transferOfferBribe",
              "type": "uint256"
            },
            {
              "internalType": "uint256",
              "name": "transferMethod",
              "type": "uint256"
            },
            {
              "internalType": "uint256",
              "name": "transferQuoteExpiry",
              "type": "uint256"
            },
            {
              "internalType": "bool",
              "name": "transferSide",
              "type": "bool"
            }
          ],
          "internalType": "struct PionerV1Utils.bContractTransferQuote",
          "name": "newBContractTransferQuote",
          "type": "tuple"
        }
      ],
      "name": "setBContractTransferQuote",
      "outputs": [],
      "stateMutability": "nonpayable",
      "type": "function"
    },
    {
      "inputs": [
        {
          "internalType": "uint256",
          "name": "id",
          "type": "uint256"
        },
        {
          "components": [
            {
              "internalType": "address",
              "name": "oracleChangeInitializer",
              "type": "address"
            },
            {
              "internalType": "uint256",
              "name": "oracleChangeId",
              "type": "uint256"
            },
            {
              "internalType": "bool",
              "name": "isTranferAInit",
              "type": "bool"
            },
            {
              "internalType": "bool",
              "name": "isTranferBInit",
              "type": "bool"
            },
            {
              "internalType": "address",
              "name": "targetTransferA",
              "type": "address"
            },
            {
              "internalType": "address",
              "name": "targetTransferB",
              "type": "address"
            },
            {
              "internalType": "uint256",
              "name": "transferBribeA",
              "type": "uint256"
            },
            {
              "internalType": "uint256",
              "name": "transferBribeB",
              "type": "uint256"
            }
          ],
          "internalType": "struct PionerV1Utils.bContractUpdate",
          "name": "newContractUpdate",
          "type": "tuple"
        }
      ],
      "name": "setBContractUpdate",
      "outputs": [],
      "stateMutability": "nonpayable",
      "type": "function"
    },
    {
      "inputs": [
        {
          "internalType": "uint256",
          "name": "id",
          "type": "uint256"
        },
        {
          "components": [
            {
              "internalType": "bytes32",
              "name": "asset1",
              "type": "bytes32"
            },
            {
              "internalType": "bytes32",
              "name": "asset2",
              "type": "bytes32"
            },
            {
              "internalType": "uint256",
              "name": "oracleType",
              "type": "uint256"
            },
            {
              "internalType": "address",
              "name": "priceFeedAddress",
              "type": "address"
            },
            {
              "internalType": "bytes32",
              "name": "pythAddress1",
              "type": "bytes32"
            },
            {
              "internalType": "bytes32",
              "name": "pythAddress2",
              "type": "bytes32"
            },
            {
              "internalType": "uint256",
              "name": "lastBid",
              "type": "uint256"
            },
            {
              "internalType": "uint256",
              "name": "lastAsk",
              "type": "uint256"
            },
            {
              "internalType": "address",
              "name": "publicOracleAddress",
              "type": "address"
            },
            {
              "internalType": "uint256",
              "name": "maxConfidence",
              "type": "uint256"
            },
            {
              "internalType": "uint256",
              "name": "x",
              "type": "uint256"
            },
            {
              "internalType": "uint8",
              "name": "parity",
              "type": "uint8"
            },
            {
              "internalType": "uint256",
              "name": "maxDelay",
              "type": "uint256"
            },
            {
              "internalType": "uint256",
              "name": "lastPrice",
              "type": "uint256"
            },
            {
              "internalType": "uint256",
              "name": "lastPriceUpdateTime",
              "type": "uint256"
            },
            {
              "internalType": "uint256",
              "name": "imA",
              "type": "uint256"
            },
            {
              "internalType": "uint256",
              "name": "imB",
              "type": "uint256"
            },
            {
              "internalType": "uint256",
              "name": "dfA",
              "type": "uint256"
            },
            {
              "internalType": "uint256",
              "name": "dfB",
              "type": "uint256"
            },
            {
              "internalType": "uint256",
              "name": "expiryA",
              "type": "uint256"
            },
            {
              "internalType": "uint256",
              "name": "expiryB",
              "type": "uint256"
            },
            {
              "internalType": "uint256",
              "name": "timeLockA",
              "type": "uint256"
            },
            {
              "internalType": "uint256",
              "name": "timeLockB",
              "type": "uint256"
            },
            {
              "internalType": "uint256",
              "name": "cType",
              "type": "uint256"
            },
            {
              "internalType": "uint256",
              "name": "forceCloseType",
              "type": "uint256"
            },
            {
              "internalType": "address",
              "name": "kycAddress",
              "type": "address"
            },
            {
              "internalType": "bool",
              "name": "isPaused",
              "type": "bool"
            },
            {
              "internalType": "uint256",
              "name": "deployTime",
              "type": "uint256"
            }
          ],
          "internalType": "struct PionerV1Utils.bOracle",
          "name": "newOracle",
          "type": "tuple"
        }
      ],
      "name": "setBOracle",
      "outputs": [],
      "stateMutability": "nonpayable",
      "type": "function"
    },
    {
      "inputs": [
        {
          "internalType": "uint256",
          "name": "amount",
          "type": "uint256"
        },
        {
          "internalType": "address",
          "name": "target",
          "type": "address"
        },
        {
          "internalType": "address",
          "name": "receiver",
          "type": "address"
        },
        {
          "internalType": "bool",
          "name": "sign",
          "type": "bool"
        },
        {
          "internalType": "bool",
          "name": "revertMode",
          "type": "bool"
        }
      ],
      "name": "setBalance",
      "outputs": [
        {
          "internalType": "uint256",
          "name": "",
          "type": "uint256"
        }
      ],
      "stateMutability": "nonpayable",
      "type": "function"
    },
    {
      "inputs": [
        {
          "internalType": "bytes",
          "name": "id",
          "type": "bytes"
        },
        {
          "internalType": "address",
          "name": "target",
          "type": "address"
        },
        {
          "internalType": "uint256",
          "name": "value",
          "type": "uint256"
        }
      ],
      "name": "setCancelledCloseQuotes",
      "outputs": [],
      "stateMutability": "nonpayable",
      "type": "function"
    },
    {
      "inputs": [
        {
          "internalType": "bytes",
          "name": "id",
          "type": "bytes"
        },
        {
          "internalType": "address",
          "name": "target",
          "type": "address"
        },
        {
          "internalType": "uint256",
          "name": "value",
          "type": "uint256"
        }
      ],
      "name": "setCancelledOpenQuotes",
      "outputs": [],
      "stateMutability": "nonpayable",
      "type": "function"
    },
    {
      "inputs": [
        {
          "internalType": "address",
          "name": "user",
          "type": "address"
        },
        {
          "internalType": "uint256",
          "name": "amount",
          "type": "uint256"
        }
      ],
      "name": "setCumImBalances",
      "outputs": [],
      "stateMutability": "nonpayable",
      "type": "function"
    },
    {
      "inputs": [
        {
          "internalType": "address",
          "name": "id",
          "type": "address"
        },
        {
          "internalType": "uint256",
          "name": "value",
          "type": "uint256"
        }
      ],
      "name": "setGracePeriodLockedTime",
      "outputs": [],
      "stateMutability": "nonpayable",
      "type": "function"
    },
    {
      "inputs": [
        {
          "internalType": "address",
          "name": "user",
          "type": "address"
        },
        {
          "internalType": "address",
          "name": "counterparty",
          "type": "address"
        },
        {
          "internalType": "uint256",
          "name": "amount",
          "type": "uint256"
        }
      ],
      "name": "setOwedAmount",
      "outputs": [],
      "stateMutability": "nonpayable",
      "type": "function"
    },
    {
      "inputs": [
        {
          "internalType": "address",
          "name": "user",
          "type": "address"
        },
        {
          "internalType": "uint256",
          "name": "amount",
          "type": "uint256"
        }
      ],
      "name": "setTotalOwedAmount",
      "outputs": [],
      "stateMutability": "nonpayable",
      "type": "function"
    },
    {
      "inputs": [
        {
          "internalType": "address",
          "name": "user",
          "type": "address"
        },
        {
          "internalType": "uint256",
          "name": "amount",
          "type": "uint256"
        }
      ],
      "name": "setTotalOwedAmountPaid",
      "outputs": [],
      "stateMutability": "nonpayable",
      "type": "function"
    },
    {
      "inputs": [
        {
          "internalType": "address",
          "name": "kyc",
          "type": "address"
        },
        {
          "internalType": "uint256",
          "name": "_id",
          "type": "uint256"
        }
      ],
      "name": "setbOracleIdStable",
      "outputs": [],
      "stateMutability": "nonpayable",
      "type": "function"
    },
    {
      "inputs": [
        {
          "components": [
            {
              "internalType": "bytes32",
              "name": "asset1",
              "type": "bytes32"
            },
            {
              "internalType": "bytes32",
              "name": "asset2",
              "type": "bytes32"
            },
            {
              "internalType": "uint256",
              "name": "oracleType",
              "type": "uint256"
            },
            {
              "internalType": "address",
              "name": "priceFeedAddress",
              "type": "address"
            },
            {
              "internalType": "bytes32",
              "name": "pythAddress1",
              "type": "bytes32"
            },
            {
              "internalType": "bytes32",
              "name": "pythAddress2",
              "type": "bytes32"
            },
            {
              "internalType": "uint256",
              "name": "lastBid",
              "type": "uint256"
            },
            {
              "internalType": "uint256",
              "name": "lastAsk",
              "type": "uint256"
            },
            {
              "internalType": "address",
              "name": "publicOracleAddress",
              "type": "address"
            },
            {
              "internalType": "uint256",
              "name": "maxConfidence",
              "type": "uint256"
            },
            {
              "internalType": "uint256",
              "name": "x",
              "type": "uint256"
            },
            {
              "internalType": "uint8",
              "name": "parity",
              "type": "uint8"
            },
            {
              "internalType": "uint256",
              "name": "maxDelay",
              "type": "uint256"
            },
            {
              "internalType": "uint256",
              "name": "lastPrice",
              "type": "uint256"
            },
            {
              "internalType": "uint256",
              "name": "lastPriceUpdateTime",
              "type": "uint256"
            },
            {
              "internalType": "uint256",
              "name": "imA",
              "type": "uint256"
            },
            {
              "internalType": "uint256",
              "name": "imB",
              "type": "uint256"
            },
            {
              "internalType": "uint256",
              "name": "dfA",
              "type": "uint256"
            },
            {
              "internalType": "uint256",
              "name": "dfB",
              "type": "uint256"
            },
            {
              "internalType": "uint256",
              "name": "expiryA",
              "type": "uint256"
            },
            {
              "internalType": "uint256",
              "name": "expiryB",
              "type": "uint256"
            },
            {
              "internalType": "uint256",
              "name": "timeLockA",
              "type": "uint256"
            },
            {
              "internalType": "uint256",
              "name": "timeLockB",
              "type": "uint256"
            },
            {
              "internalType": "uint256",
              "name": "cType",
              "type": "uint256"
            },
            {
              "internalType": "uint256",
              "name": "forceCloseType",
              "type": "uint256"
            },
            {
              "internalType": "address",
              "name": "kycAddress",
              "type": "address"
            },
            {
              "internalType": "bool",
              "name": "isPaused",
              "type": "bool"
            },
            {
              "internalType": "uint256",
              "name": "deployTime",
              "type": "uint256"
            }
          ],
          "internalType": "struct PionerV1Utils.bOracle",
          "name": "bO",
          "type": "tuple"
        },
        {
          "components": [
            {
              "internalType": "address",
              "name": "pA",
              "type": "address"
            },
            {
              "internalType": "address",
              "name": "pB",
              "type": "address"
            },
            {
              "internalType": "uint256",
              "name": "oracleId",
              "type": "uint256"
            },
            {
              "internalType": "address",
              "name": "initiator",
              "type": "address"
            },
            {
              "internalType": "uint256",
              "name": "price",
              "type": "uint256"
            },
            {
              "internalType": "uint256",
              "name": "amount",
              "type": "uint256"
            },
            {
              "internalType": "uint256",
              "name": "interestRate",
              "type": "uint256"
            },
            {
              "internalType": "bool",
              "name": "isAPayingAPR",
              "type": "bool"
            },
            {
              "internalType": "uint256",
              "name": "openTime",
              "type": "uint256"
            },
            {
              "internalType": "uint256",
              "name": "state",
              "type": "uint256"
            },
            {
              "internalType": "address",
              "name": "frontEnd",
              "type": "address"
            },
            {
              "internalType": "address",
              "name": "hedger",
              "type": "address"
            },
            {
              "internalType": "address",
              "name": "affiliate",
              "type": "address"
            },
            {
              "internalType": "uint256",
              "name": "cancelTime",
              "type": "uint256"
            }
          ],
          "internalType": "struct PionerV1Utils.bContract",
          "name": "bC",
          "type": "tuple"
        },
        {
          "internalType": "uint256",
          "name": "bContractId",
          "type": "uint256"
        }
      ],
      "name": "updateCumIm",
      "outputs": [],
      "stateMutability": "nonpayable",
      "type": "function"
    },
    {
      "inputs": [
        {
          "internalType": "uint256",
          "name": "newAmount",
          "type": "uint256"
        }
      ],
      "name": "updateMinimumOpenPartialFillNotional",
      "outputs": [],
      "stateMutability": "nonpayable",
      "type": "function"
    },
    {
      "inputs": [
        {
          "internalType": "uint256",
          "name": "newAmount",
          "type": "uint256"
        }
      ],
      "name": "updateSponsorReward",
      "outputs": [],
      "stateMutability": "nonpayable",
      "type": "function"
    },
    {
      "inputs": [
        {
          "internalType": "uint256",
          "name": "signingPubKeyX",
          "type": "uint256"
        }
      ],
      "name": "validatePubKey",
      "outputs": [],
      "stateMutability": "pure",
      "type": "function"
    },
    {
      "inputs": [
        {
          "internalType": "uint256",
          "name": "signingPubKeyX",
          "type": "uint256"
        },
        {
          "internalType": "uint8",
          "name": "pubKeyYParity",
          "type": "uint8"
        },
        {
          "internalType": "uint256",
          "name": "signature",
          "type": "uint256"
        },
        {
          "internalType": "uint256",
          "name": "msgHash",
          "type": "uint256"
        },
        {
          "internalType": "address",
          "name": "nonceTimesGeneratorAddress",
          "type": "address"
        }
      ],
      "name": "verifySignature",
      "outputs": [
        {
          "internalType": "bool",
          "name": "",
          "type": "bool"
        }
      ],
      "stateMutability": "pure",
      "type": "function"
    }
  ],
  "bytecode": "0x60808060405234610016576154ac908161001c8239f35b600080fdfe608080604052600436101561001357600080fd5b60003560e01c90816302ad7f43146149695750806303339c861461486257806306faa448146146b95780630b671e6f1461467f5780630c965b31146143775780630cdbf9671461428d5780630e1295691461419e57806311d7e2a0146141a35780631425d2fa1461419e578063154c7d1e1461408257806315c868781461404857806318967df81461400e5780631cd8e70014613f0a5780631d74b67d14613d865780631da5475e14613d6857806321e5383a14613c645780632b08fc1514613bd95780632eb41cf814613ac7578063304e24e914613a8d5780633205b1d714613a6f57806339bbfb9114613a2a5780633a1ebe0c146139265780633f06cd661461390857806343c3cc851461380457806345ba6a82146137e657806346192c9c146136e657806348d29b191461096557806355804d06146136ac5780635dee28391461367257806360c97a701461359957806361dbb3b21461355f5780636526adbe146134595780636639013f1461335957806367aeb0f31461333b57806367cf9c3b146132d75780636846ce93146132af57806374f95a4014612f1c5780637669c2bb14612e605780638224604a14612e2c578063828b6e9b14612d2857806384ad716914612d0a5780638738428d14612cd05780638da1791714612c8b5780638e95b51b14612b875780638efb3bb214612b565780639023196114612b1d5780639766821c14612af45780639c13131214612ad65780639dd87ac814612aae578063a1595d451461289c578063a24f76cb1461279a578063a67986a214612749578063a747300414612640578063af0825af1461253c578063af40d56f14612501578063af663e9b146124d9578063b3f74d89146124bb578063b5b2578a146120df578063b8d98ce514611fdf578063ba97893c14611edb578063bd008a8f14611ddb578063bd31117114611cd2578063c006941414611c02578063c309cdd61461175a578063c84aae1714610412578063cb1fb96414611670578063cda25f411461156c578063d270f04c14611508578063d388ed2314610fd6578063d406815814610f9c578063d74e595914610d65578063db7e8c0f14610d2b578063e1dd0fdc14610bc4578063e3f4740b146109e5578063e47e4455146109ab578063e493ef8c1461097e578063e558391f14610965578063e57764f614610846578063e699af8a14610828578063e919aa5f1461064e578063e95e380f1461053d578063f0649dcf1461051f578063f4364a2f14610417578063f8b2cb4f146104125763ff51dff2146103c657600080fd5b3461040d5760a036600319011261040d5760243560ff8116810361040d576104036020916103f26149f7565b9060643590604435906004356152c1565b6040519015158152f35b600080fd5b614caf565b3461040d57604036600319011261040d5761043061499f565b303314801561050b575b80156104f7575b80156104e3575b80156104cf575b80156104bb575b80156104a7575b8015610493575b61046d90614d4f565b60018060a01b03166000526029602052604060002061048f6024358254614c5c565b9055005b506019546001600160a01b03163314610464565b506018546001600160a01b0316331461045d565b506014546001600160a01b03163314610456565b506013546001600160a01b0316331461044f565b506012546001600160a01b03163314610448565b506011546001600160a01b03163314610441565b506010546001600160a01b0316331461043a565b3461040d57600036600319011261040d576020600a54604051908152f35b3461040d5760a036600319011261040d5760206105ba61055b6149b5565b6105636149cb565b5061056c614b22565b610574614b31565b91303314801561063a575b8015610626575b8015610612575b80156105fe575b80156105ea575b80156105d6575b80156105c2575b6105b290614d4f565b600435614da0565b604051908152f35b506019546001600160a01b031633146105a9565b506018546001600160a01b031633146105a2565b506014546001600160a01b0316331461059b565b506013546001600160a01b03163314610594565b506012546001600160a01b0316331461058d565b506011546001600160a01b03163314610586565b506010546001600160a01b0316331461057f565b3461040d5761012036600319011261040d5761010036602319011261040d5760405161067981614aad565b6106816149b5565b8152602081016044358152610694614b22565b90604083019182526106a4614b31565b606084019081529060a435906001600160a01b0390818316830361040d576080860192835260c43591808316830361040d5760059560a0880193845260c088019460e435865260e0890196610104358852303314801561081b575b801561080e575b8015610801575b80156107f4575b80156107e7575b80156107da575b80156107cd575b61073290614d4f565b600435600052601f6020528360406000209a5116946001600160601b0360a01b95868c5416178b555160018b015561077d60028b0193511515849060ff801983541691151516179055565b5182549151610100600160b01b031990921690151560081b61ff00161760109190911b62010000600160b01b03161790559151600387018054909216921691909117905551600484015551910155005b5060195484163314610729565b5083601854163314610722565b508360145416331461071b565b5083601354163314610714565b508360125416331461070d565b5083601154163314610706565b50836010541633146106ff565b3461040d57600036600319011261040d576020602154604051908152f35b3461040d57602036600319011261040d5761085f61499f565b3033148015610951575b801561093d575b8015610929575b8015610915575b8015610901575b80156108ed575b80156108d9575b61089c90614d4f565b6001600160a01b03166000908152602360205260409020805480156108c357600019019055005b634e487b7160e01b600052601160045260246000fd5b506019546001600160a01b03163314610893565b506018546001600160a01b0316331461088c565b506014546001600160a01b03163314610885565b506013546001600160a01b0316331461087e565b506012546001600160a01b03163314610877565b506011546001600160a01b03163314610870565b506010546001600160a01b03163314610869565b3461040d5761097c61097636614a0d565b916150c7565b005b3461040d57600036600319011261040d57602060405170014551231950b75fc4402da1732fc9bebe198152f35b3461040d57602036600319011261040d576001600160a01b036109cc61499f565b16600052602c6020526020604060002054604051908152f35b3461040d57604036600319011261040d576109fe61499f565b610a066149b5565b7f9294c47cb49f2703e2d3095ef1f312352722b8664ddb79aa4d4bc4ed0f70246160018060a01b03928381169283600052610a7b60209260298452604060002054601a8552610a5b6040600020918254614c5c565b9055856000526029845260006040812055601a8452604060002054614e64565b84600052601a8352604060002055602482526040600020948116948560005282526040600020549084600052602683526040600020549082821015600014610b3a57610afc915085600052602584526040600020610ada848254614d93565b905585600052602684526040600020610af4848254614d93565b905582614e64565b85600052601a8352610b146040600020918254614c5c565b905583600052602482526040600020856000528252600060408120555b604051908152a3005b610b969160258552610b526040600020918254614d93565b90558560005260268452604060002054602485526040600020886000528552610b816040600020918254614d93565b90558560005260268452604060002054614e64565b85600052601a8352610bae6040600020918254614c5c565b9055836000526026825260006040812055610b31565b3461040d57606036600319011261040d57600435610be06149b5565b7f899caa590d55a05310519b00a93a11cba0e670b993797f02ed5eff3738747ce46020610c0b6149cb565b933033148015610d17575b8015610d03575b8015610cef575b8015610cdb575b8015610cc7575b8015610cb3575b8015610c9f575b610c4990614d4f565b60018060a01b0380941693846000526024835260406000209516948560005282526040600020610c7a828254614c5c565b905583600052602582526040600020610c94828254614c5c565b9055604051908152a3005b506019546001600160a01b03163314610c40565b506018546001600160a01b03163314610c39565b506014546001600160a01b03163314610c32565b506013546001600160a01b03163314610c2b565b506012546001600160a01b03163314610c24565b506011546001600160a01b03163314610c1d565b506010546001600160a01b03163314610c16565b3461040d57602036600319011261040d576001600160a01b03610d4c61499f565b16600052602b6020526020604060002054604051908152f35b3461040d5760c036600319011261040d57610d7e61499f565b610d866149b5565b604435906064356084359060a435938415938415860361040d573033148015610f88575b8015610f74575b8015610f60575b8015610f4c575b8015610f38575b8015610f24575b8015610f10575b610ddd90614d4f565b6001600160a01b03908116961694868603610df457005b80610ed8575b15610e65575050505081600052601a60205260406000205490602c60205260406000205480921015610e2857005b600052601a602052610e406040600020918254614c5c565b9055600052602c602052604060002054601a60205261048f6040600020918254614d93565b83610e99575b505050610e7457005b81600052601a60205260406000205490602c60205260406000205480921015610e2857005b90919250610eb1670de0b6b3a7640000928392615047565b0491670b1a2bc2ec500000908181029181830414901517156108c357041015838080610e6b565b50670de0b6b3a764000080610eed8385615047565b0490670b1a2bc2ec5000008086029086820414861517156108c357041015610dfa565b506019546001600160a01b03163314610dd4565b506018546001600160a01b03163314610dcd565b506014546001600160a01b03163314610dc6565b506013546001600160a01b03163314610dbf565b506012546001600160a01b03163314610db8565b506011546001600160a01b03163314610db1565b506010546001600160a01b03163314610daa565b3461040d57602036600319011261040d576001600160a01b03610fbd61499f565b1660005260276020526020604060002054604051908152f35b3461040d5760031960403682011261040d57602435906001600160401b03821161040d5761012090823603011261040d576040519061101482614a76565b80600401356001600160401b03811161040d576110379060043691840101614ce9565b825260248101356001600160401b03811161040d5761105c9060043691840101614ce9565b602083015260448101356001600160401b03811161040d576110849060043691840101614ce9565b604083015260648101356001600160401b03811161040d576110ac9060043691840101614ce9565b606083015260848101356001600160401b03811161040d576110d49060043691840101614ce9565b608083015260a4810135906001600160a01b038216820361040d576101049160a084015260c481013560c084015260e481013560e0840152013561010082015230331480156114f4575b80156114e0575b80156114cc575b80156114b8575b80156114a4575b8015611490575b801561147c575b61115190614d4f565b600435600052602260205260406000209080518051906001600160401b03821161136557600160401b8211611365578354828555808310611452575b5060200183600052602060002060005b83811061143e57858560208101518051906001600160401b03821161136557600160401b8211611365576001840154826001860155808310611411575b5060200160018401600052602060002060005b8381106113fd57858560408101518051906001600160401b03821161136557600160401b82116113655760028401548260028601558083106113d0575b5060200160028401600052602060002060005b8381106113bc57858560608101518051906001600160401b03821161136557600160401b821161136557600384015482600386015580831061138f575b5060200160038401600052602060002060005b83811061137b578585600482016080820151908151916001600160401b03831161136557600160401b831161136557815483835580841061133c575b5060200190600052602060002060005b8381106113285760a08501516005870180546001600160a01b0319166001600160a01b039290921691909117905560c0850151600687015560e085015160078701556101008501516008870155005b6001906020845194019381840155016112d9565b8260005283602060002091820191015b81811061135957506112c9565b6000815560010161134c565b634e487b7160e01b600052604160045260246000fd5b60019060208451940193818401550161128d565b600385016000526020600020908382015b81830181106113b057505061127a565b600081556001016113a0565b60019060208451940193818401550161123d565b600285016000526020600020908382015b81830181106113f157505061122a565b600081556001016113e1565b6001906020845194019381840155016111ed565b600185016000526020600020908382015b81830181106114325750506111da565b60008155600101611422565b60019060208451940193818401550161119d565b846000526020600020908382015b818301811061147057505061118d565b60008155600101611460565b506019546001600160a01b03163314611148565b506018546001600160a01b03163314611141565b506014546001600160a01b0316331461113a565b506013546001600160a01b03163314611133565b506012546001600160a01b0316331461112c565b506011546001600160a01b03163314611125565b506010546001600160a01b0316331461111e565b3461040d5761151636614bd8565b90604051908181519160005b838110611557575050602091810160328152030190209060018060a01b03166000526020526020604060002054604051908152f35b60208282018101518683015285935001611522565b3461040d57604036600319011261040d5761158561499f565b303314801561165c575b8015611648575b8015611634575b8015611620575b801561160c575b80156115f8575b80156115e4575b6115c290614d4f565b60018060a01b03166000526030602052604060002061048f6024358254614d93565b506019546001600160a01b031633146115b9565b506018546001600160a01b031633146115b2565b506014546001600160a01b031633146115ab565b506013546001600160a01b031633146115a4565b506012546001600160a01b0316331461159d565b506011546001600160a01b03163314611596565b506010546001600160a01b0316331461158f565b3461040d57600036600319011261040d573033148015611746575b8015611732575b801561171e575b801561170a575b80156116f6575b80156116e2575b80156116ce575b6116be90614d4f565b6116c96021546150b8565b602155005b506019546001600160a01b031633146116b5565b506018546001600160a01b031633146116ae565b506014546001600160a01b031633146116a7565b506013546001600160a01b031633146116a0565b506012546001600160a01b03163314611699565b506011546001600160a01b03163314611692565b506010546001600160a01b0316331461168b565b3461040d573660031901610560811261040d576103801361040d5760405161178181614ac9565b600435815260243560208083019190915260443560408301526001600160a01b0390606435828116810361040d576060840152608435608084015260a43560a084015260c43560c084015260e43560e08401526101043591808316830361040d57610100928385015261012061012435818601526101406101443581870152610164359560ff8716870361040d57610160968782015261018061018435818301526101a06101a435818401526101c06101c435818501526101e4356101e085015261020435610200850152610224356102208501526102443561024085015261026435610260850152610284356102808501526102a4356102a08501526102c4356102c08501526102e4356102e08501526103043561030085015261032435878116810361040d5761032085015261034435801515810361040d57610340850152610364356103608501523661038319011261040d57604051916118e483614ae5565b61038435878116810361040d5783526103a43599878b168b0361040d578884019a8b526103c43560408501526103e435888116810361040d576060850152608084019661040435885260a085019a610424358c526104443560c087015261046435801515810361040d5760e087015261048435908601528401956104a43587526104c43590898216820361040d578501526104e43590888216820361040d578401526105043590878216820361040d57830152610524359082015261054435923033148015611bf5575b8015611be8575b8015611bdb575b8015611bce575b8015611bc1575b8015611bb4575b8015611ba7575b6119e190614d4f565b51600281148015611b9d575b15611ae2575084815116611a71575b5083875116611a0757005b603095670de0b6b3a7640000611a2e611a5a95611a26611a379561525f565b905190615034565b04905190615034565b908387511660005260318552604060002090600052845260406000205490614d93565b9351166000525261048f6040600020918254614c5c565b84611ac0611a9e670de0b6b3a7640000611a95611a8d8761525f565b895190615034565b048a5190615034565b8284511660005260318952604060002086600052895260406000205490614d93565b91511660005260308652611ada6040600020918254614c5c565b9055876119fc565b92965092505060038114908115611b92575b8115611b87575b50611b0257005b8181511680611b4b575b50508084511692831561097c576030936000526031835260406000209060005282526040600020549351166000525261048f6040600020918254614d93565b6000526031835260406000208460005283528160406000205491511660005260308352611b7e6040600020918254614d93565b90558480611b0c565b600491501486611afb565b600481149150611af4565b50600181146119ed565b50601954861633146119d8565b50856018541633146119d1565b50856014541633146119ca565b50856013541633146119c3565b50856012541633146119bc565b50856011541633146119b5565b50856010541633146119ae565b3461040d57604036600319011261040d5760a0611c1d6149b5565b60405190611c2a82614a92565b600082526000608060209382858201528260408201528260608201520152600435600052818052604060002090600180851b03166000528152604060002060405190611c7582614a92565b80549283835260018201549080840191825260028301549160408501928352608060ff6004600387015496606089019788520154169501941515855260405195865251908501525160408401525160608301525115156080820152f35b3461040d576020611ce236614c69565b9390923033148015611dc7575b8015611db3575b8015611d9f575b8015611d8b575b8015611d77575b8015611d63575b8015611d4f575b611d2290614d4f565b826040519384928337810160338152030190209060018060a01b0316600052602052604060002055600080f35b506019546001600160a01b03163314611d19565b506018546001600160a01b03163314611d12565b506014546001600160a01b03163314611d0b565b506013546001600160a01b03163314611d04565b506012546001600160a01b03163314611cfd565b506011546001600160a01b03163314611cf6565b506010546001600160a01b03163314611cef565b3461040d57604036600319011261040d57611df461499f565b3033148015611ec7575b8015611eb3575b8015611e9f575b8015611e8b575b8015611e77575b8015611e63575b8015611e4f575b611e3190614d4f565b6001600160a01b03166000908152602a602052604090206024359055005b506019546001600160a01b03163314611e28565b506018546001600160a01b03163314611e21565b506014546001600160a01b03163314611e1a565b506013546001600160a01b03163314611e13565b506012546001600160a01b03163314611e0c565b506011546001600160a01b03163314611e05565b506010546001600160a01b03163314611dfe565b3461040d57604036600319011261040d57611ef461499f565b3033148015611fcb575b8015611fb7575b8015611fa3575b8015611f8f575b8015611f7b575b8015611f67575b8015611f53575b611f3190614d4f565b60018060a01b03166000526029602052604060002061048f6024358254614d93565b506019546001600160a01b03163314611f28565b506018546001600160a01b03163314611f21565b506014546001600160a01b03163314611f1a565b506013546001600160a01b03163314611f13565b506012546001600160a01b03163314611f0c565b506011546001600160a01b03163314611f05565b506010546001600160a01b03163314611efe565b3461040d57604036600319011261040d57611ff861499f565b30331480156120cb575b80156120b7575b80156120a3575b801561208f575b801561207b575b8015612067575b8015612053575b61203590614d4f565b6001600160a01b031660009081526025602052604090206024359055005b506019546001600160a01b0316331461202c565b506018546001600160a01b03163314612025565b506014546001600160a01b0316331461201e565b506013546001600160a01b03163314612017565b506012546001600160a01b03163314612010565b506011546001600160a01b03163314612009565b506010546001600160a01b03163314612002565b3461040d576103a036600319011261040d5761038036602319011261040d5760405161210a81614ac9565b6024358152604435602082015260643560408201526084356001600160a01b038116810361040d57606082015260a435608082015260c43560a082015260e43560c08201526101043560e0820152610124356001600160a01b038116810361040d5761010082015261014435610120820152610164356101408201526101843560ff8116810361040d576101608201526101a4356101808201526101c4356101a08201526101e4356101c0820152610204356101e0820152610224356102008201526102443561022082015261026435610240820152610284356102608201526102a4356102808201526102c4356102a08201526102e4356102c0820152610304356102e082015261032435610300820152610344356001600160a01b038116900361040d5761034435610320820152610364351515610364350361040d57610364356103408201526103843561036082015230331480156124a7575b8015612493575b801561247f575b801561246b575b8015612457575b8015612443575b801561242f575b61229a90614d4f565b600435600052601c602052601a6103606040600020928051845560208101516001850155604081015160028501556003840160018060a01b03606083015116906001600160601b0360a01b91828254161790556080820151600486015560a0820151600586015560c0820151600686015560e08201516007860155600885019060018060a01b0361010084015116908254161790556101208101516009850155610140810151600a850155600b840160ff6101608301511660ff19825416179055610180810151600c8501556101a0810151600d8501556101c0810151600e8501556101e0810151600f850155610200810151601085015561022081015160118501556102408101516012850155610260810151601385015561028081015160148501556102a081015160158501556102c081015160168501556102e0810151601785015561030081015160188501556019840160018060a01b036103208301511681549060ff60a01b610340850151151560a01b16916affffffffffffffffffffff60a81b16171790550151910155600080f35b506019546001600160a01b03163314612291565b506018546001600160a01b0316331461228a565b506014546001600160a01b03163314612283565b506013546001600160a01b0316331461227c565b506012546001600160a01b03163314612275565b506011546001600160a01b0316331461226e565b506010546001600160a01b03163314612267565b3461040d57600036600319011261040d576020600054604051908152f35b3461040d57600036600319011261040d57604060015460ff6002541682519182526020820152f35b3461040d57602036600319011261040d5760206001600160a01b038061252561499f565b16600052602e825260406000205416604051908152f35b3461040d57604036600319011261040d5761255561499f565b303314801561262c575b8015612618575b8015612604575b80156125f0575b80156125dc575b80156125c8575b80156125b4575b61259290614d4f565b60018060a01b0316600052601a602052604060002061048f6024358254614d93565b506019546001600160a01b03163314612589565b506018546001600160a01b03163314612582565b506014546001600160a01b0316331461257b565b506013546001600160a01b03163314612574565b506012546001600160a01b0316331461256d565b506011546001600160a01b03163314612566565b506010546001600160a01b0316331461255f565b3461040d57602061265036614c69565b9390923033148015612735575b8015612721575b801561270d575b80156126f9575b80156126e5575b80156126d1575b80156126bd575b61269090614d4f565b826040519384928337810160328152030190209060018060a01b0316600052602052604060002055600080f35b506019546001600160a01b03163314612687565b506018546001600160a01b03163314612680565b506014546001600160a01b03163314612679565b506013546001600160a01b03163314612672565b506012546001600160a01b0316331461266b565b506011546001600160a01b03163314612664565b506010546001600160a01b0316331461265d565b3461040d57604036600319011261040d5761276261499f565b61276a6149b5565b9060018060a01b038091166000526024602052604060002091166000526020526020604060002054604051908152f35b3461040d576127a836614a0d565b913033148015612888575b8015612874575b8015612860575b801561284c575b8015612838575b8015612824575b8015612810575b6127e690614d4f565b60018060a01b03809116600052602460205260406000209116600052602052604060002055600080f35b506019546001600160a01b031633146127dd565b506018546001600160a01b031633146127d6565b506014546001600160a01b031633146127cf565b506013546001600160a01b031633146127c8565b506012546001600160a01b031633146127c1565b506011546001600160a01b031633146127ba565b506010546001600160a01b031633146127b3565b3461040d57602036600319011261040d5760006101a06040516128be81614ae5565b8281528260208201528260408201528260608201528260808201528260a08201528260c08201528260e082015282610100820152826101208201528261014082015282610160820152826101808201520152600435600052601e6020526101c060406000206101a060405161293281614ae5565b600d60018060a01b038454169384835260018060a01b0360018201541660208401526002810154604084015260018060a01b03600382015416606084015260048101546080840152600581015460a0840152600681015460c084015260ff600782015416151560e08401526008810154610100840152600981015461012084015260018060a01b03600a8201541661014084015260018060a01b03600b8201541661016084015260018060a01b03600c8201541661018084015201548282015260405192835260018060a01b0360208201511660208401526040810151604084015260018060a01b0360608201511660608401526080810151608084015260a081015160a084015260c081015160c084015260e0810151151560e084015261010081015161010084015261012081015161012084015260018060a01b036101408201511661014084015260018060a01b036101608201511661016084015260018060a01b036101808201511661018084015201516101a0820152f35b3461040d57602036600319011261040d5733600052602b602052600435604060002055600080f35b3461040d57600036600319011261040d576020601d54604051908152f35b3461040d57600036600319011261040d57600d546040516001600160a01b039091168152602090f35b3461040d57602036600319011261040d576001600160a01b03612b3e61499f565b166000526023602052604060002061048f81546150b8565b3461040d57600036600319011261040d5760206040516fa2a8918ca85bafe22016d0b997e4df5f600160ff1b038152f35b3461040d57604036600319011261040d57612ba061499f565b3033148015612c77575b8015612c63575b8015612c4f575b8015612c3b575b8015612c27575b8015612c13575b8015612bff575b612bdd90614d4f565b60018060a01b03166000526030602052604060002061048f6024358254614c5c565b506019546001600160a01b03163314612bd4565b506018546001600160a01b03163314612bcd565b506014546001600160a01b03163314612bc6565b506013546001600160a01b03163314612bbf565b506012546001600160a01b03163314612bb8565b506011546001600160a01b03163314612bb1565b506010546001600160a01b03163314612baa565b3461040d576020612c9b36614b96565b929091826040519384928337810160338152030190209060018060a01b03166000526020526020604060002054604051908152f35b3461040d57602036600319011261040d576001600160a01b03612cf161499f565b1660005260266020526020604060002054604051908152f35b3461040d57600036600319011261040d576020601b54604051908152f35b3461040d57604036600319011261040d57612d4161499f565b3033148015612e18575b8015612e04575b8015612df0575b8015612ddc575b8015612dc8575b8015612db4575b8015612da0575b612d7e90614d4f565b60018060a01b0316600052602f602052604060002061048f6024358254614c5c565b506019546001600160a01b03163314612d75565b506018546001600160a01b03163314612d6e565b506014546001600160a01b03163314612d67565b506013546001600160a01b03163314612d60565b506012546001600160a01b03163314612d59565b506011546001600160a01b03163314612d52565b506010546001600160a01b03163314612d4b565b3461040d57602036600319011261040d5761097c6fa2a8918ca85bafe22016d0b997e4df5f600160ff1b036004351061527c565b3461040d5760e036600319011261040d576001600160401b0360043581811161040d57612e91903690600401614b69565b91606036604319011261040d576040516060810181811083821117611365576040526044358152612ec06149e1565b6020820152612ecd6149f7565b6040820152604060a31936011261040d57604051916040830190838210908211176113655760405260a435825260c4359260ff8416840361040d576020946104039486850152602435916151c3565b3461040d57602036600319011261040d576000610360604051612f3e81614ac9565b8281528260208201528260408201528260608201528260808201528260a08201528260c08201528260e08201528261010082015282610120820152826101408201528261016082015282610180820152826101a0820152826101c0820152826101e08201528261020082015282610220820152826102408201528261026082015282610280820152826102a0820152826102c0820152826102e08201528261030082015282610320820152826103408201520152600435600052601c602052610380604060002061036060405161301481614ac9565b601a835493848352600181015460208401526002810154604084015260018060a01b03600382015416606084015260048101546080840152600581015460a0840152600681015460c0840152600781015460e084015260018060a01b036008820154166101008401526009810154610120840152600a81015461014084015260ff600b82015416610160840152600c810154610180840152600d8101546101a0840152600e8101546101c0840152600f8101546101e08401526010810154610200840152601181015461022084015260128101546102408401526013810154610260840152601481015461028084015260158101546102a084015260168101546102c084015260178101546102e0840152601881015461030084015260ff601982015460018060a01b03811661032086015260a01c161515610340840152015482820152604051928352602081015160208401526040810151604084015260018060a01b0360608201511660608401526080810151608084015260a081015160a084015260c081015160c084015260e081015160e084015260018060a01b036101008201511661010084015261012081015161012084015261014081015161014084015260ff610160820151166101608401526101808101516101808401526101a08101516101a08401526101c08101516101c08401526101e08101516101e08401526102008101516102008401526102208101516102208401526102408101516102408401526102608101516102608401526102808101516102808401526102a08101516102a08401526102c08101516102c08401526102e08101516102e084015261030081015161030084015260018060a01b036103208201511661032084015261034081015115156103408401520151610360820152f35b3461040d57602036600319011261040d5733600052602c602052600435604060002055600080f35b3461040d576132e536614bd8565b90604051908181519160005b838110613326575050602091810160338152030190209060018060a01b03166000526020526020604060002054604051908152f35b602082820181015186830152859350016132f1565b3461040d57600036600319011261040d576020600954604051908152f35b3461040d57604036600319011261040d5761337261499f565b3033148015613445575b8015613431575b801561341d575b8015613409575b80156133f5575b80156133e1575b80156133cd575b6133af90614d4f565b6001600160a01b031660009081526026602052604090206024359055005b506019546001600160a01b031633146133a6565b506018546001600160a01b0316331461339f565b506014546001600160a01b03163314613398565b506013546001600160a01b03163314613391565b506012546001600160a01b0316331461338a565b506011546001600160a01b03163314613383565b506010546001600160a01b0316331461337c565b3461040d57604036600319011261040d5761347261499f565b303314801561354b575b8015613537575b8015613523575b801561350f575b80156134fb575b80156134e7575b80156134d3575b6134af90614d4f565b6001600160a01b03166000908152602d60205260409020805461040d576024359055005b506019546001600160a01b031633146134a6565b506018546001600160a01b0316331461349f565b506014546001600160a01b03163314613498565b506013546001600160a01b03163314613491565b506012546001600160a01b0316331461348a565b506011546001600160a01b03163314613483565b506010546001600160a01b0316331461347c565b3461040d57602036600319011261040d576001600160a01b0361358061499f565b16600052602a6020526020604060002054604051908152f35b3461040d57608036600319011261040d576004356136556135b86149b5565b916135c16149cb565b6135c96149e1565b906135d660045484615034565b60018060a01b03809616600052601a6020526135f86040600020918254614c5c565b90558461360760055485615034565b9116600052601a6020526136216040600020918254614c5c565b90558361363060065484615034565b9116600052601a60205261364a6040600020918254614c5c565b905560075490615034565b90600d5416600052601a60205261048f6040600020918254614c5c565b3461040d57602036600319011261040d576001600160a01b0361369361499f565b1660005260256020526020604060002054604051908152f35b3461040d57602036600319011261040d576001600160a01b036136cd61499f565b16600052602d6020526020604060002054604051908152f35b3461040d57604036600319011261040d576136ff61499f565b30331480156137d2575b80156137be575b80156137aa575b8015613796575b8015613782575b801561376e575b801561375a575b61373c90614d4f565b6001600160a01b031660009081526030602052604090206024359055005b506019546001600160a01b03163314613733565b506018546001600160a01b0316331461372c565b506014546001600160a01b03163314613725565b506013546001600160a01b0316331461371e565b506012546001600160a01b03163314613717565b506011546001600160a01b03163314613710565b506010546001600160a01b03163314613709565b3461040d57600036600319011261040d576020600c54604051908152f35b3461040d57604036600319011261040d5761381d61499f565b30331480156138f4575b80156138e0575b80156138cc575b80156138b8575b80156138a4575b8015613890575b801561387c575b61385a90614d4f565b60018060a01b0316600052602f602052604060002061048f6024358254614d93565b506019546001600160a01b03163314613851565b506018546001600160a01b0316331461384a565b506014546001600160a01b03163314613843565b506013546001600160a01b0316331461383c565b506012546001600160a01b03163314613835565b506011546001600160a01b0316331461382e565b506010546001600160a01b03163314613827565b3461040d57600036600319011261040d576020600854604051908152f35b3461040d57604036600319011261040d5761393f61499f565b3033148015613a16575b8015613a02575b80156139ee575b80156139da575b80156139c6575b80156139b2575b801561399e575b61397c90614d4f565b60018060a01b03166000526025602052604060002061048f6024358254614d93565b506019546001600160a01b03163314613973565b506018546001600160a01b0316331461396c565b506014546001600160a01b03163314613965565b506013546001600160a01b0316331461395e565b506012546001600160a01b03163314613957565b506011546001600160a01b03163314613950565b506010546001600160a01b03163314613949565b3461040d576020613a3a36614b96565b929091826040519384928337810160328152030190209060018060a01b03166000526020526020604060002054604051908152f35b3461040d57600036600319011261040d576020600b54604051908152f35b3461040d57602036600319011261040d576001600160a01b03613aae61499f565b1660005260286020526020604060002054604051908152f35b3461040d57602036600319011261040d57600060e0604051613ae881614aad565b8281528260208201528260408201528260608201528260808201528260a08201528260c08201520152600435600052601f6020526101006040600020604051613b3081614aad565b60018060a01b039182815416928383526001820154602084019081528160028401546040860160ff821615158152606087019060ff8360081c161515825283608089019360101c168352836003880154169460a0890195865260e0600560048a01549960c08c019a8b5201549901988952604051998a525160208a01525115156040890152511515606088015251166080860152511660a08401525160c08301525160e0820152f35b3461040d57600036600319011261040d57610180600354600454600554600654600754600854600954600a5491600b5493600c549560018060a01b039788600d541698600e5416996040519b8c5260208c015260408b015260608a0152608089015260a088015260c087015260e0860152610100850152610120840152610140830152610160820152f35b3461040d57604036600319011261040d57613c7d61499f565b3033148015613d54575b8015613d40575b8015613d2c575b8015613d18575b8015613d04575b8015613cf0575b8015613cdc575b613cba90614d4f565b60018060a01b0316600052601a602052604060002061048f6024358254614c5c565b506019546001600160a01b03163314613cb1565b506018546001600160a01b03163314613caa565b506014546001600160a01b03163314613ca3565b506013546001600160a01b03163314613c9c565b506012546001600160a01b03163314613c95565b506011546001600160a01b03163314613c8e565b506010546001600160a01b03163314613c87565b3461040d57600036600319011261040d576020600354604051908152f35b3461040d5760e036600319011261040d57613d9f6149b5565b60a036604319011261040d57604051613db781614a92565b6044358152602081019160643583526040820160843581526060830160a435815260c43591821515830361040d5761097c95600494608087019485523033148015613ef6575b8015613ee2575b8015613ece575b8015613eba575b8015613ea6575b8015613e92575b8015613e7e575b613e3090614d4f565b85356000526020805260406000209060018060a01b031660005260205260406000209551865551600186015551600285015551600384015551151591019060ff801983541691151516179055565b506019546001600160a01b03163314613e27565b506018546001600160a01b03163314613e20565b506014546001600160a01b03163314613e19565b506013546001600160a01b03163314613e12565b506012546001600160a01b03163314613e0b565b506011546001600160a01b03163314613e04565b506010546001600160a01b03163314613dfd565b3461040d57604036600319011261040d57613f2361499f565b3033148015613ffa575b8015613fe6575b8015613fd2575b8015613fbe575b8015613faa575b8015613f96575b8015613f82575b613f6090614d4f565b60018060a01b03166000526026602052604060002061048f6024358254614d93565b506019546001600160a01b03163314613f57565b506018546001600160a01b03163314613f50565b506014546001600160a01b03163314613f49565b506013546001600160a01b03163314613f42565b506012546001600160a01b03163314613f3b565b506011546001600160a01b03163314613f34565b506010546001600160a01b03163314613f2d565b3461040d57602036600319011261040d576001600160a01b0361402f61499f565b1660005260236020526020604060002054604051908152f35b3461040d57602036600319011261040d576001600160a01b0361406961499f565b1660005260306020526020604060002054604051908152f35b3461040d57604036600319011261040d5761409b61499f565b6140a36149b5565b90303314801561418a575b8015614176575b8015614162575b801561414e575b801561413a575b8015614126575b8015614112575b6140e190614d4f565b6001600160a01b039081166000908152602e6020526040902080546001600160a01b03191692909116919091179055005b506019546001600160a01b031633146140d8565b506018546001600160a01b031633146140d1565b506014546001600160a01b031633146140ca565b506013546001600160a01b031633146140c3565b506012546001600160a01b031633146140bc565b506011546001600160a01b031633146140b5565b506010546001600160a01b031633146140ae565b614b40565b3461040d57600036600319011261040d573033148015614279575b8015614265575b8015614251575b801561423d575b8015614229575b8015614215575b8015614201575b6141f190614d4f565b6141fc601b546150b8565b601b55005b506019546001600160a01b031633146141e8565b506018546001600160a01b031633146141e1565b506014546001600160a01b031633146141da565b506013546001600160a01b031633146141d3565b506012546001600160a01b031633146141cc565b506011546001600160a01b031633146141c5565b506010546001600160a01b031633146141be565b3461040d57600036600319011261040d573033148015614363575b801561434f575b801561433b575b8015614327575b8015614313575b80156142ff575b80156142eb575b6142db90614d4f565b6142e6601d546150b8565b601d55005b506019546001600160a01b031633146142d2565b506018546001600160a01b031633146142cb565b506014546001600160a01b031633146142c4565b506013546001600160a01b031633146142bd565b506012546001600160a01b031633146142b6565b506011546001600160a01b031633146142af565b506010546001600160a01b031633146142a8565b3461040d576101e036600319011261040d576101c036602319011261040d576040516143a281614ae5565b6024356001600160a01b038116810361040d5781526044356001600160a01b038116810361040d57602082015260643560408201526084356001600160a01b038116810361040d57606082015260a435608082015260c43560a082015260e43560c082015261010435801515810361040d5760e08201526101243561010082015261014435610120820152610164356001600160a01b038116810361040d57610140820152610184356001600160a01b038116810361040d576101608201526101a4356001600160a01b038116900361040d576101a4356101808201526101c4356101a0820152303314801561466b575b8015614657575b8015614643575b801561462f575b801561461b575b8015614607575b80156145f3575b6144c690614d4f565b600435600052601e602052600d6101a060406000209260018060a01b038151166001600160601b0360a01b8554161784556001840160018060a01b036020830151166001600160601b0360a01b825416179055604081015160028501556003840160018060a01b036060830151166001600160601b0360a01b8254161790556080810151600485015560a0810151600585015560c0810151600685015561458260e08201511515600786019060ff801983541691151516179055565b61010081015160088501556101208101516009850155610140810151600a850180546001600160a01b039283166001600160a01b031991821617909155610160830151600b87018054918416918316919091179055610180830151600c870180549190931691161790550151910155005b506019546001600160a01b031633146144bd565b506018546001600160a01b031633146144b6565b506014546001600160a01b031633146144af565b506013546001600160a01b031633146144a8565b506012546001600160a01b031633146144a1565b506011546001600160a01b0316331461449a565b506010546001600160a01b03163314614493565b3461040d57602036600319011261040d576001600160a01b036146a061499f565b1660005260296020526020604060002054604051908152f35b3461040d57602036600319011261040d5760006101006040516146db81614a76565b606081526060602082015260606040820152606080820152606060808201528260a08201528260c08201528260e082015201526004356000526022602052604060002060086040519161472d83614a76565b61473681615067565b835261474460018201615067565b602084015261475560028201615067565b604084015261476660038201615067565b606084015261477760048201615067565b608084015260018060a01b0360058201541660a0840152600681015460c0840152600781015460e0840152015461010082015260405180916020825280516101006148326147d361012093846020880152610140870190614a42565b61481d6148096147f5602088015193601f1994858b83030160408c0152614a42565b6040880151848a83030160608b0152614a42565b6060870151838983030160808a0152614a42565b906080860151908783030160a0880152614a42565b9260018060a01b0360a08201511660c086015260c081015160e086015260e0810151828601520151908301520390f35b3461040d5761487036614a0d565b913033148015614955575b8015614941575b801561492d575b8015614919575b8015614905575b80156148f1575b80156148dd575b6148ae90614d4f565b60018060a01b0380911660005260246020526040600020911660005260205261048f6040600020918254614c5c565b506019546001600160a01b031633146148a5565b506018546001600160a01b0316331461489e565b506014546001600160a01b03163314614897565b506013546001600160a01b03163314614890565b506012546001600160a01b03163314614889565b506011546001600160a01b03163314614882565b506010546001600160a01b0316331461487b565b3461040d57602036600319011261040d576020906001600160a01b0361498d61499f565b16600052602f82526040600020548152f35b600435906001600160a01b038216820361040d57565b602435906001600160a01b038216820361040d57565b604435906001600160a01b038216820361040d57565b606435906001600160a01b038216820361040d57565b608435906001600160a01b038216820361040d57565b606090600319011261040d576001600160a01b0390600435828116810361040d5791602435908116810361040d579060443590565b90815180825260208080930193019160005b828110614a62575050505090565b835185529381019392810192600101614a54565b61012081019081106001600160401b0382111761136557604052565b60a081019081106001600160401b0382111761136557604052565b61010081019081106001600160401b0382111761136557604052565b61038081019081106001600160401b0382111761136557604052565b6101c081019081106001600160401b0382111761136557604052565b90601f801991011681019081106001600160401b0382111761136557604052565b60643590811515820361040d57565b60843590811515820361040d57565b3461040d57600036600319011261040d57600f546040516001600160a01b039091168152602090f35b9181601f8401121561040d578235916001600160401b03831161040d576020838186019501011161040d57565b604060031982011261040d57600435906001600160401b03821161040d57614bc091600401614b69565b90916024356001600160a01b038116810361040d5790565b604060031982011261040d576001600160401b0360043581811161040d578260238201121561040d5780600401359182116113655760405192614c25601f8401601f191660200185614b01565b8284526024838301011161040d57816000926024602093018386013783010152906024356001600160a01b038116810361040d5790565b919082018092116108c357565b606060031982011261040d57600435906001600160401b03821161040d57614c9391600401614b69565b90916024356001600160a01b038116810361040d579060443590565b3461040d57602036600319011261040d576001600160a01b03614cd061499f565b16600052601a6020526020604060002054604051908152f35b9080601f8301121561040d578135906001600160401b038211611365578160051b60405193602093614d1d85840187614b01565b8552838086019282010192831161040d578301905b828210614d40575050505090565b81358152908301908301614d32565b15614d5657565b60405162461bcd60e51b815260206004820152601560248201527410d85b1b195c881b9bdd08185d5d1a1bdc9a5e9959605a1b6044820152606490fd5b919082039182116108c357565b92909115614dd95750614db38183614e64565b9060018060a01b0316600052601a602052614dd46040600020918254614c5c565b905590565b6001600160a01b039091166000818152601a602052604090208054919391808310614e5557505050614e1b57600052601a602052604060002060008154915590565b60405162461bcd60e51b81526020600482015260126024820152714e6f7420656e6f7567682062616c616e636560701b6044820152606490fd5b829450614dd492919350614d93565b60009133835260206027815260409384812054428103614f15575b506001600160a01b03909216808352602582528483205490937fc92893341acd93f991b534dda4ab5ff9a2ef4eaa9bf1c1b7a35d32d70a75f18a93918690828110614ee757505084825260268352614edb868320918254614c5c565b9055935b51848152a290565b92614f0f9360268652614efe838320918254614c5c565b905586815260258552205490614d93565b93614edf565b614f1f9042614d93565b923382526025835285822054865194632762fe1b60e11b86526702c68af0bb14000060048701526024860152670de0b6b3a764000060448601526064850152828460848173__$04afeda1751f1fab6ddfb73e5b53963b72$__5af4801561502a578290614fd3575b7fc92893341acd93f991b534dda4ab5ff9a2ef4eaa9bf1c1b7a35d32d70a75f18a945033835260258452614fbf878420918254614c5c565b905533825260278352428683205592614e7f565b509091928381813d8311615023575b614fec8183614b01565b8101031261501f57907fc92893341acd93f991b534dda4ab5ff9a2ef4eaa9bf1c1b7a35d32d70a75f18a93929151614f87565b8280fd5b503d614fe2565b86513d84823e3d90fd5b818102929181159184041417156108c357565b8115615051570490565b634e487b7160e01b600052601260045260246000fd5b9060405191828154918282526020928383019160005283600020936000905b82821061509e5750505061509c92500383614b01565b565b855484526001958601958895509381019390910190615086565b60001981146108c35760010190565b30331480156151af575b801561519b575b8015615187575b8015615173575b801561515f575b801561514b575b8015615137575b61510490614d4f565b60018060a01b038091166000526024602052604060002091166000526020526151336040600020918254614d93565b9055565b506019546001600160a01b031633146150fb565b506018546001600160a01b031633146150f4565b506014546001600160a01b031633146150ed565b506013546001600160a01b031633146150e6565b506012546001600160a01b031633146150df565b506011546001600160a01b031633146150d8565b506010546001600160a01b031633146150d1565b909293916151ee90835190602085019660ff885116815191604060018060a01b0391015116936152c1565b15615256578260ff7f77e158c4de5b89cd65592962239c3cc6136696032ecc462ad1b04af14e8df53b956080946040519687956060875281606088015287870137600085850187015251602085015251166040830152601f01601f19168101030190a1600190565b50505050600090565b9060009160016102e0820151146152735750565b6101e001519150565b1561528357565b60405162461bcd60e51b81526020600482015260166024820152755075626c69632d6b65792078203e3d2048414c465f5160501b6044820152606490fd5b91906152e46fa2a8918ca85bafe22016d0b997e4df5f600160ff1b03841061527c565b70014551231950b75fc4402da1732fc9bebe199485831015615426576001600160a01b03818116969095908715158061541d575b80615414575b8061540b575b156153cd576040519160208301936001600160601b03199060601b16845260348301526034825260608201928284106001600160401b0385111761136557819084604052835190209587098103908082116108c35760209660009660ff60c0948160809916158a146153c557601b905b885216878601528160a08601520991015282805260015afa156153b957600051161490565b6040513d6000823e3d90fd5b601c90615394565b60405162461bcd60e51b81526020600482015260166024820152751b9bc81e995c9bc81a5b9c1d5d1cc8185b1b1bddd95960521b6044820152606490fd5b50811515615324565b5084151561531e565b50851515615318565b60405162461bcd60e51b815260206004820152602260248201527f7369676e6174757265206d7573742062652072656475636564206d6f64756c6f604482015261205160f01b6064820152608490fdfea2646970667358221220609ec7548be116d57d85d4dcdb8cbf87522ed26978e933da6d641b9c9e5c53a464736f6c63430008140033",
  "linkReferences": {
    "contracts/Libs/PionerV1Utils.sol": {
      "PionerV1Utils": [
        {
          "length": 20,
          "start": 20353
        }
      ]
    }
  },
  "deployedLinkReferences": {
    "contracts/Libs/PionerV1Utils.sol": {
      "PionerV1Utils": [
        {
          "length": 20,
          "start": 20325
        }
      ]
    }
  }
}